{
	"contracts/OnChainTicket.sol": {
		"OnchainTicket": {
			"abi": [
				{
					"inputs": [],
					"stateMutability": "nonpayable",
					"type": "constructor"
				},
				{
					"inputs": [
						{
							"internalType": "address",
							"name": "owner",
							"type": "address"
						}
					],
					"name": "OwnableInvalidOwner",
					"type": "error"
				},
				{
					"inputs": [
						{
							"internalType": "address",
							"name": "account",
							"type": "address"
						}
					],
					"name": "OwnableUnauthorizedAccount",
					"type": "error"
				},
				{
					"anonymous": false,
					"inputs": [
						{
							"indexed": true,
							"internalType": "address",
							"name": "previousOwner",
							"type": "address"
						},
						{
							"indexed": true,
							"internalType": "address",
							"name": "newOwner",
							"type": "address"
						}
					],
					"name": "OwnershipTransferred",
					"type": "event"
				},
				{
					"inputs": [
						{
							"internalType": "string",
							"name": "_projectName",
							"type": "string"
						},
						{
							"internalType": "string",
							"name": "_description",
							"type": "string"
						}
					],
					"name": "addNewIntegration",
					"outputs": [],
					"stateMutability": "nonpayable",
					"type": "function"
				},
				{
					"inputs": [
						{
							"internalType": "string",
							"name": "_issueTitle",
							"type": "string"
						},
						{
							"internalType": "string",
							"name": "_issueDescription",
							"type": "string"
						}
					],
					"name": "addNewIssue",
					"outputs": [],
					"stateMutability": "nonpayable",
					"type": "function"
				},
				{
					"inputs": [
						{
							"internalType": "uint128",
							"name": "",
							"type": "uint128"
						}
					],
					"name": "getIntegrationStatusFromID",
					"outputs": [
						{
							"internalType": "uint8",
							"name": "",
							"type": "uint8"
						}
					],
					"stateMutability": "view",
					"type": "function"
				},
				{
					"inputs": [
						{
							"internalType": "uint128",
							"name": "",
							"type": "uint128"
						}
					],
					"name": "getIssueStatusFromID",
					"outputs": [
						{
							"internalType": "uint8",
							"name": "",
							"type": "uint8"
						}
					],
					"stateMutability": "view",
					"type": "function"
				},
				{
					"inputs": [
						{
							"internalType": "uint128",
							"name": "",
							"type": "uint128"
						}
					],
					"name": "getIssueTitleFromID",
					"outputs": [
						{
							"internalType": "string",
							"name": "",
							"type": "string"
						}
					],
					"stateMutability": "view",
					"type": "function"
				},
				{
					"inputs": [
						{
							"internalType": "uint128",
							"name": "",
							"type": "uint128"
						}
					],
					"name": "getProjectFromID",
					"outputs": [
						{
							"internalType": "string",
							"name": "",
							"type": "string"
						}
					],
					"stateMutability": "view",
					"type": "function"
				},
				{
					"inputs": [],
					"name": "integrationIndex",
					"outputs": [
						{
							"internalType": "uint128",
							"name": "",
							"type": "uint128"
						}
					],
					"stateMutability": "view",
					"type": "function"
				},
				{
					"inputs": [],
					"name": "issueIndex",
					"outputs": [
						{
							"internalType": "uint128",
							"name": "",
							"type": "uint128"
						}
					],
					"stateMutability": "view",
					"type": "function"
				},
				{
					"inputs": [
						{
							"internalType": "uint256",
							"name": "",
							"type": "uint256"
						}
					],
					"name": "listOfIntegrations",
					"outputs": [
						{
							"internalType": "string",
							"name": "uniqueIDString",
							"type": "string"
						},
						{
							"internalType": "string",
							"name": "title",
							"type": "string"
						},
						{
							"internalType": "string",
							"name": "description",
							"type": "string"
						},
						{
							"internalType": "uint8",
							"name": "status",
							"type": "uint8"
						},
						{
							"internalType": "uint16",
							"name": "voteCount",
							"type": "uint16"
						}
					],
					"stateMutability": "view",
					"type": "function"
				},
				{
					"inputs": [
						{
							"internalType": "uint256",
							"name": "",
							"type": "uint256"
						}
					],
					"name": "listOfIssues",
					"outputs": [
						{
							"internalType": "string",
							"name": "uniqueIDString",
							"type": "string"
						},
						{
							"internalType": "string",
							"name": "title",
							"type": "string"
						},
						{
							"internalType": "string",
							"name": "description",
							"type": "string"
						},
						{
							"internalType": "uint8",
							"name": "status",
							"type": "uint8"
						},
						{
							"internalType": "uint16",
							"name": "voteCount",
							"type": "uint16"
						}
					],
					"stateMutability": "view",
					"type": "function"
				},
				{
					"inputs": [],
					"name": "owner",
					"outputs": [
						{
							"internalType": "address",
							"name": "",
							"type": "address"
						}
					],
					"stateMutability": "view",
					"type": "function"
				},
				{
					"inputs": [
						{
							"internalType": "uint8",
							"name": "_integrationIndex",
							"type": "uint8"
						}
					],
					"name": "removeIntegration",
					"outputs": [],
					"stateMutability": "nonpayable",
					"type": "function"
				},
				{
					"inputs": [
						{
							"internalType": "uint8",
							"name": "_problemReportIndex",
							"type": "uint8"
						}
					],
					"name": "removeProblemReport",
					"outputs": [],
					"stateMutability": "nonpayable",
					"type": "function"
				},
				{
					"inputs": [],
					"name": "renounceOwnership",
					"outputs": [],
					"stateMutability": "nonpayable",
					"type": "function"
				},
				{
					"inputs": [
						{
							"internalType": "address",
							"name": "newOwner",
							"type": "address"
						}
					],
					"name": "transferOwnership",
					"outputs": [],
					"stateMutability": "nonpayable",
					"type": "function"
				},
				{
					"inputs": [
						{
							"internalType": "uint8",
							"name": "_problemReportIndex",
							"type": "uint8"
						}
					],
					"name": "upVotePR",
					"outputs": [],
					"stateMutability": "nonpayable",
					"type": "function"
				},
				{
					"inputs": [
						{
							"internalType": "uint8",
							"name": "_problemReportIndex",
							"type": "uint8"
						},
						{
							"internalType": "uint8",
							"name": "_newStatus",
							"type": "uint8"
						}
					],
					"name": "updatePRStatus",
					"outputs": [],
					"stateMutability": "nonpayable",
					"type": "function"
				}
			],
			"devdoc": {
				"errors": {
					"OwnableInvalidOwner(address)": [
						{
							"details": "The owner is not a valid owner account. (eg. `address(0)`)"
						}
					],
					"OwnableUnauthorizedAccount(address)": [
						{
							"details": "The caller account is not authorized to perform an operation."
						}
					]
				},
				"kind": "dev",
				"methods": {
					"owner()": {
						"details": "Returns the address of the current owner."
					},
					"renounceOwnership()": {
						"details": "Leaves the contract without owner. It will not be possible to call `onlyOwner` functions. Can only be called by the current owner. NOTE: Renouncing ownership will leave the contract without an owner, thereby disabling any functionality that is only available to the owner."
					},
					"transferOwnership(address)": {
						"details": "Transfers ownership of the contract to a new account (`newOwner`). Can only be called by the current owner."
					}
				},
				"version": 1
			},
			"evm": {
				"assembly": "    /* \"contracts/OnChainTicket.sol\":802:4137  contract OnchainTicket is Ownable {... */\n  mstore(0x40, 0x80)\n    /* \"contracts/OnChainTicket.sol\":2104:2322  constructor() Ownable(msg.sender) {... */\n  callvalue\n  dup1\n  iszero\n  tag_1\n  jumpi\n  0x00\n  dup1\n  revert\ntag_1:\n  pop\n    /* \"contracts/OnChainTicket.sol\":2126:2136  msg.sender */\n  caller\n    /* \"@openzeppelin/contracts/access/Ownable.sol\":1297:1298  0 */\n  0x00\n    /* \"@openzeppelin/contracts/access/Ownable.sol\":1273:1299  initialOwner == address(0) */\n  0xffffffffffffffffffffffffffffffffffffffff\n  and\n    /* \"@openzeppelin/contracts/access/Ownable.sol\":1273:1285  initialOwner */\n  dup2\n    /* \"@openzeppelin/contracts/access/Ownable.sol\":1273:1299  initialOwner == address(0) */\n  0xffffffffffffffffffffffffffffffffffffffff\n  and\n  sub\n    /* \"@openzeppelin/contracts/access/Ownable.sol\":1269:1364  if (initialOwner == address(0)) {... */\n  tag_5\n  jumpi\n    /* \"@openzeppelin/contracts/access/Ownable.sol\":1350:1351  0 */\n  0x00\n    /* \"@openzeppelin/contracts/access/Ownable.sol\":1322:1353  OwnableInvalidOwner(address(0)) */\n  mload(0x40)\n  0x1e4fbdf700000000000000000000000000000000000000000000000000000000\n  dup2\n  mstore\n  0x04\n  add\n  tag_6\n  swap2\n  swap1\n  tag_7\n  jump\t// in\ntag_6:\n  mload(0x40)\n  dup1\n  swap2\n  sub\n  swap1\n  revert\n    /* \"@openzeppelin/contracts/access/Ownable.sol\":1269:1364  if (initialOwner == address(0)) {... */\ntag_5:\n    /* \"@openzeppelin/contracts/access/Ownable.sol\":1373:1405  _transferOwnership(initialOwner) */\n  tag_8\n    /* \"@openzeppelin/contracts/access/Ownable.sol\":1392:1404  initialOwner */\n  dup2\n    /* \"@openzeppelin/contracts/access/Ownable.sol\":1373:1391  _transferOwnership */\n  shl(0x20, tag_9)\n    /* \"@openzeppelin/contracts/access/Ownable.sol\":1373:1405  _transferOwnership(initialOwner) */\n  0x20\n  shr\n  jump\t// in\ntag_8:\n    /* \"@openzeppelin/contracts/access/Ownable.sol\":1225:1412  constructor(address initialOwner) {... */\n  pop\n    /* \"contracts/OnChainTicket.sol\":2167:2168  1 */\n  0x01\n    /* \"contracts/OnChainTicket.sol\":2148:2164  integrationIndex */\n  dup1\n  0x00\n    /* \"contracts/OnChainTicket.sol\":2148:2168  integrationIndex = 1 */\n  0x0100\n  exp\n  dup2\n  sload\n  dup2\n  0xffffffffffffffffffffffffffffffff\n  mul\n  not\n  and\n  swap1\n  dup4\n  0xffffffffffffffffffffffffffffffff\n  and\n  mul\n  or\n  swap1\n  sstore\n  pop\n    /* \"contracts/OnChainTicket.sol\":2256:2257  1 */\n  0x01\n    /* \"contracts/OnChainTicket.sol\":2243:2253  issueIndex */\n  dup1\n  0x10\n    /* \"contracts/OnChainTicket.sol\":2243:2257  issueIndex = 1 */\n  0x0100\n  exp\n  dup2\n  sload\n  dup2\n  0xffffffffffffffffffffffffffffffff\n  mul\n  not\n  and\n  swap1\n  dup4\n  0xffffffffffffffffffffffffffffffff\n  and\n  mul\n  or\n  swap1\n  sstore\n  pop\n    /* \"contracts/OnChainTicket.sol\":802:4137  contract OnchainTicket is Ownable {... */\n  jump(tag_11)\n    /* \"@openzeppelin/contracts/access/Ownable.sol\":2912:3099  function _transferOwnership(address newOwner) internal virtual {... */\ntag_9:\n    /* \"@openzeppelin/contracts/access/Ownable.sol\":2985:3001  address oldOwner */\n  0x00\n    /* \"@openzeppelin/contracts/access/Ownable.sol\":3004:3010  _owner */\n  dup1\n  0x00\n  swap1\n  sload\n  swap1\n  0x0100\n  exp\n  swap1\n  div\n  0xffffffffffffffffffffffffffffffffffffffff\n  and\n    /* \"@openzeppelin/contracts/access/Ownable.sol\":2985:3010  address oldOwner = _owner */\n  swap1\n  pop\n    /* \"@openzeppelin/contracts/access/Ownable.sol\":3029:3037  newOwner */\n  dup2\n    /* \"@openzeppelin/contracts/access/Ownable.sol\":3020:3026  _owner */\n  0x00\n  dup1\n    /* \"@openzeppelin/contracts/access/Ownable.sol\":3020:3037  _owner = newOwner */\n  0x0100\n  exp\n  dup2\n  sload\n  dup2\n  0xffffffffffffffffffffffffffffffffffffffff\n  mul\n  not\n  and\n  swap1\n  dup4\n  0xffffffffffffffffffffffffffffffffffffffff\n  and\n  mul\n  or\n  swap1\n  sstore\n  pop\n    /* \"@openzeppelin/contracts/access/Ownable.sol\":3083:3091  newOwner */\n  dup2\n    /* \"@openzeppelin/contracts/access/Ownable.sol\":3052:3092  OwnershipTransferred(oldOwner, newOwner) */\n  0xffffffffffffffffffffffffffffffffffffffff\n  and\n    /* \"@openzeppelin/contracts/access/Ownable.sol\":3073:3081  oldOwner */\n  dup2\n    /* \"@openzeppelin/contracts/access/Ownable.sol\":3052:3092  OwnershipTransferred(oldOwner, newOwner) */\n  0xffffffffffffffffffffffffffffffffffffffff\n  and\n  0x8be0079c531659141344cd1fd0a4f28419497f9722a3daafe3b4186f6b6457e0\n  mload(0x40)\n  mload(0x40)\n  dup1\n  swap2\n  sub\n  swap1\n  log3\n    /* \"@openzeppelin/contracts/access/Ownable.sol\":2975:3099  {... */\n  pop\n    /* \"@openzeppelin/contracts/access/Ownable.sol\":2912:3099  function _transferOwnership(address newOwner) internal virtual {... */\n  pop\n  jump\t// out\n    /* \"#utility.yul\":7:133   */\ntag_13:\n    /* \"#utility.yul\":44:51   */\n  0x00\n    /* \"#utility.yul\":84:126   */\n  0xffffffffffffffffffffffffffffffffffffffff\n    /* \"#utility.yul\":77:82   */\n  dup3\n    /* \"#utility.yul\":73:127   */\n  and\n    /* \"#utility.yul\":62:127   */\n  swap1\n  pop\n    /* \"#utility.yul\":7:133   */\n  swap2\n  swap1\n  pop\n  jump\t// out\n    /* \"#utility.yul\":139:235   */\ntag_14:\n    /* \"#utility.yul\":176:183   */\n  0x00\n    /* \"#utility.yul\":205:229   */\n  tag_19\n    /* \"#utility.yul\":223:228   */\n  dup3\n    /* \"#utility.yul\":205:229   */\n  tag_13\n  jump\t// in\ntag_19:\n    /* \"#utility.yul\":194:229   */\n  swap1\n  pop\n    /* \"#utility.yul\":139:235   */\n  swap2\n  swap1\n  pop\n  jump\t// out\n    /* \"#utility.yul\":241:359   */\ntag_15:\n    /* \"#utility.yul\":328:352   */\n  tag_21\n    /* \"#utility.yul\":346:351   */\n  dup2\n    /* \"#utility.yul\":328:352   */\n  tag_14\n  jump\t// in\ntag_21:\n    /* \"#utility.yul\":323:326   */\n  dup3\n    /* \"#utility.yul\":316:353   */\n  mstore\n    /* \"#utility.yul\":241:359   */\n  pop\n  pop\n  jump\t// out\n    /* \"#utility.yul\":365:587   */\ntag_7:\n    /* \"#utility.yul\":458:462   */\n  0x00\n    /* \"#utility.yul\":496:498   */\n  0x20\n    /* \"#utility.yul\":485:494   */\n  dup3\n    /* \"#utility.yul\":481:499   */\n  add\n    /* \"#utility.yul\":473:499   */\n  swap1\n  pop\n    /* \"#utility.yul\":509:580   */\n  tag_23\n    /* \"#utility.yul\":577:578   */\n  0x00\n    /* \"#utility.yul\":566:575   */\n  dup4\n    /* \"#utility.yul\":562:579   */\n  add\n    /* \"#utility.yul\":553:559   */\n  dup5\n    /* \"#utility.yul\":509:580   */\n  tag_15\n  jump\t// in\ntag_23:\n    /* \"#utility.yul\":365:587   */\n  swap3\n  swap2\n  pop\n  pop\n  jump\t// out\n    /* \"contracts/OnChainTicket.sol\":802:4137  contract OnchainTicket is Ownable {... */\ntag_11:\n  dataSize(sub_0)\n  dup1\n  dataOffset(sub_0)\n  0x00\n  codecopy\n  0x00\n  return\nstop\n\nsub_0: assembly {\n        /* \"contracts/OnChainTicket.sol\":802:4137  contract OnchainTicket is Ownable {... */\n      mstore(0x40, 0x80)\n      callvalue\n      dup1\n      iszero\n      tag_1\n      jumpi\n      0x00\n      dup1\n      revert\n    tag_1:\n      pop\n      jumpi(tag_2, lt(calldatasize, 0x04))\n      shr(0xe0, calldataload(0x00))\n      dup1\n      0x7f18523f\n      gt\n      tag_20\n      jumpi\n      dup1\n      0x9b03c9cf\n      gt\n      tag_21\n      jumpi\n      dup1\n      0x9b03c9cf\n      eq\n      tag_15\n      jumpi\n      dup1\n      0xaad86fe7\n      eq\n      tag_16\n      jumpi\n      dup1\n      0xc09d926c\n      eq\n      tag_17\n      jumpi\n      dup1\n      0xf2fde38b\n      eq\n      tag_18\n      jumpi\n      dup1\n      0xfeee10b0\n      eq\n      tag_19\n      jumpi\n      jump(tag_2)\n    tag_21:\n      dup1\n      0x7f18523f\n      eq\n      tag_11\n      jumpi\n      dup1\n      0x87825aef\n      eq\n      tag_12\n      jumpi\n      dup1\n      0x8da5cb5b\n      eq\n      tag_13\n      jumpi\n      dup1\n      0x8e6a0fd4\n      eq\n      tag_14\n      jumpi\n      jump(tag_2)\n    tag_20:\n      dup1\n      0x5c046276\n      gt\n      tag_22\n      jumpi\n      dup1\n      0x5c046276\n      eq\n      tag_7\n      jumpi\n      dup1\n      0x6a28f828\n      eq\n      tag_8\n      jumpi\n      dup1\n      0x715018a6\n      eq\n      tag_9\n      jumpi\n      dup1\n      0x7d0487ff\n      eq\n      tag_10\n      jumpi\n      jump(tag_2)\n    tag_22:\n      dup1\n      0x2bd10f6b\n      eq\n      tag_3\n      jumpi\n      dup1\n      0x348aa3bd\n      eq\n      tag_4\n      jumpi\n      dup1\n      0x45da5158\n      eq\n      tag_5\n      jumpi\n      dup1\n      0x5b1214ad\n      eq\n      tag_6\n      jumpi\n    tag_2:\n      0x00\n      dup1\n      revert\n        /* \"contracts/OnChainTicket.sol\":842:873  uint128 public integrationIndex */\n    tag_3:\n      tag_23\n      tag_24\n      jump\t// in\n    tag_23:\n      mload(0x40)\n      tag_25\n      swap2\n      swap1\n      tag_26\n      jump\t// in\n    tag_25:\n      mload(0x40)\n      dup1\n      swap2\n      sub\n      swap1\n      return\n        /* \"contracts/OnChainTicket.sol\":3633:3946  function updatePRStatus (uint8 _problemReportIndex, uint8 _newStatus) external onlyOwner {... */\n    tag_4:\n      tag_27\n      0x04\n      dup1\n      calldatasize\n      sub\n      dup2\n      add\n      swap1\n      tag_28\n      swap2\n      swap1\n      tag_29\n      jump\t// in\n    tag_28:\n      tag_30\n      jump\t// in\n    tag_27:\n      stop\n        /* \"contracts/OnChainTicket.sol\":1794:1822  Ticket[] public listOfIssues */\n    tag_5:\n      tag_31\n      0x04\n      dup1\n      calldatasize\n      sub\n      dup2\n      add\n      swap1\n      tag_32\n      swap2\n      swap1\n      tag_33\n      jump\t// in\n    tag_32:\n      tag_34\n      jump\t// in\n    tag_31:\n      mload(0x40)\n      tag_35\n      swap6\n      swap5\n      swap4\n      swap3\n      swap2\n      swap1\n      tag_36\n      jump\t// in\n    tag_35:\n      mload(0x40)\n      dup1\n      swap2\n      sub\n      swap1\n      return\n        /* \"contracts/OnChainTicket.sol\":2328:2755  function addNewIntegration(string memory _projectName, string memory _description) external {... */\n    tag_6:\n      tag_37\n      0x04\n      dup1\n      calldatasize\n      sub\n      dup2\n      add\n      swap1\n      tag_38\n      swap2\n      swap1\n      tag_39\n      jump\t// in\n    tag_38:\n      tag_40\n      jump\t// in\n    tag_37:\n      stop\n        /* \"contracts/OnChainTicket.sol\":3412:3627  function removeProblemReport(uint8 _problemReportIndex) external onlyOwner {... */\n    tag_7:\n      tag_41\n      0x04\n      dup1\n      calldatasize\n      sub\n      dup2\n      add\n      swap1\n      tag_42\n      swap2\n      swap1\n      tag_43\n      jump\t// in\n    tag_42:\n      tag_44\n      jump\t// in\n    tag_41:\n      stop\n        /* \"contracts/OnChainTicket.sol\":964:989  uint128 public issueIndex */\n    tag_8:\n      tag_45\n      tag_46\n      jump\t// in\n    tag_45:\n      mload(0x40)\n      tag_47\n      swap2\n      swap1\n      tag_26\n      jump\t// in\n    tag_47:\n      mload(0x40)\n      dup1\n      swap2\n      sub\n      swap1\n      return\n        /* \"@openzeppelin/contracts/access/Ownable.sol\":2293:2394  function renounceOwnership() public virtual onlyOwner {... */\n    tag_9:\n      tag_48\n      tag_49\n      jump\t// in\n    tag_48:\n      stop\n        /* \"contracts/OnChainTicket.sol\":1720:1754  Ticket[] public listOfIntegrations */\n    tag_10:\n      tag_50\n      0x04\n      dup1\n      calldatasize\n      sub\n      dup2\n      add\n      swap1\n      tag_51\n      swap2\n      swap1\n      tag_33\n      jump\t// in\n    tag_51:\n      tag_52\n      jump\t// in\n    tag_50:\n      mload(0x40)\n      tag_53\n      swap6\n      swap5\n      swap4\n      swap3\n      swap2\n      swap1\n      tag_36\n      jump\t// in\n    tag_53:\n      mload(0x40)\n      dup1\n      swap2\n      sub\n      swap1\n      return\n        /* \"contracts/OnChainTicket.sol\":3173:3406  function removeIntegration(uint8 _integrationIndex) external onlyOwner {... */\n    tag_11:\n      tag_54\n      0x04\n      dup1\n      calldatasize\n      sub\n      dup2\n      add\n      swap1\n      tag_55\n      swap2\n      swap1\n      tag_43\n      jump\t// in\n    tag_55:\n      tag_56\n      jump\t// in\n    tag_54:\n      stop\n        /* \"contracts/OnChainTicket.sol\":2761:3167  function addNewIssue(string memory _issueTitle,string memory _issueDescription) external {... */\n    tag_12:\n      tag_57\n      0x04\n      dup1\n      calldatasize\n      sub\n      dup2\n      add\n      swap1\n      tag_58\n      swap2\n      swap1\n      tag_39\n      jump\t// in\n    tag_58:\n      tag_59\n      jump\t// in\n    tag_57:\n      stop\n        /* \"@openzeppelin/contracts/access/Ownable.sol\":1638:1723  function owner() public view virtual returns (address) {... */\n    tag_13:\n      tag_60\n      tag_61\n      jump\t// in\n    tag_60:\n      mload(0x40)\n      tag_62\n      swap2\n      swap1\n      tag_63\n      jump\t// in\n    tag_62:\n      mload(0x40)\n      dup1\n      swap2\n      sub\n      swap1\n      return\n        /* \"contracts/OnChainTicket.sol\":3952:4135  function upVotePR (uint8 _problemReportIndex) external {... */\n    tag_14:\n      tag_64\n      0x04\n      dup1\n      calldatasize\n      sub\n      dup2\n      add\n      swap1\n      tag_65\n      swap2\n      swap1\n      tag_43\n      jump\t// in\n    tag_65:\n      tag_66\n      jump\t// in\n    tag_64:\n      stop\n        /* \"contracts/OnChainTicket.sol\":1864:1914  mapping(uint128 => string) public getProjectFromID */\n    tag_15:\n      tag_67\n      0x04\n      dup1\n      calldatasize\n      sub\n      dup2\n      add\n      swap1\n      tag_68\n      swap2\n      swap1\n      tag_69\n      jump\t// in\n    tag_68:\n      tag_70\n      jump\t// in\n    tag_67:\n      mload(0x40)\n      tag_71\n      swap2\n      swap1\n      tag_72\n      jump\t// in\n    tag_71:\n      mload(0x40)\n      dup1\n      swap2\n      sub\n      swap1\n      return\n        /* \"contracts/OnChainTicket.sol\":1920:1979  mapping(uint128 => uint8) public getIntegrationStatusFromID */\n    tag_16:\n      tag_73\n      0x04\n      dup1\n      calldatasize\n      sub\n      dup2\n      add\n      swap1\n      tag_74\n      swap2\n      swap1\n      tag_69\n      jump\t// in\n    tag_74:\n      tag_75\n      jump\t// in\n    tag_73:\n      mload(0x40)\n      tag_76\n      swap2\n      swap1\n      tag_77\n      jump\t// in\n    tag_76:\n      mload(0x40)\n      dup1\n      swap2\n      sub\n      swap1\n      return\n        /* \"contracts/OnChainTicket.sol\":2044:2097  mapping(uint128 => uint8) public getIssueStatusFromID */\n    tag_17:\n      tag_78\n      0x04\n      dup1\n      calldatasize\n      sub\n      dup2\n      add\n      swap1\n      tag_79\n      swap2\n      swap1\n      tag_69\n      jump\t// in\n    tag_79:\n      tag_80\n      jump\t// in\n    tag_78:\n      mload(0x40)\n      tag_81\n      swap2\n      swap1\n      tag_77\n      jump\t// in\n    tag_81:\n      mload(0x40)\n      dup1\n      swap2\n      sub\n      swap1\n      return\n        /* \"@openzeppelin/contracts/access/Ownable.sol\":2543:2758  function transferOwnership(address newOwner) public virtual onlyOwner {... */\n    tag_18:\n      tag_82\n      0x04\n      dup1\n      calldatasize\n      sub\n      dup2\n      add\n      swap1\n      tag_83\n      swap2\n      swap1\n      tag_84\n      jump\t// in\n    tag_83:\n      tag_85\n      jump\t// in\n    tag_82:\n      stop\n        /* \"contracts/OnChainTicket.sol\":1985:2038  mapping(uint128 => string) public getIssueTitleFromID */\n    tag_19:\n      tag_86\n      0x04\n      dup1\n      calldatasize\n      sub\n      dup2\n      add\n      swap1\n      tag_87\n      swap2\n      swap1\n      tag_69\n      jump\t// in\n    tag_87:\n      tag_88\n      jump\t// in\n    tag_86:\n      mload(0x40)\n      tag_89\n      swap2\n      swap1\n      tag_72\n      jump\t// in\n    tag_89:\n      mload(0x40)\n      dup1\n      swap2\n      sub\n      swap1\n      return\n        /* \"contracts/OnChainTicket.sol\":842:873  uint128 public integrationIndex */\n    tag_24:\n      0x01\n      0x00\n      swap1\n      sload\n      swap1\n      0x0100\n      exp\n      swap1\n      div\n      0xffffffffffffffffffffffffffffffff\n      and\n      dup2\n      jump\t// out\n        /* \"contracts/OnChainTicket.sol\":3633:3946  function updatePRStatus (uint8 _problemReportIndex, uint8 _newStatus) external onlyOwner {... */\n    tag_30:\n        /* \"@openzeppelin/contracts/access/Ownable.sol\":1531:1544  _checkOwner() */\n      tag_91\n        /* \"@openzeppelin/contracts/access/Ownable.sol\":1531:1542  _checkOwner */\n      tag_92\n        /* \"@openzeppelin/contracts/access/Ownable.sol\":1531:1544  _checkOwner() */\n      jump\t// in\n    tag_91:\n        /* \"contracts/OnChainTicket.sol\":3732:3756  Ticket storage updatedPR */\n      0x00\n        /* \"contracts/OnChainTicket.sol\":3759:3771  listOfIssues */\n      0x03\n        /* \"contracts/OnChainTicket.sol\":3772:3791  _problemReportIndex */\n      dup4\n        /* \"contracts/OnChainTicket.sol\":3759:3792  listOfIssues[_problemReportIndex] */\n      0xff\n      and\n      dup2\n      sload\n      dup2\n      lt\n      tag_94\n      jumpi\n      tag_95\n      tag_96\n      jump\t// in\n    tag_95:\n    tag_94:\n      swap1\n      0x00\n      mstore\n      keccak256(0x00, 0x20)\n      swap1\n      0x04\n      mul\n      add\n        /* \"contracts/OnChainTicket.sol\":3732:3792  Ticket storage updatedPR = listOfIssues[_problemReportIndex] */\n      swap1\n      pop\n        /* \"contracts/OnChainTicket.sol\":3899:3909  _newStatus */\n      dup2\n        /* \"contracts/OnChainTicket.sol\":3880:3889  updatedPR */\n      dup2\n        /* \"contracts/OnChainTicket.sol\":3880:3896  updatedPR.status */\n      0x03\n      add\n      0x00\n        /* \"contracts/OnChainTicket.sol\":3880:3909  updatedPR.status = _newStatus */\n      0x0100\n      exp\n      dup2\n      sload\n      dup2\n      0xff\n      mul\n      not\n      and\n      swap1\n      dup4\n      0xff\n      and\n      mul\n      or\n      swap1\n      sstore\n      pop\n        /* \"contracts/OnChainTicket.sol\":3722:3946  {... */\n      pop\n        /* \"contracts/OnChainTicket.sol\":3633:3946  function updatePRStatus (uint8 _problemReportIndex, uint8 _newStatus) external onlyOwner {... */\n      pop\n      pop\n      jump\t// out\n        /* \"contracts/OnChainTicket.sol\":1794:1822  Ticket[] public listOfIssues */\n    tag_34:\n      0x03\n      dup2\n      dup2\n      sload\n      dup2\n      lt\n      tag_98\n      jumpi\n      0x00\n      dup1\n      revert\n    tag_98:\n      swap1\n      0x00\n      mstore\n      keccak256(0x00, 0x20)\n      swap1\n      0x04\n      mul\n      add\n      0x00\n      swap2\n      pop\n      swap1\n      pop\n      dup1\n      0x00\n      add\n      dup1\n      sload\n      tag_100\n      swap1\n      tag_101\n      jump\t// in\n    tag_100:\n      dup1\n      0x1f\n      add\n      0x20\n      dup1\n      swap2\n      div\n      mul\n      0x20\n      add\n      mload(0x40)\n      swap1\n      dup2\n      add\n      0x40\n      mstore\n      dup1\n      swap3\n      swap2\n      swap1\n      dup2\n      dup2\n      mstore\n      0x20\n      add\n      dup3\n      dup1\n      sload\n      tag_102\n      swap1\n      tag_101\n      jump\t// in\n    tag_102:\n      dup1\n      iszero\n      tag_103\n      jumpi\n      dup1\n      0x1f\n      lt\n      tag_104\n      jumpi\n      0x0100\n      dup1\n      dup4\n      sload\n      div\n      mul\n      dup4\n      mstore\n      swap2\n      0x20\n      add\n      swap2\n      jump(tag_103)\n    tag_104:\n      dup3\n      add\n      swap2\n      swap1\n      0x00\n      mstore\n      keccak256(0x00, 0x20)\n      swap1\n    tag_105:\n      dup2\n      sload\n      dup2\n      mstore\n      swap1\n      0x01\n      add\n      swap1\n      0x20\n      add\n      dup1\n      dup4\n      gt\n      tag_105\n      jumpi\n      dup3\n      swap1\n      sub\n      0x1f\n      and\n      dup3\n      add\n      swap2\n    tag_103:\n      pop\n      pop\n      pop\n      pop\n      pop\n      swap1\n      dup1\n      0x01\n      add\n      dup1\n      sload\n      tag_106\n      swap1\n      tag_101\n      jump\t// in\n    tag_106:\n      dup1\n      0x1f\n      add\n      0x20\n      dup1\n      swap2\n      div\n      mul\n      0x20\n      add\n      mload(0x40)\n      swap1\n      dup2\n      add\n      0x40\n      mstore\n      dup1\n      swap3\n      swap2\n      swap1\n      dup2\n      dup2\n      mstore\n      0x20\n      add\n      dup3\n      dup1\n      sload\n      tag_107\n      swap1\n      tag_101\n      jump\t// in\n    tag_107:\n      dup1\n      iszero\n      tag_108\n      jumpi\n      dup1\n      0x1f\n      lt\n      tag_109\n      jumpi\n      0x0100\n      dup1\n      dup4\n      sload\n      div\n      mul\n      dup4\n      mstore\n      swap2\n      0x20\n      add\n      swap2\n      jump(tag_108)\n    tag_109:\n      dup3\n      add\n      swap2\n      swap1\n      0x00\n      mstore\n      keccak256(0x00, 0x20)\n      swap1\n    tag_110:\n      dup2\n      sload\n      dup2\n      mstore\n      swap1\n      0x01\n      add\n      swap1\n      0x20\n      add\n      dup1\n      dup4\n      gt\n      tag_110\n      jumpi\n      dup3\n      swap1\n      sub\n      0x1f\n      and\n      dup3\n      add\n      swap2\n    tag_108:\n      pop\n      pop\n      pop\n      pop\n      pop\n      swap1\n      dup1\n      0x02\n      add\n      dup1\n      sload\n      tag_111\n      swap1\n      tag_101\n      jump\t// in\n    tag_111:\n      dup1\n      0x1f\n      add\n      0x20\n      dup1\n      swap2\n      div\n      mul\n      0x20\n      add\n      mload(0x40)\n      swap1\n      dup2\n      add\n      0x40\n      mstore\n      dup1\n      swap3\n      swap2\n      swap1\n      dup2\n      dup2\n      mstore\n      0x20\n      add\n      dup3\n      dup1\n      sload\n      tag_112\n      swap1\n      tag_101\n      jump\t// in\n    tag_112:\n      dup1\n      iszero\n      tag_113\n      jumpi\n      dup1\n      0x1f\n      lt\n      tag_114\n      jumpi\n      0x0100\n      dup1\n      dup4\n      sload\n      div\n      mul\n      dup4\n      mstore\n      swap2\n      0x20\n      add\n      swap2\n      jump(tag_113)\n    tag_114:\n      dup3\n      add\n      swap2\n      swap1\n      0x00\n      mstore\n      keccak256(0x00, 0x20)\n      swap1\n    tag_115:\n      dup2\n      sload\n      dup2\n      mstore\n      swap1\n      0x01\n      add\n      swap1\n      0x20\n      add\n      dup1\n      dup4\n      gt\n      tag_115\n      jumpi\n      dup3\n      swap1\n      sub\n      0x1f\n      and\n      dup3\n      add\n      swap2\n    tag_113:\n      pop\n      pop\n      pop\n      pop\n      pop\n      swap1\n      dup1\n      0x03\n      add\n      0x00\n      swap1\n      sload\n      swap1\n      0x0100\n      exp\n      swap1\n      div\n      0xff\n      and\n      swap1\n      dup1\n      0x03\n      add\n      0x01\n      swap1\n      sload\n      swap1\n      0x0100\n      exp\n      swap1\n      div\n      0xffff\n      and\n      swap1\n      pop\n      dup6\n      jump\t// out\n        /* \"contracts/OnChainTicket.sol\":2328:2755  function addNewIntegration(string memory _projectName, string memory _description) external {... */\n    tag_40:\n        /* \"contracts/OnChainTicket.sol\":2430:2455  string memory strUniqueID */\n      0x00\n        /* \"contracts/OnChainTicket.sol\":2458:2492  Strings.toString(integrationIndex) */\n      tag_117\n        /* \"contracts/OnChainTicket.sol\":2475:2491  integrationIndex */\n      0x01\n      0x00\n      swap1\n      sload\n      swap1\n      0x0100\n      exp\n      swap1\n      div\n      0xffffffffffffffffffffffffffffffff\n      and\n        /* \"contracts/OnChainTicket.sol\":2458:2492  Strings.toString(integrationIndex) */\n      0xffffffffffffffffffffffffffffffff\n      and\n        /* \"contracts/OnChainTicket.sol\":2458:2474  Strings.toString */\n      tag_118\n        /* \"contracts/OnChainTicket.sol\":2458:2492  Strings.toString(integrationIndex) */\n      jump\t// in\n    tag_117:\n        /* \"contracts/OnChainTicket.sol\":2430:2492  string memory strUniqueID = Strings.toString(integrationIndex) */\n      swap1\n      pop\n        /* \"contracts/OnChainTicket.sol\":2537:2548  strUniqueID */\n      dup1\n        /* \"contracts/OnChainTicket.sol\":2516:2549  string.concat(\"IR-\", strUniqueID) */\n      add(0x20, mload(0x40))\n      tag_119\n      swap2\n      swap1\n      tag_120\n      jump\t// in\n    tag_119:\n      mload(0x40)\n      0x20\n      dup2\n      dup4\n      sub\n      sub\n      dup2\n      mstore\n      swap1\n      0x40\n      mstore\n        /* \"contracts/OnChainTicket.sol\":2502:2549  strUniqueID = string.concat(\"IR-\", strUniqueID) */\n      swap1\n      pop\n        /* \"contracts/OnChainTicket.sol\":2559:2577  listOfIntegrations */\n      0x02\n        /* \"contracts/OnChainTicket.sol\":2596:2650  Ticket(strUniqueID, _projectName, _description, NEW,0) */\n      mload(0x40)\n      dup1\n      0xa0\n      add\n      0x40\n      mstore\n      dup1\n        /* \"contracts/OnChainTicket.sol\":2603:2614  strUniqueID */\n      dup4\n        /* \"contracts/OnChainTicket.sol\":2596:2650  Ticket(strUniqueID, _projectName, _description, NEW,0) */\n      dup2\n      mstore\n      0x20\n      add\n        /* \"contracts/OnChainTicket.sol\":2616:2628  _projectName */\n      dup6\n        /* \"contracts/OnChainTicket.sol\":2596:2650  Ticket(strUniqueID, _projectName, _description, NEW,0) */\n      dup2\n      mstore\n      0x20\n      add\n        /* \"contracts/OnChainTicket.sol\":2630:2642  _description */\n      dup5\n        /* \"contracts/OnChainTicket.sol\":2596:2650  Ticket(strUniqueID, _projectName, _description, NEW,0) */\n      dup2\n      mstore\n      0x20\n      add\n        /* \"contracts/OnChainTicket.sol\":1080:1081  0 */\n      0x00\n        /* \"contracts/OnChainTicket.sol\":2596:2650  Ticket(strUniqueID, _projectName, _description, NEW,0) */\n      0xff\n      and\n      dup2\n      mstore\n      0x20\n      add\n        /* \"contracts/OnChainTicket.sol\":2648:2649  0 */\n      0x00\n        /* \"contracts/OnChainTicket.sol\":2596:2650  Ticket(strUniqueID, _projectName, _description, NEW,0) */\n      0xffff\n      and\n      dup2\n      mstore\n      pop\n        /* \"contracts/OnChainTicket.sol\":2559:2660  listOfIntegrations.push(... */\n      swap1\n      dup1\n      0x01\n      dup2\n      sload\n      add\n      dup1\n      dup3\n      sstore\n      dup1\n      swap2\n      pop\n      pop\n      0x01\n      swap1\n      sub\n      swap1\n      0x00\n      mstore\n      keccak256(0x00, 0x20)\n      swap1\n      0x04\n      mul\n      add\n      0x00\n      swap1\n      swap2\n      swap1\n      swap2\n      swap1\n      swap2\n      pop\n      0x00\n      dup3\n      add\n      mload\n      dup2\n      0x00\n      add\n      swap1\n      dup2\n      tag_122\n      swap2\n      swap1\n      tag_123\n      jump\t// in\n    tag_122:\n      pop\n      0x20\n      dup3\n      add\n      mload\n      dup2\n      0x01\n      add\n      swap1\n      dup2\n      tag_124\n      swap2\n      swap1\n      tag_123\n      jump\t// in\n    tag_124:\n      pop\n      0x40\n      dup3\n      add\n      mload\n      dup2\n      0x02\n      add\n      swap1\n      dup2\n      tag_125\n      swap2\n      swap1\n      tag_123\n      jump\t// in\n    tag_125:\n      pop\n      0x60\n      dup3\n      add\n      mload\n      dup2\n      0x03\n      add\n      exp(0x0100, 0x00)\n      dup2\n      sload\n      dup2\n      0xff\n      mul\n      not\n      and\n      swap1\n      dup4\n      0xff\n      and\n      mul\n      or\n      swap1\n      sstore\n      pop\n      0x80\n      dup3\n      add\n      mload\n      dup2\n      0x03\n      add\n      exp(0x0100, 0x01)\n      dup2\n      sload\n      dup2\n      0xffff\n      mul\n      not\n      and\n      swap1\n      dup4\n      0xffff\n      and\n      mul\n      or\n      swap1\n      sstore\n      pop\n      pop\n      pop\n        /* \"contracts/OnChainTicket.sol\":2708:2720  _projectName */\n      dup3\n        /* \"contracts/OnChainTicket.sol\":2671:2687  getProjectFromID */\n      0x04\n        /* \"contracts/OnChainTicket.sol\":2671:2705  getProjectFromID[integrationIndex] */\n      0x00\n        /* \"contracts/OnChainTicket.sol\":2688:2704  integrationIndex */\n      0x01\n      0x00\n      swap1\n      sload\n      swap1\n      0x0100\n      exp\n      swap1\n      div\n      0xffffffffffffffffffffffffffffffff\n      and\n        /* \"contracts/OnChainTicket.sol\":2671:2705  getProjectFromID[integrationIndex] */\n      0xffffffffffffffffffffffffffffffff\n      and\n      0xffffffffffffffffffffffffffffffff\n      and\n      dup2\n      mstore\n      0x20\n      add\n      swap1\n      dup2\n      mstore\n      0x20\n      add\n      0x00\n      keccak256\n        /* \"contracts/OnChainTicket.sol\":2671:2720  getProjectFromID[integrationIndex] = _projectName */\n      swap1\n      dup2\n      tag_126\n      swap2\n      swap1\n      tag_123\n      jump\t// in\n    tag_126:\n      pop\n        /* \"contracts/OnChainTicket.sol\":2730:2746  integrationIndex */\n      0x01\n      0x00\n        /* \"contracts/OnChainTicket.sol\":2730:2748  integrationIndex++ */\n      dup2\n      dup2\n      swap1\n      sload\n      swap1\n      0x0100\n      exp\n      swap1\n      div\n      0xffffffffffffffffffffffffffffffff\n      and\n      dup1\n      swap3\n      swap2\n      swap1\n      tag_127\n      swap1\n      tag_128\n      jump\t// in\n    tag_127:\n      swap2\n      swap1\n      0x0100\n      exp\n      dup2\n      sload\n      dup2\n      0xffffffffffffffffffffffffffffffff\n      mul\n      not\n      and\n      swap1\n      dup4\n      0xffffffffffffffffffffffffffffffff\n      and\n      mul\n      or\n      swap1\n      sstore\n      pop\n      pop\n        /* \"contracts/OnChainTicket.sol\":2420:2755  {... */\n      pop\n        /* \"contracts/OnChainTicket.sol\":2328:2755  function addNewIntegration(string memory _projectName, string memory _description) external {... */\n      pop\n      pop\n      jump\t// out\n        /* \"contracts/OnChainTicket.sol\":3412:3627  function removeProblemReport(uint8 _problemReportIndex) external onlyOwner {... */\n    tag_44:\n        /* \"@openzeppelin/contracts/access/Ownable.sol\":1531:1544  _checkOwner() */\n      tag_130\n        /* \"@openzeppelin/contracts/access/Ownable.sol\":1531:1542  _checkOwner */\n      tag_92\n        /* \"@openzeppelin/contracts/access/Ownable.sol\":1531:1544  _checkOwner() */\n      jump\t// in\n    tag_130:\n        /* \"contracts/OnChainTicket.sol\":3533:3545  listOfIssues */\n      0x03\n        /* \"contracts/OnChainTicket.sol\":3581:3582  1 */\n      0x01\n        /* \"contracts/OnChainTicket.sol\":3559:3571  listOfIssues */\n      0x03\n        /* \"contracts/OnChainTicket.sol\":3559:3578  listOfIssues.length */\n      dup1\n      sload\n      swap1\n      pop\n        /* \"contracts/OnChainTicket.sol\":3559:3582  listOfIssues.length - 1 */\n      tag_132\n      swap2\n      swap1\n      tag_133\n      jump\t// in\n    tag_132:\n        /* \"contracts/OnChainTicket.sol\":3533:3592  listOfIssues[... */\n      dup2\n      sload\n      dup2\n      lt\n      tag_134\n      jumpi\n      tag_135\n      tag_96\n      jump\t// in\n    tag_135:\n    tag_134:\n      swap1\n      0x00\n      mstore\n      keccak256(0x00, 0x20)\n      swap1\n      0x04\n      mul\n      add\n        /* \"contracts/OnChainTicket.sol\":3497:3509  listOfIssues */\n      0x03\n        /* \"contracts/OnChainTicket.sol\":3510:3529  _problemReportIndex */\n      dup3\n        /* \"contracts/OnChainTicket.sol\":3497:3530  listOfIssues[_problemReportIndex] */\n      0xff\n      and\n      dup2\n      sload\n      dup2\n      lt\n      tag_137\n      jumpi\n      tag_138\n      tag_96\n      jump\t// in\n    tag_138:\n    tag_137:\n      swap1\n      0x00\n      mstore\n      keccak256(0x00, 0x20)\n      swap1\n      0x04\n      mul\n      add\n        /* \"contracts/OnChainTicket.sol\":3497:3592  listOfIssues[_problemReportIndex] = listOfIssues[... */\n      0x00\n      dup3\n      add\n      dup2\n      0x00\n      add\n      swap1\n      dup2\n      tag_140\n      swap2\n      swap1\n      tag_141\n      jump\t// in\n    tag_140:\n      pop\n      0x01\n      dup3\n      add\n      dup2\n      0x01\n      add\n      swap1\n      dup2\n      tag_142\n      swap2\n      swap1\n      tag_141\n      jump\t// in\n    tag_142:\n      pop\n      0x02\n      dup3\n      add\n      dup2\n      0x02\n      add\n      swap1\n      dup2\n      tag_143\n      swap2\n      swap1\n      tag_141\n      jump\t// in\n    tag_143:\n      pop\n      0x03\n      dup3\n      add\n      0x00\n      swap1\n      sload\n      swap1\n      0x0100\n      exp\n      swap1\n      div\n      0xff\n      and\n      dup2\n      0x03\n      add\n      exp(0x0100, 0x00)\n      dup2\n      sload\n      dup2\n      0xff\n      mul\n      not\n      and\n      swap1\n      dup4\n      0xff\n      and\n      mul\n      or\n      swap1\n      sstore\n      pop\n      0x03\n      dup3\n      add\n      0x01\n      swap1\n      sload\n      swap1\n      0x0100\n      exp\n      swap1\n      div\n      0xffff\n      and\n      dup2\n      0x03\n      add\n      exp(0x0100, 0x01)\n      dup2\n      sload\n      dup2\n      0xffff\n      mul\n      not\n      and\n      swap1\n      dup4\n      0xffff\n      and\n      mul\n      or\n      swap1\n      sstore\n      pop\n      swap1\n      pop\n      pop\n        /* \"contracts/OnChainTicket.sol\":3602:3614  listOfIssues */\n      0x03\n        /* \"contracts/OnChainTicket.sol\":3602:3620  listOfIssues.pop() */\n      dup1\n      sload\n      dup1\n      tag_144\n      jumpi\n      tag_145\n      tag_146\n      jump\t// in\n    tag_145:\n    tag_144:\n      0x01\n      swap1\n      sub\n      dup2\n      dup2\n      swap1\n      0x00\n      mstore\n      keccak256(0x00, 0x20)\n      swap1\n      0x04\n      mul\n      add\n      0x00\n      dup1\n      dup3\n      add\n      0x00\n      tag_148\n      swap2\n      swap1\n      tag_149\n      jump\t// in\n    tag_148:\n      0x01\n      dup3\n      add\n      0x00\n      tag_150\n      swap2\n      swap1\n      tag_149\n      jump\t// in\n    tag_150:\n      0x02\n      dup3\n      add\n      0x00\n      tag_151\n      swap2\n      swap1\n      tag_149\n      jump\t// in\n    tag_151:\n      0x03\n      dup3\n      add\n      exp(0x0100, 0x00)\n      dup2\n      sload\n      swap1\n      0xff\n      mul\n      not\n      and\n      swap1\n      sstore\n      0x03\n      dup3\n      add\n      exp(0x0100, 0x01)\n      dup2\n      sload\n      swap1\n      0xffff\n      mul\n      not\n      and\n      swap1\n      sstore\n      pop\n      pop\n      swap1\n      sstore\n        /* \"contracts/OnChainTicket.sol\":3412:3627  function removeProblemReport(uint8 _problemReportIndex) external onlyOwner {... */\n      pop\n      jump\t// out\n        /* \"contracts/OnChainTicket.sol\":964:989  uint128 public issueIndex */\n    tag_46:\n      0x01\n      0x10\n      swap1\n      sload\n      swap1\n      0x0100\n      exp\n      swap1\n      div\n      0xffffffffffffffffffffffffffffffff\n      and\n      dup2\n      jump\t// out\n        /* \"@openzeppelin/contracts/access/Ownable.sol\":2293:2394  function renounceOwnership() public virtual onlyOwner {... */\n    tag_49:\n        /* \"@openzeppelin/contracts/access/Ownable.sol\":1531:1544  _checkOwner() */\n      tag_153\n        /* \"@openzeppelin/contracts/access/Ownable.sol\":1531:1542  _checkOwner */\n      tag_92\n        /* \"@openzeppelin/contracts/access/Ownable.sol\":1531:1544  _checkOwner() */\n      jump\t// in\n    tag_153:\n        /* \"@openzeppelin/contracts/access/Ownable.sol\":2357:2387  _transferOwnership(address(0)) */\n      tag_155\n        /* \"@openzeppelin/contracts/access/Ownable.sol\":2384:2385  0 */\n      0x00\n        /* \"@openzeppelin/contracts/access/Ownable.sol\":2357:2375  _transferOwnership */\n      tag_156\n        /* \"@openzeppelin/contracts/access/Ownable.sol\":2357:2387  _transferOwnership(address(0)) */\n      jump\t// in\n    tag_155:\n        /* \"@openzeppelin/contracts/access/Ownable.sol\":2293:2394  function renounceOwnership() public virtual onlyOwner {... */\n      jump\t// out\n        /* \"contracts/OnChainTicket.sol\":1720:1754  Ticket[] public listOfIntegrations */\n    tag_52:\n      0x02\n      dup2\n      dup2\n      sload\n      dup2\n      lt\n      tag_157\n      jumpi\n      0x00\n      dup1\n      revert\n    tag_157:\n      swap1\n      0x00\n      mstore\n      keccak256(0x00, 0x20)\n      swap1\n      0x04\n      mul\n      add\n      0x00\n      swap2\n      pop\n      swap1\n      pop\n      dup1\n      0x00\n      add\n      dup1\n      sload\n      tag_159\n      swap1\n      tag_101\n      jump\t// in\n    tag_159:\n      dup1\n      0x1f\n      add\n      0x20\n      dup1\n      swap2\n      div\n      mul\n      0x20\n      add\n      mload(0x40)\n      swap1\n      dup2\n      add\n      0x40\n      mstore\n      dup1\n      swap3\n      swap2\n      swap1\n      dup2\n      dup2\n      mstore\n      0x20\n      add\n      dup3\n      dup1\n      sload\n      tag_160\n      swap1\n      tag_101\n      jump\t// in\n    tag_160:\n      dup1\n      iszero\n      tag_161\n      jumpi\n      dup1\n      0x1f\n      lt\n      tag_162\n      jumpi\n      0x0100\n      dup1\n      dup4\n      sload\n      div\n      mul\n      dup4\n      mstore\n      swap2\n      0x20\n      add\n      swap2\n      jump(tag_161)\n    tag_162:\n      dup3\n      add\n      swap2\n      swap1\n      0x00\n      mstore\n      keccak256(0x00, 0x20)\n      swap1\n    tag_163:\n      dup2\n      sload\n      dup2\n      mstore\n      swap1\n      0x01\n      add\n      swap1\n      0x20\n      add\n      dup1\n      dup4\n      gt\n      tag_163\n      jumpi\n      dup3\n      swap1\n      sub\n      0x1f\n      and\n      dup3\n      add\n      swap2\n    tag_161:\n      pop\n      pop\n      pop\n      pop\n      pop\n      swap1\n      dup1\n      0x01\n      add\n      dup1\n      sload\n      tag_164\n      swap1\n      tag_101\n      jump\t// in\n    tag_164:\n      dup1\n      0x1f\n      add\n      0x20\n      dup1\n      swap2\n      div\n      mul\n      0x20\n      add\n      mload(0x40)\n      swap1\n      dup2\n      add\n      0x40\n      mstore\n      dup1\n      swap3\n      swap2\n      swap1\n      dup2\n      dup2\n      mstore\n      0x20\n      add\n      dup3\n      dup1\n      sload\n      tag_165\n      swap1\n      tag_101\n      jump\t// in\n    tag_165:\n      dup1\n      iszero\n      tag_166\n      jumpi\n      dup1\n      0x1f\n      lt\n      tag_167\n      jumpi\n      0x0100\n      dup1\n      dup4\n      sload\n      div\n      mul\n      dup4\n      mstore\n      swap2\n      0x20\n      add\n      swap2\n      jump(tag_166)\n    tag_167:\n      dup3\n      add\n      swap2\n      swap1\n      0x00\n      mstore\n      keccak256(0x00, 0x20)\n      swap1\n    tag_168:\n      dup2\n      sload\n      dup2\n      mstore\n      swap1\n      0x01\n      add\n      swap1\n      0x20\n      add\n      dup1\n      dup4\n      gt\n      tag_168\n      jumpi\n      dup3\n      swap1\n      sub\n      0x1f\n      and\n      dup3\n      add\n      swap2\n    tag_166:\n      pop\n      pop\n      pop\n      pop\n      pop\n      swap1\n      dup1\n      0x02\n      add\n      dup1\n      sload\n      tag_169\n      swap1\n      tag_101\n      jump\t// in\n    tag_169:\n      dup1\n      0x1f\n      add\n      0x20\n      dup1\n      swap2\n      div\n      mul\n      0x20\n      add\n      mload(0x40)\n      swap1\n      dup2\n      add\n      0x40\n      mstore\n      dup1\n      swap3\n      swap2\n      swap1\n      dup2\n      dup2\n      mstore\n      0x20\n      add\n      dup3\n      dup1\n      sload\n      tag_170\n      swap1\n      tag_101\n      jump\t// in\n    tag_170:\n      dup1\n      iszero\n      tag_171\n      jumpi\n      dup1\n      0x1f\n      lt\n      tag_172\n      jumpi\n      0x0100\n      dup1\n      dup4\n      sload\n      div\n      mul\n      dup4\n      mstore\n      swap2\n      0x20\n      add\n      swap2\n      jump(tag_171)\n    tag_172:\n      dup3\n      add\n      swap2\n      swap1\n      0x00\n      mstore\n      keccak256(0x00, 0x20)\n      swap1\n    tag_173:\n      dup2\n      sload\n      dup2\n      mstore\n      swap1\n      0x01\n      add\n      swap1\n      0x20\n      add\n      dup1\n      dup4\n      gt\n      tag_173\n      jumpi\n      dup3\n      swap1\n      sub\n      0x1f\n      and\n      dup3\n      add\n      swap2\n    tag_171:\n      pop\n      pop\n      pop\n      pop\n      pop\n      swap1\n      dup1\n      0x03\n      add\n      0x00\n      swap1\n      sload\n      swap1\n      0x0100\n      exp\n      swap1\n      div\n      0xff\n      and\n      swap1\n      dup1\n      0x03\n      add\n      0x01\n      swap1\n      sload\n      swap1\n      0x0100\n      exp\n      swap1\n      div\n      0xffff\n      and\n      swap1\n      pop\n      dup6\n      jump\t// out\n        /* \"contracts/OnChainTicket.sol\":3173:3406  function removeIntegration(uint8 _integrationIndex) external onlyOwner {... */\n    tag_56:\n        /* \"@openzeppelin/contracts/access/Ownable.sol\":1531:1544  _checkOwner() */\n      tag_175\n        /* \"@openzeppelin/contracts/access/Ownable.sol\":1531:1542  _checkOwner */\n      tag_92\n        /* \"@openzeppelin/contracts/access/Ownable.sol\":1531:1544  _checkOwner() */\n      jump\t// in\n    tag_175:\n        /* \"contracts/OnChainTicket.sol\":3294:3312  listOfIntegrations */\n      0x02\n        /* \"contracts/OnChainTicket.sol\":3354:3355  1 */\n      0x01\n        /* \"contracts/OnChainTicket.sol\":3326:3344  listOfIntegrations */\n      0x02\n        /* \"contracts/OnChainTicket.sol\":3326:3351  listOfIntegrations.length */\n      dup1\n      sload\n      swap1\n      pop\n        /* \"contracts/OnChainTicket.sol\":3326:3355  listOfIntegrations.length - 1 */\n      tag_177\n      swap2\n      swap1\n      tag_133\n      jump\t// in\n    tag_177:\n        /* \"contracts/OnChainTicket.sol\":3294:3365  listOfIntegrations[... */\n      dup2\n      sload\n      dup2\n      lt\n      tag_178\n      jumpi\n      tag_179\n      tag_96\n      jump\t// in\n    tag_179:\n    tag_178:\n      swap1\n      0x00\n      mstore\n      keccak256(0x00, 0x20)\n      swap1\n      0x04\n      mul\n      add\n        /* \"contracts/OnChainTicket.sol\":3254:3272  listOfIntegrations */\n      0x02\n        /* \"contracts/OnChainTicket.sol\":3273:3290  _integrationIndex */\n      dup3\n        /* \"contracts/OnChainTicket.sol\":3254:3291  listOfIntegrations[_integrationIndex] */\n      0xff\n      and\n      dup2\n      sload\n      dup2\n      lt\n      tag_181\n      jumpi\n      tag_182\n      tag_96\n      jump\t// in\n    tag_182:\n    tag_181:\n      swap1\n      0x00\n      mstore\n      keccak256(0x00, 0x20)\n      swap1\n      0x04\n      mul\n      add\n        /* \"contracts/OnChainTicket.sol\":3254:3365  listOfIntegrations[_integrationIndex] = listOfIntegrations[... */\n      0x00\n      dup3\n      add\n      dup2\n      0x00\n      add\n      swap1\n      dup2\n      tag_184\n      swap2\n      swap1\n      tag_141\n      jump\t// in\n    tag_184:\n      pop\n      0x01\n      dup3\n      add\n      dup2\n      0x01\n      add\n      swap1\n      dup2\n      tag_185\n      swap2\n      swap1\n      tag_141\n      jump\t// in\n    tag_185:\n      pop\n      0x02\n      dup3\n      add\n      dup2\n      0x02\n      add\n      swap1\n      dup2\n      tag_186\n      swap2\n      swap1\n      tag_141\n      jump\t// in\n    tag_186:\n      pop\n      0x03\n      dup3\n      add\n      0x00\n      swap1\n      sload\n      swap1\n      0x0100\n      exp\n      swap1\n      div\n      0xff\n      and\n      dup2\n      0x03\n      add\n      exp(0x0100, 0x00)\n      dup2\n      sload\n      dup2\n      0xff\n      mul\n      not\n      and\n      swap1\n      dup4\n      0xff\n      and\n      mul\n      or\n      swap1\n      sstore\n      pop\n      0x03\n      dup3\n      add\n      0x01\n      swap1\n      sload\n      swap1\n      0x0100\n      exp\n      swap1\n      div\n      0xffff\n      and\n      dup2\n      0x03\n      add\n      exp(0x0100, 0x01)\n      dup2\n      sload\n      dup2\n      0xffff\n      mul\n      not\n      and\n      swap1\n      dup4\n      0xffff\n      and\n      mul\n      or\n      swap1\n      sstore\n      pop\n      swap1\n      pop\n      pop\n        /* \"contracts/OnChainTicket.sol\":3375:3393  listOfIntegrations */\n      0x02\n        /* \"contracts/OnChainTicket.sol\":3375:3399  listOfIntegrations.pop() */\n      dup1\n      sload\n      dup1\n      tag_187\n      jumpi\n      tag_188\n      tag_146\n      jump\t// in\n    tag_188:\n    tag_187:\n      0x01\n      swap1\n      sub\n      dup2\n      dup2\n      swap1\n      0x00\n      mstore\n      keccak256(0x00, 0x20)\n      swap1\n      0x04\n      mul\n      add\n      0x00\n      dup1\n      dup3\n      add\n      0x00\n      tag_190\n      swap2\n      swap1\n      tag_149\n      jump\t// in\n    tag_190:\n      0x01\n      dup3\n      add\n      0x00\n      tag_191\n      swap2\n      swap1\n      tag_149\n      jump\t// in\n    tag_191:\n      0x02\n      dup3\n      add\n      0x00\n      tag_192\n      swap2\n      swap1\n      tag_149\n      jump\t// in\n    tag_192:\n      0x03\n      dup3\n      add\n      exp(0x0100, 0x00)\n      dup2\n      sload\n      swap1\n      0xff\n      mul\n      not\n      and\n      swap1\n      sstore\n      0x03\n      dup3\n      add\n      exp(0x0100, 0x01)\n      dup2\n      sload\n      swap1\n      0xffff\n      mul\n      not\n      and\n      swap1\n      sstore\n      pop\n      pop\n      swap1\n      sstore\n        /* \"contracts/OnChainTicket.sol\":3173:3406  function removeIntegration(uint8 _integrationIndex) external onlyOwner {... */\n      pop\n      jump\t// out\n        /* \"contracts/OnChainTicket.sol\":2761:3167  function addNewIssue(string memory _issueTitle,string memory _issueDescription) external {... */\n    tag_59:\n        /* \"contracts/OnChainTicket.sol\":2860:2885  string memory strUniqueID */\n      0x00\n        /* \"contracts/OnChainTicket.sol\":2888:2916  Strings.toString(issueIndex) */\n      tag_194\n        /* \"contracts/OnChainTicket.sol\":2905:2915  issueIndex */\n      0x01\n      0x10\n      swap1\n      sload\n      swap1\n      0x0100\n      exp\n      swap1\n      div\n      0xffffffffffffffffffffffffffffffff\n      and\n        /* \"contracts/OnChainTicket.sol\":2888:2916  Strings.toString(issueIndex) */\n      0xffffffffffffffffffffffffffffffff\n      and\n        /* \"contracts/OnChainTicket.sol\":2888:2904  Strings.toString */\n      tag_118\n        /* \"contracts/OnChainTicket.sol\":2888:2916  Strings.toString(issueIndex) */\n      jump\t// in\n    tag_194:\n        /* \"contracts/OnChainTicket.sol\":2860:2916  string memory strUniqueID = Strings.toString(issueIndex) */\n      swap1\n      pop\n        /* \"contracts/OnChainTicket.sol\":2961:2972  strUniqueID */\n      dup1\n        /* \"contracts/OnChainTicket.sol\":2940:2973  string.concat(\"PR-\", strUniqueID) */\n      add(0x20, mload(0x40))\n      tag_195\n      swap2\n      swap1\n      tag_196\n      jump\t// in\n    tag_195:\n      mload(0x40)\n      0x20\n      dup2\n      dup4\n      sub\n      sub\n      dup2\n      mstore\n      swap1\n      0x40\n      mstore\n        /* \"contracts/OnChainTicket.sol\":2926:2973  strUniqueID = string.concat(\"PR-\", strUniqueID) */\n      swap1\n      pop\n        /* \"contracts/OnChainTicket.sol\":2983:2995  listOfIssues */\n      0x03\n        /* \"contracts/OnChainTicket.sol\":3014:3072  Ticket(strUniqueID, _issueTitle, _issueDescription, NEW,0) */\n      mload(0x40)\n      dup1\n      0xa0\n      add\n      0x40\n      mstore\n      dup1\n        /* \"contracts/OnChainTicket.sol\":3021:3032  strUniqueID */\n      dup4\n        /* \"contracts/OnChainTicket.sol\":3014:3072  Ticket(strUniqueID, _issueTitle, _issueDescription, NEW,0) */\n      dup2\n      mstore\n      0x20\n      add\n        /* \"contracts/OnChainTicket.sol\":3034:3045  _issueTitle */\n      dup6\n        /* \"contracts/OnChainTicket.sol\":3014:3072  Ticket(strUniqueID, _issueTitle, _issueDescription, NEW,0) */\n      dup2\n      mstore\n      0x20\n      add\n        /* \"contracts/OnChainTicket.sol\":3047:3064  _issueDescription */\n      dup5\n        /* \"contracts/OnChainTicket.sol\":3014:3072  Ticket(strUniqueID, _issueTitle, _issueDescription, NEW,0) */\n      dup2\n      mstore\n      0x20\n      add\n        /* \"contracts/OnChainTicket.sol\":1080:1081  0 */\n      0x00\n        /* \"contracts/OnChainTicket.sol\":3014:3072  Ticket(strUniqueID, _issueTitle, _issueDescription, NEW,0) */\n      0xff\n      and\n      dup2\n      mstore\n      0x20\n      add\n        /* \"contracts/OnChainTicket.sol\":3070:3071  0 */\n      0x00\n        /* \"contracts/OnChainTicket.sol\":3014:3072  Ticket(strUniqueID, _issueTitle, _issueDescription, NEW,0) */\n      0xffff\n      and\n      dup2\n      mstore\n      pop\n        /* \"contracts/OnChainTicket.sol\":2983:3082  listOfIssues.push(... */\n      swap1\n      dup1\n      0x01\n      dup2\n      sload\n      add\n      dup1\n      dup3\n      sstore\n      dup1\n      swap2\n      pop\n      pop\n      0x01\n      swap1\n      sub\n      swap1\n      0x00\n      mstore\n      keccak256(0x00, 0x20)\n      swap1\n      0x04\n      mul\n      add\n      0x00\n      swap1\n      swap2\n      swap1\n      swap2\n      swap1\n      swap2\n      pop\n      0x00\n      dup3\n      add\n      mload\n      dup2\n      0x00\n      add\n      swap1\n      dup2\n      tag_198\n      swap2\n      swap1\n      tag_123\n      jump\t// in\n    tag_198:\n      pop\n      0x20\n      dup3\n      add\n      mload\n      dup2\n      0x01\n      add\n      swap1\n      dup2\n      tag_199\n      swap2\n      swap1\n      tag_123\n      jump\t// in\n    tag_199:\n      pop\n      0x40\n      dup3\n      add\n      mload\n      dup2\n      0x02\n      add\n      swap1\n      dup2\n      tag_200\n      swap2\n      swap1\n      tag_123\n      jump\t// in\n    tag_200:\n      pop\n      0x60\n      dup3\n      add\n      mload\n      dup2\n      0x03\n      add\n      exp(0x0100, 0x00)\n      dup2\n      sload\n      dup2\n      0xff\n      mul\n      not\n      and\n      swap1\n      dup4\n      0xff\n      and\n      mul\n      or\n      swap1\n      sstore\n      pop\n      0x80\n      dup3\n      add\n      mload\n      dup2\n      0x03\n      add\n      exp(0x0100, 0x01)\n      dup2\n      sload\n      dup2\n      0xffff\n      mul\n      not\n      and\n      swap1\n      dup4\n      0xffff\n      and\n      mul\n      or\n      swap1\n      sstore\n      pop\n      pop\n      pop\n        /* \"contracts/OnChainTicket.sol\":3127:3138  _issueTitle */\n      dup3\n        /* \"contracts/OnChainTicket.sol\":3093:3112  getIssueTitleFromID */\n      0x06\n        /* \"contracts/OnChainTicket.sol\":3093:3124  getIssueTitleFromID[issueIndex] */\n      0x00\n        /* \"contracts/OnChainTicket.sol\":3113:3123  issueIndex */\n      0x01\n      0x10\n      swap1\n      sload\n      swap1\n      0x0100\n      exp\n      swap1\n      div\n      0xffffffffffffffffffffffffffffffff\n      and\n        /* \"contracts/OnChainTicket.sol\":3093:3124  getIssueTitleFromID[issueIndex] */\n      0xffffffffffffffffffffffffffffffff\n      and\n      0xffffffffffffffffffffffffffffffff\n      and\n      dup2\n      mstore\n      0x20\n      add\n      swap1\n      dup2\n      mstore\n      0x20\n      add\n      0x00\n      keccak256\n        /* \"contracts/OnChainTicket.sol\":3093:3138  getIssueTitleFromID[issueIndex] = _issueTitle */\n      swap1\n      dup2\n      tag_201\n      swap2\n      swap1\n      tag_123\n      jump\t// in\n    tag_201:\n      pop\n        /* \"contracts/OnChainTicket.sol\":3148:3158  issueIndex */\n      0x01\n      0x10\n        /* \"contracts/OnChainTicket.sol\":3148:3160  issueIndex++ */\n      dup2\n      dup2\n      swap1\n      sload\n      swap1\n      0x0100\n      exp\n      swap1\n      div\n      0xffffffffffffffffffffffffffffffff\n      and\n      dup1\n      swap3\n      swap2\n      swap1\n      tag_202\n      swap1\n      tag_128\n      jump\t// in\n    tag_202:\n      swap2\n      swap1\n      0x0100\n      exp\n      dup2\n      sload\n      dup2\n      0xffffffffffffffffffffffffffffffff\n      mul\n      not\n      and\n      swap1\n      dup4\n      0xffffffffffffffffffffffffffffffff\n      and\n      mul\n      or\n      swap1\n      sstore\n      pop\n      pop\n        /* \"contracts/OnChainTicket.sol\":2850:3167  {... */\n      pop\n        /* \"contracts/OnChainTicket.sol\":2761:3167  function addNewIssue(string memory _issueTitle,string memory _issueDescription) external {... */\n      pop\n      pop\n      jump\t// out\n        /* \"@openzeppelin/contracts/access/Ownable.sol\":1638:1723  function owner() public view virtual returns (address) {... */\n    tag_61:\n        /* \"@openzeppelin/contracts/access/Ownable.sol\":1684:1691  address */\n      0x00\n        /* \"@openzeppelin/contracts/access/Ownable.sol\":1710:1716  _owner */\n      dup1\n      0x00\n      swap1\n      sload\n      swap1\n      0x0100\n      exp\n      swap1\n      div\n      0xffffffffffffffffffffffffffffffffffffffff\n      and\n        /* \"@openzeppelin/contracts/access/Ownable.sol\":1703:1716  return _owner */\n      swap1\n      pop\n        /* \"@openzeppelin/contracts/access/Ownable.sol\":1638:1723  function owner() public view virtual returns (address) {... */\n      swap1\n      jump\t// out\n        /* \"contracts/OnChainTicket.sol\":3952:4135  function upVotePR (uint8 _problemReportIndex) external {... */\n    tag_66:\n        /* \"contracts/OnChainTicket.sol\":4017:4050  Ticket storage updatedVoteCounter */\n      0x00\n        /* \"contracts/OnChainTicket.sol\":4053:4065  listOfIssues */\n      0x03\n        /* \"contracts/OnChainTicket.sol\":4066:4085  _problemReportIndex */\n      dup3\n        /* \"contracts/OnChainTicket.sol\":4053:4086  listOfIssues[_problemReportIndex] */\n      0xff\n      and\n      dup2\n      sload\n      dup2\n      lt\n      tag_205\n      jumpi\n      tag_206\n      tag_96\n      jump\t// in\n    tag_206:\n    tag_205:\n      swap1\n      0x00\n      mstore\n      keccak256(0x00, 0x20)\n      swap1\n      0x04\n      mul\n      add\n        /* \"contracts/OnChainTicket.sol\":4017:4086  Ticket storage updatedVoteCounter = listOfIssues[_problemReportIndex] */\n      swap1\n      pop\n        /* \"contracts/OnChainTicket.sol\":4096:4114  updatedVoteCounter */\n      dup1\n        /* \"contracts/OnChainTicket.sol\":4096:4124  updatedVoteCounter.voteCount */\n      0x03\n      add\n      0x01\n        /* \"contracts/OnChainTicket.sol\":4096:4127  updatedVoteCounter.voteCount ++ */\n      dup2\n      dup2\n      swap1\n      sload\n      swap1\n      0x0100\n      exp\n      swap1\n      div\n      0xffff\n      and\n      dup1\n      swap3\n      swap2\n      swap1\n      tag_208\n      swap1\n      tag_209\n      jump\t// in\n    tag_208:\n      swap2\n      swap1\n      0x0100\n      exp\n      dup2\n      sload\n      dup2\n      0xffff\n      mul\n      not\n      and\n      swap1\n      dup4\n      0xffff\n      and\n      mul\n      or\n      swap1\n      sstore\n      pop\n      pop\n        /* \"contracts/OnChainTicket.sol\":4007:4135  {... */\n      pop\n        /* \"contracts/OnChainTicket.sol\":3952:4135  function upVotePR (uint8 _problemReportIndex) external {... */\n      pop\n      jump\t// out\n        /* \"contracts/OnChainTicket.sol\":1864:1914  mapping(uint128 => string) public getProjectFromID */\n    tag_70:\n      mstore(0x20, 0x04)\n      dup1\n      0x00\n      mstore\n      keccak256(0x00, 0x40)\n      0x00\n      swap2\n      pop\n      swap1\n      pop\n      dup1\n      sload\n      tag_210\n      swap1\n      tag_101\n      jump\t// in\n    tag_210:\n      dup1\n      0x1f\n      add\n      0x20\n      dup1\n      swap2\n      div\n      mul\n      0x20\n      add\n      mload(0x40)\n      swap1\n      dup2\n      add\n      0x40\n      mstore\n      dup1\n      swap3\n      swap2\n      swap1\n      dup2\n      dup2\n      mstore\n      0x20\n      add\n      dup3\n      dup1\n      sload\n      tag_211\n      swap1\n      tag_101\n      jump\t// in\n    tag_211:\n      dup1\n      iszero\n      tag_212\n      jumpi\n      dup1\n      0x1f\n      lt\n      tag_213\n      jumpi\n      0x0100\n      dup1\n      dup4\n      sload\n      div\n      mul\n      dup4\n      mstore\n      swap2\n      0x20\n      add\n      swap2\n      jump(tag_212)\n    tag_213:\n      dup3\n      add\n      swap2\n      swap1\n      0x00\n      mstore\n      keccak256(0x00, 0x20)\n      swap1\n    tag_214:\n      dup2\n      sload\n      dup2\n      mstore\n      swap1\n      0x01\n      add\n      swap1\n      0x20\n      add\n      dup1\n      dup4\n      gt\n      tag_214\n      jumpi\n      dup3\n      swap1\n      sub\n      0x1f\n      and\n      dup3\n      add\n      swap2\n    tag_212:\n      pop\n      pop\n      pop\n      pop\n      pop\n      dup2\n      jump\t// out\n        /* \"contracts/OnChainTicket.sol\":1920:1979  mapping(uint128 => uint8) public getIntegrationStatusFromID */\n    tag_75:\n      mstore(0x20, 0x05)\n      dup1\n      0x00\n      mstore\n      keccak256(0x00, 0x40)\n      0x00\n      swap2\n      pop\n      sload\n      swap1\n      0x0100\n      exp\n      swap1\n      div\n      0xff\n      and\n      dup2\n      jump\t// out\n        /* \"contracts/OnChainTicket.sol\":2044:2097  mapping(uint128 => uint8) public getIssueStatusFromID */\n    tag_80:\n      mstore(0x20, 0x07)\n      dup1\n      0x00\n      mstore\n      keccak256(0x00, 0x40)\n      0x00\n      swap2\n      pop\n      sload\n      swap1\n      0x0100\n      exp\n      swap1\n      div\n      0xff\n      and\n      dup2\n      jump\t// out\n        /* \"@openzeppelin/contracts/access/Ownable.sol\":2543:2758  function transferOwnership(address newOwner) public virtual onlyOwner {... */\n    tag_85:\n        /* \"@openzeppelin/contracts/access/Ownable.sol\":1531:1544  _checkOwner() */\n      tag_216\n        /* \"@openzeppelin/contracts/access/Ownable.sol\":1531:1542  _checkOwner */\n      tag_92\n        /* \"@openzeppelin/contracts/access/Ownable.sol\":1531:1544  _checkOwner() */\n      jump\t// in\n    tag_216:\n        /* \"@openzeppelin/contracts/access/Ownable.sol\":2647:2648  0 */\n      0x00\n        /* \"@openzeppelin/contracts/access/Ownable.sol\":2627:2649  newOwner == address(0) */\n      0xffffffffffffffffffffffffffffffffffffffff\n      and\n        /* \"@openzeppelin/contracts/access/Ownable.sol\":2627:2635  newOwner */\n      dup2\n        /* \"@openzeppelin/contracts/access/Ownable.sol\":2627:2649  newOwner == address(0) */\n      0xffffffffffffffffffffffffffffffffffffffff\n      and\n      sub\n        /* \"@openzeppelin/contracts/access/Ownable.sol\":2623:2714  if (newOwner == address(0)) {... */\n      tag_218\n      jumpi\n        /* \"@openzeppelin/contracts/access/Ownable.sol\":2700:2701  0 */\n      0x00\n        /* \"@openzeppelin/contracts/access/Ownable.sol\":2672:2703  OwnableInvalidOwner(address(0)) */\n      mload(0x40)\n      0x1e4fbdf700000000000000000000000000000000000000000000000000000000\n      dup2\n      mstore\n      0x04\n      add\n      tag_219\n      swap2\n      swap1\n      tag_63\n      jump\t// in\n    tag_219:\n      mload(0x40)\n      dup1\n      swap2\n      sub\n      swap1\n      revert\n        /* \"@openzeppelin/contracts/access/Ownable.sol\":2623:2714  if (newOwner == address(0)) {... */\n    tag_218:\n        /* \"@openzeppelin/contracts/access/Ownable.sol\":2723:2751  _transferOwnership(newOwner) */\n      tag_220\n        /* \"@openzeppelin/contracts/access/Ownable.sol\":2742:2750  newOwner */\n      dup2\n        /* \"@openzeppelin/contracts/access/Ownable.sol\":2723:2741  _transferOwnership */\n      tag_156\n        /* \"@openzeppelin/contracts/access/Ownable.sol\":2723:2751  _transferOwnership(newOwner) */\n      jump\t// in\n    tag_220:\n        /* \"@openzeppelin/contracts/access/Ownable.sol\":2543:2758  function transferOwnership(address newOwner) public virtual onlyOwner {... */\n      pop\n      jump\t// out\n        /* \"contracts/OnChainTicket.sol\":1985:2038  mapping(uint128 => string) public getIssueTitleFromID */\n    tag_88:\n      mstore(0x20, 0x06)\n      dup1\n      0x00\n      mstore\n      keccak256(0x00, 0x40)\n      0x00\n      swap2\n      pop\n      swap1\n      pop\n      dup1\n      sload\n      tag_221\n      swap1\n      tag_101\n      jump\t// in\n    tag_221:\n      dup1\n      0x1f\n      add\n      0x20\n      dup1\n      swap2\n      div\n      mul\n      0x20\n      add\n      mload(0x40)\n      swap1\n      dup2\n      add\n      0x40\n      mstore\n      dup1\n      swap3\n      swap2\n      swap1\n      dup2\n      dup2\n      mstore\n      0x20\n      add\n      dup3\n      dup1\n      sload\n      tag_222\n      swap1\n      tag_101\n      jump\t// in\n    tag_222:\n      dup1\n      iszero\n      tag_223\n      jumpi\n      dup1\n      0x1f\n      lt\n      tag_224\n      jumpi\n      0x0100\n      dup1\n      dup4\n      sload\n      div\n      mul\n      dup4\n      mstore\n      swap2\n      0x20\n      add\n      swap2\n      jump(tag_223)\n    tag_224:\n      dup3\n      add\n      swap2\n      swap1\n      0x00\n      mstore\n      keccak256(0x00, 0x20)\n      swap1\n    tag_225:\n      dup2\n      sload\n      dup2\n      mstore\n      swap1\n      0x01\n      add\n      swap1\n      0x20\n      add\n      dup1\n      dup4\n      gt\n      tag_225\n      jumpi\n      dup3\n      swap1\n      sub\n      0x1f\n      and\n      dup3\n      add\n      swap2\n    tag_223:\n      pop\n      pop\n      pop\n      pop\n      pop\n      dup2\n      jump\t// out\n        /* \"@openzeppelin/contracts/access/Ownable.sol\":1796:1958  function _checkOwner() internal view virtual {... */\n    tag_92:\n        /* \"@openzeppelin/contracts/access/Ownable.sol\":1866:1878  _msgSender() */\n      tag_227\n        /* \"@openzeppelin/contracts/access/Ownable.sol\":1866:1876  _msgSender */\n      tag_228\n        /* \"@openzeppelin/contracts/access/Ownable.sol\":1866:1878  _msgSender() */\n      jump\t// in\n    tag_227:\n        /* \"@openzeppelin/contracts/access/Ownable.sol\":1855:1878  owner() != _msgSender() */\n      0xffffffffffffffffffffffffffffffffffffffff\n      and\n        /* \"@openzeppelin/contracts/access/Ownable.sol\":1855:1862  owner() */\n      tag_229\n        /* \"@openzeppelin/contracts/access/Ownable.sol\":1855:1860  owner */\n      tag_61\n        /* \"@openzeppelin/contracts/access/Ownable.sol\":1855:1862  owner() */\n      jump\t// in\n    tag_229:\n        /* \"@openzeppelin/contracts/access/Ownable.sol\":1855:1878  owner() != _msgSender() */\n      0xffffffffffffffffffffffffffffffffffffffff\n      and\n      eq\n        /* \"@openzeppelin/contracts/access/Ownable.sol\":1851:1952  if (owner() != _msgSender()) {... */\n      tag_230\n      jumpi\n        /* \"@openzeppelin/contracts/access/Ownable.sol\":1928:1940  _msgSender() */\n      tag_231\n        /* \"@openzeppelin/contracts/access/Ownable.sol\":1928:1938  _msgSender */\n      tag_228\n        /* \"@openzeppelin/contracts/access/Ownable.sol\":1928:1940  _msgSender() */\n      jump\t// in\n    tag_231:\n        /* \"@openzeppelin/contracts/access/Ownable.sol\":1901:1941  OwnableUnauthorizedAccount(_msgSender()) */\n      mload(0x40)\n      0x118cdaa700000000000000000000000000000000000000000000000000000000\n      dup2\n      mstore\n      0x04\n      add\n      tag_232\n      swap2\n      swap1\n      tag_63\n      jump\t// in\n    tag_232:\n      mload(0x40)\n      dup1\n      swap2\n      sub\n      swap1\n      revert\n        /* \"@openzeppelin/contracts/access/Ownable.sol\":1851:1952  if (owner() != _msgSender()) {... */\n    tag_230:\n        /* \"@openzeppelin/contracts/access/Ownable.sol\":1796:1958  function _checkOwner() internal view virtual {... */\n      jump\t// out\n        /* \"@openzeppelin/contracts/utils/Strings.sol\":637:1335  function toString(uint256 value) internal pure returns (string memory) {... */\n    tag_118:\n        /* \"@openzeppelin/contracts/utils/Strings.sol\":693:706  string memory */\n      0x60\n        /* \"@openzeppelin/contracts/utils/Strings.sol\":742:756  uint256 length */\n      0x00\n        /* \"@openzeppelin/contracts/utils/Strings.sol\":779:780  1 */\n      0x01\n        /* \"@openzeppelin/contracts/utils/Strings.sol\":759:776  Math.log10(value) */\n      tag_234\n        /* \"@openzeppelin/contracts/utils/Strings.sol\":770:775  value */\n      dup5\n        /* \"@openzeppelin/contracts/utils/Strings.sol\":759:769  Math.log10 */\n      tag_235\n        /* \"@openzeppelin/contracts/utils/Strings.sol\":759:776  Math.log10(value) */\n      jump\t// in\n    tag_234:\n        /* \"@openzeppelin/contracts/utils/Strings.sol\":759:780  Math.log10(value) + 1 */\n      add\n        /* \"@openzeppelin/contracts/utils/Strings.sol\":742:780  uint256 length = Math.log10(value) + 1 */\n      swap1\n      pop\n        /* \"@openzeppelin/contracts/utils/Strings.sol\":794:814  string memory buffer */\n      0x00\n        /* \"@openzeppelin/contracts/utils/Strings.sol\":828:834  length */\n      dup2\n        /* \"@openzeppelin/contracts/utils/Strings.sol\":817:835  new string(length) */\n      0xffffffffffffffff\n      dup2\n      gt\n      iszero\n      tag_236\n      jumpi\n      tag_237\n      tag_238\n      jump\t// in\n    tag_237:\n    tag_236:\n      mload(0x40)\n      swap1\n      dup1\n      dup3\n      mstore\n      dup1\n      0x1f\n      add\n      not(0x1f)\n      and\n      0x20\n      add\n      dup3\n      add\n      0x40\n      mstore\n      dup1\n      iszero\n      tag_239\n      jumpi\n      dup2\n      0x20\n      add\n      0x01\n      dup3\n      mul\n      dup1\n      calldatasize\n      dup4\n      calldatacopy\n      dup1\n      dup3\n      add\n      swap2\n      pop\n      pop\n      swap1\n      pop\n    tag_239:\n      pop\n        /* \"@openzeppelin/contracts/utils/Strings.sol\":794:835  string memory buffer = new string(length) */\n      swap1\n      pop\n        /* \"@openzeppelin/contracts/utils/Strings.sol\":849:860  uint256 ptr */\n      0x00\n        /* \"@openzeppelin/contracts/utils/Strings.sol\":975:981  length */\n      dup3\n        /* \"@openzeppelin/contracts/utils/Strings.sol\":971:973  32 */\n      0x20\n        /* \"@openzeppelin/contracts/utils/Strings.sol\":967:982  add(32, length) */\n      add\n        /* \"@openzeppelin/contracts/utils/Strings.sol\":959:965  buffer */\n      dup3\n        /* \"@openzeppelin/contracts/utils/Strings.sol\":955:983  add(buffer, add(32, length)) */\n      add\n        /* \"@openzeppelin/contracts/utils/Strings.sol\":948:983  ptr := add(buffer, add(32, length)) */\n      swap1\n      pop\n        /* \"@openzeppelin/contracts/utils/Strings.sol\":1010:1292  while (true) {... */\n    tag_240:\n        /* \"@openzeppelin/contracts/utils/Strings.sol\":1017:1021  true */\n      0x01\n        /* \"@openzeppelin/contracts/utils/Strings.sol\":1010:1292  while (true) {... */\n      iszero\n      tag_241\n      jumpi\n        /* \"@openzeppelin/contracts/utils/Strings.sol\":1041:1046  ptr-- */\n      dup1\n      dup1\n      0x01\n      swap1\n      sub\n      swap2\n      pop\n      pop\n        /* \"@openzeppelin/contracts/utils/Strings.sol\":1180:1190  HEX_DIGITS */\n      0x3031323334353637383961626364656600000000000000000000000000000000\n        /* \"@openzeppelin/contracts/utils/Strings.sol\":1175:1177  10 */\n      0x0a\n        /* \"@openzeppelin/contracts/utils/Strings.sol\":1168:1173  value */\n      dup7\n        /* \"@openzeppelin/contracts/utils/Strings.sol\":1164:1178  mod(value, 10) */\n      mod\n        /* \"@openzeppelin/contracts/utils/Strings.sol\":1159:1191  byte(mod(value, 10), HEX_DIGITS) */\n      byte\n        /* \"@openzeppelin/contracts/utils/Strings.sol\":1154:1157  ptr */\n      dup2\n        /* \"@openzeppelin/contracts/utils/Strings.sol\":1146:1192  mstore8(ptr, byte(mod(value, 10), HEX_DIGITS)) */\n      mstore8\n        /* \"@openzeppelin/contracts/utils/Strings.sol\":1236:1238  10 */\n      0x0a\n        /* \"@openzeppelin/contracts/utils/Strings.sol\":1227:1238  value /= 10 */\n      dup6\n      dup2\n      tag_242\n      jumpi\n      tag_243\n      tag_244\n      jump\t// in\n    tag_243:\n    tag_242:\n      div\n      swap5\n      pop\n        /* \"@openzeppelin/contracts/utils/Strings.sol\":1269:1270  0 */\n      0x00\n        /* \"@openzeppelin/contracts/utils/Strings.sol\":1260:1265  value */\n      dup6\n        /* \"@openzeppelin/contracts/utils/Strings.sol\":1260:1270  value == 0 */\n      sub\n        /* \"@openzeppelin/contracts/utils/Strings.sol\":1010:1292  while (true) {... */\n      tag_240\n        /* \"@openzeppelin/contracts/utils/Strings.sol\":1256:1277  if (value == 0) break */\n      jumpi\n        /* \"@openzeppelin/contracts/utils/Strings.sol\":1010:1292  while (true) {... */\n    tag_241:\n        /* \"@openzeppelin/contracts/utils/Strings.sol\":1312:1318  buffer */\n      dup2\n        /* \"@openzeppelin/contracts/utils/Strings.sol\":1305:1318  return buffer */\n      swap4\n      pop\n      pop\n      pop\n      pop\n        /* \"@openzeppelin/contracts/utils/Strings.sol\":637:1335  function toString(uint256 value) internal pure returns (string memory) {... */\n      swap2\n      swap1\n      pop\n      jump\t// out\n        /* \"@openzeppelin/contracts/access/Ownable.sol\":2912:3099  function _transferOwnership(address newOwner) internal virtual {... */\n    tag_156:\n        /* \"@openzeppelin/contracts/access/Ownable.sol\":2985:3001  address oldOwner */\n      0x00\n        /* \"@openzeppelin/contracts/access/Ownable.sol\":3004:3010  _owner */\n      dup1\n      0x00\n      swap1\n      sload\n      swap1\n      0x0100\n      exp\n      swap1\n      div\n      0xffffffffffffffffffffffffffffffffffffffff\n      and\n        /* \"@openzeppelin/contracts/access/Ownable.sol\":2985:3010  address oldOwner = _owner */\n      swap1\n      pop\n        /* \"@openzeppelin/contracts/access/Ownable.sol\":3029:3037  newOwner */\n      dup2\n        /* \"@openzeppelin/contracts/access/Ownable.sol\":3020:3026  _owner */\n      0x00\n      dup1\n        /* \"@openzeppelin/contracts/access/Ownable.sol\":3020:3037  _owner = newOwner */\n      0x0100\n      exp\n      dup2\n      sload\n      dup2\n      0xffffffffffffffffffffffffffffffffffffffff\n      mul\n      not\n      and\n      swap1\n      dup4\n      0xffffffffffffffffffffffffffffffffffffffff\n      and\n      mul\n      or\n      swap1\n      sstore\n      pop\n        /* \"@openzeppelin/contracts/access/Ownable.sol\":3083:3091  newOwner */\n      dup2\n        /* \"@openzeppelin/contracts/access/Ownable.sol\":3052:3092  OwnershipTransferred(oldOwner, newOwner) */\n      0xffffffffffffffffffffffffffffffffffffffff\n      and\n        /* \"@openzeppelin/contracts/access/Ownable.sol\":3073:3081  oldOwner */\n      dup2\n        /* \"@openzeppelin/contracts/access/Ownable.sol\":3052:3092  OwnershipTransferred(oldOwner, newOwner) */\n      0xffffffffffffffffffffffffffffffffffffffff\n      and\n      0x8be0079c531659141344cd1fd0a4f28419497f9722a3daafe3b4186f6b6457e0\n      mload(0x40)\n      mload(0x40)\n      dup1\n      swap2\n      sub\n      swap1\n      log3\n        /* \"@openzeppelin/contracts/access/Ownable.sol\":2975:3099  {... */\n      pop\n        /* \"@openzeppelin/contracts/access/Ownable.sol\":2912:3099  function _transferOwnership(address newOwner) internal virtual {... */\n      pop\n      jump\t// out\n        /* \"@openzeppelin/contracts/utils/Context.sol\":656:752  function _msgSender() internal view virtual returns (address) {... */\n    tag_228:\n        /* \"@openzeppelin/contracts/utils/Context.sol\":709:716  address */\n      0x00\n        /* \"@openzeppelin/contracts/utils/Context.sol\":735:745  msg.sender */\n      caller\n        /* \"@openzeppelin/contracts/utils/Context.sol\":728:745  return msg.sender */\n      swap1\n      pop\n        /* \"@openzeppelin/contracts/utils/Context.sol\":656:752  function _msgSender() internal view virtual returns (address) {... */\n      swap1\n      jump\t// out\n        /* \"@openzeppelin/contracts/utils/math/Math.sol\":12214:13130  function log10(uint256 value) internal pure returns (uint256) {... */\n    tag_235:\n        /* \"@openzeppelin/contracts/utils/math/Math.sol\":12267:12274  uint256 */\n      0x00\n        /* \"@openzeppelin/contracts/utils/math/Math.sol\":12286:12300  uint256 result */\n      dup1\n        /* \"@openzeppelin/contracts/utils/math/Math.sol\":12303:12304  0 */\n      0x00\n        /* \"@openzeppelin/contracts/utils/math/Math.sol\":12286:12304  uint256 result = 0 */\n      swap1\n      pop\n        /* \"@openzeppelin/contracts/utils/math/Math.sol\":12351:12359  10 ** 64 */\n      0x184f03e93ff9f4daa797ed6e38ed64bf6a1f010000000000000000\n        /* \"@openzeppelin/contracts/utils/math/Math.sol\":12342:12347  value */\n      dup4\n        /* \"@openzeppelin/contracts/utils/math/Math.sol\":12342:12359  value >= 10 ** 64 */\n      lt\n        /* \"@openzeppelin/contracts/utils/math/Math.sol\":12338:12441  if (value >= 10 ** 64) {... */\n      tag_249\n      jumpi\n        /* \"@openzeppelin/contracts/utils/math/Math.sol\":12388:12396  10 ** 64 */\n      0x184f03e93ff9f4daa797ed6e38ed64bf6a1f010000000000000000\n        /* \"@openzeppelin/contracts/utils/math/Math.sol\":12379:12396  value /= 10 ** 64 */\n      dup4\n      dup2\n      tag_250\n      jumpi\n      tag_251\n      tag_244\n      jump\t// in\n    tag_251:\n    tag_250:\n      div\n      swap3\n      pop\n        /* \"@openzeppelin/contracts/utils/math/Math.sol\":12424:12426  64 */\n      0x40\n        /* \"@openzeppelin/contracts/utils/math/Math.sol\":12414:12426  result += 64 */\n      dup2\n      add\n      swap1\n      pop\n        /* \"@openzeppelin/contracts/utils/math/Math.sol\":12338:12441  if (value >= 10 ** 64) {... */\n    tag_249:\n        /* \"@openzeppelin/contracts/utils/math/Math.sol\":12467:12475  10 ** 32 */\n      0x04ee2d6d415b85acef8100000000\n        /* \"@openzeppelin/contracts/utils/math/Math.sol\":12458:12463  value */\n      dup4\n        /* \"@openzeppelin/contracts/utils/math/Math.sol\":12458:12475  value >= 10 ** 32 */\n      lt\n        /* \"@openzeppelin/contracts/utils/math/Math.sol\":12454:12557  if (value >= 10 ** 32) {... */\n      tag_252\n      jumpi\n        /* \"@openzeppelin/contracts/utils/math/Math.sol\":12504:12512  10 ** 32 */\n      0x04ee2d6d415b85acef8100000000\n        /* \"@openzeppelin/contracts/utils/math/Math.sol\":12495:12512  value /= 10 ** 32 */\n      dup4\n      dup2\n      tag_253\n      jumpi\n      tag_254\n      tag_244\n      jump\t// in\n    tag_254:\n    tag_253:\n      div\n      swap3\n      pop\n        /* \"@openzeppelin/contracts/utils/math/Math.sol\":12540:12542  32 */\n      0x20\n        /* \"@openzeppelin/contracts/utils/math/Math.sol\":12530:12542  result += 32 */\n      dup2\n      add\n      swap1\n      pop\n        /* \"@openzeppelin/contracts/utils/math/Math.sol\":12454:12557  if (value >= 10 ** 32) {... */\n    tag_252:\n        /* \"@openzeppelin/contracts/utils/math/Math.sol\":12583:12591  10 ** 16 */\n      0x2386f26fc10000\n        /* \"@openzeppelin/contracts/utils/math/Math.sol\":12574:12579  value */\n      dup4\n        /* \"@openzeppelin/contracts/utils/math/Math.sol\":12574:12591  value >= 10 ** 16 */\n      lt\n        /* \"@openzeppelin/contracts/utils/math/Math.sol\":12570:12673  if (value >= 10 ** 16) {... */\n      tag_255\n      jumpi\n        /* \"@openzeppelin/contracts/utils/math/Math.sol\":12620:12628  10 ** 16 */\n      0x2386f26fc10000\n        /* \"@openzeppelin/contracts/utils/math/Math.sol\":12611:12628  value /= 10 ** 16 */\n      dup4\n      dup2\n      tag_256\n      jumpi\n      tag_257\n      tag_244\n      jump\t// in\n    tag_257:\n    tag_256:\n      div\n      swap3\n      pop\n        /* \"@openzeppelin/contracts/utils/math/Math.sol\":12656:12658  16 */\n      0x10\n        /* \"@openzeppelin/contracts/utils/math/Math.sol\":12646:12658  result += 16 */\n      dup2\n      add\n      swap1\n      pop\n        /* \"@openzeppelin/contracts/utils/math/Math.sol\":12570:12673  if (value >= 10 ** 16) {... */\n    tag_255:\n        /* \"@openzeppelin/contracts/utils/math/Math.sol\":12699:12706  10 ** 8 */\n      0x05f5e100\n        /* \"@openzeppelin/contracts/utils/math/Math.sol\":12690:12695  value */\n      dup4\n        /* \"@openzeppelin/contracts/utils/math/Math.sol\":12690:12706  value >= 10 ** 8 */\n      lt\n        /* \"@openzeppelin/contracts/utils/math/Math.sol\":12686:12786  if (value >= 10 ** 8) {... */\n      tag_258\n      jumpi\n        /* \"@openzeppelin/contracts/utils/math/Math.sol\":12735:12742  10 ** 8 */\n      0x05f5e100\n        /* \"@openzeppelin/contracts/utils/math/Math.sol\":12726:12742  value /= 10 ** 8 */\n      dup4\n      dup2\n      tag_259\n      jumpi\n      tag_260\n      tag_244\n      jump\t// in\n    tag_260:\n    tag_259:\n      div\n      swap3\n      pop\n        /* \"@openzeppelin/contracts/utils/math/Math.sol\":12770:12771  8 */\n      0x08\n        /* \"@openzeppelin/contracts/utils/math/Math.sol\":12760:12771  result += 8 */\n      dup2\n      add\n      swap1\n      pop\n        /* \"@openzeppelin/contracts/utils/math/Math.sol\":12686:12786  if (value >= 10 ** 8) {... */\n    tag_258:\n        /* \"@openzeppelin/contracts/utils/math/Math.sol\":12812:12819  10 ** 4 */\n      0x2710\n        /* \"@openzeppelin/contracts/utils/math/Math.sol\":12803:12808  value */\n      dup4\n        /* \"@openzeppelin/contracts/utils/math/Math.sol\":12803:12819  value >= 10 ** 4 */\n      lt\n        /* \"@openzeppelin/contracts/utils/math/Math.sol\":12799:12899  if (value >= 10 ** 4) {... */\n      tag_261\n      jumpi\n        /* \"@openzeppelin/contracts/utils/math/Math.sol\":12848:12855  10 ** 4 */\n      0x2710\n        /* \"@openzeppelin/contracts/utils/math/Math.sol\":12839:12855  value /= 10 ** 4 */\n      dup4\n      dup2\n      tag_262\n      jumpi\n      tag_263\n      tag_244\n      jump\t// in\n    tag_263:\n    tag_262:\n      div\n      swap3\n      pop\n        /* \"@openzeppelin/contracts/utils/math/Math.sol\":12883:12884  4 */\n      0x04\n        /* \"@openzeppelin/contracts/utils/math/Math.sol\":12873:12884  result += 4 */\n      dup2\n      add\n      swap1\n      pop\n        /* \"@openzeppelin/contracts/utils/math/Math.sol\":12799:12899  if (value >= 10 ** 4) {... */\n    tag_261:\n        /* \"@openzeppelin/contracts/utils/math/Math.sol\":12925:12932  10 ** 2 */\n      0x64\n        /* \"@openzeppelin/contracts/utils/math/Math.sol\":12916:12921  value */\n      dup4\n        /* \"@openzeppelin/contracts/utils/math/Math.sol\":12916:12932  value >= 10 ** 2 */\n      lt\n        /* \"@openzeppelin/contracts/utils/math/Math.sol\":12912:13012  if (value >= 10 ** 2) {... */\n      tag_264\n      jumpi\n        /* \"@openzeppelin/contracts/utils/math/Math.sol\":12961:12968  10 ** 2 */\n      0x64\n        /* \"@openzeppelin/contracts/utils/math/Math.sol\":12952:12968  value /= 10 ** 2 */\n      dup4\n      dup2\n      tag_265\n      jumpi\n      tag_266\n      tag_244\n      jump\t// in\n    tag_266:\n    tag_265:\n      div\n      swap3\n      pop\n        /* \"@openzeppelin/contracts/utils/math/Math.sol\":12996:12997  2 */\n      0x02\n        /* \"@openzeppelin/contracts/utils/math/Math.sol\":12986:12997  result += 2 */\n      dup2\n      add\n      swap1\n      pop\n        /* \"@openzeppelin/contracts/utils/math/Math.sol\":12912:13012  if (value >= 10 ** 2) {... */\n    tag_264:\n        /* \"@openzeppelin/contracts/utils/math/Math.sol\":13038:13045  10 ** 1 */\n      0x0a\n        /* \"@openzeppelin/contracts/utils/math/Math.sol\":13029:13034  value */\n      dup4\n        /* \"@openzeppelin/contracts/utils/math/Math.sol\":13029:13045  value >= 10 ** 1 */\n      lt\n        /* \"@openzeppelin/contracts/utils/math/Math.sol\":13025:13091  if (value >= 10 ** 1) {... */\n      tag_267\n      jumpi\n        /* \"@openzeppelin/contracts/utils/math/Math.sol\":13075:13076  1 */\n      0x01\n        /* \"@openzeppelin/contracts/utils/math/Math.sol\":13065:13076  result += 1 */\n      dup2\n      add\n      swap1\n      pop\n        /* \"@openzeppelin/contracts/utils/math/Math.sol\":13025:13091  if (value >= 10 ** 1) {... */\n    tag_267:\n        /* \"@openzeppelin/contracts/utils/math/Math.sol\":13117:13123  result */\n      dup1\n        /* \"@openzeppelin/contracts/utils/math/Math.sol\":13110:13123  return result */\n      swap2\n      pop\n      pop\n        /* \"@openzeppelin/contracts/utils/math/Math.sol\":12214:13130  function log10(uint256 value) internal pure returns (uint256) {... */\n      swap2\n      swap1\n      pop\n      jump\t// out\n    tag_149:\n      pop\n      dup1\n      sload\n      tag_268\n      swap1\n      tag_101\n      jump\t// in\n    tag_268:\n      0x00\n      dup3\n      sstore\n      dup1\n      0x1f\n      lt\n      tag_270\n      jumpi\n      pop\n      jump(tag_269)\n    tag_270:\n      0x1f\n      add\n      0x20\n      swap1\n      div\n      swap1\n      0x00\n      mstore\n      keccak256(0x00, 0x20)\n      swap1\n      dup2\n      add\n      swap1\n      tag_271\n      swap2\n      swap1\n      tag_272\n      jump\t// in\n    tag_271:\n    tag_269:\n      pop\n      jump\t// out\n    tag_272:\n    tag_273:\n      dup1\n      dup3\n      gt\n      iszero\n      tag_274\n      jumpi\n      0x00\n      dup2\n      0x00\n      swap1\n      sstore\n      pop\n      0x01\n      add\n      jump(tag_273)\n    tag_274:\n      pop\n      swap1\n      jump\t// out\n        /* \"#utility.yul\":7:125   */\n    tag_275:\n        /* \"#utility.yul\":44:51   */\n      0x00\n        /* \"#utility.yul\":84:118   */\n      0xffffffffffffffffffffffffffffffff\n        /* \"#utility.yul\":77:82   */\n      dup3\n        /* \"#utility.yul\":73:119   */\n      and\n        /* \"#utility.yul\":62:119   */\n      swap1\n      pop\n        /* \"#utility.yul\":7:125   */\n      swap2\n      swap1\n      pop\n      jump\t// out\n        /* \"#utility.yul\":131:249   */\n    tag_276:\n        /* \"#utility.yul\":218:242   */\n      tag_334\n        /* \"#utility.yul\":236:241   */\n      dup2\n        /* \"#utility.yul\":218:242   */\n      tag_275\n      jump\t// in\n    tag_334:\n        /* \"#utility.yul\":213:216   */\n      dup3\n        /* \"#utility.yul\":206:243   */\n      mstore\n        /* \"#utility.yul\":131:249   */\n      pop\n      pop\n      jump\t// out\n        /* \"#utility.yul\":255:477   */\n    tag_26:\n        /* \"#utility.yul\":348:352   */\n      0x00\n        /* \"#utility.yul\":386:388   */\n      0x20\n        /* \"#utility.yul\":375:384   */\n      dup3\n        /* \"#utility.yul\":371:389   */\n      add\n        /* \"#utility.yul\":363:389   */\n      swap1\n      pop\n        /* \"#utility.yul\":399:470   */\n      tag_336\n        /* \"#utility.yul\":467:468   */\n      0x00\n        /* \"#utility.yul\":456:465   */\n      dup4\n        /* \"#utility.yul\":452:469   */\n      add\n        /* \"#utility.yul\":443:449   */\n      dup5\n        /* \"#utility.yul\":399:470   */\n      tag_276\n      jump\t// in\n    tag_336:\n        /* \"#utility.yul\":255:477   */\n      swap3\n      swap2\n      pop\n      pop\n      jump\t// out\n        /* \"#utility.yul\":483:558   */\n    tag_277:\n        /* \"#utility.yul\":516:522   */\n      0x00\n        /* \"#utility.yul\":549:551   */\n      0x40\n        /* \"#utility.yul\":543:552   */\n      mload\n        /* \"#utility.yul\":533:552   */\n      swap1\n      pop\n        /* \"#utility.yul\":483:558   */\n      swap1\n      jump\t// out\n        /* \"#utility.yul\":564:681   */\n    tag_278:\n        /* \"#utility.yul\":673:674   */\n      0x00\n        /* \"#utility.yul\":670:671   */\n      dup1\n        /* \"#utility.yul\":663:675   */\n      revert\n        /* \"#utility.yul\":687:804   */\n    tag_279:\n        /* \"#utility.yul\":796:797   */\n      0x00\n        /* \"#utility.yul\":793:794   */\n      dup1\n        /* \"#utility.yul\":786:798   */\n      revert\n        /* \"#utility.yul\":810:896   */\n    tag_280:\n        /* \"#utility.yul\":845:852   */\n      0x00\n        /* \"#utility.yul\":885:889   */\n      0xff\n        /* \"#utility.yul\":878:883   */\n      dup3\n        /* \"#utility.yul\":874:890   */\n      and\n        /* \"#utility.yul\":863:890   */\n      swap1\n      pop\n        /* \"#utility.yul\":810:896   */\n      swap2\n      swap1\n      pop\n      jump\t// out\n        /* \"#utility.yul\":902:1020   */\n    tag_281:\n        /* \"#utility.yul\":973:995   */\n      tag_342\n        /* \"#utility.yul\":989:994   */\n      dup2\n        /* \"#utility.yul\":973:995   */\n      tag_280\n      jump\t// in\n    tag_342:\n        /* \"#utility.yul\":966:971   */\n      dup2\n        /* \"#utility.yul\":963:996   */\n      eq\n        /* \"#utility.yul\":953:1014   */\n      tag_343\n      jumpi\n        /* \"#utility.yul\":1010:1011   */\n      0x00\n        /* \"#utility.yul\":1007:1008   */\n      dup1\n        /* \"#utility.yul\":1000:1012   */\n      revert\n        /* \"#utility.yul\":953:1014   */\n    tag_343:\n        /* \"#utility.yul\":902:1020   */\n      pop\n      jump\t// out\n        /* \"#utility.yul\":1026:1161   */\n    tag_282:\n        /* \"#utility.yul\":1070:1075   */\n      0x00\n        /* \"#utility.yul\":1108:1114   */\n      dup2\n        /* \"#utility.yul\":1095:1115   */\n      calldataload\n        /* \"#utility.yul\":1086:1115   */\n      swap1\n      pop\n        /* \"#utility.yul\":1124:1155   */\n      tag_345\n        /* \"#utility.yul\":1149:1154   */\n      dup2\n        /* \"#utility.yul\":1124:1155   */\n      tag_281\n      jump\t// in\n    tag_345:\n        /* \"#utility.yul\":1026:1161   */\n      swap3\n      swap2\n      pop\n      pop\n      jump\t// out\n        /* \"#utility.yul\":1167:1633   */\n    tag_29:\n        /* \"#utility.yul\":1231:1237   */\n      0x00\n        /* \"#utility.yul\":1239:1245   */\n      dup1\n        /* \"#utility.yul\":1288:1290   */\n      0x40\n        /* \"#utility.yul\":1276:1285   */\n      dup4\n        /* \"#utility.yul\":1267:1274   */\n      dup6\n        /* \"#utility.yul\":1263:1286   */\n      sub\n        /* \"#utility.yul\":1259:1291   */\n      slt\n        /* \"#utility.yul\":1256:1375   */\n      iszero\n      tag_347\n      jumpi\n        /* \"#utility.yul\":1294:1373   */\n      tag_348\n      tag_278\n      jump\t// in\n    tag_348:\n        /* \"#utility.yul\":1256:1375   */\n    tag_347:\n        /* \"#utility.yul\":1414:1415   */\n      0x00\n        /* \"#utility.yul\":1439:1490   */\n      tag_349\n        /* \"#utility.yul\":1482:1489   */\n      dup6\n        /* \"#utility.yul\":1473:1479   */\n      dup3\n        /* \"#utility.yul\":1462:1471   */\n      dup7\n        /* \"#utility.yul\":1458:1480   */\n      add\n        /* \"#utility.yul\":1439:1490   */\n      tag_282\n      jump\t// in\n    tag_349:\n        /* \"#utility.yul\":1429:1490   */\n      swap3\n      pop\n        /* \"#utility.yul\":1385:1500   */\n      pop\n        /* \"#utility.yul\":1539:1541   */\n      0x20\n        /* \"#utility.yul\":1565:1616   */\n      tag_350\n        /* \"#utility.yul\":1608:1615   */\n      dup6\n        /* \"#utility.yul\":1599:1605   */\n      dup3\n        /* \"#utility.yul\":1588:1597   */\n      dup7\n        /* \"#utility.yul\":1584:1606   */\n      add\n        /* \"#utility.yul\":1565:1616   */\n      tag_282\n      jump\t// in\n    tag_350:\n        /* \"#utility.yul\":1555:1616   */\n      swap2\n      pop\n        /* \"#utility.yul\":1510:1626   */\n      pop\n        /* \"#utility.yul\":1167:1633   */\n      swap3\n      pop\n      swap3\n      swap1\n      pop\n      jump\t// out\n        /* \"#utility.yul\":1639:1716   */\n    tag_283:\n        /* \"#utility.yul\":1676:1683   */\n      0x00\n        /* \"#utility.yul\":1705:1710   */\n      dup2\n        /* \"#utility.yul\":1694:1710   */\n      swap1\n      pop\n        /* \"#utility.yul\":1639:1716   */\n      swap2\n      swap1\n      pop\n      jump\t// out\n        /* \"#utility.yul\":1722:1844   */\n    tag_284:\n        /* \"#utility.yul\":1795:1819   */\n      tag_353\n        /* \"#utility.yul\":1813:1818   */\n      dup2\n        /* \"#utility.yul\":1795:1819   */\n      tag_283\n      jump\t// in\n    tag_353:\n        /* \"#utility.yul\":1788:1793   */\n      dup2\n        /* \"#utility.yul\":1785:1820   */\n      eq\n        /* \"#utility.yul\":1775:1838   */\n      tag_354\n      jumpi\n        /* \"#utility.yul\":1834:1835   */\n      0x00\n        /* \"#utility.yul\":1831:1832   */\n      dup1\n        /* \"#utility.yul\":1824:1836   */\n      revert\n        /* \"#utility.yul\":1775:1838   */\n    tag_354:\n        /* \"#utility.yul\":1722:1844   */\n      pop\n      jump\t// out\n        /* \"#utility.yul\":1850:1989   */\n    tag_285:\n        /* \"#utility.yul\":1896:1901   */\n      0x00\n        /* \"#utility.yul\":1934:1940   */\n      dup2\n        /* \"#utility.yul\":1921:1941   */\n      calldataload\n        /* \"#utility.yul\":1912:1941   */\n      swap1\n      pop\n        /* \"#utility.yul\":1950:1983   */\n      tag_356\n        /* \"#utility.yul\":1977:1982   */\n      dup2\n        /* \"#utility.yul\":1950:1983   */\n      tag_284\n      jump\t// in\n    tag_356:\n        /* \"#utility.yul\":1850:1989   */\n      swap3\n      swap2\n      pop\n      pop\n      jump\t// out\n        /* \"#utility.yul\":1995:2324   */\n    tag_33:\n        /* \"#utility.yul\":2054:2060   */\n      0x00\n        /* \"#utility.yul\":2103:2105   */\n      0x20\n        /* \"#utility.yul\":2091:2100   */\n      dup3\n        /* \"#utility.yul\":2082:2089   */\n      dup5\n        /* \"#utility.yul\":2078:2101   */\n      sub\n        /* \"#utility.yul\":2074:2106   */\n      slt\n        /* \"#utility.yul\":2071:2190   */\n      iszero\n      tag_358\n      jumpi\n        /* \"#utility.yul\":2109:2188   */\n      tag_359\n      tag_278\n      jump\t// in\n    tag_359:\n        /* \"#utility.yul\":2071:2190   */\n    tag_358:\n        /* \"#utility.yul\":2229:2230   */\n      0x00\n        /* \"#utility.yul\":2254:2307   */\n      tag_360\n        /* \"#utility.yul\":2299:2306   */\n      dup5\n        /* \"#utility.yul\":2290:2296   */\n      dup3\n        /* \"#utility.yul\":2279:2288   */\n      dup6\n        /* \"#utility.yul\":2275:2297   */\n      add\n        /* \"#utility.yul\":2254:2307   */\n      tag_285\n      jump\t// in\n    tag_360:\n        /* \"#utility.yul\":2244:2307   */\n      swap2\n      pop\n        /* \"#utility.yul\":2200:2317   */\n      pop\n        /* \"#utility.yul\":1995:2324   */\n      swap3\n      swap2\n      pop\n      pop\n      jump\t// out\n        /* \"#utility.yul\":2330:2429   */\n    tag_286:\n        /* \"#utility.yul\":2382:2388   */\n      0x00\n        /* \"#utility.yul\":2416:2421   */\n      dup2\n        /* \"#utility.yul\":2410:2422   */\n      mload\n        /* \"#utility.yul\":2400:2422   */\n      swap1\n      pop\n        /* \"#utility.yul\":2330:2429   */\n      swap2\n      swap1\n      pop\n      jump\t// out\n        /* \"#utility.yul\":2435:2604   */\n    tag_287:\n        /* \"#utility.yul\":2519:2530   */\n      0x00\n        /* \"#utility.yul\":2553:2559   */\n      dup3\n        /* \"#utility.yul\":2548:2551   */\n      dup3\n        /* \"#utility.yul\":2541:2560   */\n      mstore\n        /* \"#utility.yul\":2593:2597   */\n      0x20\n        /* \"#utility.yul\":2588:2591   */\n      dup3\n        /* \"#utility.yul\":2584:2598   */\n      add\n        /* \"#utility.yul\":2569:2598   */\n      swap1\n      pop\n        /* \"#utility.yul\":2435:2604   */\n      swap3\n      swap2\n      pop\n      pop\n      jump\t// out\n        /* \"#utility.yul\":2610:2856   */\n    tag_288:\n        /* \"#utility.yul\":2691:2692   */\n      0x00\n        /* \"#utility.yul\":2701:2814   */\n    tag_364:\n        /* \"#utility.yul\":2715:2721   */\n      dup4\n        /* \"#utility.yul\":2712:2713   */\n      dup2\n        /* \"#utility.yul\":2709:2722   */\n      lt\n        /* \"#utility.yul\":2701:2814   */\n      iszero\n      tag_366\n      jumpi\n        /* \"#utility.yul\":2800:2801   */\n      dup1\n        /* \"#utility.yul\":2795:2798   */\n      dup3\n        /* \"#utility.yul\":2791:2802   */\n      add\n        /* \"#utility.yul\":2785:2803   */\n      mload\n        /* \"#utility.yul\":2781:2782   */\n      dup2\n        /* \"#utility.yul\":2776:2779   */\n      dup5\n        /* \"#utility.yul\":2772:2783   */\n      add\n        /* \"#utility.yul\":2765:2804   */\n      mstore\n        /* \"#utility.yul\":2737:2739   */\n      0x20\n        /* \"#utility.yul\":2734:2735   */\n      dup2\n        /* \"#utility.yul\":2730:2740   */\n      add\n        /* \"#utility.yul\":2725:2740   */\n      swap1\n      pop\n        /* \"#utility.yul\":2701:2814   */\n      jump(tag_364)\n    tag_366:\n        /* \"#utility.yul\":2848:2849   */\n      0x00\n        /* \"#utility.yul\":2839:2845   */\n      dup5\n        /* \"#utility.yul\":2834:2837   */\n      dup5\n        /* \"#utility.yul\":2830:2846   */\n      add\n        /* \"#utility.yul\":2823:2850   */\n      mstore\n        /* \"#utility.yul\":2672:2856   */\n      pop\n        /* \"#utility.yul\":2610:2856   */\n      pop\n      pop\n      pop\n      jump\t// out\n        /* \"#utility.yul\":2862:2964   */\n    tag_289:\n        /* \"#utility.yul\":2903:2909   */\n      0x00\n        /* \"#utility.yul\":2954:2956   */\n      0x1f\n        /* \"#utility.yul\":2950:2957   */\n      not\n        /* \"#utility.yul\":2945:2947   */\n      0x1f\n        /* \"#utility.yul\":2938:2943   */\n      dup4\n        /* \"#utility.yul\":2934:2948   */\n      add\n        /* \"#utility.yul\":2930:2958   */\n      and\n        /* \"#utility.yul\":2920:2958   */\n      swap1\n      pop\n        /* \"#utility.yul\":2862:2964   */\n      swap2\n      swap1\n      pop\n      jump\t// out\n        /* \"#utility.yul\":2970:3347   */\n    tag_290:\n        /* \"#utility.yul\":3058:3061   */\n      0x00\n        /* \"#utility.yul\":3086:3125   */\n      tag_369\n        /* \"#utility.yul\":3119:3124   */\n      dup3\n        /* \"#utility.yul\":3086:3125   */\n      tag_286\n      jump\t// in\n    tag_369:\n        /* \"#utility.yul\":3141:3212   */\n      tag_370\n        /* \"#utility.yul\":3205:3211   */\n      dup2\n        /* \"#utility.yul\":3200:3203   */\n      dup6\n        /* \"#utility.yul\":3141:3212   */\n      tag_287\n      jump\t// in\n    tag_370:\n        /* \"#utility.yul\":3134:3212   */\n      swap4\n      pop\n        /* \"#utility.yul\":3221:3286   */\n      tag_371\n        /* \"#utility.yul\":3279:3285   */\n      dup2\n        /* \"#utility.yul\":3274:3277   */\n      dup6\n        /* \"#utility.yul\":3267:3271   */\n      0x20\n        /* \"#utility.yul\":3260:3265   */\n      dup7\n        /* \"#utility.yul\":3256:3272   */\n      add\n        /* \"#utility.yul\":3221:3286   */\n      tag_288\n      jump\t// in\n    tag_371:\n        /* \"#utility.yul\":3311:3340   */\n      tag_372\n        /* \"#utility.yul\":3333:3339   */\n      dup2\n        /* \"#utility.yul\":3311:3340   */\n      tag_289\n      jump\t// in\n    tag_372:\n        /* \"#utility.yul\":3306:3309   */\n      dup5\n        /* \"#utility.yul\":3302:3341   */\n      add\n        /* \"#utility.yul\":3295:3341   */\n      swap2\n      pop\n        /* \"#utility.yul\":3062:3347   */\n      pop\n        /* \"#utility.yul\":2970:3347   */\n      swap3\n      swap2\n      pop\n      pop\n      jump\t// out\n        /* \"#utility.yul\":3353:3465   */\n    tag_291:\n        /* \"#utility.yul\":3436:3458   */\n      tag_374\n        /* \"#utility.yul\":3452:3457   */\n      dup2\n        /* \"#utility.yul\":3436:3458   */\n      tag_280\n      jump\t// in\n    tag_374:\n        /* \"#utility.yul\":3431:3434   */\n      dup3\n        /* \"#utility.yul\":3424:3459   */\n      mstore\n        /* \"#utility.yul\":3353:3465   */\n      pop\n      pop\n      jump\t// out\n        /* \"#utility.yul\":3471:3560   */\n    tag_292:\n        /* \"#utility.yul\":3507:3514   */\n      0x00\n        /* \"#utility.yul\":3547:3553   */\n      0xffff\n        /* \"#utility.yul\":3540:3545   */\n      dup3\n        /* \"#utility.yul\":3536:3554   */\n      and\n        /* \"#utility.yul\":3525:3554   */\n      swap1\n      pop\n        /* \"#utility.yul\":3471:3560   */\n      swap2\n      swap1\n      pop\n      jump\t// out\n        /* \"#utility.yul\":3566:3681   */\n    tag_293:\n        /* \"#utility.yul\":3651:3674   */\n      tag_377\n        /* \"#utility.yul\":3668:3673   */\n      dup2\n        /* \"#utility.yul\":3651:3674   */\n      tag_292\n      jump\t// in\n    tag_377:\n        /* \"#utility.yul\":3646:3649   */\n      dup3\n        /* \"#utility.yul\":3639:3675   */\n      mstore\n        /* \"#utility.yul\":3566:3681   */\n      pop\n      pop\n      jump\t// out\n        /* \"#utility.yul\":3687:4612   */\n    tag_36:\n        /* \"#utility.yul\":3946:3950   */\n      0x00\n        /* \"#utility.yul\":3984:3987   */\n      0xa0\n        /* \"#utility.yul\":3973:3982   */\n      dup3\n        /* \"#utility.yul\":3969:3988   */\n      add\n        /* \"#utility.yul\":3961:3988   */\n      swap1\n      pop\n        /* \"#utility.yul\":4034:4043   */\n      dup2\n        /* \"#utility.yul\":4028:4032   */\n      dup2\n        /* \"#utility.yul\":4024:4044   */\n      sub\n        /* \"#utility.yul\":4020:4021   */\n      0x00\n        /* \"#utility.yul\":4009:4018   */\n      dup4\n        /* \"#utility.yul\":4005:4022   */\n      add\n        /* \"#utility.yul\":3998:4045   */\n      mstore\n        /* \"#utility.yul\":4062:4140   */\n      tag_379\n        /* \"#utility.yul\":4135:4139   */\n      dup2\n        /* \"#utility.yul\":4126:4132   */\n      dup9\n        /* \"#utility.yul\":4062:4140   */\n      tag_290\n      jump\t// in\n    tag_379:\n        /* \"#utility.yul\":4054:4140   */\n      swap1\n      pop\n        /* \"#utility.yul\":4187:4196   */\n      dup2\n        /* \"#utility.yul\":4181:4185   */\n      dup2\n        /* \"#utility.yul\":4177:4197   */\n      sub\n        /* \"#utility.yul\":4172:4174   */\n      0x20\n        /* \"#utility.yul\":4161:4170   */\n      dup4\n        /* \"#utility.yul\":4157:4175   */\n      add\n        /* \"#utility.yul\":4150:4198   */\n      mstore\n        /* \"#utility.yul\":4215:4293   */\n      tag_380\n        /* \"#utility.yul\":4288:4292   */\n      dup2\n        /* \"#utility.yul\":4279:4285   */\n      dup8\n        /* \"#utility.yul\":4215:4293   */\n      tag_290\n      jump\t// in\n    tag_380:\n        /* \"#utility.yul\":4207:4293   */\n      swap1\n      pop\n        /* \"#utility.yul\":4340:4349   */\n      dup2\n        /* \"#utility.yul\":4334:4338   */\n      dup2\n        /* \"#utility.yul\":4330:4350   */\n      sub\n        /* \"#utility.yul\":4325:4327   */\n      0x40\n        /* \"#utility.yul\":4314:4323   */\n      dup4\n        /* \"#utility.yul\":4310:4328   */\n      add\n        /* \"#utility.yul\":4303:4351   */\n      mstore\n        /* \"#utility.yul\":4368:4446   */\n      tag_381\n        /* \"#utility.yul\":4441:4445   */\n      dup2\n        /* \"#utility.yul\":4432:4438   */\n      dup7\n        /* \"#utility.yul\":4368:4446   */\n      tag_290\n      jump\t// in\n    tag_381:\n        /* \"#utility.yul\":4360:4446   */\n      swap1\n      pop\n        /* \"#utility.yul\":4456:4524   */\n      tag_382\n        /* \"#utility.yul\":4520:4522   */\n      0x60\n        /* \"#utility.yul\":4509:4518   */\n      dup4\n        /* \"#utility.yul\":4505:4523   */\n      add\n        /* \"#utility.yul\":4496:4502   */\n      dup6\n        /* \"#utility.yul\":4456:4524   */\n      tag_291\n      jump\t// in\n    tag_382:\n        /* \"#utility.yul\":4534:4605   */\n      tag_383\n        /* \"#utility.yul\":4600:4603   */\n      0x80\n        /* \"#utility.yul\":4589:4598   */\n      dup4\n        /* \"#utility.yul\":4585:4604   */\n      add\n        /* \"#utility.yul\":4576:4582   */\n      dup5\n        /* \"#utility.yul\":4534:4605   */\n      tag_293\n      jump\t// in\n    tag_383:\n        /* \"#utility.yul\":3687:4612   */\n      swap7\n      swap6\n      pop\n      pop\n      pop\n      pop\n      pop\n      pop\n      jump\t// out\n        /* \"#utility.yul\":4618:4735   */\n    tag_294:\n        /* \"#utility.yul\":4727:4728   */\n      0x00\n        /* \"#utility.yul\":4724:4725   */\n      dup1\n        /* \"#utility.yul\":4717:4729   */\n      revert\n        /* \"#utility.yul\":4741:4858   */\n    tag_295:\n        /* \"#utility.yul\":4850:4851   */\n      0x00\n        /* \"#utility.yul\":4847:4848   */\n      dup1\n        /* \"#utility.yul\":4840:4852   */\n      revert\n        /* \"#utility.yul\":4864:5044   */\n    tag_238:\n        /* \"#utility.yul\":4912:4989   */\n      0x4e487b7100000000000000000000000000000000000000000000000000000000\n        /* \"#utility.yul\":4909:4910   */\n      0x00\n        /* \"#utility.yul\":4902:4990   */\n      mstore\n        /* \"#utility.yul\":5009:5013   */\n      0x41\n        /* \"#utility.yul\":5006:5007   */\n      0x04\n        /* \"#utility.yul\":4999:5014   */\n      mstore\n        /* \"#utility.yul\":5033:5037   */\n      0x24\n        /* \"#utility.yul\":5030:5031   */\n      0x00\n        /* \"#utility.yul\":5023:5038   */\n      revert\n        /* \"#utility.yul\":5050:5331   */\n    tag_296:\n        /* \"#utility.yul\":5133:5160   */\n      tag_388\n        /* \"#utility.yul\":5155:5159   */\n      dup3\n        /* \"#utility.yul\":5133:5160   */\n      tag_289\n      jump\t// in\n    tag_388:\n        /* \"#utility.yul\":5125:5131   */\n      dup2\n        /* \"#utility.yul\":5121:5161   */\n      add\n        /* \"#utility.yul\":5263:5269   */\n      dup2\n        /* \"#utility.yul\":5251:5261   */\n      dup2\n        /* \"#utility.yul\":5248:5270   */\n      lt\n        /* \"#utility.yul\":5227:5245   */\n      0xffffffffffffffff\n        /* \"#utility.yul\":5215:5225   */\n      dup3\n        /* \"#utility.yul\":5212:5246   */\n      gt\n        /* \"#utility.yul\":5209:5271   */\n      or\n        /* \"#utility.yul\":5206:5294   */\n      iszero\n      tag_389\n      jumpi\n        /* \"#utility.yul\":5274:5292   */\n      tag_390\n      tag_238\n      jump\t// in\n    tag_390:\n        /* \"#utility.yul\":5206:5294   */\n    tag_389:\n        /* \"#utility.yul\":5314:5324   */\n      dup1\n        /* \"#utility.yul\":5310:5312   */\n      0x40\n        /* \"#utility.yul\":5303:5325   */\n      mstore\n        /* \"#utility.yul\":5093:5331   */\n      pop\n        /* \"#utility.yul\":5050:5331   */\n      pop\n      pop\n      jump\t// out\n        /* \"#utility.yul\":5337:5466   */\n    tag_297:\n        /* \"#utility.yul\":5371:5377   */\n      0x00\n        /* \"#utility.yul\":5398:5418   */\n      tag_392\n      tag_277\n      jump\t// in\n    tag_392:\n        /* \"#utility.yul\":5388:5418   */\n      swap1\n      pop\n        /* \"#utility.yul\":5427:5460   */\n      tag_393\n        /* \"#utility.yul\":5455:5459   */\n      dup3\n        /* \"#utility.yul\":5447:5453   */\n      dup3\n        /* \"#utility.yul\":5427:5460   */\n      tag_296\n      jump\t// in\n    tag_393:\n        /* \"#utility.yul\":5337:5466   */\n      swap2\n      swap1\n      pop\n      jump\t// out\n        /* \"#utility.yul\":5472:5780   */\n    tag_298:\n        /* \"#utility.yul\":5534:5538   */\n      0x00\n        /* \"#utility.yul\":5624:5642   */\n      0xffffffffffffffff\n        /* \"#utility.yul\":5616:5622   */\n      dup3\n        /* \"#utility.yul\":5613:5643   */\n      gt\n        /* \"#utility.yul\":5610:5666   */\n      iszero\n      tag_395\n      jumpi\n        /* \"#utility.yul\":5646:5664   */\n      tag_396\n      tag_238\n      jump\t// in\n    tag_396:\n        /* \"#utility.yul\":5610:5666   */\n    tag_395:\n        /* \"#utility.yul\":5684:5713   */\n      tag_397\n        /* \"#utility.yul\":5706:5712   */\n      dup3\n        /* \"#utility.yul\":5684:5713   */\n      tag_289\n      jump\t// in\n    tag_397:\n        /* \"#utility.yul\":5676:5713   */\n      swap1\n      pop\n        /* \"#utility.yul\":5768:5772   */\n      0x20\n        /* \"#utility.yul\":5762:5766   */\n      dup2\n        /* \"#utility.yul\":5758:5773   */\n      add\n        /* \"#utility.yul\":5750:5773   */\n      swap1\n      pop\n        /* \"#utility.yul\":5472:5780   */\n      swap2\n      swap1\n      pop\n      jump\t// out\n        /* \"#utility.yul\":5786:5932   */\n    tag_299:\n        /* \"#utility.yul\":5883:5889   */\n      dup3\n        /* \"#utility.yul\":5878:5881   */\n      dup2\n        /* \"#utility.yul\":5873:5876   */\n      dup4\n        /* \"#utility.yul\":5860:5890   */\n      calldatacopy\n        /* \"#utility.yul\":5924:5925   */\n      0x00\n        /* \"#utility.yul\":5915:5921   */\n      dup4\n        /* \"#utility.yul\":5910:5913   */\n      dup4\n        /* \"#utility.yul\":5906:5922   */\n      add\n        /* \"#utility.yul\":5899:5926   */\n      mstore\n        /* \"#utility.yul\":5786:5932   */\n      pop\n      pop\n      pop\n      jump\t// out\n        /* \"#utility.yul\":5938:6363   */\n    tag_300:\n        /* \"#utility.yul\":6016:6021   */\n      0x00\n        /* \"#utility.yul\":6041:6107   */\n      tag_400\n        /* \"#utility.yul\":6057:6106   */\n      tag_401\n        /* \"#utility.yul\":6099:6105   */\n      dup5\n        /* \"#utility.yul\":6057:6106   */\n      tag_298\n      jump\t// in\n    tag_401:\n        /* \"#utility.yul\":6041:6107   */\n      tag_297\n      jump\t// in\n    tag_400:\n        /* \"#utility.yul\":6032:6107   */\n      swap1\n      pop\n        /* \"#utility.yul\":6130:6136   */\n      dup3\n        /* \"#utility.yul\":6123:6128   */\n      dup2\n        /* \"#utility.yul\":6116:6137   */\n      mstore\n        /* \"#utility.yul\":6168:6172   */\n      0x20\n        /* \"#utility.yul\":6161:6166   */\n      dup2\n        /* \"#utility.yul\":6157:6173   */\n      add\n        /* \"#utility.yul\":6206:6209   */\n      dup5\n        /* \"#utility.yul\":6197:6203   */\n      dup5\n        /* \"#utility.yul\":6192:6195   */\n      dup5\n        /* \"#utility.yul\":6188:6204   */\n      add\n        /* \"#utility.yul\":6185:6210   */\n      gt\n        /* \"#utility.yul\":6182:6294   */\n      iszero\n      tag_402\n      jumpi\n        /* \"#utility.yul\":6213:6292   */\n      tag_403\n      tag_295\n      jump\t// in\n    tag_403:\n        /* \"#utility.yul\":6182:6294   */\n    tag_402:\n        /* \"#utility.yul\":6303:6357   */\n      tag_404\n        /* \"#utility.yul\":6350:6356   */\n      dup5\n        /* \"#utility.yul\":6345:6348   */\n      dup3\n        /* \"#utility.yul\":6340:6343   */\n      dup6\n        /* \"#utility.yul\":6303:6357   */\n      tag_299\n      jump\t// in\n    tag_404:\n        /* \"#utility.yul\":6022:6363   */\n      pop\n        /* \"#utility.yul\":5938:6363   */\n      swap4\n      swap3\n      pop\n      pop\n      pop\n      jump\t// out\n        /* \"#utility.yul\":6383:6723   */\n    tag_301:\n        /* \"#utility.yul\":6439:6444   */\n      0x00\n        /* \"#utility.yul\":6488:6491   */\n      dup3\n        /* \"#utility.yul\":6481:6485   */\n      0x1f\n        /* \"#utility.yul\":6473:6479   */\n      dup4\n        /* \"#utility.yul\":6469:6486   */\n      add\n        /* \"#utility.yul\":6465:6492   */\n      slt\n        /* \"#utility.yul\":6455:6577   */\n      tag_406\n      jumpi\n        /* \"#utility.yul\":6496:6575   */\n      tag_407\n      tag_294\n      jump\t// in\n    tag_407:\n        /* \"#utility.yul\":6455:6577   */\n    tag_406:\n        /* \"#utility.yul\":6613:6619   */\n      dup2\n        /* \"#utility.yul\":6600:6620   */\n      calldataload\n        /* \"#utility.yul\":6638:6717   */\n      tag_408\n        /* \"#utility.yul\":6713:6716   */\n      dup5\n        /* \"#utility.yul\":6705:6711   */\n      dup3\n        /* \"#utility.yul\":6698:6702   */\n      0x20\n        /* \"#utility.yul\":6690:6696   */\n      dup7\n        /* \"#utility.yul\":6686:6703   */\n      add\n        /* \"#utility.yul\":6638:6717   */\n      tag_300\n      jump\t// in\n    tag_408:\n        /* \"#utility.yul\":6629:6717   */\n      swap2\n      pop\n        /* \"#utility.yul\":6445:6723   */\n      pop\n        /* \"#utility.yul\":6383:6723   */\n      swap3\n      swap2\n      pop\n      pop\n      jump\t// out\n        /* \"#utility.yul\":6729:7563   */\n    tag_39:\n        /* \"#utility.yul\":6817:6823   */\n      0x00\n        /* \"#utility.yul\":6825:6831   */\n      dup1\n        /* \"#utility.yul\":6874:6876   */\n      0x40\n        /* \"#utility.yul\":6862:6871   */\n      dup4\n        /* \"#utility.yul\":6853:6860   */\n      dup6\n        /* \"#utility.yul\":6849:6872   */\n      sub\n        /* \"#utility.yul\":6845:6877   */\n      slt\n        /* \"#utility.yul\":6842:6961   */\n      iszero\n      tag_410\n      jumpi\n        /* \"#utility.yul\":6880:6959   */\n      tag_411\n      tag_278\n      jump\t// in\n    tag_411:\n        /* \"#utility.yul\":6842:6961   */\n    tag_410:\n        /* \"#utility.yul\":7028:7029   */\n      0x00\n        /* \"#utility.yul\":7017:7026   */\n      dup4\n        /* \"#utility.yul\":7013:7030   */\n      add\n        /* \"#utility.yul\":7000:7031   */\n      calldataload\n        /* \"#utility.yul\":7058:7076   */\n      0xffffffffffffffff\n        /* \"#utility.yul\":7050:7056   */\n      dup2\n        /* \"#utility.yul\":7047:7077   */\n      gt\n        /* \"#utility.yul\":7044:7161   */\n      iszero\n      tag_412\n      jumpi\n        /* \"#utility.yul\":7080:7159   */\n      tag_413\n      tag_279\n      jump\t// in\n    tag_413:\n        /* \"#utility.yul\":7044:7161   */\n    tag_412:\n        /* \"#utility.yul\":7185:7248   */\n      tag_414\n        /* \"#utility.yul\":7240:7247   */\n      dup6\n        /* \"#utility.yul\":7231:7237   */\n      dup3\n        /* \"#utility.yul\":7220:7229   */\n      dup7\n        /* \"#utility.yul\":7216:7238   */\n      add\n        /* \"#utility.yul\":7185:7248   */\n      tag_301\n      jump\t// in\n    tag_414:\n        /* \"#utility.yul\":7175:7248   */\n      swap3\n      pop\n        /* \"#utility.yul\":6971:7258   */\n      pop\n        /* \"#utility.yul\":7325:7327   */\n      0x20\n        /* \"#utility.yul\":7314:7323   */\n      dup4\n        /* \"#utility.yul\":7310:7328   */\n      add\n        /* \"#utility.yul\":7297:7329   */\n      calldataload\n        /* \"#utility.yul\":7356:7374   */\n      0xffffffffffffffff\n        /* \"#utility.yul\":7348:7354   */\n      dup2\n        /* \"#utility.yul\":7345:7375   */\n      gt\n        /* \"#utility.yul\":7342:7459   */\n      iszero\n      tag_415\n      jumpi\n        /* \"#utility.yul\":7378:7457   */\n      tag_416\n      tag_279\n      jump\t// in\n    tag_416:\n        /* \"#utility.yul\":7342:7459   */\n    tag_415:\n        /* \"#utility.yul\":7483:7546   */\n      tag_417\n        /* \"#utility.yul\":7538:7545   */\n      dup6\n        /* \"#utility.yul\":7529:7535   */\n      dup3\n        /* \"#utility.yul\":7518:7527   */\n      dup7\n        /* \"#utility.yul\":7514:7536   */\n      add\n        /* \"#utility.yul\":7483:7546   */\n      tag_301\n      jump\t// in\n    tag_417:\n        /* \"#utility.yul\":7473:7546   */\n      swap2\n      pop\n        /* \"#utility.yul\":7268:7556   */\n      pop\n        /* \"#utility.yul\":6729:7563   */\n      swap3\n      pop\n      swap3\n      swap1\n      pop\n      jump\t// out\n        /* \"#utility.yul\":7569:7894   */\n    tag_43:\n        /* \"#utility.yul\":7626:7632   */\n      0x00\n        /* \"#utility.yul\":7675:7677   */\n      0x20\n        /* \"#utility.yul\":7663:7672   */\n      dup3\n        /* \"#utility.yul\":7654:7661   */\n      dup5\n        /* \"#utility.yul\":7650:7673   */\n      sub\n        /* \"#utility.yul\":7646:7678   */\n      slt\n        /* \"#utility.yul\":7643:7762   */\n      iszero\n      tag_419\n      jumpi\n        /* \"#utility.yul\":7681:7760   */\n      tag_420\n      tag_278\n      jump\t// in\n    tag_420:\n        /* \"#utility.yul\":7643:7762   */\n    tag_419:\n        /* \"#utility.yul\":7801:7802   */\n      0x00\n        /* \"#utility.yul\":7826:7877   */\n      tag_421\n        /* \"#utility.yul\":7869:7876   */\n      dup5\n        /* \"#utility.yul\":7860:7866   */\n      dup3\n        /* \"#utility.yul\":7849:7858   */\n      dup6\n        /* \"#utility.yul\":7845:7867   */\n      add\n        /* \"#utility.yul\":7826:7877   */\n      tag_282\n      jump\t// in\n    tag_421:\n        /* \"#utility.yul\":7816:7877   */\n      swap2\n      pop\n        /* \"#utility.yul\":7772:7887   */\n      pop\n        /* \"#utility.yul\":7569:7894   */\n      swap3\n      swap2\n      pop\n      pop\n      jump\t// out\n        /* \"#utility.yul\":7900:8026   */\n    tag_302:\n        /* \"#utility.yul\":7937:7944   */\n      0x00\n        /* \"#utility.yul\":7977:8019   */\n      0xffffffffffffffffffffffffffffffffffffffff\n        /* \"#utility.yul\":7970:7975   */\n      dup3\n        /* \"#utility.yul\":7966:8020   */\n      and\n        /* \"#utility.yul\":7955:8020   */\n      swap1\n      pop\n        /* \"#utility.yul\":7900:8026   */\n      swap2\n      swap1\n      pop\n      jump\t// out\n        /* \"#utility.yul\":8032:8128   */\n    tag_303:\n        /* \"#utility.yul\":8069:8076   */\n      0x00\n        /* \"#utility.yul\":8098:8122   */\n      tag_424\n        /* \"#utility.yul\":8116:8121   */\n      dup3\n        /* \"#utility.yul\":8098:8122   */\n      tag_302\n      jump\t// in\n    tag_424:\n        /* \"#utility.yul\":8087:8122   */\n      swap1\n      pop\n        /* \"#utility.yul\":8032:8128   */\n      swap2\n      swap1\n      pop\n      jump\t// out\n        /* \"#utility.yul\":8134:8252   */\n    tag_304:\n        /* \"#utility.yul\":8221:8245   */\n      tag_426\n        /* \"#utility.yul\":8239:8244   */\n      dup2\n        /* \"#utility.yul\":8221:8245   */\n      tag_303\n      jump\t// in\n    tag_426:\n        /* \"#utility.yul\":8216:8219   */\n      dup3\n        /* \"#utility.yul\":8209:8246   */\n      mstore\n        /* \"#utility.yul\":8134:8252   */\n      pop\n      pop\n      jump\t// out\n        /* \"#utility.yul\":8258:8480   */\n    tag_63:\n        /* \"#utility.yul\":8351:8355   */\n      0x00\n        /* \"#utility.yul\":8389:8391   */\n      0x20\n        /* \"#utility.yul\":8378:8387   */\n      dup3\n        /* \"#utility.yul\":8374:8392   */\n      add\n        /* \"#utility.yul\":8366:8392   */\n      swap1\n      pop\n        /* \"#utility.yul\":8402:8473   */\n      tag_428\n        /* \"#utility.yul\":8470:8471   */\n      0x00\n        /* \"#utility.yul\":8459:8468   */\n      dup4\n        /* \"#utility.yul\":8455:8472   */\n      add\n        /* \"#utility.yul\":8446:8452   */\n      dup5\n        /* \"#utility.yul\":8402:8473   */\n      tag_304\n      jump\t// in\n    tag_428:\n        /* \"#utility.yul\":8258:8480   */\n      swap3\n      swap2\n      pop\n      pop\n      jump\t// out\n        /* \"#utility.yul\":8486:8608   */\n    tag_305:\n        /* \"#utility.yul\":8559:8583   */\n      tag_430\n        /* \"#utility.yul\":8577:8582   */\n      dup2\n        /* \"#utility.yul\":8559:8583   */\n      tag_275\n      jump\t// in\n    tag_430:\n        /* \"#utility.yul\":8552:8557   */\n      dup2\n        /* \"#utility.yul\":8549:8584   */\n      eq\n        /* \"#utility.yul\":8539:8602   */\n      tag_431\n      jumpi\n        /* \"#utility.yul\":8598:8599   */\n      0x00\n        /* \"#utility.yul\":8595:8596   */\n      dup1\n        /* \"#utility.yul\":8588:8600   */\n      revert\n        /* \"#utility.yul\":8539:8602   */\n    tag_431:\n        /* \"#utility.yul\":8486:8608   */\n      pop\n      jump\t// out\n        /* \"#utility.yul\":8614:8753   */\n    tag_306:\n        /* \"#utility.yul\":8660:8665   */\n      0x00\n        /* \"#utility.yul\":8698:8704   */\n      dup2\n        /* \"#utility.yul\":8685:8705   */\n      calldataload\n        /* \"#utility.yul\":8676:8705   */\n      swap1\n      pop\n        /* \"#utility.yul\":8714:8747   */\n      tag_433\n        /* \"#utility.yul\":8741:8746   */\n      dup2\n        /* \"#utility.yul\":8714:8747   */\n      tag_305\n      jump\t// in\n    tag_433:\n        /* \"#utility.yul\":8614:8753   */\n      swap3\n      swap2\n      pop\n      pop\n      jump\t// out\n        /* \"#utility.yul\":8759:9088   */\n    tag_69:\n        /* \"#utility.yul\":8818:8824   */\n      0x00\n        /* \"#utility.yul\":8867:8869   */\n      0x20\n        /* \"#utility.yul\":8855:8864   */\n      dup3\n        /* \"#utility.yul\":8846:8853   */\n      dup5\n        /* \"#utility.yul\":8842:8865   */\n      sub\n        /* \"#utility.yul\":8838:8870   */\n      slt\n        /* \"#utility.yul\":8835:8954   */\n      iszero\n      tag_435\n      jumpi\n        /* \"#utility.yul\":8873:8952   */\n      tag_436\n      tag_278\n      jump\t// in\n    tag_436:\n        /* \"#utility.yul\":8835:8954   */\n    tag_435:\n        /* \"#utility.yul\":8993:8994   */\n      0x00\n        /* \"#utility.yul\":9018:9071   */\n      tag_437\n        /* \"#utility.yul\":9063:9070   */\n      dup5\n        /* \"#utility.yul\":9054:9060   */\n      dup3\n        /* \"#utility.yul\":9043:9052   */\n      dup6\n        /* \"#utility.yul\":9039:9061   */\n      add\n        /* \"#utility.yul\":9018:9071   */\n      tag_306\n      jump\t// in\n    tag_437:\n        /* \"#utility.yul\":9008:9071   */\n      swap2\n      pop\n        /* \"#utility.yul\":8964:9081   */\n      pop\n        /* \"#utility.yul\":8759:9088   */\n      swap3\n      swap2\n      pop\n      pop\n      jump\t// out\n        /* \"#utility.yul\":9094:9407   */\n    tag_72:\n        /* \"#utility.yul\":9207:9211   */\n      0x00\n        /* \"#utility.yul\":9245:9247   */\n      0x20\n        /* \"#utility.yul\":9234:9243   */\n      dup3\n        /* \"#utility.yul\":9230:9248   */\n      add\n        /* \"#utility.yul\":9222:9248   */\n      swap1\n      pop\n        /* \"#utility.yul\":9294:9303   */\n      dup2\n        /* \"#utility.yul\":9288:9292   */\n      dup2\n        /* \"#utility.yul\":9284:9304   */\n      sub\n        /* \"#utility.yul\":9280:9281   */\n      0x00\n        /* \"#utility.yul\":9269:9278   */\n      dup4\n        /* \"#utility.yul\":9265:9282   */\n      add\n        /* \"#utility.yul\":9258:9305   */\n      mstore\n        /* \"#utility.yul\":9322:9400   */\n      tag_439\n        /* \"#utility.yul\":9395:9399   */\n      dup2\n        /* \"#utility.yul\":9386:9392   */\n      dup5\n        /* \"#utility.yul\":9322:9400   */\n      tag_290\n      jump\t// in\n    tag_439:\n        /* \"#utility.yul\":9314:9400   */\n      swap1\n      pop\n        /* \"#utility.yul\":9094:9407   */\n      swap3\n      swap2\n      pop\n      pop\n      jump\t// out\n        /* \"#utility.yul\":9413:9627   */\n    tag_77:\n        /* \"#utility.yul\":9502:9506   */\n      0x00\n        /* \"#utility.yul\":9540:9542   */\n      0x20\n        /* \"#utility.yul\":9529:9538   */\n      dup3\n        /* \"#utility.yul\":9525:9543   */\n      add\n        /* \"#utility.yul\":9517:9543   */\n      swap1\n      pop\n        /* \"#utility.yul\":9553:9620   */\n      tag_441\n        /* \"#utility.yul\":9617:9618   */\n      0x00\n        /* \"#utility.yul\":9606:9615   */\n      dup4\n        /* \"#utility.yul\":9602:9619   */\n      add\n        /* \"#utility.yul\":9593:9599   */\n      dup5\n        /* \"#utility.yul\":9553:9620   */\n      tag_291\n      jump\t// in\n    tag_441:\n        /* \"#utility.yul\":9413:9627   */\n      swap3\n      swap2\n      pop\n      pop\n      jump\t// out\n        /* \"#utility.yul\":9633:9755   */\n    tag_307:\n        /* \"#utility.yul\":9706:9730   */\n      tag_443\n        /* \"#utility.yul\":9724:9729   */\n      dup2\n        /* \"#utility.yul\":9706:9730   */\n      tag_303\n      jump\t// in\n    tag_443:\n        /* \"#utility.yul\":9699:9704   */\n      dup2\n        /* \"#utility.yul\":9696:9731   */\n      eq\n        /* \"#utility.yul\":9686:9749   */\n      tag_444\n      jumpi\n        /* \"#utility.yul\":9745:9746   */\n      0x00\n        /* \"#utility.yul\":9742:9743   */\n      dup1\n        /* \"#utility.yul\":9735:9747   */\n      revert\n        /* \"#utility.yul\":9686:9749   */\n    tag_444:\n        /* \"#utility.yul\":9633:9755   */\n      pop\n      jump\t// out\n        /* \"#utility.yul\":9761:9900   */\n    tag_308:\n        /* \"#utility.yul\":9807:9812   */\n      0x00\n        /* \"#utility.yul\":9845:9851   */\n      dup2\n        /* \"#utility.yul\":9832:9852   */\n      calldataload\n        /* \"#utility.yul\":9823:9852   */\n      swap1\n      pop\n        /* \"#utility.yul\":9861:9894   */\n      tag_446\n        /* \"#utility.yul\":9888:9893   */\n      dup2\n        /* \"#utility.yul\":9861:9894   */\n      tag_307\n      jump\t// in\n    tag_446:\n        /* \"#utility.yul\":9761:9900   */\n      swap3\n      swap2\n      pop\n      pop\n      jump\t// out\n        /* \"#utility.yul\":9906:10235   */\n    tag_84:\n        /* \"#utility.yul\":9965:9971   */\n      0x00\n        /* \"#utility.yul\":10014:10016   */\n      0x20\n        /* \"#utility.yul\":10002:10011   */\n      dup3\n        /* \"#utility.yul\":9993:10000   */\n      dup5\n        /* \"#utility.yul\":9989:10012   */\n      sub\n        /* \"#utility.yul\":9985:10017   */\n      slt\n        /* \"#utility.yul\":9982:10101   */\n      iszero\n      tag_448\n      jumpi\n        /* \"#utility.yul\":10020:10099   */\n      tag_449\n      tag_278\n      jump\t// in\n    tag_449:\n        /* \"#utility.yul\":9982:10101   */\n    tag_448:\n        /* \"#utility.yul\":10140:10141   */\n      0x00\n        /* \"#utility.yul\":10165:10218   */\n      tag_450\n        /* \"#utility.yul\":10210:10217   */\n      dup5\n        /* \"#utility.yul\":10201:10207   */\n      dup3\n        /* \"#utility.yul\":10190:10199   */\n      dup6\n        /* \"#utility.yul\":10186:10208   */\n      add\n        /* \"#utility.yul\":10165:10218   */\n      tag_308\n      jump\t// in\n    tag_450:\n        /* \"#utility.yul\":10155:10218   */\n      swap2\n      pop\n        /* \"#utility.yul\":10111:10228   */\n      pop\n        /* \"#utility.yul\":9906:10235   */\n      swap3\n      swap2\n      pop\n      pop\n      jump\t// out\n        /* \"#utility.yul\":10241:10421   */\n    tag_96:\n        /* \"#utility.yul\":10289:10366   */\n      0x4e487b7100000000000000000000000000000000000000000000000000000000\n        /* \"#utility.yul\":10286:10287   */\n      0x00\n        /* \"#utility.yul\":10279:10367   */\n      mstore\n        /* \"#utility.yul\":10386:10390   */\n      0x32\n        /* \"#utility.yul\":10383:10384   */\n      0x04\n        /* \"#utility.yul\":10376:10391   */\n      mstore\n        /* \"#utility.yul\":10410:10414   */\n      0x24\n        /* \"#utility.yul\":10407:10408   */\n      0x00\n        /* \"#utility.yul\":10400:10415   */\n      revert\n        /* \"#utility.yul\":10427:10607   */\n    tag_309:\n        /* \"#utility.yul\":10475:10552   */\n      0x4e487b7100000000000000000000000000000000000000000000000000000000\n        /* \"#utility.yul\":10472:10473   */\n      0x00\n        /* \"#utility.yul\":10465:10553   */\n      mstore\n        /* \"#utility.yul\":10572:10576   */\n      0x22\n        /* \"#utility.yul\":10569:10570   */\n      0x04\n        /* \"#utility.yul\":10562:10577   */\n      mstore\n        /* \"#utility.yul\":10596:10600   */\n      0x24\n        /* \"#utility.yul\":10593:10594   */\n      0x00\n        /* \"#utility.yul\":10586:10601   */\n      revert\n        /* \"#utility.yul\":10613:10933   */\n    tag_101:\n        /* \"#utility.yul\":10657:10663   */\n      0x00\n        /* \"#utility.yul\":10694:10695   */\n      0x02\n        /* \"#utility.yul\":10688:10692   */\n      dup3\n        /* \"#utility.yul\":10684:10696   */\n      div\n        /* \"#utility.yul\":10674:10696   */\n      swap1\n      pop\n        /* \"#utility.yul\":10741:10742   */\n      0x01\n        /* \"#utility.yul\":10735:10739   */\n      dup3\n        /* \"#utility.yul\":10731:10743   */\n      and\n        /* \"#utility.yul\":10762:10780   */\n      dup1\n        /* \"#utility.yul\":10752:10833   */\n      tag_454\n      jumpi\n        /* \"#utility.yul\":10818:10822   */\n      0x7f\n        /* \"#utility.yul\":10810:10816   */\n      dup3\n        /* \"#utility.yul\":10806:10823   */\n      and\n        /* \"#utility.yul\":10796:10823   */\n      swap2\n      pop\n        /* \"#utility.yul\":10752:10833   */\n    tag_454:\n        /* \"#utility.yul\":10880:10882   */\n      0x20\n        /* \"#utility.yul\":10872:10878   */\n      dup3\n        /* \"#utility.yul\":10869:10883   */\n      lt\n        /* \"#utility.yul\":10849:10867   */\n      dup2\n        /* \"#utility.yul\":10846:10884   */\n      sub\n        /* \"#utility.yul\":10843:10927   */\n      tag_455\n      jumpi\n        /* \"#utility.yul\":10899:10917   */\n      tag_456\n      tag_309\n      jump\t// in\n    tag_456:\n        /* \"#utility.yul\":10843:10927   */\n    tag_455:\n        /* \"#utility.yul\":10664:10933   */\n      pop\n        /* \"#utility.yul\":10613:10933   */\n      swap2\n      swap1\n      pop\n      jump\t// out\n        /* \"#utility.yul\":10939:11119   */\n    tag_310:\n        /* \"#utility.yul\":11107:11112   */\n      0x49522d0000000000000000000000000000000000000000000000000000000000\n        /* \"#utility.yul\":11102:11105   */\n      dup2\n        /* \"#utility.yul\":11095:11113   */\n      mstore\n        /* \"#utility.yul\":10939:11119   */\n      pop\n      jump\t// out\n        /* \"#utility.yul\":11125:11273   */\n    tag_311:\n        /* \"#utility.yul\":11227:11238   */\n      0x00\n        /* \"#utility.yul\":11264:11267   */\n      dup2\n        /* \"#utility.yul\":11249:11267   */\n      swap1\n      pop\n        /* \"#utility.yul\":11125:11273   */\n      swap3\n      swap2\n      pop\n      pop\n      jump\t// out\n        /* \"#utility.yul\":11279:11669   */\n    tag_312:\n        /* \"#utility.yul\":11385:11388   */\n      0x00\n        /* \"#utility.yul\":11413:11452   */\n      tag_460\n        /* \"#utility.yul\":11446:11451   */\n      dup3\n        /* \"#utility.yul\":11413:11452   */\n      tag_286\n      jump\t// in\n    tag_460:\n        /* \"#utility.yul\":11468:11557   */\n      tag_461\n        /* \"#utility.yul\":11550:11556   */\n      dup2\n        /* \"#utility.yul\":11545:11548   */\n      dup6\n        /* \"#utility.yul\":11468:11557   */\n      tag_311\n      jump\t// in\n    tag_461:\n        /* \"#utility.yul\":11461:11557   */\n      swap4\n      pop\n        /* \"#utility.yul\":11566:11631   */\n      tag_462\n        /* \"#utility.yul\":11624:11630   */\n      dup2\n        /* \"#utility.yul\":11619:11622   */\n      dup6\n        /* \"#utility.yul\":11612:11616   */\n      0x20\n        /* \"#utility.yul\":11605:11610   */\n      dup7\n        /* \"#utility.yul\":11601:11617   */\n      add\n        /* \"#utility.yul\":11566:11631   */\n      tag_288\n      jump\t// in\n    tag_462:\n        /* \"#utility.yul\":11656:11662   */\n      dup1\n        /* \"#utility.yul\":11651:11654   */\n      dup5\n        /* \"#utility.yul\":11647:11663   */\n      add\n        /* \"#utility.yul\":11640:11663   */\n      swap2\n      pop\n        /* \"#utility.yul\":11389:11669   */\n      pop\n        /* \"#utility.yul\":11279:11669   */\n      swap3\n      swap2\n      pop\n      pop\n      jump\t// out\n        /* \"#utility.yul\":11675:12214   */\n    tag_120:\n        /* \"#utility.yul\":11897:11900   */\n      0x00\n        /* \"#utility.yul\":11912:12049   */\n      tag_464\n        /* \"#utility.yul\":12045:12048   */\n      dup3\n        /* \"#utility.yul\":11912:12049   */\n      tag_310\n      jump\t// in\n    tag_464:\n        /* \"#utility.yul\":12074:12075   */\n      0x03\n        /* \"#utility.yul\":12069:12072   */\n      dup3\n        /* \"#utility.yul\":12065:12076   */\n      add\n        /* \"#utility.yul\":12058:12076   */\n      swap2\n      pop\n        /* \"#utility.yul\":12093:12188   */\n      tag_465\n        /* \"#utility.yul\":12184:12187   */\n      dup3\n        /* \"#utility.yul\":12175:12181   */\n      dup5\n        /* \"#utility.yul\":12093:12188   */\n      tag_312\n      jump\t// in\n    tag_465:\n        /* \"#utility.yul\":12086:12188   */\n      swap2\n      pop\n        /* \"#utility.yul\":12205:12208   */\n      dup2\n        /* \"#utility.yul\":12198:12208   */\n      swap1\n      pop\n        /* \"#utility.yul\":11675:12214   */\n      swap3\n      swap2\n      pop\n      pop\n      jump\t// out\n        /* \"#utility.yul\":12220:12361   */\n    tag_313:\n        /* \"#utility.yul\":12269:12273   */\n      0x00\n        /* \"#utility.yul\":12292:12295   */\n      dup2\n        /* \"#utility.yul\":12284:12295   */\n      swap1\n      pop\n        /* \"#utility.yul\":12315:12318   */\n      dup2\n        /* \"#utility.yul\":12312:12313   */\n      0x00\n        /* \"#utility.yul\":12305:12319   */\n      mstore\n        /* \"#utility.yul\":12349:12353   */\n      0x20\n        /* \"#utility.yul\":12346:12347   */\n      0x00\n        /* \"#utility.yul\":12336:12354   */\n      keccak256\n        /* \"#utility.yul\":12328:12354   */\n      swap1\n      pop\n        /* \"#utility.yul\":12220:12361   */\n      swap2\n      swap1\n      pop\n      jump\t// out\n        /* \"#utility.yul\":12367:12460   */\n    tag_314:\n        /* \"#utility.yul\":12404:12410   */\n      0x00\n        /* \"#utility.yul\":12451:12453   */\n      0x20\n        /* \"#utility.yul\":12446:12448   */\n      0x1f\n        /* \"#utility.yul\":12439:12444   */\n      dup4\n        /* \"#utility.yul\":12435:12449   */\n      add\n        /* \"#utility.yul\":12431:12454   */\n      div\n        /* \"#utility.yul\":12421:12454   */\n      swap1\n      pop\n        /* \"#utility.yul\":12367:12460   */\n      swap2\n      swap1\n      pop\n      jump\t// out\n        /* \"#utility.yul\":12466:12573   */\n    tag_315:\n        /* \"#utility.yul\":12510:12518   */\n      0x00\n        /* \"#utility.yul\":12560:12565   */\n      dup3\n        /* \"#utility.yul\":12554:12558   */\n      dup3\n        /* \"#utility.yul\":12550:12566   */\n      shl\n        /* \"#utility.yul\":12529:12566   */\n      swap1\n      pop\n        /* \"#utility.yul\":12466:12573   */\n      swap3\n      swap2\n      pop\n      pop\n      jump\t// out\n        /* \"#utility.yul\":12579:12972   */\n    tag_316:\n        /* \"#utility.yul\":12648:12654   */\n      0x00\n        /* \"#utility.yul\":12698:12699   */\n      0x08\n        /* \"#utility.yul\":12686:12696   */\n      dup4\n        /* \"#utility.yul\":12682:12700   */\n      mul\n        /* \"#utility.yul\":12721:12818   */\n      tag_470\n        /* \"#utility.yul\":12751:12817   */\n      0xffffffffffffffffffffffffffffffffffffffffffffffffffffffffffffffff\n        /* \"#utility.yul\":12740:12749   */\n      dup3\n        /* \"#utility.yul\":12721:12818   */\n      tag_315\n      jump\t// in\n    tag_470:\n        /* \"#utility.yul\":12839:12878   */\n      tag_471\n        /* \"#utility.yul\":12869:12877   */\n      dup7\n        /* \"#utility.yul\":12858:12867   */\n      dup4\n        /* \"#utility.yul\":12839:12878   */\n      tag_315\n      jump\t// in\n    tag_471:\n        /* \"#utility.yul\":12827:12878   */\n      swap6\n      pop\n        /* \"#utility.yul\":12911:12915   */\n      dup1\n        /* \"#utility.yul\":12907:12916   */\n      not\n        /* \"#utility.yul\":12900:12905   */\n      dup5\n        /* \"#utility.yul\":12896:12917   */\n      and\n        /* \"#utility.yul\":12887:12917   */\n      swap4\n      pop\n        /* \"#utility.yul\":12960:12964   */\n      dup1\n        /* \"#utility.yul\":12950:12958   */\n      dup7\n        /* \"#utility.yul\":12946:12965   */\n      and\n        /* \"#utility.yul\":12939:12944   */\n      dup5\n        /* \"#utility.yul\":12936:12966   */\n      or\n        /* \"#utility.yul\":12926:12966   */\n      swap3\n      pop\n        /* \"#utility.yul\":12655:12972   */\n      pop\n      pop\n        /* \"#utility.yul\":12579:12972   */\n      swap4\n      swap3\n      pop\n      pop\n      pop\n      jump\t// out\n        /* \"#utility.yul\":12978:13038   */\n    tag_317:\n        /* \"#utility.yul\":13006:13009   */\n      0x00\n        /* \"#utility.yul\":13027:13032   */\n      dup2\n        /* \"#utility.yul\":13020:13032   */\n      swap1\n      pop\n        /* \"#utility.yul\":12978:13038   */\n      swap2\n      swap1\n      pop\n      jump\t// out\n        /* \"#utility.yul\":13044:13186   */\n    tag_318:\n        /* \"#utility.yul\":13094:13103   */\n      0x00\n        /* \"#utility.yul\":13127:13180   */\n      tag_474\n        /* \"#utility.yul\":13145:13179   */\n      tag_475\n        /* \"#utility.yul\":13154:13178   */\n      tag_476\n        /* \"#utility.yul\":13172:13177   */\n      dup5\n        /* \"#utility.yul\":13154:13178   */\n      tag_283\n      jump\t// in\n    tag_476:\n        /* \"#utility.yul\":13145:13179   */\n      tag_317\n      jump\t// in\n    tag_475:\n        /* \"#utility.yul\":13127:13180   */\n      tag_283\n      jump\t// in\n    tag_474:\n        /* \"#utility.yul\":13114:13180   */\n      swap1\n      pop\n        /* \"#utility.yul\":13044:13186   */\n      swap2\n      swap1\n      pop\n      jump\t// out\n        /* \"#utility.yul\":13192:13267   */\n    tag_319:\n        /* \"#utility.yul\":13235:13238   */\n      0x00\n        /* \"#utility.yul\":13256:13261   */\n      dup2\n        /* \"#utility.yul\":13249:13261   */\n      swap1\n      pop\n        /* \"#utility.yul\":13192:13267   */\n      swap2\n      swap1\n      pop\n      jump\t// out\n        /* \"#utility.yul\":13273:13542   */\n    tag_320:\n        /* \"#utility.yul\":13383:13422   */\n      tag_479\n        /* \"#utility.yul\":13414:13421   */\n      dup4\n        /* \"#utility.yul\":13383:13422   */\n      tag_318\n      jump\t// in\n    tag_479:\n        /* \"#utility.yul\":13444:13535   */\n      tag_480\n        /* \"#utility.yul\":13493:13534   */\n      tag_481\n        /* \"#utility.yul\":13517:13533   */\n      dup3\n        /* \"#utility.yul\":13493:13534   */\n      tag_319\n      jump\t// in\n    tag_481:\n        /* \"#utility.yul\":13485:13491   */\n      dup5\n        /* \"#utility.yul\":13478:13482   */\n      dup5\n        /* \"#utility.yul\":13472:13483   */\n      sload\n        /* \"#utility.yul\":13444:13535   */\n      tag_316\n      jump\t// in\n    tag_480:\n        /* \"#utility.yul\":13438:13442   */\n      dup3\n        /* \"#utility.yul\":13431:13536   */\n      sstore\n        /* \"#utility.yul\":13349:13542   */\n      pop\n        /* \"#utility.yul\":13273:13542   */\n      pop\n      pop\n      pop\n      jump\t// out\n        /* \"#utility.yul\":13548:13621   */\n    tag_321:\n        /* \"#utility.yul\":13593:13596   */\n      0x00\n        /* \"#utility.yul\":13548:13621   */\n      swap1\n      jump\t// out\n        /* \"#utility.yul\":13627:13816   */\n    tag_322:\n        /* \"#utility.yul\":13704:13736   */\n      tag_484\n      tag_321\n      jump\t// in\n    tag_484:\n        /* \"#utility.yul\":13745:13810   */\n      tag_485\n        /* \"#utility.yul\":13803:13809   */\n      dup2\n        /* \"#utility.yul\":13795:13801   */\n      dup5\n        /* \"#utility.yul\":13789:13793   */\n      dup5\n        /* \"#utility.yul\":13745:13810   */\n      tag_320\n      jump\t// in\n    tag_485:\n        /* \"#utility.yul\":13680:13816   */\n      pop\n        /* \"#utility.yul\":13627:13816   */\n      pop\n      pop\n      jump\t// out\n        /* \"#utility.yul\":13822:14008   */\n    tag_323:\n        /* \"#utility.yul\":13882:14002   */\n    tag_487:\n        /* \"#utility.yul\":13899:13902   */\n      dup2\n        /* \"#utility.yul\":13892:13897   */\n      dup2\n        /* \"#utility.yul\":13889:13903   */\n      lt\n        /* \"#utility.yul\":13882:14002   */\n      iszero\n      tag_489\n      jumpi\n        /* \"#utility.yul\":13953:13992   */\n      tag_490\n        /* \"#utility.yul\":13990:13991   */\n      0x00\n        /* \"#utility.yul\":13983:13988   */\n      dup3\n        /* \"#utility.yul\":13953:13992   */\n      tag_322\n      jump\t// in\n    tag_490:\n        /* \"#utility.yul\":13926:13927   */\n      0x01\n        /* \"#utility.yul\":13919:13924   */\n      dup2\n        /* \"#utility.yul\":13915:13928   */\n      add\n        /* \"#utility.yul\":13906:13928   */\n      swap1\n      pop\n        /* \"#utility.yul\":13882:14002   */\n      jump(tag_487)\n    tag_489:\n        /* \"#utility.yul\":13822:14008   */\n      pop\n      pop\n      jump\t// out\n        /* \"#utility.yul\":14014:14557   */\n    tag_324:\n        /* \"#utility.yul\":14115:14117   */\n      0x1f\n        /* \"#utility.yul\":14110:14113   */\n      dup3\n        /* \"#utility.yul\":14107:14118   */\n      gt\n        /* \"#utility.yul\":14104:14550   */\n      iszero\n      tag_492\n      jumpi\n        /* \"#utility.yul\":14149:14187   */\n      tag_493\n        /* \"#utility.yul\":14181:14186   */\n      dup2\n        /* \"#utility.yul\":14149:14187   */\n      tag_313\n      jump\t// in\n    tag_493:\n        /* \"#utility.yul\":14233:14262   */\n      tag_494\n        /* \"#utility.yul\":14251:14261   */\n      dup5\n        /* \"#utility.yul\":14233:14262   */\n      tag_314\n      jump\t// in\n    tag_494:\n        /* \"#utility.yul\":14223:14231   */\n      dup2\n        /* \"#utility.yul\":14219:14263   */\n      add\n        /* \"#utility.yul\":14416:14418   */\n      0x20\n        /* \"#utility.yul\":14404:14414   */\n      dup6\n        /* \"#utility.yul\":14401:14419   */\n      lt\n        /* \"#utility.yul\":14398:14447   */\n      iszero\n      tag_495\n      jumpi\n        /* \"#utility.yul\":14437:14445   */\n      dup2\n        /* \"#utility.yul\":14422:14445   */\n      swap1\n      pop\n        /* \"#utility.yul\":14398:14447   */\n    tag_495:\n        /* \"#utility.yul\":14460:14540   */\n      tag_496\n        /* \"#utility.yul\":14516:14538   */\n      tag_497\n        /* \"#utility.yul\":14534:14537   */\n      dup6\n        /* \"#utility.yul\":14516:14538   */\n      tag_314\n      jump\t// in\n    tag_497:\n        /* \"#utility.yul\":14506:14514   */\n      dup4\n        /* \"#utility.yul\":14502:14539   */\n      add\n        /* \"#utility.yul\":14489:14500   */\n      dup3\n        /* \"#utility.yul\":14460:14540   */\n      tag_323\n      jump\t// in\n    tag_496:\n        /* \"#utility.yul\":14119:14550   */\n      pop\n      pop\n        /* \"#utility.yul\":14104:14550   */\n    tag_492:\n        /* \"#utility.yul\":14014:14557   */\n      pop\n      pop\n      pop\n      jump\t// out\n        /* \"#utility.yul\":14563:14680   */\n    tag_325:\n        /* \"#utility.yul\":14617:14625   */\n      0x00\n        /* \"#utility.yul\":14667:14672   */\n      dup3\n        /* \"#utility.yul\":14661:14665   */\n      dup3\n        /* \"#utility.yul\":14657:14673   */\n      shr\n        /* \"#utility.yul\":14636:14673   */\n      swap1\n      pop\n        /* \"#utility.yul\":14563:14680   */\n      swap3\n      swap2\n      pop\n      pop\n      jump\t// out\n        /* \"#utility.yul\":14686:14855   */\n    tag_326:\n        /* \"#utility.yul\":14730:14736   */\n      0x00\n        /* \"#utility.yul\":14763:14814   */\n      tag_500\n        /* \"#utility.yul\":14811:14812   */\n      0x00\n        /* \"#utility.yul\":14807:14813   */\n      not\n        /* \"#utility.yul\":14799:14804   */\n      dup5\n        /* \"#utility.yul\":14796:14797   */\n      0x08\n        /* \"#utility.yul\":14792:14805   */\n      mul\n        /* \"#utility.yul\":14763:14814   */\n      tag_325\n      jump\t// in\n    tag_500:\n        /* \"#utility.yul\":14759:14815   */\n      not\n        /* \"#utility.yul\":14844:14848   */\n      dup1\n        /* \"#utility.yul\":14838:14842   */\n      dup4\n        /* \"#utility.yul\":14834:14849   */\n      and\n        /* \"#utility.yul\":14824:14849   */\n      swap2\n      pop\n        /* \"#utility.yul\":14737:14855   */\n      pop\n        /* \"#utility.yul\":14686:14855   */\n      swap3\n      swap2\n      pop\n      pop\n      jump\t// out\n        /* \"#utility.yul\":14860:15155   */\n    tag_327:\n        /* \"#utility.yul\":14936:14940   */\n      0x00\n        /* \"#utility.yul\":15082:15111   */\n      tag_502\n        /* \"#utility.yul\":15107:15110   */\n      dup4\n        /* \"#utility.yul\":15101:15105   */\n      dup4\n        /* \"#utility.yul\":15082:15111   */\n      tag_326\n      jump\t// in\n    tag_502:\n        /* \"#utility.yul\":15074:15111   */\n      swap2\n      pop\n        /* \"#utility.yul\":15144:15147   */\n      dup3\n        /* \"#utility.yul\":15141:15142   */\n      0x02\n        /* \"#utility.yul\":15137:15148   */\n      mul\n        /* \"#utility.yul\":15131:15135   */\n      dup3\n        /* \"#utility.yul\":15128:15149   */\n      or\n        /* \"#utility.yul\":15120:15149   */\n      swap1\n      pop\n        /* \"#utility.yul\":14860:15155   */\n      swap3\n      swap2\n      pop\n      pop\n      jump\t// out\n        /* \"#utility.yul\":15160:16555   */\n    tag_123:\n        /* \"#utility.yul\":15277:15314   */\n      tag_504\n        /* \"#utility.yul\":15310:15313   */\n      dup3\n        /* \"#utility.yul\":15277:15314   */\n      tag_286\n      jump\t// in\n    tag_504:\n        /* \"#utility.yul\":15379:15397   */\n      0xffffffffffffffff\n        /* \"#utility.yul\":15371:15377   */\n      dup2\n        /* \"#utility.yul\":15368:15398   */\n      gt\n        /* \"#utility.yul\":15365:15421   */\n      iszero\n      tag_505\n      jumpi\n        /* \"#utility.yul\":15401:15419   */\n      tag_506\n      tag_238\n      jump\t// in\n    tag_506:\n        /* \"#utility.yul\":15365:15421   */\n    tag_505:\n        /* \"#utility.yul\":15445:15483   */\n      tag_507\n        /* \"#utility.yul\":15477:15481   */\n      dup3\n        /* \"#utility.yul\":15471:15482   */\n      sload\n        /* \"#utility.yul\":15445:15483   */\n      tag_101\n      jump\t// in\n    tag_507:\n        /* \"#utility.yul\":15530:15597   */\n      tag_508\n        /* \"#utility.yul\":15590:15596   */\n      dup3\n        /* \"#utility.yul\":15582:15588   */\n      dup3\n        /* \"#utility.yul\":15576:15580   */\n      dup6\n        /* \"#utility.yul\":15530:15597   */\n      tag_324\n      jump\t// in\n    tag_508:\n        /* \"#utility.yul\":15624:15625   */\n      0x00\n        /* \"#utility.yul\":15648:15652   */\n      0x20\n        /* \"#utility.yul\":15635:15652   */\n      swap1\n      pop\n        /* \"#utility.yul\":15680:15682   */\n      0x1f\n        /* \"#utility.yul\":15672:15678   */\n      dup4\n        /* \"#utility.yul\":15669:15683   */\n      gt\n        /* \"#utility.yul\":15697:15698   */\n      0x01\n        /* \"#utility.yul\":15692:16310   */\n      dup2\n      eq\n      tag_510\n      jumpi\n        /* \"#utility.yul\":16354:16355   */\n      0x00\n        /* \"#utility.yul\":16371:16377   */\n      dup5\n        /* \"#utility.yul\":16368:16445   */\n      iszero\n      tag_511\n      jumpi\n        /* \"#utility.yul\":16420:16429   */\n      dup3\n        /* \"#utility.yul\":16415:16418   */\n      dup8\n        /* \"#utility.yul\":16411:16430   */\n      add\n        /* \"#utility.yul\":16405:16431   */\n      mload\n        /* \"#utility.yul\":16396:16431   */\n      swap1\n      pop\n        /* \"#utility.yul\":16368:16445   */\n    tag_511:\n        /* \"#utility.yul\":16471:16538   */\n      tag_512\n        /* \"#utility.yul\":16531:16537   */\n      dup6\n        /* \"#utility.yul\":16524:16529   */\n      dup3\n        /* \"#utility.yul\":16471:16538   */\n      tag_327\n      jump\t// in\n    tag_512:\n        /* \"#utility.yul\":16465:16469   */\n      dup7\n        /* \"#utility.yul\":16458:16539   */\n      sstore\n        /* \"#utility.yul\":16327:16549   */\n      pop\n        /* \"#utility.yul\":15662:16549   */\n      jump(tag_509)\n        /* \"#utility.yul\":15692:16310   */\n    tag_510:\n        /* \"#utility.yul\":15744:15748   */\n      0x1f\n        /* \"#utility.yul\":15740:15749   */\n      not\n        /* \"#utility.yul\":15732:15738   */\n      dup5\n        /* \"#utility.yul\":15728:15750   */\n      and\n        /* \"#utility.yul\":15778:15815   */\n      tag_513\n        /* \"#utility.yul\":15810:15814   */\n      dup7\n        /* \"#utility.yul\":15778:15815   */\n      tag_313\n      jump\t// in\n    tag_513:\n        /* \"#utility.yul\":15837:15838   */\n      0x00\n        /* \"#utility.yul\":15851:16059   */\n    tag_514:\n        /* \"#utility.yul\":15865:15872   */\n      dup3\n        /* \"#utility.yul\":15862:15863   */\n      dup2\n        /* \"#utility.yul\":15859:15873   */\n      lt\n        /* \"#utility.yul\":15851:16059   */\n      iszero\n      tag_516\n      jumpi\n        /* \"#utility.yul\":15944:15953   */\n      dup5\n        /* \"#utility.yul\":15939:15942   */\n      dup10\n        /* \"#utility.yul\":15935:15954   */\n      add\n        /* \"#utility.yul\":15929:15955   */\n      mload\n        /* \"#utility.yul\":15921:15927   */\n      dup3\n        /* \"#utility.yul\":15914:15956   */\n      sstore\n        /* \"#utility.yul\":15995:15996   */\n      0x01\n        /* \"#utility.yul\":15987:15993   */\n      dup3\n        /* \"#utility.yul\":15983:15997   */\n      add\n        /* \"#utility.yul\":15973:15997   */\n      swap2\n      pop\n        /* \"#utility.yul\":16042:16044   */\n      0x20\n        /* \"#utility.yul\":16031:16040   */\n      dup6\n        /* \"#utility.yul\":16027:16045   */\n      add\n        /* \"#utility.yul\":16014:16045   */\n      swap5\n      pop\n        /* \"#utility.yul\":15888:15892   */\n      0x20\n        /* \"#utility.yul\":15885:15886   */\n      dup2\n        /* \"#utility.yul\":15881:15893   */\n      add\n        /* \"#utility.yul\":15876:15893   */\n      swap1\n      pop\n        /* \"#utility.yul\":15851:16059   */\n      jump(tag_514)\n    tag_516:\n        /* \"#utility.yul\":16087:16093   */\n      dup7\n        /* \"#utility.yul\":16078:16085   */\n      dup4\n        /* \"#utility.yul\":16075:16094   */\n      lt\n        /* \"#utility.yul\":16072:16251   */\n      iszero\n      tag_517\n      jumpi\n        /* \"#utility.yul\":16145:16154   */\n      dup5\n        /* \"#utility.yul\":16140:16143   */\n      dup10\n        /* \"#utility.yul\":16136:16155   */\n      add\n        /* \"#utility.yul\":16130:16156   */\n      mload\n        /* \"#utility.yul\":16188:16236   */\n      tag_518\n        /* \"#utility.yul\":16230:16234   */\n      0x1f\n        /* \"#utility.yul\":16222:16228   */\n      dup10\n        /* \"#utility.yul\":16218:16235   */\n      and\n        /* \"#utility.yul\":16207:16216   */\n      dup3\n        /* \"#utility.yul\":16188:16236   */\n      tag_326\n      jump\t// in\n    tag_518:\n        /* \"#utility.yul\":16180:16186   */\n      dup4\n        /* \"#utility.yul\":16173:16237   */\n      sstore\n        /* \"#utility.yul\":16095:16251   */\n      pop\n        /* \"#utility.yul\":16072:16251   */\n    tag_517:\n        /* \"#utility.yul\":16297:16298   */\n      0x01\n        /* \"#utility.yul\":16293:16294   */\n      0x02\n        /* \"#utility.yul\":16285:16291   */\n      dup9\n        /* \"#utility.yul\":16281:16295   */\n      mul\n        /* \"#utility.yul\":16277:16299   */\n      add\n        /* \"#utility.yul\":16271:16275   */\n      dup9\n        /* \"#utility.yul\":16264:16300   */\n      sstore\n        /* \"#utility.yul\":15699:16310   */\n      pop\n      pop\n      pop\n        /* \"#utility.yul\":15662:16549   */\n    tag_509:\n      pop\n        /* \"#utility.yul\":15252:16555   */\n      pop\n      pop\n      pop\n        /* \"#utility.yul\":15160:16555   */\n      pop\n      pop\n      jump\t// out\n        /* \"#utility.yul\":16561:16741   */\n    tag_328:\n        /* \"#utility.yul\":16609:16686   */\n      0x4e487b7100000000000000000000000000000000000000000000000000000000\n        /* \"#utility.yul\":16606:16607   */\n      0x00\n        /* \"#utility.yul\":16599:16687   */\n      mstore\n        /* \"#utility.yul\":16706:16710   */\n      0x11\n        /* \"#utility.yul\":16703:16704   */\n      0x04\n        /* \"#utility.yul\":16696:16711   */\n      mstore\n        /* \"#utility.yul\":16730:16734   */\n      0x24\n        /* \"#utility.yul\":16727:16728   */\n      0x00\n        /* \"#utility.yul\":16720:16735   */\n      revert\n        /* \"#utility.yul\":16747:16948   */\n    tag_128:\n        /* \"#utility.yul\":16786:16789   */\n      0x00\n        /* \"#utility.yul\":16809:16833   */\n      tag_521\n        /* \"#utility.yul\":16827:16832   */\n      dup3\n        /* \"#utility.yul\":16809:16833   */\n      tag_275\n      jump\t// in\n    tag_521:\n        /* \"#utility.yul\":16800:16833   */\n      swap2\n      pop\n        /* \"#utility.yul\":16855:16889   */\n      0xffffffffffffffffffffffffffffffff\n        /* \"#utility.yul\":16848:16853   */\n      dup3\n        /* \"#utility.yul\":16845:16890   */\n      sub\n        /* \"#utility.yul\":16842:16913   */\n      tag_522\n      jumpi\n        /* \"#utility.yul\":16893:16911   */\n      tag_523\n      tag_328\n      jump\t// in\n    tag_523:\n        /* \"#utility.yul\":16842:16913   */\n    tag_522:\n        /* \"#utility.yul\":16940:16941   */\n      0x01\n        /* \"#utility.yul\":16933:16938   */\n      dup3\n        /* \"#utility.yul\":16929:16942   */\n      add\n        /* \"#utility.yul\":16922:16942   */\n      swap1\n      pop\n        /* \"#utility.yul\":16747:16948   */\n      swap2\n      swap1\n      pop\n      jump\t// out\n        /* \"#utility.yul\":16954:17148   */\n    tag_133:\n        /* \"#utility.yul\":16994:16998   */\n      0x00\n        /* \"#utility.yul\":17014:17034   */\n      tag_525\n        /* \"#utility.yul\":17032:17033   */\n      dup3\n        /* \"#utility.yul\":17014:17034   */\n      tag_283\n      jump\t// in\n    tag_525:\n        /* \"#utility.yul\":17009:17034   */\n      swap2\n      pop\n        /* \"#utility.yul\":17048:17068   */\n      tag_526\n        /* \"#utility.yul\":17066:17067   */\n      dup4\n        /* \"#utility.yul\":17048:17068   */\n      tag_283\n      jump\t// in\n    tag_526:\n        /* \"#utility.yul\":17043:17068   */\n      swap3\n      pop\n        /* \"#utility.yul\":17092:17093   */\n      dup3\n        /* \"#utility.yul\":17089:17090   */\n      dup3\n        /* \"#utility.yul\":17085:17094   */\n      sub\n        /* \"#utility.yul\":17077:17094   */\n      swap1\n      pop\n        /* \"#utility.yul\":17116:17117   */\n      dup2\n        /* \"#utility.yul\":17110:17114   */\n      dup2\n        /* \"#utility.yul\":17107:17118   */\n      gt\n        /* \"#utility.yul\":17104:17141   */\n      iszero\n      tag_527\n      jumpi\n        /* \"#utility.yul\":17121:17139   */\n      tag_528\n      tag_328\n      jump\t// in\n    tag_528:\n        /* \"#utility.yul\":17104:17141   */\n    tag_527:\n        /* \"#utility.yul\":16954:17148   */\n      swap3\n      swap2\n      pop\n      pop\n      jump\t// out\n        /* \"#utility.yul\":17154:17303   */\n    tag_329:\n        /* \"#utility.yul\":17203:17209   */\n      0x00\n        /* \"#utility.yul\":17237:17242   */\n      dup2\n        /* \"#utility.yul\":17231:17243   */\n      sload\n        /* \"#utility.yul\":17221:17243   */\n      swap1\n      pop\n        /* \"#utility.yul\":17263:17296   */\n      tag_530\n        /* \"#utility.yul\":17289:17295   */\n      dup2\n        /* \"#utility.yul\":17263:17296   */\n      tag_101\n      jump\t// in\n    tag_530:\n        /* \"#utility.yul\":17253:17296   */\n      swap1\n      pop\n        /* \"#utility.yul\":17154:17303   */\n      swap2\n      swap1\n      pop\n      jump\t// out\n        /* \"#utility.yul\":17309:18760   */\n    tag_141:\n        /* \"#utility.yul\":17420:17423   */\n      dup2\n        /* \"#utility.yul\":17414:17418   */\n      dup2\n        /* \"#utility.yul\":17411:17424   */\n      sub\n        /* \"#utility.yul\":17408:17434   */\n      tag_532\n      jumpi\n        /* \"#utility.yul\":17427:17432   */\n      pop\n      pop\n      jump(tag_531)\n        /* \"#utility.yul\":17408:17434   */\n    tag_532:\n        /* \"#utility.yul\":17458:17492   */\n      tag_533\n        /* \"#utility.yul\":17488:17491   */\n      dup3\n        /* \"#utility.yul\":17458:17492   */\n      tag_329\n      jump\t// in\n    tag_533:\n        /* \"#utility.yul\":17557:17575   */\n      0xffffffffffffffff\n        /* \"#utility.yul\":17549:17555   */\n      dup2\n        /* \"#utility.yul\":17546:17576   */\n      gt\n        /* \"#utility.yul\":17543:17599   */\n      iszero\n      tag_534\n      jumpi\n        /* \"#utility.yul\":17579:17597   */\n      tag_535\n      tag_238\n      jump\t// in\n    tag_535:\n        /* \"#utility.yul\":17543:17599   */\n    tag_534:\n        /* \"#utility.yul\":17623:17661   */\n      tag_536\n        /* \"#utility.yul\":17655:17659   */\n      dup3\n        /* \"#utility.yul\":17649:17660   */\n      sload\n        /* \"#utility.yul\":17623:17661   */\n      tag_101\n      jump\t// in\n    tag_536:\n        /* \"#utility.yul\":17708:17775   */\n      tag_537\n        /* \"#utility.yul\":17768:17774   */\n      dup3\n        /* \"#utility.yul\":17760:17766   */\n      dup3\n        /* \"#utility.yul\":17754:17758   */\n      dup6\n        /* \"#utility.yul\":17708:17775   */\n      tag_324\n      jump\t// in\n    tag_537:\n        /* \"#utility.yul\":17802:17803   */\n      0x00\n        /* \"#utility.yul\":17831:17833   */\n      0x1f\n        /* \"#utility.yul\":17823:17829   */\n      dup4\n        /* \"#utility.yul\":17820:17834   */\n      gt\n        /* \"#utility.yul\":17848:17849   */\n      0x01\n        /* \"#utility.yul\":17843:18515   */\n      dup2\n      eq\n      tag_539\n      jumpi\n        /* \"#utility.yul\":18559:18560   */\n      0x00\n        /* \"#utility.yul\":18576:18582   */\n      dup5\n        /* \"#utility.yul\":18573:18650   */\n      iszero\n      tag_540\n      jumpi\n        /* \"#utility.yul\":18625:18634   */\n      dup3\n        /* \"#utility.yul\":18620:18623   */\n      dup8\n        /* \"#utility.yul\":18616:18635   */\n      add\n        /* \"#utility.yul\":18610:18636   */\n      sload\n        /* \"#utility.yul\":18601:18636   */\n      swap1\n      pop\n        /* \"#utility.yul\":18573:18650   */\n    tag_540:\n        /* \"#utility.yul\":18676:18743   */\n      tag_541\n        /* \"#utility.yul\":18736:18742   */\n      dup6\n        /* \"#utility.yul\":18729:18734   */\n      dup3\n        /* \"#utility.yul\":18676:18743   */\n      tag_327\n      jump\t// in\n    tag_541:\n        /* \"#utility.yul\":18670:18674   */\n      dup7\n        /* \"#utility.yul\":18663:18744   */\n      sstore\n        /* \"#utility.yul\":18532:18754   */\n      pop\n        /* \"#utility.yul\":17813:18754   */\n      jump(tag_538)\n        /* \"#utility.yul\":17843:18515   */\n    tag_539:\n        /* \"#utility.yul\":17895:17899   */\n      0x1f\n        /* \"#utility.yul\":17891:17900   */\n      not\n        /* \"#utility.yul\":17883:17889   */\n      dup5\n        /* \"#utility.yul\":17879:17901   */\n      and\n        /* \"#utility.yul\":17921:17957   */\n      tag_542\n        /* \"#utility.yul\":17953:17956   */\n      dup8\n        /* \"#utility.yul\":17921:17957   */\n      tag_313\n      jump\t// in\n    tag_542:\n        /* \"#utility.yul\":17914:17957   */\n      swap7\n      pop\n        /* \"#utility.yul\":17984:18021   */\n      tag_543\n        /* \"#utility.yul\":18016:18020   */\n      dup7\n        /* \"#utility.yul\":17984:18021   */\n      tag_313\n      jump\t// in\n    tag_543:\n        /* \"#utility.yul\":18043:18044   */\n      0x00\n        /* \"#utility.yul\":18057:18264   */\n    tag_544:\n        /* \"#utility.yul\":18071:18078   */\n      dup3\n        /* \"#utility.yul\":18068:18069   */\n      dup2\n        /* \"#utility.yul\":18065:18079   */\n      lt\n        /* \"#utility.yul\":18057:18264   */\n      iszero\n      tag_546\n      jumpi\n        /* \"#utility.yul\":18150:18159   */\n      dup5\n        /* \"#utility.yul\":18145:18148   */\n      dup10\n        /* \"#utility.yul\":18141:18160   */\n      add\n        /* \"#utility.yul\":18135:18161   */\n      sload\n        /* \"#utility.yul\":18127:18133   */\n      dup3\n        /* \"#utility.yul\":18120:18162   */\n      sstore\n        /* \"#utility.yul\":18201:18202   */\n      0x01\n        /* \"#utility.yul\":18193:18199   */\n      dup3\n        /* \"#utility.yul\":18189:18203   */\n      add\n        /* \"#utility.yul\":18179:18203   */\n      swap2\n      pop\n        /* \"#utility.yul\":18248:18249   */\n      0x01\n        /* \"#utility.yul\":18237:18246   */\n      dup6\n        /* \"#utility.yul\":18233:18250   */\n      add\n        /* \"#utility.yul\":18220:18250   */\n      swap5\n      pop\n        /* \"#utility.yul\":18094:18098   */\n      0x20\n        /* \"#utility.yul\":18091:18092   */\n      dup2\n        /* \"#utility.yul\":18087:18099   */\n      add\n        /* \"#utility.yul\":18082:18099   */\n      swap1\n      pop\n        /* \"#utility.yul\":18057:18264   */\n      jump(tag_544)\n    tag_546:\n        /* \"#utility.yul\":18292:18298   */\n      dup7\n        /* \"#utility.yul\":18283:18290   */\n      dup4\n        /* \"#utility.yul\":18280:18299   */\n      lt\n        /* \"#utility.yul\":18277:18456   */\n      iszero\n      tag_547\n      jumpi\n        /* \"#utility.yul\":18350:18359   */\n      dup5\n        /* \"#utility.yul\":18345:18348   */\n      dup10\n        /* \"#utility.yul\":18341:18360   */\n      add\n        /* \"#utility.yul\":18335:18361   */\n      sload\n        /* \"#utility.yul\":18393:18441   */\n      tag_548\n        /* \"#utility.yul\":18435:18439   */\n      0x1f\n        /* \"#utility.yul\":18427:18433   */\n      dup10\n        /* \"#utility.yul\":18423:18440   */\n      and\n        /* \"#utility.yul\":18412:18421   */\n      dup3\n        /* \"#utility.yul\":18393:18441   */\n      tag_326\n      jump\t// in\n    tag_548:\n        /* \"#utility.yul\":18385:18391   */\n      dup4\n        /* \"#utility.yul\":18378:18442   */\n      sstore\n        /* \"#utility.yul\":18300:18456   */\n      pop\n        /* \"#utility.yul\":18277:18456   */\n    tag_547:\n        /* \"#utility.yul\":18502:18503   */\n      0x01\n        /* \"#utility.yul\":18498:18499   */\n      0x02\n        /* \"#utility.yul\":18490:18496   */\n      dup9\n        /* \"#utility.yul\":18486:18500   */\n      mul\n        /* \"#utility.yul\":18482:18504   */\n      add\n        /* \"#utility.yul\":18476:18480   */\n      dup9\n        /* \"#utility.yul\":18469:18505   */\n      sstore\n        /* \"#utility.yul\":17850:18515   */\n      pop\n      pop\n      pop\n        /* \"#utility.yul\":17813:18754   */\n    tag_538:\n      pop\n        /* \"#utility.yul\":17398:18760   */\n      pop\n      pop\n      pop\n        /* \"#utility.yul\":17309:18760   */\n      pop\n      pop\n    tag_531:\n      jump\t// out\n        /* \"#utility.yul\":18766:18946   */\n    tag_146:\n        /* \"#utility.yul\":18814:18891   */\n      0x4e487b7100000000000000000000000000000000000000000000000000000000\n        /* \"#utility.yul\":18811:18812   */\n      0x00\n        /* \"#utility.yul\":18804:18892   */\n      mstore\n        /* \"#utility.yul\":18911:18915   */\n      0x31\n        /* \"#utility.yul\":18908:18909   */\n      0x04\n        /* \"#utility.yul\":18901:18916   */\n      mstore\n        /* \"#utility.yul\":18935:18939   */\n      0x24\n        /* \"#utility.yul\":18932:18933   */\n      0x00\n        /* \"#utility.yul\":18925:18940   */\n      revert\n        /* \"#utility.yul\":18952:19132   */\n    tag_330:\n        /* \"#utility.yul\":19120:19125   */\n      0x50522d0000000000000000000000000000000000000000000000000000000000\n        /* \"#utility.yul\":19115:19118   */\n      dup2\n        /* \"#utility.yul\":19108:19126   */\n      mstore\n        /* \"#utility.yul\":18952:19132   */\n      pop\n      jump\t// out\n        /* \"#utility.yul\":19138:19677   */\n    tag_196:\n        /* \"#utility.yul\":19360:19363   */\n      0x00\n        /* \"#utility.yul\":19375:19512   */\n      tag_552\n        /* \"#utility.yul\":19508:19511   */\n      dup3\n        /* \"#utility.yul\":19375:19512   */\n      tag_330\n      jump\t// in\n    tag_552:\n        /* \"#utility.yul\":19537:19538   */\n      0x03\n        /* \"#utility.yul\":19532:19535   */\n      dup3\n        /* \"#utility.yul\":19528:19539   */\n      add\n        /* \"#utility.yul\":19521:19539   */\n      swap2\n      pop\n        /* \"#utility.yul\":19556:19651   */\n      tag_553\n        /* \"#utility.yul\":19647:19650   */\n      dup3\n        /* \"#utility.yul\":19638:19644   */\n      dup5\n        /* \"#utility.yul\":19556:19651   */\n      tag_312\n      jump\t// in\n    tag_553:\n        /* \"#utility.yul\":19549:19651   */\n      swap2\n      pop\n        /* \"#utility.yul\":19668:19671   */\n      dup2\n        /* \"#utility.yul\":19661:19671   */\n      swap1\n      pop\n        /* \"#utility.yul\":19138:19677   */\n      swap3\n      swap2\n      pop\n      pop\n      jump\t// out\n        /* \"#utility.yul\":19683:19854   */\n    tag_209:\n        /* \"#utility.yul\":19721:19724   */\n      0x00\n        /* \"#utility.yul\":19744:19767   */\n      tag_555\n        /* \"#utility.yul\":19761:19766   */\n      dup3\n        /* \"#utility.yul\":19744:19767   */\n      tag_292\n      jump\t// in\n    tag_555:\n        /* \"#utility.yul\":19735:19767   */\n      swap2\n      pop\n        /* \"#utility.yul\":19789:19795   */\n      0xffff\n        /* \"#utility.yul\":19782:19787   */\n      dup3\n        /* \"#utility.yul\":19779:19796   */\n      sub\n        /* \"#utility.yul\":19776:19819   */\n      tag_556\n      jumpi\n        /* \"#utility.yul\":19799:19817   */\n      tag_557\n      tag_328\n      jump\t// in\n    tag_557:\n        /* \"#utility.yul\":19776:19819   */\n    tag_556:\n        /* \"#utility.yul\":19846:19847   */\n      0x01\n        /* \"#utility.yul\":19839:19844   */\n      dup3\n        /* \"#utility.yul\":19835:19848   */\n      add\n        /* \"#utility.yul\":19828:19848   */\n      swap1\n      pop\n        /* \"#utility.yul\":19683:19854   */\n      swap2\n      swap1\n      pop\n      jump\t// out\n        /* \"#utility.yul\":19860:20040   */\n    tag_244:\n        /* \"#utility.yul\":19908:19985   */\n      0x4e487b7100000000000000000000000000000000000000000000000000000000\n        /* \"#utility.yul\":19905:19906   */\n      0x00\n        /* \"#utility.yul\":19898:19986   */\n      mstore\n        /* \"#utility.yul\":20005:20009   */\n      0x12\n        /* \"#utility.yul\":20002:20003   */\n      0x04\n        /* \"#utility.yul\":19995:20010   */\n      mstore\n        /* \"#utility.yul\":20029:20033   */\n      0x24\n        /* \"#utility.yul\":20026:20027   */\n      0x00\n        /* \"#utility.yul\":20019:20034   */\n      revert\n\n    auxdata: 0xa26469706673582212200ed8c9b937720cb6f819c33c388762b549ef3d8c04da645f8d63f9ba5521eb2064736f6c63430008140033\n}\n",
				"bytecode": {
					"linkReferences": {},
					"object": "60806040523480156200001157600080fd5b5033600073ffffffffffffffffffffffffffffffffffffffff168173ffffffffffffffffffffffffffffffffffffffff1603620000885760006040517f1e4fbdf70000000000000000000000000000000000000000000000000000000081526004016200007f91906200021b565b60405180910390fd5b62000099816200011260201b60201c565b5060018060006101000a8154816fffffffffffffffffffffffffffffffff02191690836fffffffffffffffffffffffffffffffff16021790555060018060106101000a8154816fffffffffffffffffffffffffffffffff02191690836fffffffffffffffffffffffffffffffff16021790555062000238565b60008060009054906101000a900473ffffffffffffffffffffffffffffffffffffffff169050816000806101000a81548173ffffffffffffffffffffffffffffffffffffffff021916908373ffffffffffffffffffffffffffffffffffffffff1602179055508173ffffffffffffffffffffffffffffffffffffffff168173ffffffffffffffffffffffffffffffffffffffff167f8be0079c531659141344cd1fd0a4f28419497f9722a3daafe3b4186f6b6457e060405160405180910390a35050565b600073ffffffffffffffffffffffffffffffffffffffff82169050919050565b60006200020382620001d6565b9050919050565b6200021581620001f6565b82525050565b60006020820190506200023260008301846200020a565b92915050565b61214c80620002486000396000f3fe608060405234801561001057600080fd5b506004361061010b5760003560e01c80637f18523f116100a25780639b03c9cf116100715780639b03c9cf14610284578063aad86fe7146102b4578063c09d926c146102e4578063f2fde38b14610314578063feee10b0146103305761010b565b80637f18523f1461021257806387825aef1461022e5780638da5cb5b1461024a5780638e6a0fd4146102685761010b565b80635c046276116100de5780635c0462761461019a5780636a28f828146101b6578063715018a6146101d45780637d0487ff146101de5761010b565b80632bd10f6b14610110578063348aa3bd1461012e57806345da51581461014a5780635b1214ad1461017e575b600080fd5b610118610360565b60405161012591906115c0565b60405180910390f35b61014860048036038101906101439190611628565b610382565b005b610164600480360381019061015f919061169e565b6103d5565b604051610175959493929190611787565b60405180910390f35b61019860048036038101906101939190611924565b6105ce565b005b6101b460048036038101906101af919061199c565b6107dd565b005b6101be610965565b6040516101cb91906115c0565b60405180910390f35b6101dc610987565b005b6101f860048036038101906101f3919061169e565b61099b565b604051610209959493929190611787565b60405180910390f35b61022c6004803603810190610227919061199c565b610b94565b005b61024860048036038101906102439190611924565b610d1c565b005b610252610f2b565b60405161025f9190611a0a565b60405180910390f35b610282600480360381019061027d919061199c565b610f54565b005b61029e60048036038101906102999190611a51565b610fbe565b6040516102ab9190611a7e565b60405180910390f35b6102ce60048036038101906102c99190611a51565b61105e565b6040516102db9190611aa0565b60405180910390f35b6102fe60048036038101906102f99190611a51565b61107e565b60405161030b9190611aa0565b60405180910390f35b61032e60048036038101906103299190611ae7565b61109e565b005b61034a60048036038101906103459190611a51565b611124565b6040516103579190611a7e565b60405180910390f35b600160009054906101000a90046fffffffffffffffffffffffffffffffff1681565b61038a6111c4565b600060038360ff16815481106103a3576103a2611b14565b5b90600052602060002090600402019050818160030160006101000a81548160ff021916908360ff160217905550505050565b600381815481106103e557600080fd5b906000526020600020906004020160009150905080600001805461040890611b72565b80601f016020809104026020016040519081016040528092919081815260200182805461043490611b72565b80156104815780601f1061045657610100808354040283529160200191610481565b820191906000526020600020905b81548152906001019060200180831161046457829003601f168201915b50505050509080600101805461049690611b72565b80601f01602080910402602001604051908101604052809291908181526020018280546104c290611b72565b801561050f5780601f106104e45761010080835404028352916020019161050f565b820191906000526020600020905b8154815290600101906020018083116104f257829003601f168201915b50505050509080600201805461052490611b72565b80601f016020809104026020016040519081016040528092919081815260200182805461055090611b72565b801561059d5780601f106105725761010080835404028352916020019161059d565b820191906000526020600020905b81548152906001019060200180831161058057829003601f168201915b5050505050908060030160009054906101000a900460ff16908060030160019054906101000a900461ffff16905085565b6000610609600160009054906101000a90046fffffffffffffffffffffffffffffffff166fffffffffffffffffffffffffffffffff1661124b565b90508060405160200161061c9190611c05565b604051602081830303815290604052905060026040518060a00160405280838152602001858152602001848152602001600060ff168152602001600061ffff168152509080600181540180825580915050600190039060005260206000209060040201600090919091909150600082015181600001908161069d9190611dd7565b5060208201518160010190816106b39190611dd7565b5060408201518160020190816106c99190611dd7565b5060608201518160030160006101000a81548160ff021916908360ff16021790555060808201518160030160016101000a81548161ffff021916908361ffff16021790555050508260046000600160009054906101000a90046fffffffffffffffffffffffffffffffff166fffffffffffffffffffffffffffffffff166fffffffffffffffffffffffffffffffff16815260200190815260200160002090816107729190611dd7565b506001600081819054906101000a90046fffffffffffffffffffffffffffffffff16809291906107a190611ed8565b91906101000a8154816fffffffffffffffffffffffffffffffff02191690836fffffffffffffffffffffffffffffffff16021790555050505050565b6107e56111c4565b600360016003805490506107f99190611f10565b8154811061080a57610809611b14565b5b906000526020600020906004020160038260ff168154811061082f5761082e611b14565b5b9060005260206000209060040201600082018160000190816108519190611f5a565b50600182018160010190816108669190611f5a565b506002820181600201908161087b9190611f5a565b506003820160009054906101000a900460ff168160030160006101000a81548160ff021916908360ff1602179055506003820160019054906101000a900461ffff168160030160016101000a81548161ffff021916908361ffff16021790555090505060038054806108f0576108ef612042565b5b6001900381819060005260206000209060040201600080820160006109159190611538565b6001820160006109259190611538565b6002820160006109359190611538565b6003820160006101000a81549060ff02191690556003820160016101000a81549061ffff02191690555050905550565b600160109054906101000a90046fffffffffffffffffffffffffffffffff1681565b61098f6111c4565b6109996000611319565b565b600281815481106109ab57600080fd5b90600052602060002090600402016000915090508060000180546109ce90611b72565b80601f01602080910402602001604051908101604052809291908181526020018280546109fa90611b72565b8015610a475780601f10610a1c57610100808354040283529160200191610a47565b820191906000526020600020905b815481529060010190602001808311610a2a57829003601f168201915b505050505090806001018054610a5c90611b72565b80601f0160208091040260200160405190810160405280929190818152602001828054610a8890611b72565b8015610ad55780601f10610aaa57610100808354040283529160200191610ad5565b820191906000526020600020905b815481529060010190602001808311610ab857829003601f168201915b505050505090806002018054610aea90611b72565b80601f0160208091040260200160405190810160405280929190818152602001828054610b1690611b72565b8015610b635780601f10610b3857610100808354040283529160200191610b63565b820191906000526020600020905b815481529060010190602001808311610b4657829003601f168201915b5050505050908060030160009054906101000a900460ff16908060030160019054906101000a900461ffff16905085565b610b9c6111c4565b60026001600280549050610bb09190611f10565b81548110610bc157610bc0611b14565b5b906000526020600020906004020160028260ff1681548110610be657610be5611b14565b5b906000526020600020906004020160008201816000019081610c089190611f5a565b5060018201816001019081610c1d9190611f5a565b5060028201816002019081610c329190611f5a565b506003820160009054906101000a900460ff168160030160006101000a81548160ff021916908360ff1602179055506003820160019054906101000a900461ffff168160030160016101000a81548161ffff021916908361ffff1602179055509050506002805480610ca757610ca6612042565b5b600190038181906000526020600020906004020160008082016000610ccc9190611538565b600182016000610cdc9190611538565b600282016000610cec9190611538565b6003820160006101000a81549060ff02191690556003820160016101000a81549061ffff02191690555050905550565b6000610d57600160109054906101000a90046fffffffffffffffffffffffffffffffff166fffffffffffffffffffffffffffffffff1661124b565b905080604051602001610d6a9190612097565b604051602081830303815290604052905060036040518060a00160405280838152602001858152602001848152602001600060ff168152602001600061ffff1681525090806001815401808255809150506001900390600052602060002090600402016000909190919091506000820151816000019081610deb9190611dd7565b506020820151816001019081610e019190611dd7565b506040820151816002019081610e179190611dd7565b5060608201518160030160006101000a81548160ff021916908360ff16021790555060808201518160030160016101000a81548161ffff021916908361ffff16021790555050508260066000600160109054906101000a90046fffffffffffffffffffffffffffffffff166fffffffffffffffffffffffffffffffff166fffffffffffffffffffffffffffffffff1681526020019081526020016000209081610ec09190611dd7565b506001601081819054906101000a90046fffffffffffffffffffffffffffffffff1680929190610eef90611ed8565b91906101000a8154816fffffffffffffffffffffffffffffffff02191690836fffffffffffffffffffffffffffffffff16021790555050505050565b60008060009054906101000a900473ffffffffffffffffffffffffffffffffffffffff16905090565b600060038260ff1681548110610f6d57610f6c611b14565b5b9060005260206000209060040201905080600301600181819054906101000a900461ffff1680929190610f9f906120bd565b91906101000a81548161ffff021916908361ffff160217905550505050565b60046020528060005260406000206000915090508054610fdd90611b72565b80601f016020809104026020016040519081016040528092919081815260200182805461100990611b72565b80156110565780601f1061102b57610100808354040283529160200191611056565b820191906000526020600020905b81548152906001019060200180831161103957829003601f168201915b505050505081565b60056020528060005260406000206000915054906101000a900460ff1681565b60076020528060005260406000206000915054906101000a900460ff1681565b6110a66111c4565b600073ffffffffffffffffffffffffffffffffffffffff168173ffffffffffffffffffffffffffffffffffffffff16036111185760006040517f1e4fbdf700000000000000000000000000000000000000000000000000000000815260040161110f9190611a0a565b60405180910390fd5b61112181611319565b50565b6006602052806000526040600020600091509050805461114390611b72565b80601f016020809104026020016040519081016040528092919081815260200182805461116f90611b72565b80156111bc5780601f10611191576101008083540402835291602001916111bc565b820191906000526020600020905b81548152906001019060200180831161119f57829003601f168201915b505050505081565b6111cc6113dd565b73ffffffffffffffffffffffffffffffffffffffff166111ea610f2b565b73ffffffffffffffffffffffffffffffffffffffff16146112495761120d6113dd565b6040517f118cdaa70000000000000000000000000000000000000000000000000000000081526004016112409190611a0a565b60405180910390fd5b565b60606000600161125a846113e5565b01905060008167ffffffffffffffff811115611279576112786117f9565b5b6040519080825280601f01601f1916602001820160405280156112ab5781602001600182028036833780820191505090505b509050600082602001820190505b60011561130e578080600190039150507f3031323334353637383961626364656600000000000000000000000000000000600a86061a8153600a8581611302576113016120e7565b5b049450600085036112b9575b819350505050919050565b60008060009054906101000a900473ffffffffffffffffffffffffffffffffffffffff169050816000806101000a81548173ffffffffffffffffffffffffffffffffffffffff021916908373ffffffffffffffffffffffffffffffffffffffff1602179055508173ffffffffffffffffffffffffffffffffffffffff168173ffffffffffffffffffffffffffffffffffffffff167f8be0079c531659141344cd1fd0a4f28419497f9722a3daafe3b4186f6b6457e060405160405180910390a35050565b600033905090565b600080600090507a184f03e93ff9f4daa797ed6e38ed64bf6a1f0100000000000000008310611443577a184f03e93ff9f4daa797ed6e38ed64bf6a1f0100000000000000008381611439576114386120e7565b5b0492506040810190505b6d04ee2d6d415b85acef81000000008310611480576d04ee2d6d415b85acef81000000008381611476576114756120e7565b5b0492506020810190505b662386f26fc1000083106114af57662386f26fc1000083816114a5576114a46120e7565b5b0492506010810190505b6305f5e10083106114d8576305f5e10083816114ce576114cd6120e7565b5b0492506008810190505b61271083106114fd5761271083816114f3576114f26120e7565b5b0492506004810190505b606483106115205760648381611516576115156120e7565b5b0492506002810190505b600a831061152f576001810190505b80915050919050565b50805461154490611b72565b6000825580601f106115565750611575565b601f0160209004906000526020600020908101906115749190611578565b5b50565b5b80821115611591576000816000905550600101611579565b5090565b60006fffffffffffffffffffffffffffffffff82169050919050565b6115ba81611595565b82525050565b60006020820190506115d560008301846115b1565b92915050565b6000604051905090565b600080fd5b600080fd5b600060ff82169050919050565b611605816115ef565b811461161057600080fd5b50565b600081359050611622816115fc565b92915050565b6000806040838503121561163f5761163e6115e5565b5b600061164d85828601611613565b925050602061165e85828601611613565b9150509250929050565b6000819050919050565b61167b81611668565b811461168657600080fd5b50565b60008135905061169881611672565b92915050565b6000602082840312156116b4576116b36115e5565b5b60006116c284828501611689565b91505092915050565b600081519050919050565b600082825260208201905092915050565b60005b838110156117055780820151818401526020810190506116ea565b60008484015250505050565b6000601f19601f8301169050919050565b600061172d826116cb565b61173781856116d6565b93506117478185602086016116e7565b61175081611711565b840191505092915050565b611764816115ef565b82525050565b600061ffff82169050919050565b6117818161176a565b82525050565b600060a08201905081810360008301526117a18188611722565b905081810360208301526117b58187611722565b905081810360408301526117c98186611722565b90506117d8606083018561175b565b6117e56080830184611778565b9695505050505050565b600080fd5b600080fd5b7f4e487b7100000000000000000000000000000000000000000000000000000000600052604160045260246000fd5b61183182611711565b810181811067ffffffffffffffff821117156118505761184f6117f9565b5b80604052505050565b60006118636115db565b905061186f8282611828565b919050565b600067ffffffffffffffff82111561188f5761188e6117f9565b5b61189882611711565b9050602081019050919050565b82818337600083830152505050565b60006118c76118c284611874565b611859565b9050828152602081018484840111156118e3576118e26117f4565b5b6118ee8482856118a5565b509392505050565b600082601f83011261190b5761190a6117ef565b5b813561191b8482602086016118b4565b91505092915050565b6000806040838503121561193b5761193a6115e5565b5b600083013567ffffffffffffffff811115611959576119586115ea565b5b611965858286016118f6565b925050602083013567ffffffffffffffff811115611986576119856115ea565b5b611992858286016118f6565b9150509250929050565b6000602082840312156119b2576119b16115e5565b5b60006119c084828501611613565b91505092915050565b600073ffffffffffffffffffffffffffffffffffffffff82169050919050565b60006119f4826119c9565b9050919050565b611a04816119e9565b82525050565b6000602082019050611a1f60008301846119fb565b92915050565b611a2e81611595565b8114611a3957600080fd5b50565b600081359050611a4b81611a25565b92915050565b600060208284031215611a6757611a666115e5565b5b6000611a7584828501611a3c565b91505092915050565b60006020820190508181036000830152611a988184611722565b905092915050565b6000602082019050611ab5600083018461175b565b92915050565b611ac4816119e9565b8114611acf57600080fd5b50565b600081359050611ae181611abb565b92915050565b600060208284031215611afd57611afc6115e5565b5b6000611b0b84828501611ad2565b91505092915050565b7f4e487b7100000000000000000000000000000000000000000000000000000000600052603260045260246000fd5b7f4e487b7100000000000000000000000000000000000000000000000000000000600052602260045260246000fd5b60006002820490506001821680611b8a57607f821691505b602082108103611b9d57611b9c611b43565b5b50919050565b7f49522d0000000000000000000000000000000000000000000000000000000000815250565b600081905092915050565b6000611bdf826116cb565b611be98185611bc9565b9350611bf98185602086016116e7565b80840191505092915050565b6000611c1082611ba3565b600382019150611c208284611bd4565b915081905092915050565b60008190508160005260206000209050919050565b60006020601f8301049050919050565b600082821b905092915050565b600060088302611c8d7fffffffffffffffffffffffffffffffffffffffffffffffffffffffffffffffff82611c50565b611c978683611c50565b95508019841693508086168417925050509392505050565b6000819050919050565b6000611cd4611ccf611cca84611668565b611caf565b611668565b9050919050565b6000819050919050565b611cee83611cb9565b611d02611cfa82611cdb565b848454611c5d565b825550505050565b600090565b611d17611d0a565b611d22818484611ce5565b505050565b5b81811015611d4657611d3b600082611d0f565b600181019050611d28565b5050565b601f821115611d8b57611d5c81611c2b565b611d6584611c40565b81016020851015611d74578190505b611d88611d8085611c40565b830182611d27565b50505b505050565b600082821c905092915050565b6000611dae60001984600802611d90565b1980831691505092915050565b6000611dc78383611d9d565b9150826002028217905092915050565b611de0826116cb565b67ffffffffffffffff811115611df957611df86117f9565b5b611e038254611b72565b611e0e828285611d4a565b600060209050601f831160018114611e415760008415611e2f578287015190505b611e398582611dbb565b865550611ea1565b601f198416611e4f86611c2b565b60005b82811015611e7757848901518255600182019150602085019450602081019050611e52565b86831015611e945784890151611e90601f891682611d9d565b8355505b6001600288020188555050505b505050505050565b7f4e487b7100000000000000000000000000000000000000000000000000000000600052601160045260246000fd5b6000611ee382611595565b91506fffffffffffffffffffffffffffffffff8203611f0557611f04611ea9565b5b600182019050919050565b6000611f1b82611668565b9150611f2683611668565b9250828203905081811115611f3e57611f3d611ea9565b5b92915050565b600081549050611f5381611b72565b9050919050565b818103611f68575050612040565b611f7182611f44565b67ffffffffffffffff811115611f8a57611f896117f9565b5b611f948254611b72565b611f9f828285611d4a565b6000601f831160018114611fce5760008415611fbc578287015490505b611fc68582611dbb565b865550612039565b601f198416611fdc87611c2b565b9650611fe786611c2b565b60005b8281101561200f57848901548255600182019150600185019450602081019050611fea565b8683101561202c5784890154612028601f891682611d9d565b8355505b6001600288020188555050505b5050505050505b565b7f4e487b7100000000000000000000000000000000000000000000000000000000600052603160045260246000fd5b7f50522d0000000000000000000000000000000000000000000000000000000000815250565b60006120a282612071565b6003820191506120b28284611bd4565b915081905092915050565b60006120c88261176a565b915061ffff82036120dc576120db611ea9565b5b600182019050919050565b7f4e487b7100000000000000000000000000000000000000000000000000000000600052601260045260246000fdfea26469706673582212200ed8c9b937720cb6f819c33c388762b549ef3d8c04da645f8d63f9ba5521eb2064736f6c63430008140033",
					"opcodes": "PUSH1 0x80 PUSH1 0x40 MSTORE CALLVALUE DUP1 ISZERO PUSH3 0x11 JUMPI PUSH1 0x0 DUP1 REVERT JUMPDEST POP CALLER PUSH1 0x0 PUSH20 0xFFFFFFFFFFFFFFFFFFFFFFFFFFFFFFFFFFFFFFFF AND DUP2 PUSH20 0xFFFFFFFFFFFFFFFFFFFFFFFFFFFFFFFFFFFFFFFF AND SUB PUSH3 0x88 JUMPI PUSH1 0x0 PUSH1 0x40 MLOAD PUSH32 0x1E4FBDF700000000000000000000000000000000000000000000000000000000 DUP2 MSTORE PUSH1 0x4 ADD PUSH3 0x7F SWAP2 SWAP1 PUSH3 0x21B JUMP JUMPDEST PUSH1 0x40 MLOAD DUP1 SWAP2 SUB SWAP1 REVERT JUMPDEST PUSH3 0x99 DUP2 PUSH3 0x112 PUSH1 0x20 SHL PUSH1 0x20 SHR JUMP JUMPDEST POP PUSH1 0x1 DUP1 PUSH1 0x0 PUSH2 0x100 EXP DUP2 SLOAD DUP2 PUSH16 0xFFFFFFFFFFFFFFFFFFFFFFFFFFFFFFFF MUL NOT AND SWAP1 DUP4 PUSH16 0xFFFFFFFFFFFFFFFFFFFFFFFFFFFFFFFF AND MUL OR SWAP1 SSTORE POP PUSH1 0x1 DUP1 PUSH1 0x10 PUSH2 0x100 EXP DUP2 SLOAD DUP2 PUSH16 0xFFFFFFFFFFFFFFFFFFFFFFFFFFFFFFFF MUL NOT AND SWAP1 DUP4 PUSH16 0xFFFFFFFFFFFFFFFFFFFFFFFFFFFFFFFF AND MUL OR SWAP1 SSTORE POP PUSH3 0x238 JUMP JUMPDEST PUSH1 0x0 DUP1 PUSH1 0x0 SWAP1 SLOAD SWAP1 PUSH2 0x100 EXP SWAP1 DIV PUSH20 0xFFFFFFFFFFFFFFFFFFFFFFFFFFFFFFFFFFFFFFFF AND SWAP1 POP DUP2 PUSH1 0x0 DUP1 PUSH2 0x100 EXP DUP2 SLOAD DUP2 PUSH20 0xFFFFFFFFFFFFFFFFFFFFFFFFFFFFFFFFFFFFFFFF MUL NOT AND SWAP1 DUP4 PUSH20 0xFFFFFFFFFFFFFFFFFFFFFFFFFFFFFFFFFFFFFFFF AND MUL OR SWAP1 SSTORE POP DUP2 PUSH20 0xFFFFFFFFFFFFFFFFFFFFFFFFFFFFFFFFFFFFFFFF AND DUP2 PUSH20 0xFFFFFFFFFFFFFFFFFFFFFFFFFFFFFFFFFFFFFFFF AND PUSH32 0x8BE0079C531659141344CD1FD0A4F28419497F9722A3DAAFE3B4186F6B6457E0 PUSH1 0x40 MLOAD PUSH1 0x40 MLOAD DUP1 SWAP2 SUB SWAP1 LOG3 POP POP JUMP JUMPDEST PUSH1 0x0 PUSH20 0xFFFFFFFFFFFFFFFFFFFFFFFFFFFFFFFFFFFFFFFF DUP3 AND SWAP1 POP SWAP2 SWAP1 POP JUMP JUMPDEST PUSH1 0x0 PUSH3 0x203 DUP3 PUSH3 0x1D6 JUMP JUMPDEST SWAP1 POP SWAP2 SWAP1 POP JUMP JUMPDEST PUSH3 0x215 DUP2 PUSH3 0x1F6 JUMP JUMPDEST DUP3 MSTORE POP POP JUMP JUMPDEST PUSH1 0x0 PUSH1 0x20 DUP3 ADD SWAP1 POP PUSH3 0x232 PUSH1 0x0 DUP4 ADD DUP5 PUSH3 0x20A JUMP JUMPDEST SWAP3 SWAP2 POP POP JUMP JUMPDEST PUSH2 0x214C DUP1 PUSH3 0x248 PUSH1 0x0 CODECOPY PUSH1 0x0 RETURN INVALID PUSH1 0x80 PUSH1 0x40 MSTORE CALLVALUE DUP1 ISZERO PUSH2 0x10 JUMPI PUSH1 0x0 DUP1 REVERT JUMPDEST POP PUSH1 0x4 CALLDATASIZE LT PUSH2 0x10B JUMPI PUSH1 0x0 CALLDATALOAD PUSH1 0xE0 SHR DUP1 PUSH4 0x7F18523F GT PUSH2 0xA2 JUMPI DUP1 PUSH4 0x9B03C9CF GT PUSH2 0x71 JUMPI DUP1 PUSH4 0x9B03C9CF EQ PUSH2 0x284 JUMPI DUP1 PUSH4 0xAAD86FE7 EQ PUSH2 0x2B4 JUMPI DUP1 PUSH4 0xC09D926C EQ PUSH2 0x2E4 JUMPI DUP1 PUSH4 0xF2FDE38B EQ PUSH2 0x314 JUMPI DUP1 PUSH4 0xFEEE10B0 EQ PUSH2 0x330 JUMPI PUSH2 0x10B JUMP JUMPDEST DUP1 PUSH4 0x7F18523F EQ PUSH2 0x212 JUMPI DUP1 PUSH4 0x87825AEF EQ PUSH2 0x22E JUMPI DUP1 PUSH4 0x8DA5CB5B EQ PUSH2 0x24A JUMPI DUP1 PUSH4 0x8E6A0FD4 EQ PUSH2 0x268 JUMPI PUSH2 0x10B JUMP JUMPDEST DUP1 PUSH4 0x5C046276 GT PUSH2 0xDE JUMPI DUP1 PUSH4 0x5C046276 EQ PUSH2 0x19A JUMPI DUP1 PUSH4 0x6A28F828 EQ PUSH2 0x1B6 JUMPI DUP1 PUSH4 0x715018A6 EQ PUSH2 0x1D4 JUMPI DUP1 PUSH4 0x7D0487FF EQ PUSH2 0x1DE JUMPI PUSH2 0x10B JUMP JUMPDEST DUP1 PUSH4 0x2BD10F6B EQ PUSH2 0x110 JUMPI DUP1 PUSH4 0x348AA3BD EQ PUSH2 0x12E JUMPI DUP1 PUSH4 0x45DA5158 EQ PUSH2 0x14A JUMPI DUP1 PUSH4 0x5B1214AD EQ PUSH2 0x17E JUMPI JUMPDEST PUSH1 0x0 DUP1 REVERT JUMPDEST PUSH2 0x118 PUSH2 0x360 JUMP JUMPDEST PUSH1 0x40 MLOAD PUSH2 0x125 SWAP2 SWAP1 PUSH2 0x15C0 JUMP JUMPDEST PUSH1 0x40 MLOAD DUP1 SWAP2 SUB SWAP1 RETURN JUMPDEST PUSH2 0x148 PUSH1 0x4 DUP1 CALLDATASIZE SUB DUP2 ADD SWAP1 PUSH2 0x143 SWAP2 SWAP1 PUSH2 0x1628 JUMP JUMPDEST PUSH2 0x382 JUMP JUMPDEST STOP JUMPDEST PUSH2 0x164 PUSH1 0x4 DUP1 CALLDATASIZE SUB DUP2 ADD SWAP1 PUSH2 0x15F SWAP2 SWAP1 PUSH2 0x169E JUMP JUMPDEST PUSH2 0x3D5 JUMP JUMPDEST PUSH1 0x40 MLOAD PUSH2 0x175 SWAP6 SWAP5 SWAP4 SWAP3 SWAP2 SWAP1 PUSH2 0x1787 JUMP JUMPDEST PUSH1 0x40 MLOAD DUP1 SWAP2 SUB SWAP1 RETURN JUMPDEST PUSH2 0x198 PUSH1 0x4 DUP1 CALLDATASIZE SUB DUP2 ADD SWAP1 PUSH2 0x193 SWAP2 SWAP1 PUSH2 0x1924 JUMP JUMPDEST PUSH2 0x5CE JUMP JUMPDEST STOP JUMPDEST PUSH2 0x1B4 PUSH1 0x4 DUP1 CALLDATASIZE SUB DUP2 ADD SWAP1 PUSH2 0x1AF SWAP2 SWAP1 PUSH2 0x199C JUMP JUMPDEST PUSH2 0x7DD JUMP JUMPDEST STOP JUMPDEST PUSH2 0x1BE PUSH2 0x965 JUMP JUMPDEST PUSH1 0x40 MLOAD PUSH2 0x1CB SWAP2 SWAP1 PUSH2 0x15C0 JUMP JUMPDEST PUSH1 0x40 MLOAD DUP1 SWAP2 SUB SWAP1 RETURN JUMPDEST PUSH2 0x1DC PUSH2 0x987 JUMP JUMPDEST STOP JUMPDEST PUSH2 0x1F8 PUSH1 0x4 DUP1 CALLDATASIZE SUB DUP2 ADD SWAP1 PUSH2 0x1F3 SWAP2 SWAP1 PUSH2 0x169E JUMP JUMPDEST PUSH2 0x99B JUMP JUMPDEST PUSH1 0x40 MLOAD PUSH2 0x209 SWAP6 SWAP5 SWAP4 SWAP3 SWAP2 SWAP1 PUSH2 0x1787 JUMP JUMPDEST PUSH1 0x40 MLOAD DUP1 SWAP2 SUB SWAP1 RETURN JUMPDEST PUSH2 0x22C PUSH1 0x4 DUP1 CALLDATASIZE SUB DUP2 ADD SWAP1 PUSH2 0x227 SWAP2 SWAP1 PUSH2 0x199C JUMP JUMPDEST PUSH2 0xB94 JUMP JUMPDEST STOP JUMPDEST PUSH2 0x248 PUSH1 0x4 DUP1 CALLDATASIZE SUB DUP2 ADD SWAP1 PUSH2 0x243 SWAP2 SWAP1 PUSH2 0x1924 JUMP JUMPDEST PUSH2 0xD1C JUMP JUMPDEST STOP JUMPDEST PUSH2 0x252 PUSH2 0xF2B JUMP JUMPDEST PUSH1 0x40 MLOAD PUSH2 0x25F SWAP2 SWAP1 PUSH2 0x1A0A JUMP JUMPDEST PUSH1 0x40 MLOAD DUP1 SWAP2 SUB SWAP1 RETURN JUMPDEST PUSH2 0x282 PUSH1 0x4 DUP1 CALLDATASIZE SUB DUP2 ADD SWAP1 PUSH2 0x27D SWAP2 SWAP1 PUSH2 0x199C JUMP JUMPDEST PUSH2 0xF54 JUMP JUMPDEST STOP JUMPDEST PUSH2 0x29E PUSH1 0x4 DUP1 CALLDATASIZE SUB DUP2 ADD SWAP1 PUSH2 0x299 SWAP2 SWAP1 PUSH2 0x1A51 JUMP JUMPDEST PUSH2 0xFBE JUMP JUMPDEST PUSH1 0x40 MLOAD PUSH2 0x2AB SWAP2 SWAP1 PUSH2 0x1A7E JUMP JUMPDEST PUSH1 0x40 MLOAD DUP1 SWAP2 SUB SWAP1 RETURN JUMPDEST PUSH2 0x2CE PUSH1 0x4 DUP1 CALLDATASIZE SUB DUP2 ADD SWAP1 PUSH2 0x2C9 SWAP2 SWAP1 PUSH2 0x1A51 JUMP JUMPDEST PUSH2 0x105E JUMP JUMPDEST PUSH1 0x40 MLOAD PUSH2 0x2DB SWAP2 SWAP1 PUSH2 0x1AA0 JUMP JUMPDEST PUSH1 0x40 MLOAD DUP1 SWAP2 SUB SWAP1 RETURN JUMPDEST PUSH2 0x2FE PUSH1 0x4 DUP1 CALLDATASIZE SUB DUP2 ADD SWAP1 PUSH2 0x2F9 SWAP2 SWAP1 PUSH2 0x1A51 JUMP JUMPDEST PUSH2 0x107E JUMP JUMPDEST PUSH1 0x40 MLOAD PUSH2 0x30B SWAP2 SWAP1 PUSH2 0x1AA0 JUMP JUMPDEST PUSH1 0x40 MLOAD DUP1 SWAP2 SUB SWAP1 RETURN JUMPDEST PUSH2 0x32E PUSH1 0x4 DUP1 CALLDATASIZE SUB DUP2 ADD SWAP1 PUSH2 0x329 SWAP2 SWAP1 PUSH2 0x1AE7 JUMP JUMPDEST PUSH2 0x109E JUMP JUMPDEST STOP JUMPDEST PUSH2 0x34A PUSH1 0x4 DUP1 CALLDATASIZE SUB DUP2 ADD SWAP1 PUSH2 0x345 SWAP2 SWAP1 PUSH2 0x1A51 JUMP JUMPDEST PUSH2 0x1124 JUMP JUMPDEST PUSH1 0x40 MLOAD PUSH2 0x357 SWAP2 SWAP1 PUSH2 0x1A7E JUMP JUMPDEST PUSH1 0x40 MLOAD DUP1 SWAP2 SUB SWAP1 RETURN JUMPDEST PUSH1 0x1 PUSH1 0x0 SWAP1 SLOAD SWAP1 PUSH2 0x100 EXP SWAP1 DIV PUSH16 0xFFFFFFFFFFFFFFFFFFFFFFFFFFFFFFFF AND DUP2 JUMP JUMPDEST PUSH2 0x38A PUSH2 0x11C4 JUMP JUMPDEST PUSH1 0x0 PUSH1 0x3 DUP4 PUSH1 0xFF AND DUP2 SLOAD DUP2 LT PUSH2 0x3A3 JUMPI PUSH2 0x3A2 PUSH2 0x1B14 JUMP JUMPDEST JUMPDEST SWAP1 PUSH1 0x0 MSTORE PUSH1 0x20 PUSH1 0x0 KECCAK256 SWAP1 PUSH1 0x4 MUL ADD SWAP1 POP DUP2 DUP2 PUSH1 0x3 ADD PUSH1 0x0 PUSH2 0x100 EXP DUP2 SLOAD DUP2 PUSH1 0xFF MUL NOT AND SWAP1 DUP4 PUSH1 0xFF AND MUL OR SWAP1 SSTORE POP POP POP POP JUMP JUMPDEST PUSH1 0x3 DUP2 DUP2 SLOAD DUP2 LT PUSH2 0x3E5 JUMPI PUSH1 0x0 DUP1 REVERT JUMPDEST SWAP1 PUSH1 0x0 MSTORE PUSH1 0x20 PUSH1 0x0 KECCAK256 SWAP1 PUSH1 0x4 MUL ADD PUSH1 0x0 SWAP2 POP SWAP1 POP DUP1 PUSH1 0x0 ADD DUP1 SLOAD PUSH2 0x408 SWAP1 PUSH2 0x1B72 JUMP JUMPDEST DUP1 PUSH1 0x1F ADD PUSH1 0x20 DUP1 SWAP2 DIV MUL PUSH1 0x20 ADD PUSH1 0x40 MLOAD SWAP1 DUP2 ADD PUSH1 0x40 MSTORE DUP1 SWAP3 SWAP2 SWAP1 DUP2 DUP2 MSTORE PUSH1 0x20 ADD DUP3 DUP1 SLOAD PUSH2 0x434 SWAP1 PUSH2 0x1B72 JUMP JUMPDEST DUP1 ISZERO PUSH2 0x481 JUMPI DUP1 PUSH1 0x1F LT PUSH2 0x456 JUMPI PUSH2 0x100 DUP1 DUP4 SLOAD DIV MUL DUP4 MSTORE SWAP2 PUSH1 0x20 ADD SWAP2 PUSH2 0x481 JUMP JUMPDEST DUP3 ADD SWAP2 SWAP1 PUSH1 0x0 MSTORE PUSH1 0x20 PUSH1 0x0 KECCAK256 SWAP1 JUMPDEST DUP2 SLOAD DUP2 MSTORE SWAP1 PUSH1 0x1 ADD SWAP1 PUSH1 0x20 ADD DUP1 DUP4 GT PUSH2 0x464 JUMPI DUP3 SWAP1 SUB PUSH1 0x1F AND DUP3 ADD SWAP2 JUMPDEST POP POP POP POP POP SWAP1 DUP1 PUSH1 0x1 ADD DUP1 SLOAD PUSH2 0x496 SWAP1 PUSH2 0x1B72 JUMP JUMPDEST DUP1 PUSH1 0x1F ADD PUSH1 0x20 DUP1 SWAP2 DIV MUL PUSH1 0x20 ADD PUSH1 0x40 MLOAD SWAP1 DUP2 ADD PUSH1 0x40 MSTORE DUP1 SWAP3 SWAP2 SWAP1 DUP2 DUP2 MSTORE PUSH1 0x20 ADD DUP3 DUP1 SLOAD PUSH2 0x4C2 SWAP1 PUSH2 0x1B72 JUMP JUMPDEST DUP1 ISZERO PUSH2 0x50F JUMPI DUP1 PUSH1 0x1F LT PUSH2 0x4E4 JUMPI PUSH2 0x100 DUP1 DUP4 SLOAD DIV MUL DUP4 MSTORE SWAP2 PUSH1 0x20 ADD SWAP2 PUSH2 0x50F JUMP JUMPDEST DUP3 ADD SWAP2 SWAP1 PUSH1 0x0 MSTORE PUSH1 0x20 PUSH1 0x0 KECCAK256 SWAP1 JUMPDEST DUP2 SLOAD DUP2 MSTORE SWAP1 PUSH1 0x1 ADD SWAP1 PUSH1 0x20 ADD DUP1 DUP4 GT PUSH2 0x4F2 JUMPI DUP3 SWAP1 SUB PUSH1 0x1F AND DUP3 ADD SWAP2 JUMPDEST POP POP POP POP POP SWAP1 DUP1 PUSH1 0x2 ADD DUP1 SLOAD PUSH2 0x524 SWAP1 PUSH2 0x1B72 JUMP JUMPDEST DUP1 PUSH1 0x1F ADD PUSH1 0x20 DUP1 SWAP2 DIV MUL PUSH1 0x20 ADD PUSH1 0x40 MLOAD SWAP1 DUP2 ADD PUSH1 0x40 MSTORE DUP1 SWAP3 SWAP2 SWAP1 DUP2 DUP2 MSTORE PUSH1 0x20 ADD DUP3 DUP1 SLOAD PUSH2 0x550 SWAP1 PUSH2 0x1B72 JUMP JUMPDEST DUP1 ISZERO PUSH2 0x59D JUMPI DUP1 PUSH1 0x1F LT PUSH2 0x572 JUMPI PUSH2 0x100 DUP1 DUP4 SLOAD DIV MUL DUP4 MSTORE SWAP2 PUSH1 0x20 ADD SWAP2 PUSH2 0x59D JUMP JUMPDEST DUP3 ADD SWAP2 SWAP1 PUSH1 0x0 MSTORE PUSH1 0x20 PUSH1 0x0 KECCAK256 SWAP1 JUMPDEST DUP2 SLOAD DUP2 MSTORE SWAP1 PUSH1 0x1 ADD SWAP1 PUSH1 0x20 ADD DUP1 DUP4 GT PUSH2 0x580 JUMPI DUP3 SWAP1 SUB PUSH1 0x1F AND DUP3 ADD SWAP2 JUMPDEST POP POP POP POP POP SWAP1 DUP1 PUSH1 0x3 ADD PUSH1 0x0 SWAP1 SLOAD SWAP1 PUSH2 0x100 EXP SWAP1 DIV PUSH1 0xFF AND SWAP1 DUP1 PUSH1 0x3 ADD PUSH1 0x1 SWAP1 SLOAD SWAP1 PUSH2 0x100 EXP SWAP1 DIV PUSH2 0xFFFF AND SWAP1 POP DUP6 JUMP JUMPDEST PUSH1 0x0 PUSH2 0x609 PUSH1 0x1 PUSH1 0x0 SWAP1 SLOAD SWAP1 PUSH2 0x100 EXP SWAP1 DIV PUSH16 0xFFFFFFFFFFFFFFFFFFFFFFFFFFFFFFFF AND PUSH16 0xFFFFFFFFFFFFFFFFFFFFFFFFFFFFFFFF AND PUSH2 0x124B JUMP JUMPDEST SWAP1 POP DUP1 PUSH1 0x40 MLOAD PUSH1 0x20 ADD PUSH2 0x61C SWAP2 SWAP1 PUSH2 0x1C05 JUMP JUMPDEST PUSH1 0x40 MLOAD PUSH1 0x20 DUP2 DUP4 SUB SUB DUP2 MSTORE SWAP1 PUSH1 0x40 MSTORE SWAP1 POP PUSH1 0x2 PUSH1 0x40 MLOAD DUP1 PUSH1 0xA0 ADD PUSH1 0x40 MSTORE DUP1 DUP4 DUP2 MSTORE PUSH1 0x20 ADD DUP6 DUP2 MSTORE PUSH1 0x20 ADD DUP5 DUP2 MSTORE PUSH1 0x20 ADD PUSH1 0x0 PUSH1 0xFF AND DUP2 MSTORE PUSH1 0x20 ADD PUSH1 0x0 PUSH2 0xFFFF AND DUP2 MSTORE POP SWAP1 DUP1 PUSH1 0x1 DUP2 SLOAD ADD DUP1 DUP3 SSTORE DUP1 SWAP2 POP POP PUSH1 0x1 SWAP1 SUB SWAP1 PUSH1 0x0 MSTORE PUSH1 0x20 PUSH1 0x0 KECCAK256 SWAP1 PUSH1 0x4 MUL ADD PUSH1 0x0 SWAP1 SWAP2 SWAP1 SWAP2 SWAP1 SWAP2 POP PUSH1 0x0 DUP3 ADD MLOAD DUP2 PUSH1 0x0 ADD SWAP1 DUP2 PUSH2 0x69D SWAP2 SWAP1 PUSH2 0x1DD7 JUMP JUMPDEST POP PUSH1 0x20 DUP3 ADD MLOAD DUP2 PUSH1 0x1 ADD SWAP1 DUP2 PUSH2 0x6B3 SWAP2 SWAP1 PUSH2 0x1DD7 JUMP JUMPDEST POP PUSH1 0x40 DUP3 ADD MLOAD DUP2 PUSH1 0x2 ADD SWAP1 DUP2 PUSH2 0x6C9 SWAP2 SWAP1 PUSH2 0x1DD7 JUMP JUMPDEST POP PUSH1 0x60 DUP3 ADD MLOAD DUP2 PUSH1 0x3 ADD PUSH1 0x0 PUSH2 0x100 EXP DUP2 SLOAD DUP2 PUSH1 0xFF MUL NOT AND SWAP1 DUP4 PUSH1 0xFF AND MUL OR SWAP1 SSTORE POP PUSH1 0x80 DUP3 ADD MLOAD DUP2 PUSH1 0x3 ADD PUSH1 0x1 PUSH2 0x100 EXP DUP2 SLOAD DUP2 PUSH2 0xFFFF MUL NOT AND SWAP1 DUP4 PUSH2 0xFFFF AND MUL OR SWAP1 SSTORE POP POP POP DUP3 PUSH1 0x4 PUSH1 0x0 PUSH1 0x1 PUSH1 0x0 SWAP1 SLOAD SWAP1 PUSH2 0x100 EXP SWAP1 DIV PUSH16 0xFFFFFFFFFFFFFFFFFFFFFFFFFFFFFFFF AND PUSH16 0xFFFFFFFFFFFFFFFFFFFFFFFFFFFFFFFF AND PUSH16 0xFFFFFFFFFFFFFFFFFFFFFFFFFFFFFFFF AND DUP2 MSTORE PUSH1 0x20 ADD SWAP1 DUP2 MSTORE PUSH1 0x20 ADD PUSH1 0x0 KECCAK256 SWAP1 DUP2 PUSH2 0x772 SWAP2 SWAP1 PUSH2 0x1DD7 JUMP JUMPDEST POP PUSH1 0x1 PUSH1 0x0 DUP2 DUP2 SWAP1 SLOAD SWAP1 PUSH2 0x100 EXP SWAP1 DIV PUSH16 0xFFFFFFFFFFFFFFFFFFFFFFFFFFFFFFFF AND DUP1 SWAP3 SWAP2 SWAP1 PUSH2 0x7A1 SWAP1 PUSH2 0x1ED8 JUMP JUMPDEST SWAP2 SWAP1 PUSH2 0x100 EXP DUP2 SLOAD DUP2 PUSH16 0xFFFFFFFFFFFFFFFFFFFFFFFFFFFFFFFF MUL NOT AND SWAP1 DUP4 PUSH16 0xFFFFFFFFFFFFFFFFFFFFFFFFFFFFFFFF AND MUL OR SWAP1 SSTORE POP POP POP POP POP JUMP JUMPDEST PUSH2 0x7E5 PUSH2 0x11C4 JUMP JUMPDEST PUSH1 0x3 PUSH1 0x1 PUSH1 0x3 DUP1 SLOAD SWAP1 POP PUSH2 0x7F9 SWAP2 SWAP1 PUSH2 0x1F10 JUMP JUMPDEST DUP2 SLOAD DUP2 LT PUSH2 0x80A JUMPI PUSH2 0x809 PUSH2 0x1B14 JUMP JUMPDEST JUMPDEST SWAP1 PUSH1 0x0 MSTORE PUSH1 0x20 PUSH1 0x0 KECCAK256 SWAP1 PUSH1 0x4 MUL ADD PUSH1 0x3 DUP3 PUSH1 0xFF AND DUP2 SLOAD DUP2 LT PUSH2 0x82F JUMPI PUSH2 0x82E PUSH2 0x1B14 JUMP JUMPDEST JUMPDEST SWAP1 PUSH1 0x0 MSTORE PUSH1 0x20 PUSH1 0x0 KECCAK256 SWAP1 PUSH1 0x4 MUL ADD PUSH1 0x0 DUP3 ADD DUP2 PUSH1 0x0 ADD SWAP1 DUP2 PUSH2 0x851 SWAP2 SWAP1 PUSH2 0x1F5A JUMP JUMPDEST POP PUSH1 0x1 DUP3 ADD DUP2 PUSH1 0x1 ADD SWAP1 DUP2 PUSH2 0x866 SWAP2 SWAP1 PUSH2 0x1F5A JUMP JUMPDEST POP PUSH1 0x2 DUP3 ADD DUP2 PUSH1 0x2 ADD SWAP1 DUP2 PUSH2 0x87B SWAP2 SWAP1 PUSH2 0x1F5A JUMP JUMPDEST POP PUSH1 0x3 DUP3 ADD PUSH1 0x0 SWAP1 SLOAD SWAP1 PUSH2 0x100 EXP SWAP1 DIV PUSH1 0xFF AND DUP2 PUSH1 0x3 ADD PUSH1 0x0 PUSH2 0x100 EXP DUP2 SLOAD DUP2 PUSH1 0xFF MUL NOT AND SWAP1 DUP4 PUSH1 0xFF AND MUL OR SWAP1 SSTORE POP PUSH1 0x3 DUP3 ADD PUSH1 0x1 SWAP1 SLOAD SWAP1 PUSH2 0x100 EXP SWAP1 DIV PUSH2 0xFFFF AND DUP2 PUSH1 0x3 ADD PUSH1 0x1 PUSH2 0x100 EXP DUP2 SLOAD DUP2 PUSH2 0xFFFF MUL NOT AND SWAP1 DUP4 PUSH2 0xFFFF AND MUL OR SWAP1 SSTORE POP SWAP1 POP POP PUSH1 0x3 DUP1 SLOAD DUP1 PUSH2 0x8F0 JUMPI PUSH2 0x8EF PUSH2 0x2042 JUMP JUMPDEST JUMPDEST PUSH1 0x1 SWAP1 SUB DUP2 DUP2 SWAP1 PUSH1 0x0 MSTORE PUSH1 0x20 PUSH1 0x0 KECCAK256 SWAP1 PUSH1 0x4 MUL ADD PUSH1 0x0 DUP1 DUP3 ADD PUSH1 0x0 PUSH2 0x915 SWAP2 SWAP1 PUSH2 0x1538 JUMP JUMPDEST PUSH1 0x1 DUP3 ADD PUSH1 0x0 PUSH2 0x925 SWAP2 SWAP1 PUSH2 0x1538 JUMP JUMPDEST PUSH1 0x2 DUP3 ADD PUSH1 0x0 PUSH2 0x935 SWAP2 SWAP1 PUSH2 0x1538 JUMP JUMPDEST PUSH1 0x3 DUP3 ADD PUSH1 0x0 PUSH2 0x100 EXP DUP2 SLOAD SWAP1 PUSH1 0xFF MUL NOT AND SWAP1 SSTORE PUSH1 0x3 DUP3 ADD PUSH1 0x1 PUSH2 0x100 EXP DUP2 SLOAD SWAP1 PUSH2 0xFFFF MUL NOT AND SWAP1 SSTORE POP POP SWAP1 SSTORE POP JUMP JUMPDEST PUSH1 0x1 PUSH1 0x10 SWAP1 SLOAD SWAP1 PUSH2 0x100 EXP SWAP1 DIV PUSH16 0xFFFFFFFFFFFFFFFFFFFFFFFFFFFFFFFF AND DUP2 JUMP JUMPDEST PUSH2 0x98F PUSH2 0x11C4 JUMP JUMPDEST PUSH2 0x999 PUSH1 0x0 PUSH2 0x1319 JUMP JUMPDEST JUMP JUMPDEST PUSH1 0x2 DUP2 DUP2 SLOAD DUP2 LT PUSH2 0x9AB JUMPI PUSH1 0x0 DUP1 REVERT JUMPDEST SWAP1 PUSH1 0x0 MSTORE PUSH1 0x20 PUSH1 0x0 KECCAK256 SWAP1 PUSH1 0x4 MUL ADD PUSH1 0x0 SWAP2 POP SWAP1 POP DUP1 PUSH1 0x0 ADD DUP1 SLOAD PUSH2 0x9CE SWAP1 PUSH2 0x1B72 JUMP JUMPDEST DUP1 PUSH1 0x1F ADD PUSH1 0x20 DUP1 SWAP2 DIV MUL PUSH1 0x20 ADD PUSH1 0x40 MLOAD SWAP1 DUP2 ADD PUSH1 0x40 MSTORE DUP1 SWAP3 SWAP2 SWAP1 DUP2 DUP2 MSTORE PUSH1 0x20 ADD DUP3 DUP1 SLOAD PUSH2 0x9FA SWAP1 PUSH2 0x1B72 JUMP JUMPDEST DUP1 ISZERO PUSH2 0xA47 JUMPI DUP1 PUSH1 0x1F LT PUSH2 0xA1C JUMPI PUSH2 0x100 DUP1 DUP4 SLOAD DIV MUL DUP4 MSTORE SWAP2 PUSH1 0x20 ADD SWAP2 PUSH2 0xA47 JUMP JUMPDEST DUP3 ADD SWAP2 SWAP1 PUSH1 0x0 MSTORE PUSH1 0x20 PUSH1 0x0 KECCAK256 SWAP1 JUMPDEST DUP2 SLOAD DUP2 MSTORE SWAP1 PUSH1 0x1 ADD SWAP1 PUSH1 0x20 ADD DUP1 DUP4 GT PUSH2 0xA2A JUMPI DUP3 SWAP1 SUB PUSH1 0x1F AND DUP3 ADD SWAP2 JUMPDEST POP POP POP POP POP SWAP1 DUP1 PUSH1 0x1 ADD DUP1 SLOAD PUSH2 0xA5C SWAP1 PUSH2 0x1B72 JUMP JUMPDEST DUP1 PUSH1 0x1F ADD PUSH1 0x20 DUP1 SWAP2 DIV MUL PUSH1 0x20 ADD PUSH1 0x40 MLOAD SWAP1 DUP2 ADD PUSH1 0x40 MSTORE DUP1 SWAP3 SWAP2 SWAP1 DUP2 DUP2 MSTORE PUSH1 0x20 ADD DUP3 DUP1 SLOAD PUSH2 0xA88 SWAP1 PUSH2 0x1B72 JUMP JUMPDEST DUP1 ISZERO PUSH2 0xAD5 JUMPI DUP1 PUSH1 0x1F LT PUSH2 0xAAA JUMPI PUSH2 0x100 DUP1 DUP4 SLOAD DIV MUL DUP4 MSTORE SWAP2 PUSH1 0x20 ADD SWAP2 PUSH2 0xAD5 JUMP JUMPDEST DUP3 ADD SWAP2 SWAP1 PUSH1 0x0 MSTORE PUSH1 0x20 PUSH1 0x0 KECCAK256 SWAP1 JUMPDEST DUP2 SLOAD DUP2 MSTORE SWAP1 PUSH1 0x1 ADD SWAP1 PUSH1 0x20 ADD DUP1 DUP4 GT PUSH2 0xAB8 JUMPI DUP3 SWAP1 SUB PUSH1 0x1F AND DUP3 ADD SWAP2 JUMPDEST POP POP POP POP POP SWAP1 DUP1 PUSH1 0x2 ADD DUP1 SLOAD PUSH2 0xAEA SWAP1 PUSH2 0x1B72 JUMP JUMPDEST DUP1 PUSH1 0x1F ADD PUSH1 0x20 DUP1 SWAP2 DIV MUL PUSH1 0x20 ADD PUSH1 0x40 MLOAD SWAP1 DUP2 ADD PUSH1 0x40 MSTORE DUP1 SWAP3 SWAP2 SWAP1 DUP2 DUP2 MSTORE PUSH1 0x20 ADD DUP3 DUP1 SLOAD PUSH2 0xB16 SWAP1 PUSH2 0x1B72 JUMP JUMPDEST DUP1 ISZERO PUSH2 0xB63 JUMPI DUP1 PUSH1 0x1F LT PUSH2 0xB38 JUMPI PUSH2 0x100 DUP1 DUP4 SLOAD DIV MUL DUP4 MSTORE SWAP2 PUSH1 0x20 ADD SWAP2 PUSH2 0xB63 JUMP JUMPDEST DUP3 ADD SWAP2 SWAP1 PUSH1 0x0 MSTORE PUSH1 0x20 PUSH1 0x0 KECCAK256 SWAP1 JUMPDEST DUP2 SLOAD DUP2 MSTORE SWAP1 PUSH1 0x1 ADD SWAP1 PUSH1 0x20 ADD DUP1 DUP4 GT PUSH2 0xB46 JUMPI DUP3 SWAP1 SUB PUSH1 0x1F AND DUP3 ADD SWAP2 JUMPDEST POP POP POP POP POP SWAP1 DUP1 PUSH1 0x3 ADD PUSH1 0x0 SWAP1 SLOAD SWAP1 PUSH2 0x100 EXP SWAP1 DIV PUSH1 0xFF AND SWAP1 DUP1 PUSH1 0x3 ADD PUSH1 0x1 SWAP1 SLOAD SWAP1 PUSH2 0x100 EXP SWAP1 DIV PUSH2 0xFFFF AND SWAP1 POP DUP6 JUMP JUMPDEST PUSH2 0xB9C PUSH2 0x11C4 JUMP JUMPDEST PUSH1 0x2 PUSH1 0x1 PUSH1 0x2 DUP1 SLOAD SWAP1 POP PUSH2 0xBB0 SWAP2 SWAP1 PUSH2 0x1F10 JUMP JUMPDEST DUP2 SLOAD DUP2 LT PUSH2 0xBC1 JUMPI PUSH2 0xBC0 PUSH2 0x1B14 JUMP JUMPDEST JUMPDEST SWAP1 PUSH1 0x0 MSTORE PUSH1 0x20 PUSH1 0x0 KECCAK256 SWAP1 PUSH1 0x4 MUL ADD PUSH1 0x2 DUP3 PUSH1 0xFF AND DUP2 SLOAD DUP2 LT PUSH2 0xBE6 JUMPI PUSH2 0xBE5 PUSH2 0x1B14 JUMP JUMPDEST JUMPDEST SWAP1 PUSH1 0x0 MSTORE PUSH1 0x20 PUSH1 0x0 KECCAK256 SWAP1 PUSH1 0x4 MUL ADD PUSH1 0x0 DUP3 ADD DUP2 PUSH1 0x0 ADD SWAP1 DUP2 PUSH2 0xC08 SWAP2 SWAP1 PUSH2 0x1F5A JUMP JUMPDEST POP PUSH1 0x1 DUP3 ADD DUP2 PUSH1 0x1 ADD SWAP1 DUP2 PUSH2 0xC1D SWAP2 SWAP1 PUSH2 0x1F5A JUMP JUMPDEST POP PUSH1 0x2 DUP3 ADD DUP2 PUSH1 0x2 ADD SWAP1 DUP2 PUSH2 0xC32 SWAP2 SWAP1 PUSH2 0x1F5A JUMP JUMPDEST POP PUSH1 0x3 DUP3 ADD PUSH1 0x0 SWAP1 SLOAD SWAP1 PUSH2 0x100 EXP SWAP1 DIV PUSH1 0xFF AND DUP2 PUSH1 0x3 ADD PUSH1 0x0 PUSH2 0x100 EXP DUP2 SLOAD DUP2 PUSH1 0xFF MUL NOT AND SWAP1 DUP4 PUSH1 0xFF AND MUL OR SWAP1 SSTORE POP PUSH1 0x3 DUP3 ADD PUSH1 0x1 SWAP1 SLOAD SWAP1 PUSH2 0x100 EXP SWAP1 DIV PUSH2 0xFFFF AND DUP2 PUSH1 0x3 ADD PUSH1 0x1 PUSH2 0x100 EXP DUP2 SLOAD DUP2 PUSH2 0xFFFF MUL NOT AND SWAP1 DUP4 PUSH2 0xFFFF AND MUL OR SWAP1 SSTORE POP SWAP1 POP POP PUSH1 0x2 DUP1 SLOAD DUP1 PUSH2 0xCA7 JUMPI PUSH2 0xCA6 PUSH2 0x2042 JUMP JUMPDEST JUMPDEST PUSH1 0x1 SWAP1 SUB DUP2 DUP2 SWAP1 PUSH1 0x0 MSTORE PUSH1 0x20 PUSH1 0x0 KECCAK256 SWAP1 PUSH1 0x4 MUL ADD PUSH1 0x0 DUP1 DUP3 ADD PUSH1 0x0 PUSH2 0xCCC SWAP2 SWAP1 PUSH2 0x1538 JUMP JUMPDEST PUSH1 0x1 DUP3 ADD PUSH1 0x0 PUSH2 0xCDC SWAP2 SWAP1 PUSH2 0x1538 JUMP JUMPDEST PUSH1 0x2 DUP3 ADD PUSH1 0x0 PUSH2 0xCEC SWAP2 SWAP1 PUSH2 0x1538 JUMP JUMPDEST PUSH1 0x3 DUP3 ADD PUSH1 0x0 PUSH2 0x100 EXP DUP2 SLOAD SWAP1 PUSH1 0xFF MUL NOT AND SWAP1 SSTORE PUSH1 0x3 DUP3 ADD PUSH1 0x1 PUSH2 0x100 EXP DUP2 SLOAD SWAP1 PUSH2 0xFFFF MUL NOT AND SWAP1 SSTORE POP POP SWAP1 SSTORE POP JUMP JUMPDEST PUSH1 0x0 PUSH2 0xD57 PUSH1 0x1 PUSH1 0x10 SWAP1 SLOAD SWAP1 PUSH2 0x100 EXP SWAP1 DIV PUSH16 0xFFFFFFFFFFFFFFFFFFFFFFFFFFFFFFFF AND PUSH16 0xFFFFFFFFFFFFFFFFFFFFFFFFFFFFFFFF AND PUSH2 0x124B JUMP JUMPDEST SWAP1 POP DUP1 PUSH1 0x40 MLOAD PUSH1 0x20 ADD PUSH2 0xD6A SWAP2 SWAP1 PUSH2 0x2097 JUMP JUMPDEST PUSH1 0x40 MLOAD PUSH1 0x20 DUP2 DUP4 SUB SUB DUP2 MSTORE SWAP1 PUSH1 0x40 MSTORE SWAP1 POP PUSH1 0x3 PUSH1 0x40 MLOAD DUP1 PUSH1 0xA0 ADD PUSH1 0x40 MSTORE DUP1 DUP4 DUP2 MSTORE PUSH1 0x20 ADD DUP6 DUP2 MSTORE PUSH1 0x20 ADD DUP5 DUP2 MSTORE PUSH1 0x20 ADD PUSH1 0x0 PUSH1 0xFF AND DUP2 MSTORE PUSH1 0x20 ADD PUSH1 0x0 PUSH2 0xFFFF AND DUP2 MSTORE POP SWAP1 DUP1 PUSH1 0x1 DUP2 SLOAD ADD DUP1 DUP3 SSTORE DUP1 SWAP2 POP POP PUSH1 0x1 SWAP1 SUB SWAP1 PUSH1 0x0 MSTORE PUSH1 0x20 PUSH1 0x0 KECCAK256 SWAP1 PUSH1 0x4 MUL ADD PUSH1 0x0 SWAP1 SWAP2 SWAP1 SWAP2 SWAP1 SWAP2 POP PUSH1 0x0 DUP3 ADD MLOAD DUP2 PUSH1 0x0 ADD SWAP1 DUP2 PUSH2 0xDEB SWAP2 SWAP1 PUSH2 0x1DD7 JUMP JUMPDEST POP PUSH1 0x20 DUP3 ADD MLOAD DUP2 PUSH1 0x1 ADD SWAP1 DUP2 PUSH2 0xE01 SWAP2 SWAP1 PUSH2 0x1DD7 JUMP JUMPDEST POP PUSH1 0x40 DUP3 ADD MLOAD DUP2 PUSH1 0x2 ADD SWAP1 DUP2 PUSH2 0xE17 SWAP2 SWAP1 PUSH2 0x1DD7 JUMP JUMPDEST POP PUSH1 0x60 DUP3 ADD MLOAD DUP2 PUSH1 0x3 ADD PUSH1 0x0 PUSH2 0x100 EXP DUP2 SLOAD DUP2 PUSH1 0xFF MUL NOT AND SWAP1 DUP4 PUSH1 0xFF AND MUL OR SWAP1 SSTORE POP PUSH1 0x80 DUP3 ADD MLOAD DUP2 PUSH1 0x3 ADD PUSH1 0x1 PUSH2 0x100 EXP DUP2 SLOAD DUP2 PUSH2 0xFFFF MUL NOT AND SWAP1 DUP4 PUSH2 0xFFFF AND MUL OR SWAP1 SSTORE POP POP POP DUP3 PUSH1 0x6 PUSH1 0x0 PUSH1 0x1 PUSH1 0x10 SWAP1 SLOAD SWAP1 PUSH2 0x100 EXP SWAP1 DIV PUSH16 0xFFFFFFFFFFFFFFFFFFFFFFFFFFFFFFFF AND PUSH16 0xFFFFFFFFFFFFFFFFFFFFFFFFFFFFFFFF AND PUSH16 0xFFFFFFFFFFFFFFFFFFFFFFFFFFFFFFFF AND DUP2 MSTORE PUSH1 0x20 ADD SWAP1 DUP2 MSTORE PUSH1 0x20 ADD PUSH1 0x0 KECCAK256 SWAP1 DUP2 PUSH2 0xEC0 SWAP2 SWAP1 PUSH2 0x1DD7 JUMP JUMPDEST POP PUSH1 0x1 PUSH1 0x10 DUP2 DUP2 SWAP1 SLOAD SWAP1 PUSH2 0x100 EXP SWAP1 DIV PUSH16 0xFFFFFFFFFFFFFFFFFFFFFFFFFFFFFFFF AND DUP1 SWAP3 SWAP2 SWAP1 PUSH2 0xEEF SWAP1 PUSH2 0x1ED8 JUMP JUMPDEST SWAP2 SWAP1 PUSH2 0x100 EXP DUP2 SLOAD DUP2 PUSH16 0xFFFFFFFFFFFFFFFFFFFFFFFFFFFFFFFF MUL NOT AND SWAP1 DUP4 PUSH16 0xFFFFFFFFFFFFFFFFFFFFFFFFFFFFFFFF AND MUL OR SWAP1 SSTORE POP POP POP POP POP JUMP JUMPDEST PUSH1 0x0 DUP1 PUSH1 0x0 SWAP1 SLOAD SWAP1 PUSH2 0x100 EXP SWAP1 DIV PUSH20 0xFFFFFFFFFFFFFFFFFFFFFFFFFFFFFFFFFFFFFFFF AND SWAP1 POP SWAP1 JUMP JUMPDEST PUSH1 0x0 PUSH1 0x3 DUP3 PUSH1 0xFF AND DUP2 SLOAD DUP2 LT PUSH2 0xF6D JUMPI PUSH2 0xF6C PUSH2 0x1B14 JUMP JUMPDEST JUMPDEST SWAP1 PUSH1 0x0 MSTORE PUSH1 0x20 PUSH1 0x0 KECCAK256 SWAP1 PUSH1 0x4 MUL ADD SWAP1 POP DUP1 PUSH1 0x3 ADD PUSH1 0x1 DUP2 DUP2 SWAP1 SLOAD SWAP1 PUSH2 0x100 EXP SWAP1 DIV PUSH2 0xFFFF AND DUP1 SWAP3 SWAP2 SWAP1 PUSH2 0xF9F SWAP1 PUSH2 0x20BD JUMP JUMPDEST SWAP2 SWAP1 PUSH2 0x100 EXP DUP2 SLOAD DUP2 PUSH2 0xFFFF MUL NOT AND SWAP1 DUP4 PUSH2 0xFFFF AND MUL OR SWAP1 SSTORE POP POP POP POP JUMP JUMPDEST PUSH1 0x4 PUSH1 0x20 MSTORE DUP1 PUSH1 0x0 MSTORE PUSH1 0x40 PUSH1 0x0 KECCAK256 PUSH1 0x0 SWAP2 POP SWAP1 POP DUP1 SLOAD PUSH2 0xFDD SWAP1 PUSH2 0x1B72 JUMP JUMPDEST DUP1 PUSH1 0x1F ADD PUSH1 0x20 DUP1 SWAP2 DIV MUL PUSH1 0x20 ADD PUSH1 0x40 MLOAD SWAP1 DUP2 ADD PUSH1 0x40 MSTORE DUP1 SWAP3 SWAP2 SWAP1 DUP2 DUP2 MSTORE PUSH1 0x20 ADD DUP3 DUP1 SLOAD PUSH2 0x1009 SWAP1 PUSH2 0x1B72 JUMP JUMPDEST DUP1 ISZERO PUSH2 0x1056 JUMPI DUP1 PUSH1 0x1F LT PUSH2 0x102B JUMPI PUSH2 0x100 DUP1 DUP4 SLOAD DIV MUL DUP4 MSTORE SWAP2 PUSH1 0x20 ADD SWAP2 PUSH2 0x1056 JUMP JUMPDEST DUP3 ADD SWAP2 SWAP1 PUSH1 0x0 MSTORE PUSH1 0x20 PUSH1 0x0 KECCAK256 SWAP1 JUMPDEST DUP2 SLOAD DUP2 MSTORE SWAP1 PUSH1 0x1 ADD SWAP1 PUSH1 0x20 ADD DUP1 DUP4 GT PUSH2 0x1039 JUMPI DUP3 SWAP1 SUB PUSH1 0x1F AND DUP3 ADD SWAP2 JUMPDEST POP POP POP POP POP DUP2 JUMP JUMPDEST PUSH1 0x5 PUSH1 0x20 MSTORE DUP1 PUSH1 0x0 MSTORE PUSH1 0x40 PUSH1 0x0 KECCAK256 PUSH1 0x0 SWAP2 POP SLOAD SWAP1 PUSH2 0x100 EXP SWAP1 DIV PUSH1 0xFF AND DUP2 JUMP JUMPDEST PUSH1 0x7 PUSH1 0x20 MSTORE DUP1 PUSH1 0x0 MSTORE PUSH1 0x40 PUSH1 0x0 KECCAK256 PUSH1 0x0 SWAP2 POP SLOAD SWAP1 PUSH2 0x100 EXP SWAP1 DIV PUSH1 0xFF AND DUP2 JUMP JUMPDEST PUSH2 0x10A6 PUSH2 0x11C4 JUMP JUMPDEST PUSH1 0x0 PUSH20 0xFFFFFFFFFFFFFFFFFFFFFFFFFFFFFFFFFFFFFFFF AND DUP2 PUSH20 0xFFFFFFFFFFFFFFFFFFFFFFFFFFFFFFFFFFFFFFFF AND SUB PUSH2 0x1118 JUMPI PUSH1 0x0 PUSH1 0x40 MLOAD PUSH32 0x1E4FBDF700000000000000000000000000000000000000000000000000000000 DUP2 MSTORE PUSH1 0x4 ADD PUSH2 0x110F SWAP2 SWAP1 PUSH2 0x1A0A JUMP JUMPDEST PUSH1 0x40 MLOAD DUP1 SWAP2 SUB SWAP1 REVERT JUMPDEST PUSH2 0x1121 DUP2 PUSH2 0x1319 JUMP JUMPDEST POP JUMP JUMPDEST PUSH1 0x6 PUSH1 0x20 MSTORE DUP1 PUSH1 0x0 MSTORE PUSH1 0x40 PUSH1 0x0 KECCAK256 PUSH1 0x0 SWAP2 POP SWAP1 POP DUP1 SLOAD PUSH2 0x1143 SWAP1 PUSH2 0x1B72 JUMP JUMPDEST DUP1 PUSH1 0x1F ADD PUSH1 0x20 DUP1 SWAP2 DIV MUL PUSH1 0x20 ADD PUSH1 0x40 MLOAD SWAP1 DUP2 ADD PUSH1 0x40 MSTORE DUP1 SWAP3 SWAP2 SWAP1 DUP2 DUP2 MSTORE PUSH1 0x20 ADD DUP3 DUP1 SLOAD PUSH2 0x116F SWAP1 PUSH2 0x1B72 JUMP JUMPDEST DUP1 ISZERO PUSH2 0x11BC JUMPI DUP1 PUSH1 0x1F LT PUSH2 0x1191 JUMPI PUSH2 0x100 DUP1 DUP4 SLOAD DIV MUL DUP4 MSTORE SWAP2 PUSH1 0x20 ADD SWAP2 PUSH2 0x11BC JUMP JUMPDEST DUP3 ADD SWAP2 SWAP1 PUSH1 0x0 MSTORE PUSH1 0x20 PUSH1 0x0 KECCAK256 SWAP1 JUMPDEST DUP2 SLOAD DUP2 MSTORE SWAP1 PUSH1 0x1 ADD SWAP1 PUSH1 0x20 ADD DUP1 DUP4 GT PUSH2 0x119F JUMPI DUP3 SWAP1 SUB PUSH1 0x1F AND DUP3 ADD SWAP2 JUMPDEST POP POP POP POP POP DUP2 JUMP JUMPDEST PUSH2 0x11CC PUSH2 0x13DD JUMP JUMPDEST PUSH20 0xFFFFFFFFFFFFFFFFFFFFFFFFFFFFFFFFFFFFFFFF AND PUSH2 0x11EA PUSH2 0xF2B JUMP JUMPDEST PUSH20 0xFFFFFFFFFFFFFFFFFFFFFFFFFFFFFFFFFFFFFFFF AND EQ PUSH2 0x1249 JUMPI PUSH2 0x120D PUSH2 0x13DD JUMP JUMPDEST PUSH1 0x40 MLOAD PUSH32 0x118CDAA700000000000000000000000000000000000000000000000000000000 DUP2 MSTORE PUSH1 0x4 ADD PUSH2 0x1240 SWAP2 SWAP1 PUSH2 0x1A0A JUMP JUMPDEST PUSH1 0x40 MLOAD DUP1 SWAP2 SUB SWAP1 REVERT JUMPDEST JUMP JUMPDEST PUSH1 0x60 PUSH1 0x0 PUSH1 0x1 PUSH2 0x125A DUP5 PUSH2 0x13E5 JUMP JUMPDEST ADD SWAP1 POP PUSH1 0x0 DUP2 PUSH8 0xFFFFFFFFFFFFFFFF DUP2 GT ISZERO PUSH2 0x1279 JUMPI PUSH2 0x1278 PUSH2 0x17F9 JUMP JUMPDEST JUMPDEST PUSH1 0x40 MLOAD SWAP1 DUP1 DUP3 MSTORE DUP1 PUSH1 0x1F ADD PUSH1 0x1F NOT AND PUSH1 0x20 ADD DUP3 ADD PUSH1 0x40 MSTORE DUP1 ISZERO PUSH2 0x12AB JUMPI DUP2 PUSH1 0x20 ADD PUSH1 0x1 DUP3 MUL DUP1 CALLDATASIZE DUP4 CALLDATACOPY DUP1 DUP3 ADD SWAP2 POP POP SWAP1 POP JUMPDEST POP SWAP1 POP PUSH1 0x0 DUP3 PUSH1 0x20 ADD DUP3 ADD SWAP1 POP JUMPDEST PUSH1 0x1 ISZERO PUSH2 0x130E JUMPI DUP1 DUP1 PUSH1 0x1 SWAP1 SUB SWAP2 POP POP PUSH32 0x3031323334353637383961626364656600000000000000000000000000000000 PUSH1 0xA DUP7 MOD BYTE DUP2 MSTORE8 PUSH1 0xA DUP6 DUP2 PUSH2 0x1302 JUMPI PUSH2 0x1301 PUSH2 0x20E7 JUMP JUMPDEST JUMPDEST DIV SWAP5 POP PUSH1 0x0 DUP6 SUB PUSH2 0x12B9 JUMPI JUMPDEST DUP2 SWAP4 POP POP POP POP SWAP2 SWAP1 POP JUMP JUMPDEST PUSH1 0x0 DUP1 PUSH1 0x0 SWAP1 SLOAD SWAP1 PUSH2 0x100 EXP SWAP1 DIV PUSH20 0xFFFFFFFFFFFFFFFFFFFFFFFFFFFFFFFFFFFFFFFF AND SWAP1 POP DUP2 PUSH1 0x0 DUP1 PUSH2 0x100 EXP DUP2 SLOAD DUP2 PUSH20 0xFFFFFFFFFFFFFFFFFFFFFFFFFFFFFFFFFFFFFFFF MUL NOT AND SWAP1 DUP4 PUSH20 0xFFFFFFFFFFFFFFFFFFFFFFFFFFFFFFFFFFFFFFFF AND MUL OR SWAP1 SSTORE POP DUP2 PUSH20 0xFFFFFFFFFFFFFFFFFFFFFFFFFFFFFFFFFFFFFFFF AND DUP2 PUSH20 0xFFFFFFFFFFFFFFFFFFFFFFFFFFFFFFFFFFFFFFFF AND PUSH32 0x8BE0079C531659141344CD1FD0A4F28419497F9722A3DAAFE3B4186F6B6457E0 PUSH1 0x40 MLOAD PUSH1 0x40 MLOAD DUP1 SWAP2 SUB SWAP1 LOG3 POP POP JUMP JUMPDEST PUSH1 0x0 CALLER SWAP1 POP SWAP1 JUMP JUMPDEST PUSH1 0x0 DUP1 PUSH1 0x0 SWAP1 POP PUSH27 0x184F03E93FF9F4DAA797ED6E38ED64BF6A1F010000000000000000 DUP4 LT PUSH2 0x1443 JUMPI PUSH27 0x184F03E93FF9F4DAA797ED6E38ED64BF6A1F010000000000000000 DUP4 DUP2 PUSH2 0x1439 JUMPI PUSH2 0x1438 PUSH2 0x20E7 JUMP JUMPDEST JUMPDEST DIV SWAP3 POP PUSH1 0x40 DUP2 ADD SWAP1 POP JUMPDEST PUSH14 0x4EE2D6D415B85ACEF8100000000 DUP4 LT PUSH2 0x1480 JUMPI PUSH14 0x4EE2D6D415B85ACEF8100000000 DUP4 DUP2 PUSH2 0x1476 JUMPI PUSH2 0x1475 PUSH2 0x20E7 JUMP JUMPDEST JUMPDEST DIV SWAP3 POP PUSH1 0x20 DUP2 ADD SWAP1 POP JUMPDEST PUSH7 0x2386F26FC10000 DUP4 LT PUSH2 0x14AF JUMPI PUSH7 0x2386F26FC10000 DUP4 DUP2 PUSH2 0x14A5 JUMPI PUSH2 0x14A4 PUSH2 0x20E7 JUMP JUMPDEST JUMPDEST DIV SWAP3 POP PUSH1 0x10 DUP2 ADD SWAP1 POP JUMPDEST PUSH4 0x5F5E100 DUP4 LT PUSH2 0x14D8 JUMPI PUSH4 0x5F5E100 DUP4 DUP2 PUSH2 0x14CE JUMPI PUSH2 0x14CD PUSH2 0x20E7 JUMP JUMPDEST JUMPDEST DIV SWAP3 POP PUSH1 0x8 DUP2 ADD SWAP1 POP JUMPDEST PUSH2 0x2710 DUP4 LT PUSH2 0x14FD JUMPI PUSH2 0x2710 DUP4 DUP2 PUSH2 0x14F3 JUMPI PUSH2 0x14F2 PUSH2 0x20E7 JUMP JUMPDEST JUMPDEST DIV SWAP3 POP PUSH1 0x4 DUP2 ADD SWAP1 POP JUMPDEST PUSH1 0x64 DUP4 LT PUSH2 0x1520 JUMPI PUSH1 0x64 DUP4 DUP2 PUSH2 0x1516 JUMPI PUSH2 0x1515 PUSH2 0x20E7 JUMP JUMPDEST JUMPDEST DIV SWAP3 POP PUSH1 0x2 DUP2 ADD SWAP1 POP JUMPDEST PUSH1 0xA DUP4 LT PUSH2 0x152F JUMPI PUSH1 0x1 DUP2 ADD SWAP1 POP JUMPDEST DUP1 SWAP2 POP POP SWAP2 SWAP1 POP JUMP JUMPDEST POP DUP1 SLOAD PUSH2 0x1544 SWAP1 PUSH2 0x1B72 JUMP JUMPDEST PUSH1 0x0 DUP3 SSTORE DUP1 PUSH1 0x1F LT PUSH2 0x1556 JUMPI POP PUSH2 0x1575 JUMP JUMPDEST PUSH1 0x1F ADD PUSH1 0x20 SWAP1 DIV SWAP1 PUSH1 0x0 MSTORE PUSH1 0x20 PUSH1 0x0 KECCAK256 SWAP1 DUP2 ADD SWAP1 PUSH2 0x1574 SWAP2 SWAP1 PUSH2 0x1578 JUMP JUMPDEST JUMPDEST POP JUMP JUMPDEST JUMPDEST DUP1 DUP3 GT ISZERO PUSH2 0x1591 JUMPI PUSH1 0x0 DUP2 PUSH1 0x0 SWAP1 SSTORE POP PUSH1 0x1 ADD PUSH2 0x1579 JUMP JUMPDEST POP SWAP1 JUMP JUMPDEST PUSH1 0x0 PUSH16 0xFFFFFFFFFFFFFFFFFFFFFFFFFFFFFFFF DUP3 AND SWAP1 POP SWAP2 SWAP1 POP JUMP JUMPDEST PUSH2 0x15BA DUP2 PUSH2 0x1595 JUMP JUMPDEST DUP3 MSTORE POP POP JUMP JUMPDEST PUSH1 0x0 PUSH1 0x20 DUP3 ADD SWAP1 POP PUSH2 0x15D5 PUSH1 0x0 DUP4 ADD DUP5 PUSH2 0x15B1 JUMP JUMPDEST SWAP3 SWAP2 POP POP JUMP JUMPDEST PUSH1 0x0 PUSH1 0x40 MLOAD SWAP1 POP SWAP1 JUMP JUMPDEST PUSH1 0x0 DUP1 REVERT JUMPDEST PUSH1 0x0 DUP1 REVERT JUMPDEST PUSH1 0x0 PUSH1 0xFF DUP3 AND SWAP1 POP SWAP2 SWAP1 POP JUMP JUMPDEST PUSH2 0x1605 DUP2 PUSH2 0x15EF JUMP JUMPDEST DUP2 EQ PUSH2 0x1610 JUMPI PUSH1 0x0 DUP1 REVERT JUMPDEST POP JUMP JUMPDEST PUSH1 0x0 DUP2 CALLDATALOAD SWAP1 POP PUSH2 0x1622 DUP2 PUSH2 0x15FC JUMP JUMPDEST SWAP3 SWAP2 POP POP JUMP JUMPDEST PUSH1 0x0 DUP1 PUSH1 0x40 DUP4 DUP6 SUB SLT ISZERO PUSH2 0x163F JUMPI PUSH2 0x163E PUSH2 0x15E5 JUMP JUMPDEST JUMPDEST PUSH1 0x0 PUSH2 0x164D DUP6 DUP3 DUP7 ADD PUSH2 0x1613 JUMP JUMPDEST SWAP3 POP POP PUSH1 0x20 PUSH2 0x165E DUP6 DUP3 DUP7 ADD PUSH2 0x1613 JUMP JUMPDEST SWAP2 POP POP SWAP3 POP SWAP3 SWAP1 POP JUMP JUMPDEST PUSH1 0x0 DUP2 SWAP1 POP SWAP2 SWAP1 POP JUMP JUMPDEST PUSH2 0x167B DUP2 PUSH2 0x1668 JUMP JUMPDEST DUP2 EQ PUSH2 0x1686 JUMPI PUSH1 0x0 DUP1 REVERT JUMPDEST POP JUMP JUMPDEST PUSH1 0x0 DUP2 CALLDATALOAD SWAP1 POP PUSH2 0x1698 DUP2 PUSH2 0x1672 JUMP JUMPDEST SWAP3 SWAP2 POP POP JUMP JUMPDEST PUSH1 0x0 PUSH1 0x20 DUP3 DUP5 SUB SLT ISZERO PUSH2 0x16B4 JUMPI PUSH2 0x16B3 PUSH2 0x15E5 JUMP JUMPDEST JUMPDEST PUSH1 0x0 PUSH2 0x16C2 DUP5 DUP3 DUP6 ADD PUSH2 0x1689 JUMP JUMPDEST SWAP2 POP POP SWAP3 SWAP2 POP POP JUMP JUMPDEST PUSH1 0x0 DUP2 MLOAD SWAP1 POP SWAP2 SWAP1 POP JUMP JUMPDEST PUSH1 0x0 DUP3 DUP3 MSTORE PUSH1 0x20 DUP3 ADD SWAP1 POP SWAP3 SWAP2 POP POP JUMP JUMPDEST PUSH1 0x0 JUMPDEST DUP4 DUP2 LT ISZERO PUSH2 0x1705 JUMPI DUP1 DUP3 ADD MLOAD DUP2 DUP5 ADD MSTORE PUSH1 0x20 DUP2 ADD SWAP1 POP PUSH2 0x16EA JUMP JUMPDEST PUSH1 0x0 DUP5 DUP5 ADD MSTORE POP POP POP POP JUMP JUMPDEST PUSH1 0x0 PUSH1 0x1F NOT PUSH1 0x1F DUP4 ADD AND SWAP1 POP SWAP2 SWAP1 POP JUMP JUMPDEST PUSH1 0x0 PUSH2 0x172D DUP3 PUSH2 0x16CB JUMP JUMPDEST PUSH2 0x1737 DUP2 DUP6 PUSH2 0x16D6 JUMP JUMPDEST SWAP4 POP PUSH2 0x1747 DUP2 DUP6 PUSH1 0x20 DUP7 ADD PUSH2 0x16E7 JUMP JUMPDEST PUSH2 0x1750 DUP2 PUSH2 0x1711 JUMP JUMPDEST DUP5 ADD SWAP2 POP POP SWAP3 SWAP2 POP POP JUMP JUMPDEST PUSH2 0x1764 DUP2 PUSH2 0x15EF JUMP JUMPDEST DUP3 MSTORE POP POP JUMP JUMPDEST PUSH1 0x0 PUSH2 0xFFFF DUP3 AND SWAP1 POP SWAP2 SWAP1 POP JUMP JUMPDEST PUSH2 0x1781 DUP2 PUSH2 0x176A JUMP JUMPDEST DUP3 MSTORE POP POP JUMP JUMPDEST PUSH1 0x0 PUSH1 0xA0 DUP3 ADD SWAP1 POP DUP2 DUP2 SUB PUSH1 0x0 DUP4 ADD MSTORE PUSH2 0x17A1 DUP2 DUP9 PUSH2 0x1722 JUMP JUMPDEST SWAP1 POP DUP2 DUP2 SUB PUSH1 0x20 DUP4 ADD MSTORE PUSH2 0x17B5 DUP2 DUP8 PUSH2 0x1722 JUMP JUMPDEST SWAP1 POP DUP2 DUP2 SUB PUSH1 0x40 DUP4 ADD MSTORE PUSH2 0x17C9 DUP2 DUP7 PUSH2 0x1722 JUMP JUMPDEST SWAP1 POP PUSH2 0x17D8 PUSH1 0x60 DUP4 ADD DUP6 PUSH2 0x175B JUMP JUMPDEST PUSH2 0x17E5 PUSH1 0x80 DUP4 ADD DUP5 PUSH2 0x1778 JUMP JUMPDEST SWAP7 SWAP6 POP POP POP POP POP POP JUMP JUMPDEST PUSH1 0x0 DUP1 REVERT JUMPDEST PUSH1 0x0 DUP1 REVERT JUMPDEST PUSH32 0x4E487B7100000000000000000000000000000000000000000000000000000000 PUSH1 0x0 MSTORE PUSH1 0x41 PUSH1 0x4 MSTORE PUSH1 0x24 PUSH1 0x0 REVERT JUMPDEST PUSH2 0x1831 DUP3 PUSH2 0x1711 JUMP JUMPDEST DUP2 ADD DUP2 DUP2 LT PUSH8 0xFFFFFFFFFFFFFFFF DUP3 GT OR ISZERO PUSH2 0x1850 JUMPI PUSH2 0x184F PUSH2 0x17F9 JUMP JUMPDEST JUMPDEST DUP1 PUSH1 0x40 MSTORE POP POP POP JUMP JUMPDEST PUSH1 0x0 PUSH2 0x1863 PUSH2 0x15DB JUMP JUMPDEST SWAP1 POP PUSH2 0x186F DUP3 DUP3 PUSH2 0x1828 JUMP JUMPDEST SWAP2 SWAP1 POP JUMP JUMPDEST PUSH1 0x0 PUSH8 0xFFFFFFFFFFFFFFFF DUP3 GT ISZERO PUSH2 0x188F JUMPI PUSH2 0x188E PUSH2 0x17F9 JUMP JUMPDEST JUMPDEST PUSH2 0x1898 DUP3 PUSH2 0x1711 JUMP JUMPDEST SWAP1 POP PUSH1 0x20 DUP2 ADD SWAP1 POP SWAP2 SWAP1 POP JUMP JUMPDEST DUP3 DUP2 DUP4 CALLDATACOPY PUSH1 0x0 DUP4 DUP4 ADD MSTORE POP POP POP JUMP JUMPDEST PUSH1 0x0 PUSH2 0x18C7 PUSH2 0x18C2 DUP5 PUSH2 0x1874 JUMP JUMPDEST PUSH2 0x1859 JUMP JUMPDEST SWAP1 POP DUP3 DUP2 MSTORE PUSH1 0x20 DUP2 ADD DUP5 DUP5 DUP5 ADD GT ISZERO PUSH2 0x18E3 JUMPI PUSH2 0x18E2 PUSH2 0x17F4 JUMP JUMPDEST JUMPDEST PUSH2 0x18EE DUP5 DUP3 DUP6 PUSH2 0x18A5 JUMP JUMPDEST POP SWAP4 SWAP3 POP POP POP JUMP JUMPDEST PUSH1 0x0 DUP3 PUSH1 0x1F DUP4 ADD SLT PUSH2 0x190B JUMPI PUSH2 0x190A PUSH2 0x17EF JUMP JUMPDEST JUMPDEST DUP2 CALLDATALOAD PUSH2 0x191B DUP5 DUP3 PUSH1 0x20 DUP7 ADD PUSH2 0x18B4 JUMP JUMPDEST SWAP2 POP POP SWAP3 SWAP2 POP POP JUMP JUMPDEST PUSH1 0x0 DUP1 PUSH1 0x40 DUP4 DUP6 SUB SLT ISZERO PUSH2 0x193B JUMPI PUSH2 0x193A PUSH2 0x15E5 JUMP JUMPDEST JUMPDEST PUSH1 0x0 DUP4 ADD CALLDATALOAD PUSH8 0xFFFFFFFFFFFFFFFF DUP2 GT ISZERO PUSH2 0x1959 JUMPI PUSH2 0x1958 PUSH2 0x15EA JUMP JUMPDEST JUMPDEST PUSH2 0x1965 DUP6 DUP3 DUP7 ADD PUSH2 0x18F6 JUMP JUMPDEST SWAP3 POP POP PUSH1 0x20 DUP4 ADD CALLDATALOAD PUSH8 0xFFFFFFFFFFFFFFFF DUP2 GT ISZERO PUSH2 0x1986 JUMPI PUSH2 0x1985 PUSH2 0x15EA JUMP JUMPDEST JUMPDEST PUSH2 0x1992 DUP6 DUP3 DUP7 ADD PUSH2 0x18F6 JUMP JUMPDEST SWAP2 POP POP SWAP3 POP SWAP3 SWAP1 POP JUMP JUMPDEST PUSH1 0x0 PUSH1 0x20 DUP3 DUP5 SUB SLT ISZERO PUSH2 0x19B2 JUMPI PUSH2 0x19B1 PUSH2 0x15E5 JUMP JUMPDEST JUMPDEST PUSH1 0x0 PUSH2 0x19C0 DUP5 DUP3 DUP6 ADD PUSH2 0x1613 JUMP JUMPDEST SWAP2 POP POP SWAP3 SWAP2 POP POP JUMP JUMPDEST PUSH1 0x0 PUSH20 0xFFFFFFFFFFFFFFFFFFFFFFFFFFFFFFFFFFFFFFFF DUP3 AND SWAP1 POP SWAP2 SWAP1 POP JUMP JUMPDEST PUSH1 0x0 PUSH2 0x19F4 DUP3 PUSH2 0x19C9 JUMP JUMPDEST SWAP1 POP SWAP2 SWAP1 POP JUMP JUMPDEST PUSH2 0x1A04 DUP2 PUSH2 0x19E9 JUMP JUMPDEST DUP3 MSTORE POP POP JUMP JUMPDEST PUSH1 0x0 PUSH1 0x20 DUP3 ADD SWAP1 POP PUSH2 0x1A1F PUSH1 0x0 DUP4 ADD DUP5 PUSH2 0x19FB JUMP JUMPDEST SWAP3 SWAP2 POP POP JUMP JUMPDEST PUSH2 0x1A2E DUP2 PUSH2 0x1595 JUMP JUMPDEST DUP2 EQ PUSH2 0x1A39 JUMPI PUSH1 0x0 DUP1 REVERT JUMPDEST POP JUMP JUMPDEST PUSH1 0x0 DUP2 CALLDATALOAD SWAP1 POP PUSH2 0x1A4B DUP2 PUSH2 0x1A25 JUMP JUMPDEST SWAP3 SWAP2 POP POP JUMP JUMPDEST PUSH1 0x0 PUSH1 0x20 DUP3 DUP5 SUB SLT ISZERO PUSH2 0x1A67 JUMPI PUSH2 0x1A66 PUSH2 0x15E5 JUMP JUMPDEST JUMPDEST PUSH1 0x0 PUSH2 0x1A75 DUP5 DUP3 DUP6 ADD PUSH2 0x1A3C JUMP JUMPDEST SWAP2 POP POP SWAP3 SWAP2 POP POP JUMP JUMPDEST PUSH1 0x0 PUSH1 0x20 DUP3 ADD SWAP1 POP DUP2 DUP2 SUB PUSH1 0x0 DUP4 ADD MSTORE PUSH2 0x1A98 DUP2 DUP5 PUSH2 0x1722 JUMP JUMPDEST SWAP1 POP SWAP3 SWAP2 POP POP JUMP JUMPDEST PUSH1 0x0 PUSH1 0x20 DUP3 ADD SWAP1 POP PUSH2 0x1AB5 PUSH1 0x0 DUP4 ADD DUP5 PUSH2 0x175B JUMP JUMPDEST SWAP3 SWAP2 POP POP JUMP JUMPDEST PUSH2 0x1AC4 DUP2 PUSH2 0x19E9 JUMP JUMPDEST DUP2 EQ PUSH2 0x1ACF JUMPI PUSH1 0x0 DUP1 REVERT JUMPDEST POP JUMP JUMPDEST PUSH1 0x0 DUP2 CALLDATALOAD SWAP1 POP PUSH2 0x1AE1 DUP2 PUSH2 0x1ABB JUMP JUMPDEST SWAP3 SWAP2 POP POP JUMP JUMPDEST PUSH1 0x0 PUSH1 0x20 DUP3 DUP5 SUB SLT ISZERO PUSH2 0x1AFD JUMPI PUSH2 0x1AFC PUSH2 0x15E5 JUMP JUMPDEST JUMPDEST PUSH1 0x0 PUSH2 0x1B0B DUP5 DUP3 DUP6 ADD PUSH2 0x1AD2 JUMP JUMPDEST SWAP2 POP POP SWAP3 SWAP2 POP POP JUMP JUMPDEST PUSH32 0x4E487B7100000000000000000000000000000000000000000000000000000000 PUSH1 0x0 MSTORE PUSH1 0x32 PUSH1 0x4 MSTORE PUSH1 0x24 PUSH1 0x0 REVERT JUMPDEST PUSH32 0x4E487B7100000000000000000000000000000000000000000000000000000000 PUSH1 0x0 MSTORE PUSH1 0x22 PUSH1 0x4 MSTORE PUSH1 0x24 PUSH1 0x0 REVERT JUMPDEST PUSH1 0x0 PUSH1 0x2 DUP3 DIV SWAP1 POP PUSH1 0x1 DUP3 AND DUP1 PUSH2 0x1B8A JUMPI PUSH1 0x7F DUP3 AND SWAP2 POP JUMPDEST PUSH1 0x20 DUP3 LT DUP2 SUB PUSH2 0x1B9D JUMPI PUSH2 0x1B9C PUSH2 0x1B43 JUMP JUMPDEST JUMPDEST POP SWAP2 SWAP1 POP JUMP JUMPDEST PUSH32 0x49522D0000000000000000000000000000000000000000000000000000000000 DUP2 MSTORE POP JUMP JUMPDEST PUSH1 0x0 DUP2 SWAP1 POP SWAP3 SWAP2 POP POP JUMP JUMPDEST PUSH1 0x0 PUSH2 0x1BDF DUP3 PUSH2 0x16CB JUMP JUMPDEST PUSH2 0x1BE9 DUP2 DUP6 PUSH2 0x1BC9 JUMP JUMPDEST SWAP4 POP PUSH2 0x1BF9 DUP2 DUP6 PUSH1 0x20 DUP7 ADD PUSH2 0x16E7 JUMP JUMPDEST DUP1 DUP5 ADD SWAP2 POP POP SWAP3 SWAP2 POP POP JUMP JUMPDEST PUSH1 0x0 PUSH2 0x1C10 DUP3 PUSH2 0x1BA3 JUMP JUMPDEST PUSH1 0x3 DUP3 ADD SWAP2 POP PUSH2 0x1C20 DUP3 DUP5 PUSH2 0x1BD4 JUMP JUMPDEST SWAP2 POP DUP2 SWAP1 POP SWAP3 SWAP2 POP POP JUMP JUMPDEST PUSH1 0x0 DUP2 SWAP1 POP DUP2 PUSH1 0x0 MSTORE PUSH1 0x20 PUSH1 0x0 KECCAK256 SWAP1 POP SWAP2 SWAP1 POP JUMP JUMPDEST PUSH1 0x0 PUSH1 0x20 PUSH1 0x1F DUP4 ADD DIV SWAP1 POP SWAP2 SWAP1 POP JUMP JUMPDEST PUSH1 0x0 DUP3 DUP3 SHL SWAP1 POP SWAP3 SWAP2 POP POP JUMP JUMPDEST PUSH1 0x0 PUSH1 0x8 DUP4 MUL PUSH2 0x1C8D PUSH32 0xFFFFFFFFFFFFFFFFFFFFFFFFFFFFFFFFFFFFFFFFFFFFFFFFFFFFFFFFFFFFFFFF DUP3 PUSH2 0x1C50 JUMP JUMPDEST PUSH2 0x1C97 DUP7 DUP4 PUSH2 0x1C50 JUMP JUMPDEST SWAP6 POP DUP1 NOT DUP5 AND SWAP4 POP DUP1 DUP7 AND DUP5 OR SWAP3 POP POP POP SWAP4 SWAP3 POP POP POP JUMP JUMPDEST PUSH1 0x0 DUP2 SWAP1 POP SWAP2 SWAP1 POP JUMP JUMPDEST PUSH1 0x0 PUSH2 0x1CD4 PUSH2 0x1CCF PUSH2 0x1CCA DUP5 PUSH2 0x1668 JUMP JUMPDEST PUSH2 0x1CAF JUMP JUMPDEST PUSH2 0x1668 JUMP JUMPDEST SWAP1 POP SWAP2 SWAP1 POP JUMP JUMPDEST PUSH1 0x0 DUP2 SWAP1 POP SWAP2 SWAP1 POP JUMP JUMPDEST PUSH2 0x1CEE DUP4 PUSH2 0x1CB9 JUMP JUMPDEST PUSH2 0x1D02 PUSH2 0x1CFA DUP3 PUSH2 0x1CDB JUMP JUMPDEST DUP5 DUP5 SLOAD PUSH2 0x1C5D JUMP JUMPDEST DUP3 SSTORE POP POP POP POP JUMP JUMPDEST PUSH1 0x0 SWAP1 JUMP JUMPDEST PUSH2 0x1D17 PUSH2 0x1D0A JUMP JUMPDEST PUSH2 0x1D22 DUP2 DUP5 DUP5 PUSH2 0x1CE5 JUMP JUMPDEST POP POP POP JUMP JUMPDEST JUMPDEST DUP2 DUP2 LT ISZERO PUSH2 0x1D46 JUMPI PUSH2 0x1D3B PUSH1 0x0 DUP3 PUSH2 0x1D0F JUMP JUMPDEST PUSH1 0x1 DUP2 ADD SWAP1 POP PUSH2 0x1D28 JUMP JUMPDEST POP POP JUMP JUMPDEST PUSH1 0x1F DUP3 GT ISZERO PUSH2 0x1D8B JUMPI PUSH2 0x1D5C DUP2 PUSH2 0x1C2B JUMP JUMPDEST PUSH2 0x1D65 DUP5 PUSH2 0x1C40 JUMP JUMPDEST DUP2 ADD PUSH1 0x20 DUP6 LT ISZERO PUSH2 0x1D74 JUMPI DUP2 SWAP1 POP JUMPDEST PUSH2 0x1D88 PUSH2 0x1D80 DUP6 PUSH2 0x1C40 JUMP JUMPDEST DUP4 ADD DUP3 PUSH2 0x1D27 JUMP JUMPDEST POP POP JUMPDEST POP POP POP JUMP JUMPDEST PUSH1 0x0 DUP3 DUP3 SHR SWAP1 POP SWAP3 SWAP2 POP POP JUMP JUMPDEST PUSH1 0x0 PUSH2 0x1DAE PUSH1 0x0 NOT DUP5 PUSH1 0x8 MUL PUSH2 0x1D90 JUMP JUMPDEST NOT DUP1 DUP4 AND SWAP2 POP POP SWAP3 SWAP2 POP POP JUMP JUMPDEST PUSH1 0x0 PUSH2 0x1DC7 DUP4 DUP4 PUSH2 0x1D9D JUMP JUMPDEST SWAP2 POP DUP3 PUSH1 0x2 MUL DUP3 OR SWAP1 POP SWAP3 SWAP2 POP POP JUMP JUMPDEST PUSH2 0x1DE0 DUP3 PUSH2 0x16CB JUMP JUMPDEST PUSH8 0xFFFFFFFFFFFFFFFF DUP2 GT ISZERO PUSH2 0x1DF9 JUMPI PUSH2 0x1DF8 PUSH2 0x17F9 JUMP JUMPDEST JUMPDEST PUSH2 0x1E03 DUP3 SLOAD PUSH2 0x1B72 JUMP JUMPDEST PUSH2 0x1E0E DUP3 DUP3 DUP6 PUSH2 0x1D4A JUMP JUMPDEST PUSH1 0x0 PUSH1 0x20 SWAP1 POP PUSH1 0x1F DUP4 GT PUSH1 0x1 DUP2 EQ PUSH2 0x1E41 JUMPI PUSH1 0x0 DUP5 ISZERO PUSH2 0x1E2F JUMPI DUP3 DUP8 ADD MLOAD SWAP1 POP JUMPDEST PUSH2 0x1E39 DUP6 DUP3 PUSH2 0x1DBB JUMP JUMPDEST DUP7 SSTORE POP PUSH2 0x1EA1 JUMP JUMPDEST PUSH1 0x1F NOT DUP5 AND PUSH2 0x1E4F DUP7 PUSH2 0x1C2B JUMP JUMPDEST PUSH1 0x0 JUMPDEST DUP3 DUP2 LT ISZERO PUSH2 0x1E77 JUMPI DUP5 DUP10 ADD MLOAD DUP3 SSTORE PUSH1 0x1 DUP3 ADD SWAP2 POP PUSH1 0x20 DUP6 ADD SWAP5 POP PUSH1 0x20 DUP2 ADD SWAP1 POP PUSH2 0x1E52 JUMP JUMPDEST DUP7 DUP4 LT ISZERO PUSH2 0x1E94 JUMPI DUP5 DUP10 ADD MLOAD PUSH2 0x1E90 PUSH1 0x1F DUP10 AND DUP3 PUSH2 0x1D9D JUMP JUMPDEST DUP4 SSTORE POP JUMPDEST PUSH1 0x1 PUSH1 0x2 DUP9 MUL ADD DUP9 SSTORE POP POP POP JUMPDEST POP POP POP POP POP POP JUMP JUMPDEST PUSH32 0x4E487B7100000000000000000000000000000000000000000000000000000000 PUSH1 0x0 MSTORE PUSH1 0x11 PUSH1 0x4 MSTORE PUSH1 0x24 PUSH1 0x0 REVERT JUMPDEST PUSH1 0x0 PUSH2 0x1EE3 DUP3 PUSH2 0x1595 JUMP JUMPDEST SWAP2 POP PUSH16 0xFFFFFFFFFFFFFFFFFFFFFFFFFFFFFFFF DUP3 SUB PUSH2 0x1F05 JUMPI PUSH2 0x1F04 PUSH2 0x1EA9 JUMP JUMPDEST JUMPDEST PUSH1 0x1 DUP3 ADD SWAP1 POP SWAP2 SWAP1 POP JUMP JUMPDEST PUSH1 0x0 PUSH2 0x1F1B DUP3 PUSH2 0x1668 JUMP JUMPDEST SWAP2 POP PUSH2 0x1F26 DUP4 PUSH2 0x1668 JUMP JUMPDEST SWAP3 POP DUP3 DUP3 SUB SWAP1 POP DUP2 DUP2 GT ISZERO PUSH2 0x1F3E JUMPI PUSH2 0x1F3D PUSH2 0x1EA9 JUMP JUMPDEST JUMPDEST SWAP3 SWAP2 POP POP JUMP JUMPDEST PUSH1 0x0 DUP2 SLOAD SWAP1 POP PUSH2 0x1F53 DUP2 PUSH2 0x1B72 JUMP JUMPDEST SWAP1 POP SWAP2 SWAP1 POP JUMP JUMPDEST DUP2 DUP2 SUB PUSH2 0x1F68 JUMPI POP POP PUSH2 0x2040 JUMP JUMPDEST PUSH2 0x1F71 DUP3 PUSH2 0x1F44 JUMP JUMPDEST PUSH8 0xFFFFFFFFFFFFFFFF DUP2 GT ISZERO PUSH2 0x1F8A JUMPI PUSH2 0x1F89 PUSH2 0x17F9 JUMP JUMPDEST JUMPDEST PUSH2 0x1F94 DUP3 SLOAD PUSH2 0x1B72 JUMP JUMPDEST PUSH2 0x1F9F DUP3 DUP3 DUP6 PUSH2 0x1D4A JUMP JUMPDEST PUSH1 0x0 PUSH1 0x1F DUP4 GT PUSH1 0x1 DUP2 EQ PUSH2 0x1FCE JUMPI PUSH1 0x0 DUP5 ISZERO PUSH2 0x1FBC JUMPI DUP3 DUP8 ADD SLOAD SWAP1 POP JUMPDEST PUSH2 0x1FC6 DUP6 DUP3 PUSH2 0x1DBB JUMP JUMPDEST DUP7 SSTORE POP PUSH2 0x2039 JUMP JUMPDEST PUSH1 0x1F NOT DUP5 AND PUSH2 0x1FDC DUP8 PUSH2 0x1C2B JUMP JUMPDEST SWAP7 POP PUSH2 0x1FE7 DUP7 PUSH2 0x1C2B JUMP JUMPDEST PUSH1 0x0 JUMPDEST DUP3 DUP2 LT ISZERO PUSH2 0x200F JUMPI DUP5 DUP10 ADD SLOAD DUP3 SSTORE PUSH1 0x1 DUP3 ADD SWAP2 POP PUSH1 0x1 DUP6 ADD SWAP5 POP PUSH1 0x20 DUP2 ADD SWAP1 POP PUSH2 0x1FEA JUMP JUMPDEST DUP7 DUP4 LT ISZERO PUSH2 0x202C JUMPI DUP5 DUP10 ADD SLOAD PUSH2 0x2028 PUSH1 0x1F DUP10 AND DUP3 PUSH2 0x1D9D JUMP JUMPDEST DUP4 SSTORE POP JUMPDEST PUSH1 0x1 PUSH1 0x2 DUP9 MUL ADD DUP9 SSTORE POP POP POP JUMPDEST POP POP POP POP POP POP JUMPDEST JUMP JUMPDEST PUSH32 0x4E487B7100000000000000000000000000000000000000000000000000000000 PUSH1 0x0 MSTORE PUSH1 0x31 PUSH1 0x4 MSTORE PUSH1 0x24 PUSH1 0x0 REVERT JUMPDEST PUSH32 0x50522D0000000000000000000000000000000000000000000000000000000000 DUP2 MSTORE POP JUMP JUMPDEST PUSH1 0x0 PUSH2 0x20A2 DUP3 PUSH2 0x2071 JUMP JUMPDEST PUSH1 0x3 DUP3 ADD SWAP2 POP PUSH2 0x20B2 DUP3 DUP5 PUSH2 0x1BD4 JUMP JUMPDEST SWAP2 POP DUP2 SWAP1 POP SWAP3 SWAP2 POP POP JUMP JUMPDEST PUSH1 0x0 PUSH2 0x20C8 DUP3 PUSH2 0x176A JUMP JUMPDEST SWAP2 POP PUSH2 0xFFFF DUP3 SUB PUSH2 0x20DC JUMPI PUSH2 0x20DB PUSH2 0x1EA9 JUMP JUMPDEST JUMPDEST PUSH1 0x1 DUP3 ADD SWAP1 POP SWAP2 SWAP1 POP JUMP JUMPDEST PUSH32 0x4E487B7100000000000000000000000000000000000000000000000000000000 PUSH1 0x0 MSTORE PUSH1 0x12 PUSH1 0x4 MSTORE PUSH1 0x24 PUSH1 0x0 REVERT INVALID LOG2 PUSH5 0x6970667358 0x22 SLT KECCAK256 0xE 0xD8 0xC9 0xB9 CALLDATACOPY PUSH19 0xCB6F819C33C388762B549EF3D8C04DA645F8D PUSH4 0xF9BA5521 0xEB KECCAK256 PUSH5 0x736F6C6343 STOP ADDMOD EQ STOP CALLER "
				},
				"gasEstimates": {
					"creation": {
						"codeDepositCost": "1704800",
						"executionCost": "infinite",
						"totalCost": "infinite"
					},
					"external": {
						"addNewIntegration(string,string)": "infinite",
						"addNewIssue(string,string)": "infinite",
						"getIntegrationStatusFromID(uint128)": "2846",
						"getIssueStatusFromID(uint128)": "2868",
						"getIssueTitleFromID(uint128)": "infinite",
						"getProjectFromID(uint128)": "infinite",
						"integrationIndex()": "2495",
						"issueIndex()": "2566",
						"listOfIntegrations(uint256)": "infinite",
						"listOfIssues(uint256)": "infinite",
						"owner()": "2589",
						"removeIntegration(uint8)": "infinite",
						"removeProblemReport(uint8)": "infinite",
						"renounceOwnership()": "infinite",
						"transferOwnership(address)": "infinite",
						"upVotePR(uint8)": "29372",
						"updatePRStatus(uint8,uint8)": "infinite"
					}
				},
				"methodIdentifiers": {
					"addNewIntegration(string,string)": "5b1214ad",
					"addNewIssue(string,string)": "87825aef",
					"getIntegrationStatusFromID(uint128)": "aad86fe7",
					"getIssueStatusFromID(uint128)": "c09d926c",
					"getIssueTitleFromID(uint128)": "feee10b0",
					"getProjectFromID(uint128)": "9b03c9cf",
					"integrationIndex()": "2bd10f6b",
					"issueIndex()": "6a28f828",
					"listOfIntegrations(uint256)": "7d0487ff",
					"listOfIssues(uint256)": "45da5158",
					"owner()": "8da5cb5b",
					"removeIntegration(uint8)": "7f18523f",
					"removeProblemReport(uint8)": "5c046276",
					"renounceOwnership()": "715018a6",
					"transferOwnership(address)": "f2fde38b",
					"upVotePR(uint8)": "8e6a0fd4",
					"updatePRStatus(uint8,uint8)": "348aa3bd"
				}
			},
			"storageLayout": {
				"storage": [
					{
						"astId": 8,
						"contract": "contracts/OnChainTicket.sol:OnchainTicket",
						"label": "_owner",
						"offset": 0,
						"slot": "0",
						"type": "t_address"
					},
					{
						"astId": 1599,
						"contract": "contracts/OnChainTicket.sol:OnchainTicket",
						"label": "integrationIndex",
						"offset": 0,
						"slot": "1",
						"type": "t_uint128"
					},
					{
						"astId": 1601,
						"contract": "contracts/OnChainTicket.sol:OnchainTicket",
						"label": "issueIndex",
						"offset": 16,
						"slot": "1",
						"type": "t_uint128"
					},
					{
						"astId": 1631,
						"contract": "contracts/OnChainTicket.sol:OnchainTicket",
						"label": "listOfIntegrations",
						"offset": 0,
						"slot": "2",
						"type": "t_array(t_struct(Ticket)1627_storage)dyn_storage"
					},
					{
						"astId": 1635,
						"contract": "contracts/OnChainTicket.sol:OnchainTicket",
						"label": "listOfIssues",
						"offset": 0,
						"slot": "3",
						"type": "t_array(t_struct(Ticket)1627_storage)dyn_storage"
					},
					{
						"astId": 1639,
						"contract": "contracts/OnChainTicket.sol:OnchainTicket",
						"label": "getProjectFromID",
						"offset": 0,
						"slot": "4",
						"type": "t_mapping(t_uint128,t_string_storage)"
					},
					{
						"astId": 1643,
						"contract": "contracts/OnChainTicket.sol:OnchainTicket",
						"label": "getIntegrationStatusFromID",
						"offset": 0,
						"slot": "5",
						"type": "t_mapping(t_uint128,t_uint8)"
					},
					{
						"astId": 1647,
						"contract": "contracts/OnChainTicket.sol:OnchainTicket",
						"label": "getIssueTitleFromID",
						"offset": 0,
						"slot": "6",
						"type": "t_mapping(t_uint128,t_string_storage)"
					},
					{
						"astId": 1651,
						"contract": "contracts/OnChainTicket.sol:OnchainTicket",
						"label": "getIssueStatusFromID",
						"offset": 0,
						"slot": "7",
						"type": "t_mapping(t_uint128,t_uint8)"
					}
				],
				"types": {
					"t_address": {
						"encoding": "inplace",
						"label": "address",
						"numberOfBytes": "20"
					},
					"t_array(t_struct(Ticket)1627_storage)dyn_storage": {
						"base": "t_struct(Ticket)1627_storage",
						"encoding": "dynamic_array",
						"label": "struct OnchainTicket.Ticket[]",
						"numberOfBytes": "32"
					},
					"t_mapping(t_uint128,t_string_storage)": {
						"encoding": "mapping",
						"key": "t_uint128",
						"label": "mapping(uint128 => string)",
						"numberOfBytes": "32",
						"value": "t_string_storage"
					},
					"t_mapping(t_uint128,t_uint8)": {
						"encoding": "mapping",
						"key": "t_uint128",
						"label": "mapping(uint128 => uint8)",
						"numberOfBytes": "32",
						"value": "t_uint8"
					},
					"t_string_storage": {
						"encoding": "bytes",
						"label": "string",
						"numberOfBytes": "32"
					},
					"t_struct(Ticket)1627_storage": {
						"encoding": "inplace",
						"label": "struct OnchainTicket.Ticket",
						"members": [
							{
								"astId": 1618,
								"contract": "contracts/OnChainTicket.sol:OnchainTicket",
								"label": "uniqueIDString",
								"offset": 0,
								"slot": "0",
								"type": "t_string_storage"
							},
							{
								"astId": 1620,
								"contract": "contracts/OnChainTicket.sol:OnchainTicket",
								"label": "title",
								"offset": 0,
								"slot": "1",
								"type": "t_string_storage"
							},
							{
								"astId": 1622,
								"contract": "contracts/OnChainTicket.sol:OnchainTicket",
								"label": "description",
								"offset": 0,
								"slot": "2",
								"type": "t_string_storage"
							},
							{
								"astId": 1624,
								"contract": "contracts/OnChainTicket.sol:OnchainTicket",
								"label": "status",
								"offset": 0,
								"slot": "3",
								"type": "t_uint8"
							},
							{
								"astId": 1626,
								"contract": "contracts/OnChainTicket.sol:OnchainTicket",
								"label": "voteCount",
								"offset": 1,
								"slot": "3",
								"type": "t_uint16"
							}
						],
						"numberOfBytes": "128"
					},
					"t_uint128": {
						"encoding": "inplace",
						"label": "uint128",
						"numberOfBytes": "16"
					},
					"t_uint16": {
						"encoding": "inplace",
						"label": "uint16",
						"numberOfBytes": "2"
					},
					"t_uint8": {
						"encoding": "inplace",
						"label": "uint8",
						"numberOfBytes": "1"
					}
				}
			},
			"userdoc": {
				"kind": "user",
				"methods": {},
				"version": 1
			}
		}
	}
}