{
	"data": {
		"bytecode": {
			"linkReferences": {},
			"object": "60806040523480156200001157600080fd5b5033600073ffffffffffffffffffffffffffffffffffffffff168173ffffffffffffffffffffffffffffffffffffffff1603620000885760006040517f1e4fbdf70000000000000000000000000000000000000000000000000000000081526004016200007f91906200021b565b60405180910390fd5b62000099816200011260201b60201c565b5060018060006101000a8154816fffffffffffffffffffffffffffffffff02191690836fffffffffffffffffffffffffffffffff16021790555060018060106101000a8154816fffffffffffffffffffffffffffffffff02191690836fffffffffffffffffffffffffffffffff16021790555062000238565b60008060009054906101000a900473ffffffffffffffffffffffffffffffffffffffff169050816000806101000a81548173ffffffffffffffffffffffffffffffffffffffff021916908373ffffffffffffffffffffffffffffffffffffffff1602179055508173ffffffffffffffffffffffffffffffffffffffff168173ffffffffffffffffffffffffffffffffffffffff167f8be0079c531659141344cd1fd0a4f28419497f9722a3daafe3b4186f6b6457e060405160405180910390a35050565b600073ffffffffffffffffffffffffffffffffffffffff82169050919050565b60006200020382620001d6565b9050919050565b6200021581620001f6565b82525050565b60006020820190506200023260008301846200020a565b92915050565b61225780620002486000396000f3fe608060405234801561001057600080fd5b50600436106101215760003560e01c80637d0487ff116100ad5780639b03c9cf116100715780639b03c9cf146102d2578063aad86fe714610302578063c09d926c14610332578063f2fde38b14610362578063feee10b01461037e57610121565b80637d0487ff1461022c5780637f18523f1461026057806387825aef1461027c5780638da5cb5b146102985780638e6a0fd4146102b657610121565b806345da5158116100f457806345da5158146101985780635b1214ad146101cc5780635c046276146101e85780636a28f82814610204578063715018a61461022257610121565b80632bd10f6b14610126578063348aa3bd1461014457806335a2b638146101605780633d72eff21461017c575b600080fd5b61012e6103ae565b60405161013b91906116cb565b60405180910390f35b61015e60048036038101906101599190611733565b6103d0565b005b61017a60048036038101906101759190611733565b610423565b005b61019660048036038101906101919190611773565b610476565b005b6101b260048036038101906101ad91906117d6565b6104e0565b6040516101c39594939291906118bf565b60405180910390f35b6101e660048036038101906101e19190611a5c565b6106d9565b005b61020260048036038101906101fd9190611773565b6108e8565b005b61020c610a70565b60405161021991906116cb565b60405180910390f35b61022a610a92565b005b610246600480360381019061024191906117d6565b610aa6565b6040516102579594939291906118bf565b60405180910390f35b61027a60048036038101906102759190611773565b610c9f565b005b61029660048036038101906102919190611a5c565b610e27565b005b6102a0611036565b6040516102ad9190611b15565b60405180910390f35b6102d060048036038101906102cb9190611773565b61105f565b005b6102ec60048036038101906102e79190611b5c565b6110c9565b6040516102f99190611b89565b60405180910390f35b61031c60048036038101906103179190611b5c565b611169565b6040516103299190611bab565b60405180910390f35b61034c60048036038101906103479190611b5c565b611189565b6040516103599190611bab565b60405180910390f35b61037c60048036038101906103779190611bf2565b6111a9565b005b61039860048036038101906103939190611b5c565b61122f565b6040516103a59190611b89565b60405180910390f35b600160009054906101000a90046fffffffffffffffffffffffffffffffff1681565b6103d86112cf565b600060038360ff16815481106103f1576103f0611c1f565b5b90600052602060002090600402019050818160030160006101000a81548160ff021916908360ff160217905550505050565b61042b6112cf565b600060028360ff168154811061044457610443611c1f565b5b90600052602060002090600402019050818160030160006101000a81548160ff021916908360ff160217905550505050565b600060028260ff168154811061048f5761048e611c1f565b5b9060005260206000209060040201905080600301600181819054906101000a900461ffff16809291906104c190611c7d565b91906101000a81548161ffff021916908361ffff160217905550505050565b600381815481106104f057600080fd5b906000526020600020906004020160009150905080600001805461051390611cd6565b80601f016020809104026020016040519081016040528092919081815260200182805461053f90611cd6565b801561058c5780601f106105615761010080835404028352916020019161058c565b820191906000526020600020905b81548152906001019060200180831161056f57829003601f168201915b5050505050908060010180546105a190611cd6565b80601f01602080910402602001604051908101604052809291908181526020018280546105cd90611cd6565b801561061a5780601f106105ef5761010080835404028352916020019161061a565b820191906000526020600020905b8154815290600101906020018083116105fd57829003601f168201915b50505050509080600201805461062f90611cd6565b80601f016020809104026020016040519081016040528092919081815260200182805461065b90611cd6565b80156106a85780601f1061067d576101008083540402835291602001916106a8565b820191906000526020600020905b81548152906001019060200180831161068b57829003601f168201915b5050505050908060030160009054906101000a900460ff16908060030160019054906101000a900461ffff16905085565b6000610714600160009054906101000a90046fffffffffffffffffffffffffffffffff166fffffffffffffffffffffffffffffffff16611356565b9050806040516020016107279190611d69565b604051602081830303815290604052905060026040518060a00160405280838152602001858152602001848152602001600060ff168152602001600061ffff16815250908060018154018082558091505060019003906000526020600020906004020160009091909190915060008201518160000190816107a89190611f3b565b5060208201518160010190816107be9190611f3b565b5060408201518160020190816107d49190611f3b565b5060608201518160030160006101000a81548160ff021916908360ff16021790555060808201518160030160016101000a81548161ffff021916908361ffff16021790555050508260046000600160009054906101000a90046fffffffffffffffffffffffffffffffff166fffffffffffffffffffffffffffffffff166fffffffffffffffffffffffffffffffff168152602001908152602001600020908161087d9190611f3b565b506001600081819054906101000a90046fffffffffffffffffffffffffffffffff16809291906108ac9061200d565b91906101000a8154816fffffffffffffffffffffffffffffffff02191690836fffffffffffffffffffffffffffffffff16021790555050505050565b6108f06112cf565b600360016003805490506109049190612045565b8154811061091557610914611c1f565b5b906000526020600020906004020160038260ff168154811061093a57610939611c1f565b5b90600052602060002090600402016000820181600001908161095c919061208f565b5060018201816001019081610971919061208f565b5060028201816002019081610986919061208f565b506003820160009054906101000a900460ff168160030160006101000a81548160ff021916908360ff1602179055506003820160019054906101000a900461ffff168160030160016101000a81548161ffff021916908361ffff16021790555090505060038054806109fb576109fa612177565b5b600190038181906000526020600020906004020160008082016000610a209190611643565b600182016000610a309190611643565b600282016000610a409190611643565b6003820160006101000a81549060ff02191690556003820160016101000a81549061ffff02191690555050905550565b600160109054906101000a90046fffffffffffffffffffffffffffffffff1681565b610a9a6112cf565b610aa46000611424565b565b60028181548110610ab657600080fd5b9060005260206000209060040201600091509050806000018054610ad990611cd6565b80601f0160208091040260200160405190810160405280929190818152602001828054610b0590611cd6565b8015610b525780601f10610b2757610100808354040283529160200191610b52565b820191906000526020600020905b815481529060010190602001808311610b3557829003601f168201915b505050505090806001018054610b6790611cd6565b80601f0160208091040260200160405190810160405280929190818152602001828054610b9390611cd6565b8015610be05780601f10610bb557610100808354040283529160200191610be0565b820191906000526020600020905b815481529060010190602001808311610bc357829003601f168201915b505050505090806002018054610bf590611cd6565b80601f0160208091040260200160405190810160405280929190818152602001828054610c2190611cd6565b8015610c6e5780601f10610c4357610100808354040283529160200191610c6e565b820191906000526020600020905b815481529060010190602001808311610c5157829003601f168201915b5050505050908060030160009054906101000a900460ff16908060030160019054906101000a900461ffff16905085565b610ca76112cf565b60026001600280549050610cbb9190612045565b81548110610ccc57610ccb611c1f565b5b906000526020600020906004020160028260ff1681548110610cf157610cf0611c1f565b5b906000526020600020906004020160008201816000019081610d13919061208f565b5060018201816001019081610d28919061208f565b5060028201816002019081610d3d919061208f565b506003820160009054906101000a900460ff168160030160006101000a81548160ff021916908360ff1602179055506003820160019054906101000a900461ffff168160030160016101000a81548161ffff021916908361ffff1602179055509050506002805480610db257610db1612177565b5b600190038181906000526020600020906004020160008082016000610dd79190611643565b600182016000610de79190611643565b600282016000610df79190611643565b6003820160006101000a81549060ff02191690556003820160016101000a81549061ffff02191690555050905550565b6000610e62600160109054906101000a90046fffffffffffffffffffffffffffffffff166fffffffffffffffffffffffffffffffff16611356565b905080604051602001610e7591906121cc565b604051602081830303815290604052905060036040518060a00160405280838152602001858152602001848152602001600060ff168152602001600061ffff1681525090806001815401808255809150506001900390600052602060002090600402016000909190919091506000820151816000019081610ef69190611f3b565b506020820151816001019081610f0c9190611f3b565b506040820151816002019081610f229190611f3b565b5060608201518160030160006101000a81548160ff021916908360ff16021790555060808201518160030160016101000a81548161ffff021916908361ffff16021790555050508260066000600160109054906101000a90046fffffffffffffffffffffffffffffffff166fffffffffffffffffffffffffffffffff166fffffffffffffffffffffffffffffffff1681526020019081526020016000209081610fcb9190611f3b565b506001601081819054906101000a90046fffffffffffffffffffffffffffffffff1680929190610ffa9061200d565b91906101000a8154816fffffffffffffffffffffffffffffffff02191690836fffffffffffffffffffffffffffffffff16021790555050505050565b60008060009054906101000a900473ffffffffffffffffffffffffffffffffffffffff16905090565b600060038260ff168154811061107857611077611c1f565b5b9060005260206000209060040201905080600301600181819054906101000a900461ffff16809291906110aa90611c7d565b91906101000a81548161ffff021916908361ffff160217905550505050565b600460205280600052604060002060009150905080546110e890611cd6565b80601f016020809104026020016040519081016040528092919081815260200182805461111490611cd6565b80156111615780601f1061113657610100808354040283529160200191611161565b820191906000526020600020905b81548152906001019060200180831161114457829003601f168201915b505050505081565b60056020528060005260406000206000915054906101000a900460ff1681565b60076020528060005260406000206000915054906101000a900460ff1681565b6111b16112cf565b600073ffffffffffffffffffffffffffffffffffffffff168173ffffffffffffffffffffffffffffffffffffffff16036112235760006040517f1e4fbdf700000000000000000000000000000000000000000000000000000000815260040161121a9190611b15565b60405180910390fd5b61122c81611424565b50565b6006602052806000526040600020600091509050805461124e90611cd6565b80601f016020809104026020016040519081016040528092919081815260200182805461127a90611cd6565b80156112c75780601f1061129c576101008083540402835291602001916112c7565b820191906000526020600020905b8154815290600101906020018083116112aa57829003601f168201915b505050505081565b6112d76114e8565b73ffffffffffffffffffffffffffffffffffffffff166112f5611036565b73ffffffffffffffffffffffffffffffffffffffff1614611354576113186114e8565b6040517f118cdaa700000000000000000000000000000000000000000000000000000000815260040161134b9190611b15565b60405180910390fd5b565b606060006001611365846114f0565b01905060008167ffffffffffffffff81111561138457611383611931565b5b6040519080825280601f01601f1916602001820160405280156113b65781602001600182028036833780820191505090505b509050600082602001820190505b600115611419578080600190039150507f3031323334353637383961626364656600000000000000000000000000000000600a86061a8153600a858161140d5761140c6121f2565b5b049450600085036113c4575b819350505050919050565b60008060009054906101000a900473ffffffffffffffffffffffffffffffffffffffff169050816000806101000a81548173ffffffffffffffffffffffffffffffffffffffff021916908373ffffffffffffffffffffffffffffffffffffffff1602179055508173ffffffffffffffffffffffffffffffffffffffff168173ffffffffffffffffffffffffffffffffffffffff167f8be0079c531659141344cd1fd0a4f28419497f9722a3daafe3b4186f6b6457e060405160405180910390a35050565b600033905090565b600080600090507a184f03e93ff9f4daa797ed6e38ed64bf6a1f010000000000000000831061154e577a184f03e93ff9f4daa797ed6e38ed64bf6a1f0100000000000000008381611544576115436121f2565b5b0492506040810190505b6d04ee2d6d415b85acef8100000000831061158b576d04ee2d6d415b85acef81000000008381611581576115806121f2565b5b0492506020810190505b662386f26fc1000083106115ba57662386f26fc1000083816115b0576115af6121f2565b5b0492506010810190505b6305f5e10083106115e3576305f5e10083816115d9576115d86121f2565b5b0492506008810190505b61271083106116085761271083816115fe576115fd6121f2565b5b0492506004810190505b6064831061162b5760648381611621576116206121f2565b5b0492506002810190505b600a831061163a576001810190505b80915050919050565b50805461164f90611cd6565b6000825580601f106116615750611680565b601f01602090049060005260206000209081019061167f9190611683565b5b50565b5b8082111561169c576000816000905550600101611684565b5090565b60006fffffffffffffffffffffffffffffffff82169050919050565b6116c5816116a0565b82525050565b60006020820190506116e060008301846116bc565b92915050565b6000604051905090565b600080fd5b600080fd5b600060ff82169050919050565b611710816116fa565b811461171b57600080fd5b50565b60008135905061172d81611707565b92915050565b6000806040838503121561174a576117496116f0565b5b60006117588582860161171e565b92505060206117698582860161171e565b9150509250929050565b600060208284031215611789576117886116f0565b5b60006117978482850161171e565b91505092915050565b6000819050919050565b6117b3816117a0565b81146117be57600080fd5b50565b6000813590506117d0816117aa565b92915050565b6000602082840312156117ec576117eb6116f0565b5b60006117fa848285016117c1565b91505092915050565b600081519050919050565b600082825260208201905092915050565b60005b8381101561183d578082015181840152602081019050611822565b60008484015250505050565b6000601f19601f8301169050919050565b600061186582611803565b61186f818561180e565b935061187f81856020860161181f565b61188881611849565b840191505092915050565b61189c816116fa565b82525050565b600061ffff82169050919050565b6118b9816118a2565b82525050565b600060a08201905081810360008301526118d9818861185a565b905081810360208301526118ed818761185a565b90508181036040830152611901818661185a565b90506119106060830185611893565b61191d60808301846118b0565b9695505050505050565b600080fd5b600080fd5b7f4e487b7100000000000000000000000000000000000000000000000000000000600052604160045260246000fd5b61196982611849565b810181811067ffffffffffffffff8211171561198857611987611931565b5b80604052505050565b600061199b6116e6565b90506119a78282611960565b919050565b600067ffffffffffffffff8211156119c7576119c6611931565b5b6119d082611849565b9050602081019050919050565b82818337600083830152505050565b60006119ff6119fa846119ac565b611991565b905082815260208101848484011115611a1b57611a1a61192c565b5b611a268482856119dd565b509392505050565b600082601f830112611a4357611a42611927565b5b8135611a538482602086016119ec565b91505092915050565b60008060408385031215611a7357611a726116f0565b5b600083013567ffffffffffffffff811115611a9157611a906116f5565b5b611a9d85828601611a2e565b925050602083013567ffffffffffffffff811115611abe57611abd6116f5565b5b611aca85828601611a2e565b9150509250929050565b600073ffffffffffffffffffffffffffffffffffffffff82169050919050565b6000611aff82611ad4565b9050919050565b611b0f81611af4565b82525050565b6000602082019050611b2a6000830184611b06565b92915050565b611b39816116a0565b8114611b4457600080fd5b50565b600081359050611b5681611b30565b92915050565b600060208284031215611b7257611b716116f0565b5b6000611b8084828501611b47565b91505092915050565b60006020820190508181036000830152611ba3818461185a565b905092915050565b6000602082019050611bc06000830184611893565b92915050565b611bcf81611af4565b8114611bda57600080fd5b50565b600081359050611bec81611bc6565b92915050565b600060208284031215611c0857611c076116f0565b5b6000611c1684828501611bdd565b91505092915050565b7f4e487b7100000000000000000000000000000000000000000000000000000000600052603260045260246000fd5b7f4e487b7100000000000000000000000000000000000000000000000000000000600052601160045260246000fd5b6000611c88826118a2565b915061ffff8203611c9c57611c9b611c4e565b5b600182019050919050565b7f4e487b7100000000000000000000000000000000000000000000000000000000600052602260045260246000fd5b60006002820490506001821680611cee57607f821691505b602082108103611d0157611d00611ca7565b5b50919050565b7f49522d0000000000000000000000000000000000000000000000000000000000815250565b600081905092915050565b6000611d4382611803565b611d4d8185611d2d565b9350611d5d81856020860161181f565b80840191505092915050565b6000611d7482611d07565b600382019150611d848284611d38565b915081905092915050565b60008190508160005260206000209050919050565b60006020601f8301049050919050565b600082821b905092915050565b600060088302611df17fffffffffffffffffffffffffffffffffffffffffffffffffffffffffffffffff82611db4565b611dfb8683611db4565b95508019841693508086168417925050509392505050565b6000819050919050565b6000611e38611e33611e2e846117a0565b611e13565b6117a0565b9050919050565b6000819050919050565b611e5283611e1d565b611e66611e5e82611e3f565b848454611dc1565b825550505050565b600090565b611e7b611e6e565b611e86818484611e49565b505050565b5b81811015611eaa57611e9f600082611e73565b600181019050611e8c565b5050565b601f821115611eef57611ec081611d8f565b611ec984611da4565b81016020851015611ed8578190505b611eec611ee485611da4565b830182611e8b565b50505b505050565b600082821c905092915050565b6000611f1260001984600802611ef4565b1980831691505092915050565b6000611f2b8383611f01565b9150826002028217905092915050565b611f4482611803565b67ffffffffffffffff811115611f5d57611f5c611931565b5b611f678254611cd6565b611f72828285611eae565b600060209050601f831160018114611fa55760008415611f93578287015190505b611f9d8582611f1f565b865550612005565b601f198416611fb386611d8f565b60005b82811015611fdb57848901518255600182019150602085019450602081019050611fb6565b86831015611ff85784890151611ff4601f891682611f01565b8355505b6001600288020188555050505b505050505050565b6000612018826116a0565b91506fffffffffffffffffffffffffffffffff820361203a57612039611c4e565b5b600182019050919050565b6000612050826117a0565b915061205b836117a0565b925082820390508181111561207357612072611c4e565b5b92915050565b60008154905061208881611cd6565b9050919050565b81810361209d575050612175565b6120a682612079565b67ffffffffffffffff8111156120bf576120be611931565b5b6120c98254611cd6565b6120d4828285611eae565b6000601f83116001811461210357600084156120f1578287015490505b6120fb8582611f1f565b86555061216e565b601f19841661211187611d8f565b965061211c86611d8f565b60005b828110156121445784890154825560018201915060018501945060208101905061211f565b86831015612161578489015461215d601f891682611f01565b8355505b6001600288020188555050505b5050505050505b565b7f4e487b7100000000000000000000000000000000000000000000000000000000600052603160045260246000fd5b7f50522d0000000000000000000000000000000000000000000000000000000000815250565b60006121d7826121a6565b6003820191506121e78284611d38565b915081905092915050565b7f4e487b7100000000000000000000000000000000000000000000000000000000600052601260045260246000fdfea2646970667358221220976579abe87fa58892a07897b2654e50574c7a4274c777804b1b7dafa4f9de4064736f6c63430008140033",
			"opcodes": "PUSH1 0x80 PUSH1 0x40 MSTORE CALLVALUE DUP1 ISZERO PUSH3 0x11 JUMPI PUSH1 0x0 DUP1 REVERT JUMPDEST POP CALLER PUSH1 0x0 PUSH20 0xFFFFFFFFFFFFFFFFFFFFFFFFFFFFFFFFFFFFFFFF AND DUP2 PUSH20 0xFFFFFFFFFFFFFFFFFFFFFFFFFFFFFFFFFFFFFFFF AND SUB PUSH3 0x88 JUMPI PUSH1 0x0 PUSH1 0x40 MLOAD PUSH32 0x1E4FBDF700000000000000000000000000000000000000000000000000000000 DUP2 MSTORE PUSH1 0x4 ADD PUSH3 0x7F SWAP2 SWAP1 PUSH3 0x21B JUMP JUMPDEST PUSH1 0x40 MLOAD DUP1 SWAP2 SUB SWAP1 REVERT JUMPDEST PUSH3 0x99 DUP2 PUSH3 0x112 PUSH1 0x20 SHL PUSH1 0x20 SHR JUMP JUMPDEST POP PUSH1 0x1 DUP1 PUSH1 0x0 PUSH2 0x100 EXP DUP2 SLOAD DUP2 PUSH16 0xFFFFFFFFFFFFFFFFFFFFFFFFFFFFFFFF MUL NOT AND SWAP1 DUP4 PUSH16 0xFFFFFFFFFFFFFFFFFFFFFFFFFFFFFFFF AND MUL OR SWAP1 SSTORE POP PUSH1 0x1 DUP1 PUSH1 0x10 PUSH2 0x100 EXP DUP2 SLOAD DUP2 PUSH16 0xFFFFFFFFFFFFFFFFFFFFFFFFFFFFFFFF MUL NOT AND SWAP1 DUP4 PUSH16 0xFFFFFFFFFFFFFFFFFFFFFFFFFFFFFFFF AND MUL OR SWAP1 SSTORE POP PUSH3 0x238 JUMP JUMPDEST PUSH1 0x0 DUP1 PUSH1 0x0 SWAP1 SLOAD SWAP1 PUSH2 0x100 EXP SWAP1 DIV PUSH20 0xFFFFFFFFFFFFFFFFFFFFFFFFFFFFFFFFFFFFFFFF AND SWAP1 POP DUP2 PUSH1 0x0 DUP1 PUSH2 0x100 EXP DUP2 SLOAD DUP2 PUSH20 0xFFFFFFFFFFFFFFFFFFFFFFFFFFFFFFFFFFFFFFFF MUL NOT AND SWAP1 DUP4 PUSH20 0xFFFFFFFFFFFFFFFFFFFFFFFFFFFFFFFFFFFFFFFF AND MUL OR SWAP1 SSTORE POP DUP2 PUSH20 0xFFFFFFFFFFFFFFFFFFFFFFFFFFFFFFFFFFFFFFFF AND DUP2 PUSH20 0xFFFFFFFFFFFFFFFFFFFFFFFFFFFFFFFFFFFFFFFF AND PUSH32 0x8BE0079C531659141344CD1FD0A4F28419497F9722A3DAAFE3B4186F6B6457E0 PUSH1 0x40 MLOAD PUSH1 0x40 MLOAD DUP1 SWAP2 SUB SWAP1 LOG3 POP POP JUMP JUMPDEST PUSH1 0x0 PUSH20 0xFFFFFFFFFFFFFFFFFFFFFFFFFFFFFFFFFFFFFFFF DUP3 AND SWAP1 POP SWAP2 SWAP1 POP JUMP JUMPDEST PUSH1 0x0 PUSH3 0x203 DUP3 PUSH3 0x1D6 JUMP JUMPDEST SWAP1 POP SWAP2 SWAP1 POP JUMP JUMPDEST PUSH3 0x215 DUP2 PUSH3 0x1F6 JUMP JUMPDEST DUP3 MSTORE POP POP JUMP JUMPDEST PUSH1 0x0 PUSH1 0x20 DUP3 ADD SWAP1 POP PUSH3 0x232 PUSH1 0x0 DUP4 ADD DUP5 PUSH3 0x20A JUMP JUMPDEST SWAP3 SWAP2 POP POP JUMP JUMPDEST PUSH2 0x2257 DUP1 PUSH3 0x248 PUSH1 0x0 CODECOPY PUSH1 0x0 RETURN INVALID PUSH1 0x80 PUSH1 0x40 MSTORE CALLVALUE DUP1 ISZERO PUSH2 0x10 JUMPI PUSH1 0x0 DUP1 REVERT JUMPDEST POP PUSH1 0x4 CALLDATASIZE LT PUSH2 0x121 JUMPI PUSH1 0x0 CALLDATALOAD PUSH1 0xE0 SHR DUP1 PUSH4 0x7D0487FF GT PUSH2 0xAD JUMPI DUP1 PUSH4 0x9B03C9CF GT PUSH2 0x71 JUMPI DUP1 PUSH4 0x9B03C9CF EQ PUSH2 0x2D2 JUMPI DUP1 PUSH4 0xAAD86FE7 EQ PUSH2 0x302 JUMPI DUP1 PUSH4 0xC09D926C EQ PUSH2 0x332 JUMPI DUP1 PUSH4 0xF2FDE38B EQ PUSH2 0x362 JUMPI DUP1 PUSH4 0xFEEE10B0 EQ PUSH2 0x37E JUMPI PUSH2 0x121 JUMP JUMPDEST DUP1 PUSH4 0x7D0487FF EQ PUSH2 0x22C JUMPI DUP1 PUSH4 0x7F18523F EQ PUSH2 0x260 JUMPI DUP1 PUSH4 0x87825AEF EQ PUSH2 0x27C JUMPI DUP1 PUSH4 0x8DA5CB5B EQ PUSH2 0x298 JUMPI DUP1 PUSH4 0x8E6A0FD4 EQ PUSH2 0x2B6 JUMPI PUSH2 0x121 JUMP JUMPDEST DUP1 PUSH4 0x45DA5158 GT PUSH2 0xF4 JUMPI DUP1 PUSH4 0x45DA5158 EQ PUSH2 0x198 JUMPI DUP1 PUSH4 0x5B1214AD EQ PUSH2 0x1CC JUMPI DUP1 PUSH4 0x5C046276 EQ PUSH2 0x1E8 JUMPI DUP1 PUSH4 0x6A28F828 EQ PUSH2 0x204 JUMPI DUP1 PUSH4 0x715018A6 EQ PUSH2 0x222 JUMPI PUSH2 0x121 JUMP JUMPDEST DUP1 PUSH4 0x2BD10F6B EQ PUSH2 0x126 JUMPI DUP1 PUSH4 0x348AA3BD EQ PUSH2 0x144 JUMPI DUP1 PUSH4 0x35A2B638 EQ PUSH2 0x160 JUMPI DUP1 PUSH4 0x3D72EFF2 EQ PUSH2 0x17C JUMPI JUMPDEST PUSH1 0x0 DUP1 REVERT JUMPDEST PUSH2 0x12E PUSH2 0x3AE JUMP JUMPDEST PUSH1 0x40 MLOAD PUSH2 0x13B SWAP2 SWAP1 PUSH2 0x16CB JUMP JUMPDEST PUSH1 0x40 MLOAD DUP1 SWAP2 SUB SWAP1 RETURN JUMPDEST PUSH2 0x15E PUSH1 0x4 DUP1 CALLDATASIZE SUB DUP2 ADD SWAP1 PUSH2 0x159 SWAP2 SWAP1 PUSH2 0x1733 JUMP JUMPDEST PUSH2 0x3D0 JUMP JUMPDEST STOP JUMPDEST PUSH2 0x17A PUSH1 0x4 DUP1 CALLDATASIZE SUB DUP2 ADD SWAP1 PUSH2 0x175 SWAP2 SWAP1 PUSH2 0x1733 JUMP JUMPDEST PUSH2 0x423 JUMP JUMPDEST STOP JUMPDEST PUSH2 0x196 PUSH1 0x4 DUP1 CALLDATASIZE SUB DUP2 ADD SWAP1 PUSH2 0x191 SWAP2 SWAP1 PUSH2 0x1773 JUMP JUMPDEST PUSH2 0x476 JUMP JUMPDEST STOP JUMPDEST PUSH2 0x1B2 PUSH1 0x4 DUP1 CALLDATASIZE SUB DUP2 ADD SWAP1 PUSH2 0x1AD SWAP2 SWAP1 PUSH2 0x17D6 JUMP JUMPDEST PUSH2 0x4E0 JUMP JUMPDEST PUSH1 0x40 MLOAD PUSH2 0x1C3 SWAP6 SWAP5 SWAP4 SWAP3 SWAP2 SWAP1 PUSH2 0x18BF JUMP JUMPDEST PUSH1 0x40 MLOAD DUP1 SWAP2 SUB SWAP1 RETURN JUMPDEST PUSH2 0x1E6 PUSH1 0x4 DUP1 CALLDATASIZE SUB DUP2 ADD SWAP1 PUSH2 0x1E1 SWAP2 SWAP1 PUSH2 0x1A5C JUMP JUMPDEST PUSH2 0x6D9 JUMP JUMPDEST STOP JUMPDEST PUSH2 0x202 PUSH1 0x4 DUP1 CALLDATASIZE SUB DUP2 ADD SWAP1 PUSH2 0x1FD SWAP2 SWAP1 PUSH2 0x1773 JUMP JUMPDEST PUSH2 0x8E8 JUMP JUMPDEST STOP JUMPDEST PUSH2 0x20C PUSH2 0xA70 JUMP JUMPDEST PUSH1 0x40 MLOAD PUSH2 0x219 SWAP2 SWAP1 PUSH2 0x16CB JUMP JUMPDEST PUSH1 0x40 MLOAD DUP1 SWAP2 SUB SWAP1 RETURN JUMPDEST PUSH2 0x22A PUSH2 0xA92 JUMP JUMPDEST STOP JUMPDEST PUSH2 0x246 PUSH1 0x4 DUP1 CALLDATASIZE SUB DUP2 ADD SWAP1 PUSH2 0x241 SWAP2 SWAP1 PUSH2 0x17D6 JUMP JUMPDEST PUSH2 0xAA6 JUMP JUMPDEST PUSH1 0x40 MLOAD PUSH2 0x257 SWAP6 SWAP5 SWAP4 SWAP3 SWAP2 SWAP1 PUSH2 0x18BF JUMP JUMPDEST PUSH1 0x40 MLOAD DUP1 SWAP2 SUB SWAP1 RETURN JUMPDEST PUSH2 0x27A PUSH1 0x4 DUP1 CALLDATASIZE SUB DUP2 ADD SWAP1 PUSH2 0x275 SWAP2 SWAP1 PUSH2 0x1773 JUMP JUMPDEST PUSH2 0xC9F JUMP JUMPDEST STOP JUMPDEST PUSH2 0x296 PUSH1 0x4 DUP1 CALLDATASIZE SUB DUP2 ADD SWAP1 PUSH2 0x291 SWAP2 SWAP1 PUSH2 0x1A5C JUMP JUMPDEST PUSH2 0xE27 JUMP JUMPDEST STOP JUMPDEST PUSH2 0x2A0 PUSH2 0x1036 JUMP JUMPDEST PUSH1 0x40 MLOAD PUSH2 0x2AD SWAP2 SWAP1 PUSH2 0x1B15 JUMP JUMPDEST PUSH1 0x40 MLOAD DUP1 SWAP2 SUB SWAP1 RETURN JUMPDEST PUSH2 0x2D0 PUSH1 0x4 DUP1 CALLDATASIZE SUB DUP2 ADD SWAP1 PUSH2 0x2CB SWAP2 SWAP1 PUSH2 0x1773 JUMP JUMPDEST PUSH2 0x105F JUMP JUMPDEST STOP JUMPDEST PUSH2 0x2EC PUSH1 0x4 DUP1 CALLDATASIZE SUB DUP2 ADD SWAP1 PUSH2 0x2E7 SWAP2 SWAP1 PUSH2 0x1B5C JUMP JUMPDEST PUSH2 0x10C9 JUMP JUMPDEST PUSH1 0x40 MLOAD PUSH2 0x2F9 SWAP2 SWAP1 PUSH2 0x1B89 JUMP JUMPDEST PUSH1 0x40 MLOAD DUP1 SWAP2 SUB SWAP1 RETURN JUMPDEST PUSH2 0x31C PUSH1 0x4 DUP1 CALLDATASIZE SUB DUP2 ADD SWAP1 PUSH2 0x317 SWAP2 SWAP1 PUSH2 0x1B5C JUMP JUMPDEST PUSH2 0x1169 JUMP JUMPDEST PUSH1 0x40 MLOAD PUSH2 0x329 SWAP2 SWAP1 PUSH2 0x1BAB JUMP JUMPDEST PUSH1 0x40 MLOAD DUP1 SWAP2 SUB SWAP1 RETURN JUMPDEST PUSH2 0x34C PUSH1 0x4 DUP1 CALLDATASIZE SUB DUP2 ADD SWAP1 PUSH2 0x347 SWAP2 SWAP1 PUSH2 0x1B5C JUMP JUMPDEST PUSH2 0x1189 JUMP JUMPDEST PUSH1 0x40 MLOAD PUSH2 0x359 SWAP2 SWAP1 PUSH2 0x1BAB JUMP JUMPDEST PUSH1 0x40 MLOAD DUP1 SWAP2 SUB SWAP1 RETURN JUMPDEST PUSH2 0x37C PUSH1 0x4 DUP1 CALLDATASIZE SUB DUP2 ADD SWAP1 PUSH2 0x377 SWAP2 SWAP1 PUSH2 0x1BF2 JUMP JUMPDEST PUSH2 0x11A9 JUMP JUMPDEST STOP JUMPDEST PUSH2 0x398 PUSH1 0x4 DUP1 CALLDATASIZE SUB DUP2 ADD SWAP1 PUSH2 0x393 SWAP2 SWAP1 PUSH2 0x1B5C JUMP JUMPDEST PUSH2 0x122F JUMP JUMPDEST PUSH1 0x40 MLOAD PUSH2 0x3A5 SWAP2 SWAP1 PUSH2 0x1B89 JUMP JUMPDEST PUSH1 0x40 MLOAD DUP1 SWAP2 SUB SWAP1 RETURN JUMPDEST PUSH1 0x1 PUSH1 0x0 SWAP1 SLOAD SWAP1 PUSH2 0x100 EXP SWAP1 DIV PUSH16 0xFFFFFFFFFFFFFFFFFFFFFFFFFFFFFFFF AND DUP2 JUMP JUMPDEST PUSH2 0x3D8 PUSH2 0x12CF JUMP JUMPDEST PUSH1 0x0 PUSH1 0x3 DUP4 PUSH1 0xFF AND DUP2 SLOAD DUP2 LT PUSH2 0x3F1 JUMPI PUSH2 0x3F0 PUSH2 0x1C1F JUMP JUMPDEST JUMPDEST SWAP1 PUSH1 0x0 MSTORE PUSH1 0x20 PUSH1 0x0 KECCAK256 SWAP1 PUSH1 0x4 MUL ADD SWAP1 POP DUP2 DUP2 PUSH1 0x3 ADD PUSH1 0x0 PUSH2 0x100 EXP DUP2 SLOAD DUP2 PUSH1 0xFF MUL NOT AND SWAP1 DUP4 PUSH1 0xFF AND MUL OR SWAP1 SSTORE POP POP POP POP JUMP JUMPDEST PUSH2 0x42B PUSH2 0x12CF JUMP JUMPDEST PUSH1 0x0 PUSH1 0x2 DUP4 PUSH1 0xFF AND DUP2 SLOAD DUP2 LT PUSH2 0x444 JUMPI PUSH2 0x443 PUSH2 0x1C1F JUMP JUMPDEST JUMPDEST SWAP1 PUSH1 0x0 MSTORE PUSH1 0x20 PUSH1 0x0 KECCAK256 SWAP1 PUSH1 0x4 MUL ADD SWAP1 POP DUP2 DUP2 PUSH1 0x3 ADD PUSH1 0x0 PUSH2 0x100 EXP DUP2 SLOAD DUP2 PUSH1 0xFF MUL NOT AND SWAP1 DUP4 PUSH1 0xFF AND MUL OR SWAP1 SSTORE POP POP POP POP JUMP JUMPDEST PUSH1 0x0 PUSH1 0x2 DUP3 PUSH1 0xFF AND DUP2 SLOAD DUP2 LT PUSH2 0x48F JUMPI PUSH2 0x48E PUSH2 0x1C1F JUMP JUMPDEST JUMPDEST SWAP1 PUSH1 0x0 MSTORE PUSH1 0x20 PUSH1 0x0 KECCAK256 SWAP1 PUSH1 0x4 MUL ADD SWAP1 POP DUP1 PUSH1 0x3 ADD PUSH1 0x1 DUP2 DUP2 SWAP1 SLOAD SWAP1 PUSH2 0x100 EXP SWAP1 DIV PUSH2 0xFFFF AND DUP1 SWAP3 SWAP2 SWAP1 PUSH2 0x4C1 SWAP1 PUSH2 0x1C7D JUMP JUMPDEST SWAP2 SWAP1 PUSH2 0x100 EXP DUP2 SLOAD DUP2 PUSH2 0xFFFF MUL NOT AND SWAP1 DUP4 PUSH2 0xFFFF AND MUL OR SWAP1 SSTORE POP POP POP POP JUMP JUMPDEST PUSH1 0x3 DUP2 DUP2 SLOAD DUP2 LT PUSH2 0x4F0 JUMPI PUSH1 0x0 DUP1 REVERT JUMPDEST SWAP1 PUSH1 0x0 MSTORE PUSH1 0x20 PUSH1 0x0 KECCAK256 SWAP1 PUSH1 0x4 MUL ADD PUSH1 0x0 SWAP2 POP SWAP1 POP DUP1 PUSH1 0x0 ADD DUP1 SLOAD PUSH2 0x513 SWAP1 PUSH2 0x1CD6 JUMP JUMPDEST DUP1 PUSH1 0x1F ADD PUSH1 0x20 DUP1 SWAP2 DIV MUL PUSH1 0x20 ADD PUSH1 0x40 MLOAD SWAP1 DUP2 ADD PUSH1 0x40 MSTORE DUP1 SWAP3 SWAP2 SWAP1 DUP2 DUP2 MSTORE PUSH1 0x20 ADD DUP3 DUP1 SLOAD PUSH2 0x53F SWAP1 PUSH2 0x1CD6 JUMP JUMPDEST DUP1 ISZERO PUSH2 0x58C JUMPI DUP1 PUSH1 0x1F LT PUSH2 0x561 JUMPI PUSH2 0x100 DUP1 DUP4 SLOAD DIV MUL DUP4 MSTORE SWAP2 PUSH1 0x20 ADD SWAP2 PUSH2 0x58C JUMP JUMPDEST DUP3 ADD SWAP2 SWAP1 PUSH1 0x0 MSTORE PUSH1 0x20 PUSH1 0x0 KECCAK256 SWAP1 JUMPDEST DUP2 SLOAD DUP2 MSTORE SWAP1 PUSH1 0x1 ADD SWAP1 PUSH1 0x20 ADD DUP1 DUP4 GT PUSH2 0x56F JUMPI DUP3 SWAP1 SUB PUSH1 0x1F AND DUP3 ADD SWAP2 JUMPDEST POP POP POP POP POP SWAP1 DUP1 PUSH1 0x1 ADD DUP1 SLOAD PUSH2 0x5A1 SWAP1 PUSH2 0x1CD6 JUMP JUMPDEST DUP1 PUSH1 0x1F ADD PUSH1 0x20 DUP1 SWAP2 DIV MUL PUSH1 0x20 ADD PUSH1 0x40 MLOAD SWAP1 DUP2 ADD PUSH1 0x40 MSTORE DUP1 SWAP3 SWAP2 SWAP1 DUP2 DUP2 MSTORE PUSH1 0x20 ADD DUP3 DUP1 SLOAD PUSH2 0x5CD SWAP1 PUSH2 0x1CD6 JUMP JUMPDEST DUP1 ISZERO PUSH2 0x61A JUMPI DUP1 PUSH1 0x1F LT PUSH2 0x5EF JUMPI PUSH2 0x100 DUP1 DUP4 SLOAD DIV MUL DUP4 MSTORE SWAP2 PUSH1 0x20 ADD SWAP2 PUSH2 0x61A JUMP JUMPDEST DUP3 ADD SWAP2 SWAP1 PUSH1 0x0 MSTORE PUSH1 0x20 PUSH1 0x0 KECCAK256 SWAP1 JUMPDEST DUP2 SLOAD DUP2 MSTORE SWAP1 PUSH1 0x1 ADD SWAP1 PUSH1 0x20 ADD DUP1 DUP4 GT PUSH2 0x5FD JUMPI DUP3 SWAP1 SUB PUSH1 0x1F AND DUP3 ADD SWAP2 JUMPDEST POP POP POP POP POP SWAP1 DUP1 PUSH1 0x2 ADD DUP1 SLOAD PUSH2 0x62F SWAP1 PUSH2 0x1CD6 JUMP JUMPDEST DUP1 PUSH1 0x1F ADD PUSH1 0x20 DUP1 SWAP2 DIV MUL PUSH1 0x20 ADD PUSH1 0x40 MLOAD SWAP1 DUP2 ADD PUSH1 0x40 MSTORE DUP1 SWAP3 SWAP2 SWAP1 DUP2 DUP2 MSTORE PUSH1 0x20 ADD DUP3 DUP1 SLOAD PUSH2 0x65B SWAP1 PUSH2 0x1CD6 JUMP JUMPDEST DUP1 ISZERO PUSH2 0x6A8 JUMPI DUP1 PUSH1 0x1F LT PUSH2 0x67D JUMPI PUSH2 0x100 DUP1 DUP4 SLOAD DIV MUL DUP4 MSTORE SWAP2 PUSH1 0x20 ADD SWAP2 PUSH2 0x6A8 JUMP JUMPDEST DUP3 ADD SWAP2 SWAP1 PUSH1 0x0 MSTORE PUSH1 0x20 PUSH1 0x0 KECCAK256 SWAP1 JUMPDEST DUP2 SLOAD DUP2 MSTORE SWAP1 PUSH1 0x1 ADD SWAP1 PUSH1 0x20 ADD DUP1 DUP4 GT PUSH2 0x68B JUMPI DUP3 SWAP1 SUB PUSH1 0x1F AND DUP3 ADD SWAP2 JUMPDEST POP POP POP POP POP SWAP1 DUP1 PUSH1 0x3 ADD PUSH1 0x0 SWAP1 SLOAD SWAP1 PUSH2 0x100 EXP SWAP1 DIV PUSH1 0xFF AND SWAP1 DUP1 PUSH1 0x3 ADD PUSH1 0x1 SWAP1 SLOAD SWAP1 PUSH2 0x100 EXP SWAP1 DIV PUSH2 0xFFFF AND SWAP1 POP DUP6 JUMP JUMPDEST PUSH1 0x0 PUSH2 0x714 PUSH1 0x1 PUSH1 0x0 SWAP1 SLOAD SWAP1 PUSH2 0x100 EXP SWAP1 DIV PUSH16 0xFFFFFFFFFFFFFFFFFFFFFFFFFFFFFFFF AND PUSH16 0xFFFFFFFFFFFFFFFFFFFFFFFFFFFFFFFF AND PUSH2 0x1356 JUMP JUMPDEST SWAP1 POP DUP1 PUSH1 0x40 MLOAD PUSH1 0x20 ADD PUSH2 0x727 SWAP2 SWAP1 PUSH2 0x1D69 JUMP JUMPDEST PUSH1 0x40 MLOAD PUSH1 0x20 DUP2 DUP4 SUB SUB DUP2 MSTORE SWAP1 PUSH1 0x40 MSTORE SWAP1 POP PUSH1 0x2 PUSH1 0x40 MLOAD DUP1 PUSH1 0xA0 ADD PUSH1 0x40 MSTORE DUP1 DUP4 DUP2 MSTORE PUSH1 0x20 ADD DUP6 DUP2 MSTORE PUSH1 0x20 ADD DUP5 DUP2 MSTORE PUSH1 0x20 ADD PUSH1 0x0 PUSH1 0xFF AND DUP2 MSTORE PUSH1 0x20 ADD PUSH1 0x0 PUSH2 0xFFFF AND DUP2 MSTORE POP SWAP1 DUP1 PUSH1 0x1 DUP2 SLOAD ADD DUP1 DUP3 SSTORE DUP1 SWAP2 POP POP PUSH1 0x1 SWAP1 SUB SWAP1 PUSH1 0x0 MSTORE PUSH1 0x20 PUSH1 0x0 KECCAK256 SWAP1 PUSH1 0x4 MUL ADD PUSH1 0x0 SWAP1 SWAP2 SWAP1 SWAP2 SWAP1 SWAP2 POP PUSH1 0x0 DUP3 ADD MLOAD DUP2 PUSH1 0x0 ADD SWAP1 DUP2 PUSH2 0x7A8 SWAP2 SWAP1 PUSH2 0x1F3B JUMP JUMPDEST POP PUSH1 0x20 DUP3 ADD MLOAD DUP2 PUSH1 0x1 ADD SWAP1 DUP2 PUSH2 0x7BE SWAP2 SWAP1 PUSH2 0x1F3B JUMP JUMPDEST POP PUSH1 0x40 DUP3 ADD MLOAD DUP2 PUSH1 0x2 ADD SWAP1 DUP2 PUSH2 0x7D4 SWAP2 SWAP1 PUSH2 0x1F3B JUMP JUMPDEST POP PUSH1 0x60 DUP3 ADD MLOAD DUP2 PUSH1 0x3 ADD PUSH1 0x0 PUSH2 0x100 EXP DUP2 SLOAD DUP2 PUSH1 0xFF MUL NOT AND SWAP1 DUP4 PUSH1 0xFF AND MUL OR SWAP1 SSTORE POP PUSH1 0x80 DUP3 ADD MLOAD DUP2 PUSH1 0x3 ADD PUSH1 0x1 PUSH2 0x100 EXP DUP2 SLOAD DUP2 PUSH2 0xFFFF MUL NOT AND SWAP1 DUP4 PUSH2 0xFFFF AND MUL OR SWAP1 SSTORE POP POP POP DUP3 PUSH1 0x4 PUSH1 0x0 PUSH1 0x1 PUSH1 0x0 SWAP1 SLOAD SWAP1 PUSH2 0x100 EXP SWAP1 DIV PUSH16 0xFFFFFFFFFFFFFFFFFFFFFFFFFFFFFFFF AND PUSH16 0xFFFFFFFFFFFFFFFFFFFFFFFFFFFFFFFF AND PUSH16 0xFFFFFFFFFFFFFFFFFFFFFFFFFFFFFFFF AND DUP2 MSTORE PUSH1 0x20 ADD SWAP1 DUP2 MSTORE PUSH1 0x20 ADD PUSH1 0x0 KECCAK256 SWAP1 DUP2 PUSH2 0x87D SWAP2 SWAP1 PUSH2 0x1F3B JUMP JUMPDEST POP PUSH1 0x1 PUSH1 0x0 DUP2 DUP2 SWAP1 SLOAD SWAP1 PUSH2 0x100 EXP SWAP1 DIV PUSH16 0xFFFFFFFFFFFFFFFFFFFFFFFFFFFFFFFF AND DUP1 SWAP3 SWAP2 SWAP1 PUSH2 0x8AC SWAP1 PUSH2 0x200D JUMP JUMPDEST SWAP2 SWAP1 PUSH2 0x100 EXP DUP2 SLOAD DUP2 PUSH16 0xFFFFFFFFFFFFFFFFFFFFFFFFFFFFFFFF MUL NOT AND SWAP1 DUP4 PUSH16 0xFFFFFFFFFFFFFFFFFFFFFFFFFFFFFFFF AND MUL OR SWAP1 SSTORE POP POP POP POP POP JUMP JUMPDEST PUSH2 0x8F0 PUSH2 0x12CF JUMP JUMPDEST PUSH1 0x3 PUSH1 0x1 PUSH1 0x3 DUP1 SLOAD SWAP1 POP PUSH2 0x904 SWAP2 SWAP1 PUSH2 0x2045 JUMP JUMPDEST DUP2 SLOAD DUP2 LT PUSH2 0x915 JUMPI PUSH2 0x914 PUSH2 0x1C1F JUMP JUMPDEST JUMPDEST SWAP1 PUSH1 0x0 MSTORE PUSH1 0x20 PUSH1 0x0 KECCAK256 SWAP1 PUSH1 0x4 MUL ADD PUSH1 0x3 DUP3 PUSH1 0xFF AND DUP2 SLOAD DUP2 LT PUSH2 0x93A JUMPI PUSH2 0x939 PUSH2 0x1C1F JUMP JUMPDEST JUMPDEST SWAP1 PUSH1 0x0 MSTORE PUSH1 0x20 PUSH1 0x0 KECCAK256 SWAP1 PUSH1 0x4 MUL ADD PUSH1 0x0 DUP3 ADD DUP2 PUSH1 0x0 ADD SWAP1 DUP2 PUSH2 0x95C SWAP2 SWAP1 PUSH2 0x208F JUMP JUMPDEST POP PUSH1 0x1 DUP3 ADD DUP2 PUSH1 0x1 ADD SWAP1 DUP2 PUSH2 0x971 SWAP2 SWAP1 PUSH2 0x208F JUMP JUMPDEST POP PUSH1 0x2 DUP3 ADD DUP2 PUSH1 0x2 ADD SWAP1 DUP2 PUSH2 0x986 SWAP2 SWAP1 PUSH2 0x208F JUMP JUMPDEST POP PUSH1 0x3 DUP3 ADD PUSH1 0x0 SWAP1 SLOAD SWAP1 PUSH2 0x100 EXP SWAP1 DIV PUSH1 0xFF AND DUP2 PUSH1 0x3 ADD PUSH1 0x0 PUSH2 0x100 EXP DUP2 SLOAD DUP2 PUSH1 0xFF MUL NOT AND SWAP1 DUP4 PUSH1 0xFF AND MUL OR SWAP1 SSTORE POP PUSH1 0x3 DUP3 ADD PUSH1 0x1 SWAP1 SLOAD SWAP1 PUSH2 0x100 EXP SWAP1 DIV PUSH2 0xFFFF AND DUP2 PUSH1 0x3 ADD PUSH1 0x1 PUSH2 0x100 EXP DUP2 SLOAD DUP2 PUSH2 0xFFFF MUL NOT AND SWAP1 DUP4 PUSH2 0xFFFF AND MUL OR SWAP1 SSTORE POP SWAP1 POP POP PUSH1 0x3 DUP1 SLOAD DUP1 PUSH2 0x9FB JUMPI PUSH2 0x9FA PUSH2 0x2177 JUMP JUMPDEST JUMPDEST PUSH1 0x1 SWAP1 SUB DUP2 DUP2 SWAP1 PUSH1 0x0 MSTORE PUSH1 0x20 PUSH1 0x0 KECCAK256 SWAP1 PUSH1 0x4 MUL ADD PUSH1 0x0 DUP1 DUP3 ADD PUSH1 0x0 PUSH2 0xA20 SWAP2 SWAP1 PUSH2 0x1643 JUMP JUMPDEST PUSH1 0x1 DUP3 ADD PUSH1 0x0 PUSH2 0xA30 SWAP2 SWAP1 PUSH2 0x1643 JUMP JUMPDEST PUSH1 0x2 DUP3 ADD PUSH1 0x0 PUSH2 0xA40 SWAP2 SWAP1 PUSH2 0x1643 JUMP JUMPDEST PUSH1 0x3 DUP3 ADD PUSH1 0x0 PUSH2 0x100 EXP DUP2 SLOAD SWAP1 PUSH1 0xFF MUL NOT AND SWAP1 SSTORE PUSH1 0x3 DUP3 ADD PUSH1 0x1 PUSH2 0x100 EXP DUP2 SLOAD SWAP1 PUSH2 0xFFFF MUL NOT AND SWAP1 SSTORE POP POP SWAP1 SSTORE POP JUMP JUMPDEST PUSH1 0x1 PUSH1 0x10 SWAP1 SLOAD SWAP1 PUSH2 0x100 EXP SWAP1 DIV PUSH16 0xFFFFFFFFFFFFFFFFFFFFFFFFFFFFFFFF AND DUP2 JUMP JUMPDEST PUSH2 0xA9A PUSH2 0x12CF JUMP JUMPDEST PUSH2 0xAA4 PUSH1 0x0 PUSH2 0x1424 JUMP JUMPDEST JUMP JUMPDEST PUSH1 0x2 DUP2 DUP2 SLOAD DUP2 LT PUSH2 0xAB6 JUMPI PUSH1 0x0 DUP1 REVERT JUMPDEST SWAP1 PUSH1 0x0 MSTORE PUSH1 0x20 PUSH1 0x0 KECCAK256 SWAP1 PUSH1 0x4 MUL ADD PUSH1 0x0 SWAP2 POP SWAP1 POP DUP1 PUSH1 0x0 ADD DUP1 SLOAD PUSH2 0xAD9 SWAP1 PUSH2 0x1CD6 JUMP JUMPDEST DUP1 PUSH1 0x1F ADD PUSH1 0x20 DUP1 SWAP2 DIV MUL PUSH1 0x20 ADD PUSH1 0x40 MLOAD SWAP1 DUP2 ADD PUSH1 0x40 MSTORE DUP1 SWAP3 SWAP2 SWAP1 DUP2 DUP2 MSTORE PUSH1 0x20 ADD DUP3 DUP1 SLOAD PUSH2 0xB05 SWAP1 PUSH2 0x1CD6 JUMP JUMPDEST DUP1 ISZERO PUSH2 0xB52 JUMPI DUP1 PUSH1 0x1F LT PUSH2 0xB27 JUMPI PUSH2 0x100 DUP1 DUP4 SLOAD DIV MUL DUP4 MSTORE SWAP2 PUSH1 0x20 ADD SWAP2 PUSH2 0xB52 JUMP JUMPDEST DUP3 ADD SWAP2 SWAP1 PUSH1 0x0 MSTORE PUSH1 0x20 PUSH1 0x0 KECCAK256 SWAP1 JUMPDEST DUP2 SLOAD DUP2 MSTORE SWAP1 PUSH1 0x1 ADD SWAP1 PUSH1 0x20 ADD DUP1 DUP4 GT PUSH2 0xB35 JUMPI DUP3 SWAP1 SUB PUSH1 0x1F AND DUP3 ADD SWAP2 JUMPDEST POP POP POP POP POP SWAP1 DUP1 PUSH1 0x1 ADD DUP1 SLOAD PUSH2 0xB67 SWAP1 PUSH2 0x1CD6 JUMP JUMPDEST DUP1 PUSH1 0x1F ADD PUSH1 0x20 DUP1 SWAP2 DIV MUL PUSH1 0x20 ADD PUSH1 0x40 MLOAD SWAP1 DUP2 ADD PUSH1 0x40 MSTORE DUP1 SWAP3 SWAP2 SWAP1 DUP2 DUP2 MSTORE PUSH1 0x20 ADD DUP3 DUP1 SLOAD PUSH2 0xB93 SWAP1 PUSH2 0x1CD6 JUMP JUMPDEST DUP1 ISZERO PUSH2 0xBE0 JUMPI DUP1 PUSH1 0x1F LT PUSH2 0xBB5 JUMPI PUSH2 0x100 DUP1 DUP4 SLOAD DIV MUL DUP4 MSTORE SWAP2 PUSH1 0x20 ADD SWAP2 PUSH2 0xBE0 JUMP JUMPDEST DUP3 ADD SWAP2 SWAP1 PUSH1 0x0 MSTORE PUSH1 0x20 PUSH1 0x0 KECCAK256 SWAP1 JUMPDEST DUP2 SLOAD DUP2 MSTORE SWAP1 PUSH1 0x1 ADD SWAP1 PUSH1 0x20 ADD DUP1 DUP4 GT PUSH2 0xBC3 JUMPI DUP3 SWAP1 SUB PUSH1 0x1F AND DUP3 ADD SWAP2 JUMPDEST POP POP POP POP POP SWAP1 DUP1 PUSH1 0x2 ADD DUP1 SLOAD PUSH2 0xBF5 SWAP1 PUSH2 0x1CD6 JUMP JUMPDEST DUP1 PUSH1 0x1F ADD PUSH1 0x20 DUP1 SWAP2 DIV MUL PUSH1 0x20 ADD PUSH1 0x40 MLOAD SWAP1 DUP2 ADD PUSH1 0x40 MSTORE DUP1 SWAP3 SWAP2 SWAP1 DUP2 DUP2 MSTORE PUSH1 0x20 ADD DUP3 DUP1 SLOAD PUSH2 0xC21 SWAP1 PUSH2 0x1CD6 JUMP JUMPDEST DUP1 ISZERO PUSH2 0xC6E JUMPI DUP1 PUSH1 0x1F LT PUSH2 0xC43 JUMPI PUSH2 0x100 DUP1 DUP4 SLOAD DIV MUL DUP4 MSTORE SWAP2 PUSH1 0x20 ADD SWAP2 PUSH2 0xC6E JUMP JUMPDEST DUP3 ADD SWAP2 SWAP1 PUSH1 0x0 MSTORE PUSH1 0x20 PUSH1 0x0 KECCAK256 SWAP1 JUMPDEST DUP2 SLOAD DUP2 MSTORE SWAP1 PUSH1 0x1 ADD SWAP1 PUSH1 0x20 ADD DUP1 DUP4 GT PUSH2 0xC51 JUMPI DUP3 SWAP1 SUB PUSH1 0x1F AND DUP3 ADD SWAP2 JUMPDEST POP POP POP POP POP SWAP1 DUP1 PUSH1 0x3 ADD PUSH1 0x0 SWAP1 SLOAD SWAP1 PUSH2 0x100 EXP SWAP1 DIV PUSH1 0xFF AND SWAP1 DUP1 PUSH1 0x3 ADD PUSH1 0x1 SWAP1 SLOAD SWAP1 PUSH2 0x100 EXP SWAP1 DIV PUSH2 0xFFFF AND SWAP1 POP DUP6 JUMP JUMPDEST PUSH2 0xCA7 PUSH2 0x12CF JUMP JUMPDEST PUSH1 0x2 PUSH1 0x1 PUSH1 0x2 DUP1 SLOAD SWAP1 POP PUSH2 0xCBB SWAP2 SWAP1 PUSH2 0x2045 JUMP JUMPDEST DUP2 SLOAD DUP2 LT PUSH2 0xCCC JUMPI PUSH2 0xCCB PUSH2 0x1C1F JUMP JUMPDEST JUMPDEST SWAP1 PUSH1 0x0 MSTORE PUSH1 0x20 PUSH1 0x0 KECCAK256 SWAP1 PUSH1 0x4 MUL ADD PUSH1 0x2 DUP3 PUSH1 0xFF AND DUP2 SLOAD DUP2 LT PUSH2 0xCF1 JUMPI PUSH2 0xCF0 PUSH2 0x1C1F JUMP JUMPDEST JUMPDEST SWAP1 PUSH1 0x0 MSTORE PUSH1 0x20 PUSH1 0x0 KECCAK256 SWAP1 PUSH1 0x4 MUL ADD PUSH1 0x0 DUP3 ADD DUP2 PUSH1 0x0 ADD SWAP1 DUP2 PUSH2 0xD13 SWAP2 SWAP1 PUSH2 0x208F JUMP JUMPDEST POP PUSH1 0x1 DUP3 ADD DUP2 PUSH1 0x1 ADD SWAP1 DUP2 PUSH2 0xD28 SWAP2 SWAP1 PUSH2 0x208F JUMP JUMPDEST POP PUSH1 0x2 DUP3 ADD DUP2 PUSH1 0x2 ADD SWAP1 DUP2 PUSH2 0xD3D SWAP2 SWAP1 PUSH2 0x208F JUMP JUMPDEST POP PUSH1 0x3 DUP3 ADD PUSH1 0x0 SWAP1 SLOAD SWAP1 PUSH2 0x100 EXP SWAP1 DIV PUSH1 0xFF AND DUP2 PUSH1 0x3 ADD PUSH1 0x0 PUSH2 0x100 EXP DUP2 SLOAD DUP2 PUSH1 0xFF MUL NOT AND SWAP1 DUP4 PUSH1 0xFF AND MUL OR SWAP1 SSTORE POP PUSH1 0x3 DUP3 ADD PUSH1 0x1 SWAP1 SLOAD SWAP1 PUSH2 0x100 EXP SWAP1 DIV PUSH2 0xFFFF AND DUP2 PUSH1 0x3 ADD PUSH1 0x1 PUSH2 0x100 EXP DUP2 SLOAD DUP2 PUSH2 0xFFFF MUL NOT AND SWAP1 DUP4 PUSH2 0xFFFF AND MUL OR SWAP1 SSTORE POP SWAP1 POP POP PUSH1 0x2 DUP1 SLOAD DUP1 PUSH2 0xDB2 JUMPI PUSH2 0xDB1 PUSH2 0x2177 JUMP JUMPDEST JUMPDEST PUSH1 0x1 SWAP1 SUB DUP2 DUP2 SWAP1 PUSH1 0x0 MSTORE PUSH1 0x20 PUSH1 0x0 KECCAK256 SWAP1 PUSH1 0x4 MUL ADD PUSH1 0x0 DUP1 DUP3 ADD PUSH1 0x0 PUSH2 0xDD7 SWAP2 SWAP1 PUSH2 0x1643 JUMP JUMPDEST PUSH1 0x1 DUP3 ADD PUSH1 0x0 PUSH2 0xDE7 SWAP2 SWAP1 PUSH2 0x1643 JUMP JUMPDEST PUSH1 0x2 DUP3 ADD PUSH1 0x0 PUSH2 0xDF7 SWAP2 SWAP1 PUSH2 0x1643 JUMP JUMPDEST PUSH1 0x3 DUP3 ADD PUSH1 0x0 PUSH2 0x100 EXP DUP2 SLOAD SWAP1 PUSH1 0xFF MUL NOT AND SWAP1 SSTORE PUSH1 0x3 DUP3 ADD PUSH1 0x1 PUSH2 0x100 EXP DUP2 SLOAD SWAP1 PUSH2 0xFFFF MUL NOT AND SWAP1 SSTORE POP POP SWAP1 SSTORE POP JUMP JUMPDEST PUSH1 0x0 PUSH2 0xE62 PUSH1 0x1 PUSH1 0x10 SWAP1 SLOAD SWAP1 PUSH2 0x100 EXP SWAP1 DIV PUSH16 0xFFFFFFFFFFFFFFFFFFFFFFFFFFFFFFFF AND PUSH16 0xFFFFFFFFFFFFFFFFFFFFFFFFFFFFFFFF AND PUSH2 0x1356 JUMP JUMPDEST SWAP1 POP DUP1 PUSH1 0x40 MLOAD PUSH1 0x20 ADD PUSH2 0xE75 SWAP2 SWAP1 PUSH2 0x21CC JUMP JUMPDEST PUSH1 0x40 MLOAD PUSH1 0x20 DUP2 DUP4 SUB SUB DUP2 MSTORE SWAP1 PUSH1 0x40 MSTORE SWAP1 POP PUSH1 0x3 PUSH1 0x40 MLOAD DUP1 PUSH1 0xA0 ADD PUSH1 0x40 MSTORE DUP1 DUP4 DUP2 MSTORE PUSH1 0x20 ADD DUP6 DUP2 MSTORE PUSH1 0x20 ADD DUP5 DUP2 MSTORE PUSH1 0x20 ADD PUSH1 0x0 PUSH1 0xFF AND DUP2 MSTORE PUSH1 0x20 ADD PUSH1 0x0 PUSH2 0xFFFF AND DUP2 MSTORE POP SWAP1 DUP1 PUSH1 0x1 DUP2 SLOAD ADD DUP1 DUP3 SSTORE DUP1 SWAP2 POP POP PUSH1 0x1 SWAP1 SUB SWAP1 PUSH1 0x0 MSTORE PUSH1 0x20 PUSH1 0x0 KECCAK256 SWAP1 PUSH1 0x4 MUL ADD PUSH1 0x0 SWAP1 SWAP2 SWAP1 SWAP2 SWAP1 SWAP2 POP PUSH1 0x0 DUP3 ADD MLOAD DUP2 PUSH1 0x0 ADD SWAP1 DUP2 PUSH2 0xEF6 SWAP2 SWAP1 PUSH2 0x1F3B JUMP JUMPDEST POP PUSH1 0x20 DUP3 ADD MLOAD DUP2 PUSH1 0x1 ADD SWAP1 DUP2 PUSH2 0xF0C SWAP2 SWAP1 PUSH2 0x1F3B JUMP JUMPDEST POP PUSH1 0x40 DUP3 ADD MLOAD DUP2 PUSH1 0x2 ADD SWAP1 DUP2 PUSH2 0xF22 SWAP2 SWAP1 PUSH2 0x1F3B JUMP JUMPDEST POP PUSH1 0x60 DUP3 ADD MLOAD DUP2 PUSH1 0x3 ADD PUSH1 0x0 PUSH2 0x100 EXP DUP2 SLOAD DUP2 PUSH1 0xFF MUL NOT AND SWAP1 DUP4 PUSH1 0xFF AND MUL OR SWAP1 SSTORE POP PUSH1 0x80 DUP3 ADD MLOAD DUP2 PUSH1 0x3 ADD PUSH1 0x1 PUSH2 0x100 EXP DUP2 SLOAD DUP2 PUSH2 0xFFFF MUL NOT AND SWAP1 DUP4 PUSH2 0xFFFF AND MUL OR SWAP1 SSTORE POP POP POP DUP3 PUSH1 0x6 PUSH1 0x0 PUSH1 0x1 PUSH1 0x10 SWAP1 SLOAD SWAP1 PUSH2 0x100 EXP SWAP1 DIV PUSH16 0xFFFFFFFFFFFFFFFFFFFFFFFFFFFFFFFF AND PUSH16 0xFFFFFFFFFFFFFFFFFFFFFFFFFFFFFFFF AND PUSH16 0xFFFFFFFFFFFFFFFFFFFFFFFFFFFFFFFF AND DUP2 MSTORE PUSH1 0x20 ADD SWAP1 DUP2 MSTORE PUSH1 0x20 ADD PUSH1 0x0 KECCAK256 SWAP1 DUP2 PUSH2 0xFCB SWAP2 SWAP1 PUSH2 0x1F3B JUMP JUMPDEST POP PUSH1 0x1 PUSH1 0x10 DUP2 DUP2 SWAP1 SLOAD SWAP1 PUSH2 0x100 EXP SWAP1 DIV PUSH16 0xFFFFFFFFFFFFFFFFFFFFFFFFFFFFFFFF AND DUP1 SWAP3 SWAP2 SWAP1 PUSH2 0xFFA SWAP1 PUSH2 0x200D JUMP JUMPDEST SWAP2 SWAP1 PUSH2 0x100 EXP DUP2 SLOAD DUP2 PUSH16 0xFFFFFFFFFFFFFFFFFFFFFFFFFFFFFFFF MUL NOT AND SWAP1 DUP4 PUSH16 0xFFFFFFFFFFFFFFFFFFFFFFFFFFFFFFFF AND MUL OR SWAP1 SSTORE POP POP POP POP POP JUMP JUMPDEST PUSH1 0x0 DUP1 PUSH1 0x0 SWAP1 SLOAD SWAP1 PUSH2 0x100 EXP SWAP1 DIV PUSH20 0xFFFFFFFFFFFFFFFFFFFFFFFFFFFFFFFFFFFFFFFF AND SWAP1 POP SWAP1 JUMP JUMPDEST PUSH1 0x0 PUSH1 0x3 DUP3 PUSH1 0xFF AND DUP2 SLOAD DUP2 LT PUSH2 0x1078 JUMPI PUSH2 0x1077 PUSH2 0x1C1F JUMP JUMPDEST JUMPDEST SWAP1 PUSH1 0x0 MSTORE PUSH1 0x20 PUSH1 0x0 KECCAK256 SWAP1 PUSH1 0x4 MUL ADD SWAP1 POP DUP1 PUSH1 0x3 ADD PUSH1 0x1 DUP2 DUP2 SWAP1 SLOAD SWAP1 PUSH2 0x100 EXP SWAP1 DIV PUSH2 0xFFFF AND DUP1 SWAP3 SWAP2 SWAP1 PUSH2 0x10AA SWAP1 PUSH2 0x1C7D JUMP JUMPDEST SWAP2 SWAP1 PUSH2 0x100 EXP DUP2 SLOAD DUP2 PUSH2 0xFFFF MUL NOT AND SWAP1 DUP4 PUSH2 0xFFFF AND MUL OR SWAP1 SSTORE POP POP POP POP JUMP JUMPDEST PUSH1 0x4 PUSH1 0x20 MSTORE DUP1 PUSH1 0x0 MSTORE PUSH1 0x40 PUSH1 0x0 KECCAK256 PUSH1 0x0 SWAP2 POP SWAP1 POP DUP1 SLOAD PUSH2 0x10E8 SWAP1 PUSH2 0x1CD6 JUMP JUMPDEST DUP1 PUSH1 0x1F ADD PUSH1 0x20 DUP1 SWAP2 DIV MUL PUSH1 0x20 ADD PUSH1 0x40 MLOAD SWAP1 DUP2 ADD PUSH1 0x40 MSTORE DUP1 SWAP3 SWAP2 SWAP1 DUP2 DUP2 MSTORE PUSH1 0x20 ADD DUP3 DUP1 SLOAD PUSH2 0x1114 SWAP1 PUSH2 0x1CD6 JUMP JUMPDEST DUP1 ISZERO PUSH2 0x1161 JUMPI DUP1 PUSH1 0x1F LT PUSH2 0x1136 JUMPI PUSH2 0x100 DUP1 DUP4 SLOAD DIV MUL DUP4 MSTORE SWAP2 PUSH1 0x20 ADD SWAP2 PUSH2 0x1161 JUMP JUMPDEST DUP3 ADD SWAP2 SWAP1 PUSH1 0x0 MSTORE PUSH1 0x20 PUSH1 0x0 KECCAK256 SWAP1 JUMPDEST DUP2 SLOAD DUP2 MSTORE SWAP1 PUSH1 0x1 ADD SWAP1 PUSH1 0x20 ADD DUP1 DUP4 GT PUSH2 0x1144 JUMPI DUP3 SWAP1 SUB PUSH1 0x1F AND DUP3 ADD SWAP2 JUMPDEST POP POP POP POP POP DUP2 JUMP JUMPDEST PUSH1 0x5 PUSH1 0x20 MSTORE DUP1 PUSH1 0x0 MSTORE PUSH1 0x40 PUSH1 0x0 KECCAK256 PUSH1 0x0 SWAP2 POP SLOAD SWAP1 PUSH2 0x100 EXP SWAP1 DIV PUSH1 0xFF AND DUP2 JUMP JUMPDEST PUSH1 0x7 PUSH1 0x20 MSTORE DUP1 PUSH1 0x0 MSTORE PUSH1 0x40 PUSH1 0x0 KECCAK256 PUSH1 0x0 SWAP2 POP SLOAD SWAP1 PUSH2 0x100 EXP SWAP1 DIV PUSH1 0xFF AND DUP2 JUMP JUMPDEST PUSH2 0x11B1 PUSH2 0x12CF JUMP JUMPDEST PUSH1 0x0 PUSH20 0xFFFFFFFFFFFFFFFFFFFFFFFFFFFFFFFFFFFFFFFF AND DUP2 PUSH20 0xFFFFFFFFFFFFFFFFFFFFFFFFFFFFFFFFFFFFFFFF AND SUB PUSH2 0x1223 JUMPI PUSH1 0x0 PUSH1 0x40 MLOAD PUSH32 0x1E4FBDF700000000000000000000000000000000000000000000000000000000 DUP2 MSTORE PUSH1 0x4 ADD PUSH2 0x121A SWAP2 SWAP1 PUSH2 0x1B15 JUMP JUMPDEST PUSH1 0x40 MLOAD DUP1 SWAP2 SUB SWAP1 REVERT JUMPDEST PUSH2 0x122C DUP2 PUSH2 0x1424 JUMP JUMPDEST POP JUMP JUMPDEST PUSH1 0x6 PUSH1 0x20 MSTORE DUP1 PUSH1 0x0 MSTORE PUSH1 0x40 PUSH1 0x0 KECCAK256 PUSH1 0x0 SWAP2 POP SWAP1 POP DUP1 SLOAD PUSH2 0x124E SWAP1 PUSH2 0x1CD6 JUMP JUMPDEST DUP1 PUSH1 0x1F ADD PUSH1 0x20 DUP1 SWAP2 DIV MUL PUSH1 0x20 ADD PUSH1 0x40 MLOAD SWAP1 DUP2 ADD PUSH1 0x40 MSTORE DUP1 SWAP3 SWAP2 SWAP1 DUP2 DUP2 MSTORE PUSH1 0x20 ADD DUP3 DUP1 SLOAD PUSH2 0x127A SWAP1 PUSH2 0x1CD6 JUMP JUMPDEST DUP1 ISZERO PUSH2 0x12C7 JUMPI DUP1 PUSH1 0x1F LT PUSH2 0x129C JUMPI PUSH2 0x100 DUP1 DUP4 SLOAD DIV MUL DUP4 MSTORE SWAP2 PUSH1 0x20 ADD SWAP2 PUSH2 0x12C7 JUMP JUMPDEST DUP3 ADD SWAP2 SWAP1 PUSH1 0x0 MSTORE PUSH1 0x20 PUSH1 0x0 KECCAK256 SWAP1 JUMPDEST DUP2 SLOAD DUP2 MSTORE SWAP1 PUSH1 0x1 ADD SWAP1 PUSH1 0x20 ADD DUP1 DUP4 GT PUSH2 0x12AA JUMPI DUP3 SWAP1 SUB PUSH1 0x1F AND DUP3 ADD SWAP2 JUMPDEST POP POP POP POP POP DUP2 JUMP JUMPDEST PUSH2 0x12D7 PUSH2 0x14E8 JUMP JUMPDEST PUSH20 0xFFFFFFFFFFFFFFFFFFFFFFFFFFFFFFFFFFFFFFFF AND PUSH2 0x12F5 PUSH2 0x1036 JUMP JUMPDEST PUSH20 0xFFFFFFFFFFFFFFFFFFFFFFFFFFFFFFFFFFFFFFFF AND EQ PUSH2 0x1354 JUMPI PUSH2 0x1318 PUSH2 0x14E8 JUMP JUMPDEST PUSH1 0x40 MLOAD PUSH32 0x118CDAA700000000000000000000000000000000000000000000000000000000 DUP2 MSTORE PUSH1 0x4 ADD PUSH2 0x134B SWAP2 SWAP1 PUSH2 0x1B15 JUMP JUMPDEST PUSH1 0x40 MLOAD DUP1 SWAP2 SUB SWAP1 REVERT JUMPDEST JUMP JUMPDEST PUSH1 0x60 PUSH1 0x0 PUSH1 0x1 PUSH2 0x1365 DUP5 PUSH2 0x14F0 JUMP JUMPDEST ADD SWAP1 POP PUSH1 0x0 DUP2 PUSH8 0xFFFFFFFFFFFFFFFF DUP2 GT ISZERO PUSH2 0x1384 JUMPI PUSH2 0x1383 PUSH2 0x1931 JUMP JUMPDEST JUMPDEST PUSH1 0x40 MLOAD SWAP1 DUP1 DUP3 MSTORE DUP1 PUSH1 0x1F ADD PUSH1 0x1F NOT AND PUSH1 0x20 ADD DUP3 ADD PUSH1 0x40 MSTORE DUP1 ISZERO PUSH2 0x13B6 JUMPI DUP2 PUSH1 0x20 ADD PUSH1 0x1 DUP3 MUL DUP1 CALLDATASIZE DUP4 CALLDATACOPY DUP1 DUP3 ADD SWAP2 POP POP SWAP1 POP JUMPDEST POP SWAP1 POP PUSH1 0x0 DUP3 PUSH1 0x20 ADD DUP3 ADD SWAP1 POP JUMPDEST PUSH1 0x1 ISZERO PUSH2 0x1419 JUMPI DUP1 DUP1 PUSH1 0x1 SWAP1 SUB SWAP2 POP POP PUSH32 0x3031323334353637383961626364656600000000000000000000000000000000 PUSH1 0xA DUP7 MOD BYTE DUP2 MSTORE8 PUSH1 0xA DUP6 DUP2 PUSH2 0x140D JUMPI PUSH2 0x140C PUSH2 0x21F2 JUMP JUMPDEST JUMPDEST DIV SWAP5 POP PUSH1 0x0 DUP6 SUB PUSH2 0x13C4 JUMPI JUMPDEST DUP2 SWAP4 POP POP POP POP SWAP2 SWAP1 POP JUMP JUMPDEST PUSH1 0x0 DUP1 PUSH1 0x0 SWAP1 SLOAD SWAP1 PUSH2 0x100 EXP SWAP1 DIV PUSH20 0xFFFFFFFFFFFFFFFFFFFFFFFFFFFFFFFFFFFFFFFF AND SWAP1 POP DUP2 PUSH1 0x0 DUP1 PUSH2 0x100 EXP DUP2 SLOAD DUP2 PUSH20 0xFFFFFFFFFFFFFFFFFFFFFFFFFFFFFFFFFFFFFFFF MUL NOT AND SWAP1 DUP4 PUSH20 0xFFFFFFFFFFFFFFFFFFFFFFFFFFFFFFFFFFFFFFFF AND MUL OR SWAP1 SSTORE POP DUP2 PUSH20 0xFFFFFFFFFFFFFFFFFFFFFFFFFFFFFFFFFFFFFFFF AND DUP2 PUSH20 0xFFFFFFFFFFFFFFFFFFFFFFFFFFFFFFFFFFFFFFFF AND PUSH32 0x8BE0079C531659141344CD1FD0A4F28419497F9722A3DAAFE3B4186F6B6457E0 PUSH1 0x40 MLOAD PUSH1 0x40 MLOAD DUP1 SWAP2 SUB SWAP1 LOG3 POP POP JUMP JUMPDEST PUSH1 0x0 CALLER SWAP1 POP SWAP1 JUMP JUMPDEST PUSH1 0x0 DUP1 PUSH1 0x0 SWAP1 POP PUSH27 0x184F03E93FF9F4DAA797ED6E38ED64BF6A1F010000000000000000 DUP4 LT PUSH2 0x154E JUMPI PUSH27 0x184F03E93FF9F4DAA797ED6E38ED64BF6A1F010000000000000000 DUP4 DUP2 PUSH2 0x1544 JUMPI PUSH2 0x1543 PUSH2 0x21F2 JUMP JUMPDEST JUMPDEST DIV SWAP3 POP PUSH1 0x40 DUP2 ADD SWAP1 POP JUMPDEST PUSH14 0x4EE2D6D415B85ACEF8100000000 DUP4 LT PUSH2 0x158B JUMPI PUSH14 0x4EE2D6D415B85ACEF8100000000 DUP4 DUP2 PUSH2 0x1581 JUMPI PUSH2 0x1580 PUSH2 0x21F2 JUMP JUMPDEST JUMPDEST DIV SWAP3 POP PUSH1 0x20 DUP2 ADD SWAP1 POP JUMPDEST PUSH7 0x2386F26FC10000 DUP4 LT PUSH2 0x15BA JUMPI PUSH7 0x2386F26FC10000 DUP4 DUP2 PUSH2 0x15B0 JUMPI PUSH2 0x15AF PUSH2 0x21F2 JUMP JUMPDEST JUMPDEST DIV SWAP3 POP PUSH1 0x10 DUP2 ADD SWAP1 POP JUMPDEST PUSH4 0x5F5E100 DUP4 LT PUSH2 0x15E3 JUMPI PUSH4 0x5F5E100 DUP4 DUP2 PUSH2 0x15D9 JUMPI PUSH2 0x15D8 PUSH2 0x21F2 JUMP JUMPDEST JUMPDEST DIV SWAP3 POP PUSH1 0x8 DUP2 ADD SWAP1 POP JUMPDEST PUSH2 0x2710 DUP4 LT PUSH2 0x1608 JUMPI PUSH2 0x2710 DUP4 DUP2 PUSH2 0x15FE JUMPI PUSH2 0x15FD PUSH2 0x21F2 JUMP JUMPDEST JUMPDEST DIV SWAP3 POP PUSH1 0x4 DUP2 ADD SWAP1 POP JUMPDEST PUSH1 0x64 DUP4 LT PUSH2 0x162B JUMPI PUSH1 0x64 DUP4 DUP2 PUSH2 0x1621 JUMPI PUSH2 0x1620 PUSH2 0x21F2 JUMP JUMPDEST JUMPDEST DIV SWAP3 POP PUSH1 0x2 DUP2 ADD SWAP1 POP JUMPDEST PUSH1 0xA DUP4 LT PUSH2 0x163A JUMPI PUSH1 0x1 DUP2 ADD SWAP1 POP JUMPDEST DUP1 SWAP2 POP POP SWAP2 SWAP1 POP JUMP JUMPDEST POP DUP1 SLOAD PUSH2 0x164F SWAP1 PUSH2 0x1CD6 JUMP JUMPDEST PUSH1 0x0 DUP3 SSTORE DUP1 PUSH1 0x1F LT PUSH2 0x1661 JUMPI POP PUSH2 0x1680 JUMP JUMPDEST PUSH1 0x1F ADD PUSH1 0x20 SWAP1 DIV SWAP1 PUSH1 0x0 MSTORE PUSH1 0x20 PUSH1 0x0 KECCAK256 SWAP1 DUP2 ADD SWAP1 PUSH2 0x167F SWAP2 SWAP1 PUSH2 0x1683 JUMP JUMPDEST JUMPDEST POP JUMP JUMPDEST JUMPDEST DUP1 DUP3 GT ISZERO PUSH2 0x169C JUMPI PUSH1 0x0 DUP2 PUSH1 0x0 SWAP1 SSTORE POP PUSH1 0x1 ADD PUSH2 0x1684 JUMP JUMPDEST POP SWAP1 JUMP JUMPDEST PUSH1 0x0 PUSH16 0xFFFFFFFFFFFFFFFFFFFFFFFFFFFFFFFF DUP3 AND SWAP1 POP SWAP2 SWAP1 POP JUMP JUMPDEST PUSH2 0x16C5 DUP2 PUSH2 0x16A0 JUMP JUMPDEST DUP3 MSTORE POP POP JUMP JUMPDEST PUSH1 0x0 PUSH1 0x20 DUP3 ADD SWAP1 POP PUSH2 0x16E0 PUSH1 0x0 DUP4 ADD DUP5 PUSH2 0x16BC JUMP JUMPDEST SWAP3 SWAP2 POP POP JUMP JUMPDEST PUSH1 0x0 PUSH1 0x40 MLOAD SWAP1 POP SWAP1 JUMP JUMPDEST PUSH1 0x0 DUP1 REVERT JUMPDEST PUSH1 0x0 DUP1 REVERT JUMPDEST PUSH1 0x0 PUSH1 0xFF DUP3 AND SWAP1 POP SWAP2 SWAP1 POP JUMP JUMPDEST PUSH2 0x1710 DUP2 PUSH2 0x16FA JUMP JUMPDEST DUP2 EQ PUSH2 0x171B JUMPI PUSH1 0x0 DUP1 REVERT JUMPDEST POP JUMP JUMPDEST PUSH1 0x0 DUP2 CALLDATALOAD SWAP1 POP PUSH2 0x172D DUP2 PUSH2 0x1707 JUMP JUMPDEST SWAP3 SWAP2 POP POP JUMP JUMPDEST PUSH1 0x0 DUP1 PUSH1 0x40 DUP4 DUP6 SUB SLT ISZERO PUSH2 0x174A JUMPI PUSH2 0x1749 PUSH2 0x16F0 JUMP JUMPDEST JUMPDEST PUSH1 0x0 PUSH2 0x1758 DUP6 DUP3 DUP7 ADD PUSH2 0x171E JUMP JUMPDEST SWAP3 POP POP PUSH1 0x20 PUSH2 0x1769 DUP6 DUP3 DUP7 ADD PUSH2 0x171E JUMP JUMPDEST SWAP2 POP POP SWAP3 POP SWAP3 SWAP1 POP JUMP JUMPDEST PUSH1 0x0 PUSH1 0x20 DUP3 DUP5 SUB SLT ISZERO PUSH2 0x1789 JUMPI PUSH2 0x1788 PUSH2 0x16F0 JUMP JUMPDEST JUMPDEST PUSH1 0x0 PUSH2 0x1797 DUP5 DUP3 DUP6 ADD PUSH2 0x171E JUMP JUMPDEST SWAP2 POP POP SWAP3 SWAP2 POP POP JUMP JUMPDEST PUSH1 0x0 DUP2 SWAP1 POP SWAP2 SWAP1 POP JUMP JUMPDEST PUSH2 0x17B3 DUP2 PUSH2 0x17A0 JUMP JUMPDEST DUP2 EQ PUSH2 0x17BE JUMPI PUSH1 0x0 DUP1 REVERT JUMPDEST POP JUMP JUMPDEST PUSH1 0x0 DUP2 CALLDATALOAD SWAP1 POP PUSH2 0x17D0 DUP2 PUSH2 0x17AA JUMP JUMPDEST SWAP3 SWAP2 POP POP JUMP JUMPDEST PUSH1 0x0 PUSH1 0x20 DUP3 DUP5 SUB SLT ISZERO PUSH2 0x17EC JUMPI PUSH2 0x17EB PUSH2 0x16F0 JUMP JUMPDEST JUMPDEST PUSH1 0x0 PUSH2 0x17FA DUP5 DUP3 DUP6 ADD PUSH2 0x17C1 JUMP JUMPDEST SWAP2 POP POP SWAP3 SWAP2 POP POP JUMP JUMPDEST PUSH1 0x0 DUP2 MLOAD SWAP1 POP SWAP2 SWAP1 POP JUMP JUMPDEST PUSH1 0x0 DUP3 DUP3 MSTORE PUSH1 0x20 DUP3 ADD SWAP1 POP SWAP3 SWAP2 POP POP JUMP JUMPDEST PUSH1 0x0 JUMPDEST DUP4 DUP2 LT ISZERO PUSH2 0x183D JUMPI DUP1 DUP3 ADD MLOAD DUP2 DUP5 ADD MSTORE PUSH1 0x20 DUP2 ADD SWAP1 POP PUSH2 0x1822 JUMP JUMPDEST PUSH1 0x0 DUP5 DUP5 ADD MSTORE POP POP POP POP JUMP JUMPDEST PUSH1 0x0 PUSH1 0x1F NOT PUSH1 0x1F DUP4 ADD AND SWAP1 POP SWAP2 SWAP1 POP JUMP JUMPDEST PUSH1 0x0 PUSH2 0x1865 DUP3 PUSH2 0x1803 JUMP JUMPDEST PUSH2 0x186F DUP2 DUP6 PUSH2 0x180E JUMP JUMPDEST SWAP4 POP PUSH2 0x187F DUP2 DUP6 PUSH1 0x20 DUP7 ADD PUSH2 0x181F JUMP JUMPDEST PUSH2 0x1888 DUP2 PUSH2 0x1849 JUMP JUMPDEST DUP5 ADD SWAP2 POP POP SWAP3 SWAP2 POP POP JUMP JUMPDEST PUSH2 0x189C DUP2 PUSH2 0x16FA JUMP JUMPDEST DUP3 MSTORE POP POP JUMP JUMPDEST PUSH1 0x0 PUSH2 0xFFFF DUP3 AND SWAP1 POP SWAP2 SWAP1 POP JUMP JUMPDEST PUSH2 0x18B9 DUP2 PUSH2 0x18A2 JUMP JUMPDEST DUP3 MSTORE POP POP JUMP JUMPDEST PUSH1 0x0 PUSH1 0xA0 DUP3 ADD SWAP1 POP DUP2 DUP2 SUB PUSH1 0x0 DUP4 ADD MSTORE PUSH2 0x18D9 DUP2 DUP9 PUSH2 0x185A JUMP JUMPDEST SWAP1 POP DUP2 DUP2 SUB PUSH1 0x20 DUP4 ADD MSTORE PUSH2 0x18ED DUP2 DUP8 PUSH2 0x185A JUMP JUMPDEST SWAP1 POP DUP2 DUP2 SUB PUSH1 0x40 DUP4 ADD MSTORE PUSH2 0x1901 DUP2 DUP7 PUSH2 0x185A JUMP JUMPDEST SWAP1 POP PUSH2 0x1910 PUSH1 0x60 DUP4 ADD DUP6 PUSH2 0x1893 JUMP JUMPDEST PUSH2 0x191D PUSH1 0x80 DUP4 ADD DUP5 PUSH2 0x18B0 JUMP JUMPDEST SWAP7 SWAP6 POP POP POP POP POP POP JUMP JUMPDEST PUSH1 0x0 DUP1 REVERT JUMPDEST PUSH1 0x0 DUP1 REVERT JUMPDEST PUSH32 0x4E487B7100000000000000000000000000000000000000000000000000000000 PUSH1 0x0 MSTORE PUSH1 0x41 PUSH1 0x4 MSTORE PUSH1 0x24 PUSH1 0x0 REVERT JUMPDEST PUSH2 0x1969 DUP3 PUSH2 0x1849 JUMP JUMPDEST DUP2 ADD DUP2 DUP2 LT PUSH8 0xFFFFFFFFFFFFFFFF DUP3 GT OR ISZERO PUSH2 0x1988 JUMPI PUSH2 0x1987 PUSH2 0x1931 JUMP JUMPDEST JUMPDEST DUP1 PUSH1 0x40 MSTORE POP POP POP JUMP JUMPDEST PUSH1 0x0 PUSH2 0x199B PUSH2 0x16E6 JUMP JUMPDEST SWAP1 POP PUSH2 0x19A7 DUP3 DUP3 PUSH2 0x1960 JUMP JUMPDEST SWAP2 SWAP1 POP JUMP JUMPDEST PUSH1 0x0 PUSH8 0xFFFFFFFFFFFFFFFF DUP3 GT ISZERO PUSH2 0x19C7 JUMPI PUSH2 0x19C6 PUSH2 0x1931 JUMP JUMPDEST JUMPDEST PUSH2 0x19D0 DUP3 PUSH2 0x1849 JUMP JUMPDEST SWAP1 POP PUSH1 0x20 DUP2 ADD SWAP1 POP SWAP2 SWAP1 POP JUMP JUMPDEST DUP3 DUP2 DUP4 CALLDATACOPY PUSH1 0x0 DUP4 DUP4 ADD MSTORE POP POP POP JUMP JUMPDEST PUSH1 0x0 PUSH2 0x19FF PUSH2 0x19FA DUP5 PUSH2 0x19AC JUMP JUMPDEST PUSH2 0x1991 JUMP JUMPDEST SWAP1 POP DUP3 DUP2 MSTORE PUSH1 0x20 DUP2 ADD DUP5 DUP5 DUP5 ADD GT ISZERO PUSH2 0x1A1B JUMPI PUSH2 0x1A1A PUSH2 0x192C JUMP JUMPDEST JUMPDEST PUSH2 0x1A26 DUP5 DUP3 DUP6 PUSH2 0x19DD JUMP JUMPDEST POP SWAP4 SWAP3 POP POP POP JUMP JUMPDEST PUSH1 0x0 DUP3 PUSH1 0x1F DUP4 ADD SLT PUSH2 0x1A43 JUMPI PUSH2 0x1A42 PUSH2 0x1927 JUMP JUMPDEST JUMPDEST DUP2 CALLDATALOAD PUSH2 0x1A53 DUP5 DUP3 PUSH1 0x20 DUP7 ADD PUSH2 0x19EC JUMP JUMPDEST SWAP2 POP POP SWAP3 SWAP2 POP POP JUMP JUMPDEST PUSH1 0x0 DUP1 PUSH1 0x40 DUP4 DUP6 SUB SLT ISZERO PUSH2 0x1A73 JUMPI PUSH2 0x1A72 PUSH2 0x16F0 JUMP JUMPDEST JUMPDEST PUSH1 0x0 DUP4 ADD CALLDATALOAD PUSH8 0xFFFFFFFFFFFFFFFF DUP2 GT ISZERO PUSH2 0x1A91 JUMPI PUSH2 0x1A90 PUSH2 0x16F5 JUMP JUMPDEST JUMPDEST PUSH2 0x1A9D DUP6 DUP3 DUP7 ADD PUSH2 0x1A2E JUMP JUMPDEST SWAP3 POP POP PUSH1 0x20 DUP4 ADD CALLDATALOAD PUSH8 0xFFFFFFFFFFFFFFFF DUP2 GT ISZERO PUSH2 0x1ABE JUMPI PUSH2 0x1ABD PUSH2 0x16F5 JUMP JUMPDEST JUMPDEST PUSH2 0x1ACA DUP6 DUP3 DUP7 ADD PUSH2 0x1A2E JUMP JUMPDEST SWAP2 POP POP SWAP3 POP SWAP3 SWAP1 POP JUMP JUMPDEST PUSH1 0x0 PUSH20 0xFFFFFFFFFFFFFFFFFFFFFFFFFFFFFFFFFFFFFFFF DUP3 AND SWAP1 POP SWAP2 SWAP1 POP JUMP JUMPDEST PUSH1 0x0 PUSH2 0x1AFF DUP3 PUSH2 0x1AD4 JUMP JUMPDEST SWAP1 POP SWAP2 SWAP1 POP JUMP JUMPDEST PUSH2 0x1B0F DUP2 PUSH2 0x1AF4 JUMP JUMPDEST DUP3 MSTORE POP POP JUMP JUMPDEST PUSH1 0x0 PUSH1 0x20 DUP3 ADD SWAP1 POP PUSH2 0x1B2A PUSH1 0x0 DUP4 ADD DUP5 PUSH2 0x1B06 JUMP JUMPDEST SWAP3 SWAP2 POP POP JUMP JUMPDEST PUSH2 0x1B39 DUP2 PUSH2 0x16A0 JUMP JUMPDEST DUP2 EQ PUSH2 0x1B44 JUMPI PUSH1 0x0 DUP1 REVERT JUMPDEST POP JUMP JUMPDEST PUSH1 0x0 DUP2 CALLDATALOAD SWAP1 POP PUSH2 0x1B56 DUP2 PUSH2 0x1B30 JUMP JUMPDEST SWAP3 SWAP2 POP POP JUMP JUMPDEST PUSH1 0x0 PUSH1 0x20 DUP3 DUP5 SUB SLT ISZERO PUSH2 0x1B72 JUMPI PUSH2 0x1B71 PUSH2 0x16F0 JUMP JUMPDEST JUMPDEST PUSH1 0x0 PUSH2 0x1B80 DUP5 DUP3 DUP6 ADD PUSH2 0x1B47 JUMP JUMPDEST SWAP2 POP POP SWAP3 SWAP2 POP POP JUMP JUMPDEST PUSH1 0x0 PUSH1 0x20 DUP3 ADD SWAP1 POP DUP2 DUP2 SUB PUSH1 0x0 DUP4 ADD MSTORE PUSH2 0x1BA3 DUP2 DUP5 PUSH2 0x185A JUMP JUMPDEST SWAP1 POP SWAP3 SWAP2 POP POP JUMP JUMPDEST PUSH1 0x0 PUSH1 0x20 DUP3 ADD SWAP1 POP PUSH2 0x1BC0 PUSH1 0x0 DUP4 ADD DUP5 PUSH2 0x1893 JUMP JUMPDEST SWAP3 SWAP2 POP POP JUMP JUMPDEST PUSH2 0x1BCF DUP2 PUSH2 0x1AF4 JUMP JUMPDEST DUP2 EQ PUSH2 0x1BDA JUMPI PUSH1 0x0 DUP1 REVERT JUMPDEST POP JUMP JUMPDEST PUSH1 0x0 DUP2 CALLDATALOAD SWAP1 POP PUSH2 0x1BEC DUP2 PUSH2 0x1BC6 JUMP JUMPDEST SWAP3 SWAP2 POP POP JUMP JUMPDEST PUSH1 0x0 PUSH1 0x20 DUP3 DUP5 SUB SLT ISZERO PUSH2 0x1C08 JUMPI PUSH2 0x1C07 PUSH2 0x16F0 JUMP JUMPDEST JUMPDEST PUSH1 0x0 PUSH2 0x1C16 DUP5 DUP3 DUP6 ADD PUSH2 0x1BDD JUMP JUMPDEST SWAP2 POP POP SWAP3 SWAP2 POP POP JUMP JUMPDEST PUSH32 0x4E487B7100000000000000000000000000000000000000000000000000000000 PUSH1 0x0 MSTORE PUSH1 0x32 PUSH1 0x4 MSTORE PUSH1 0x24 PUSH1 0x0 REVERT JUMPDEST PUSH32 0x4E487B7100000000000000000000000000000000000000000000000000000000 PUSH1 0x0 MSTORE PUSH1 0x11 PUSH1 0x4 MSTORE PUSH1 0x24 PUSH1 0x0 REVERT JUMPDEST PUSH1 0x0 PUSH2 0x1C88 DUP3 PUSH2 0x18A2 JUMP JUMPDEST SWAP2 POP PUSH2 0xFFFF DUP3 SUB PUSH2 0x1C9C JUMPI PUSH2 0x1C9B PUSH2 0x1C4E JUMP JUMPDEST JUMPDEST PUSH1 0x1 DUP3 ADD SWAP1 POP SWAP2 SWAP1 POP JUMP JUMPDEST PUSH32 0x4E487B7100000000000000000000000000000000000000000000000000000000 PUSH1 0x0 MSTORE PUSH1 0x22 PUSH1 0x4 MSTORE PUSH1 0x24 PUSH1 0x0 REVERT JUMPDEST PUSH1 0x0 PUSH1 0x2 DUP3 DIV SWAP1 POP PUSH1 0x1 DUP3 AND DUP1 PUSH2 0x1CEE JUMPI PUSH1 0x7F DUP3 AND SWAP2 POP JUMPDEST PUSH1 0x20 DUP3 LT DUP2 SUB PUSH2 0x1D01 JUMPI PUSH2 0x1D00 PUSH2 0x1CA7 JUMP JUMPDEST JUMPDEST POP SWAP2 SWAP1 POP JUMP JUMPDEST PUSH32 0x49522D0000000000000000000000000000000000000000000000000000000000 DUP2 MSTORE POP JUMP JUMPDEST PUSH1 0x0 DUP2 SWAP1 POP SWAP3 SWAP2 POP POP JUMP JUMPDEST PUSH1 0x0 PUSH2 0x1D43 DUP3 PUSH2 0x1803 JUMP JUMPDEST PUSH2 0x1D4D DUP2 DUP6 PUSH2 0x1D2D JUMP JUMPDEST SWAP4 POP PUSH2 0x1D5D DUP2 DUP6 PUSH1 0x20 DUP7 ADD PUSH2 0x181F JUMP JUMPDEST DUP1 DUP5 ADD SWAP2 POP POP SWAP3 SWAP2 POP POP JUMP JUMPDEST PUSH1 0x0 PUSH2 0x1D74 DUP3 PUSH2 0x1D07 JUMP JUMPDEST PUSH1 0x3 DUP3 ADD SWAP2 POP PUSH2 0x1D84 DUP3 DUP5 PUSH2 0x1D38 JUMP JUMPDEST SWAP2 POP DUP2 SWAP1 POP SWAP3 SWAP2 POP POP JUMP JUMPDEST PUSH1 0x0 DUP2 SWAP1 POP DUP2 PUSH1 0x0 MSTORE PUSH1 0x20 PUSH1 0x0 KECCAK256 SWAP1 POP SWAP2 SWAP1 POP JUMP JUMPDEST PUSH1 0x0 PUSH1 0x20 PUSH1 0x1F DUP4 ADD DIV SWAP1 POP SWAP2 SWAP1 POP JUMP JUMPDEST PUSH1 0x0 DUP3 DUP3 SHL SWAP1 POP SWAP3 SWAP2 POP POP JUMP JUMPDEST PUSH1 0x0 PUSH1 0x8 DUP4 MUL PUSH2 0x1DF1 PUSH32 0xFFFFFFFFFFFFFFFFFFFFFFFFFFFFFFFFFFFFFFFFFFFFFFFFFFFFFFFFFFFFFFFF DUP3 PUSH2 0x1DB4 JUMP JUMPDEST PUSH2 0x1DFB DUP7 DUP4 PUSH2 0x1DB4 JUMP JUMPDEST SWAP6 POP DUP1 NOT DUP5 AND SWAP4 POP DUP1 DUP7 AND DUP5 OR SWAP3 POP POP POP SWAP4 SWAP3 POP POP POP JUMP JUMPDEST PUSH1 0x0 DUP2 SWAP1 POP SWAP2 SWAP1 POP JUMP JUMPDEST PUSH1 0x0 PUSH2 0x1E38 PUSH2 0x1E33 PUSH2 0x1E2E DUP5 PUSH2 0x17A0 JUMP JUMPDEST PUSH2 0x1E13 JUMP JUMPDEST PUSH2 0x17A0 JUMP JUMPDEST SWAP1 POP SWAP2 SWAP1 POP JUMP JUMPDEST PUSH1 0x0 DUP2 SWAP1 POP SWAP2 SWAP1 POP JUMP JUMPDEST PUSH2 0x1E52 DUP4 PUSH2 0x1E1D JUMP JUMPDEST PUSH2 0x1E66 PUSH2 0x1E5E DUP3 PUSH2 0x1E3F JUMP JUMPDEST DUP5 DUP5 SLOAD PUSH2 0x1DC1 JUMP JUMPDEST DUP3 SSTORE POP POP POP POP JUMP JUMPDEST PUSH1 0x0 SWAP1 JUMP JUMPDEST PUSH2 0x1E7B PUSH2 0x1E6E JUMP JUMPDEST PUSH2 0x1E86 DUP2 DUP5 DUP5 PUSH2 0x1E49 JUMP JUMPDEST POP POP POP JUMP JUMPDEST JUMPDEST DUP2 DUP2 LT ISZERO PUSH2 0x1EAA JUMPI PUSH2 0x1E9F PUSH1 0x0 DUP3 PUSH2 0x1E73 JUMP JUMPDEST PUSH1 0x1 DUP2 ADD SWAP1 POP PUSH2 0x1E8C JUMP JUMPDEST POP POP JUMP JUMPDEST PUSH1 0x1F DUP3 GT ISZERO PUSH2 0x1EEF JUMPI PUSH2 0x1EC0 DUP2 PUSH2 0x1D8F JUMP JUMPDEST PUSH2 0x1EC9 DUP5 PUSH2 0x1DA4 JUMP JUMPDEST DUP2 ADD PUSH1 0x20 DUP6 LT ISZERO PUSH2 0x1ED8 JUMPI DUP2 SWAP1 POP JUMPDEST PUSH2 0x1EEC PUSH2 0x1EE4 DUP6 PUSH2 0x1DA4 JUMP JUMPDEST DUP4 ADD DUP3 PUSH2 0x1E8B JUMP JUMPDEST POP POP JUMPDEST POP POP POP JUMP JUMPDEST PUSH1 0x0 DUP3 DUP3 SHR SWAP1 POP SWAP3 SWAP2 POP POP JUMP JUMPDEST PUSH1 0x0 PUSH2 0x1F12 PUSH1 0x0 NOT DUP5 PUSH1 0x8 MUL PUSH2 0x1EF4 JUMP JUMPDEST NOT DUP1 DUP4 AND SWAP2 POP POP SWAP3 SWAP2 POP POP JUMP JUMPDEST PUSH1 0x0 PUSH2 0x1F2B DUP4 DUP4 PUSH2 0x1F01 JUMP JUMPDEST SWAP2 POP DUP3 PUSH1 0x2 MUL DUP3 OR SWAP1 POP SWAP3 SWAP2 POP POP JUMP JUMPDEST PUSH2 0x1F44 DUP3 PUSH2 0x1803 JUMP JUMPDEST PUSH8 0xFFFFFFFFFFFFFFFF DUP2 GT ISZERO PUSH2 0x1F5D JUMPI PUSH2 0x1F5C PUSH2 0x1931 JUMP JUMPDEST JUMPDEST PUSH2 0x1F67 DUP3 SLOAD PUSH2 0x1CD6 JUMP JUMPDEST PUSH2 0x1F72 DUP3 DUP3 DUP6 PUSH2 0x1EAE JUMP JUMPDEST PUSH1 0x0 PUSH1 0x20 SWAP1 POP PUSH1 0x1F DUP4 GT PUSH1 0x1 DUP2 EQ PUSH2 0x1FA5 JUMPI PUSH1 0x0 DUP5 ISZERO PUSH2 0x1F93 JUMPI DUP3 DUP8 ADD MLOAD SWAP1 POP JUMPDEST PUSH2 0x1F9D DUP6 DUP3 PUSH2 0x1F1F JUMP JUMPDEST DUP7 SSTORE POP PUSH2 0x2005 JUMP JUMPDEST PUSH1 0x1F NOT DUP5 AND PUSH2 0x1FB3 DUP7 PUSH2 0x1D8F JUMP JUMPDEST PUSH1 0x0 JUMPDEST DUP3 DUP2 LT ISZERO PUSH2 0x1FDB JUMPI DUP5 DUP10 ADD MLOAD DUP3 SSTORE PUSH1 0x1 DUP3 ADD SWAP2 POP PUSH1 0x20 DUP6 ADD SWAP5 POP PUSH1 0x20 DUP2 ADD SWAP1 POP PUSH2 0x1FB6 JUMP JUMPDEST DUP7 DUP4 LT ISZERO PUSH2 0x1FF8 JUMPI DUP5 DUP10 ADD MLOAD PUSH2 0x1FF4 PUSH1 0x1F DUP10 AND DUP3 PUSH2 0x1F01 JUMP JUMPDEST DUP4 SSTORE POP JUMPDEST PUSH1 0x1 PUSH1 0x2 DUP9 MUL ADD DUP9 SSTORE POP POP POP JUMPDEST POP POP POP POP POP POP JUMP JUMPDEST PUSH1 0x0 PUSH2 0x2018 DUP3 PUSH2 0x16A0 JUMP JUMPDEST SWAP2 POP PUSH16 0xFFFFFFFFFFFFFFFFFFFFFFFFFFFFFFFF DUP3 SUB PUSH2 0x203A JUMPI PUSH2 0x2039 PUSH2 0x1C4E JUMP JUMPDEST JUMPDEST PUSH1 0x1 DUP3 ADD SWAP1 POP SWAP2 SWAP1 POP JUMP JUMPDEST PUSH1 0x0 PUSH2 0x2050 DUP3 PUSH2 0x17A0 JUMP JUMPDEST SWAP2 POP PUSH2 0x205B DUP4 PUSH2 0x17A0 JUMP JUMPDEST SWAP3 POP DUP3 DUP3 SUB SWAP1 POP DUP2 DUP2 GT ISZERO PUSH2 0x2073 JUMPI PUSH2 0x2072 PUSH2 0x1C4E JUMP JUMPDEST JUMPDEST SWAP3 SWAP2 POP POP JUMP JUMPDEST PUSH1 0x0 DUP2 SLOAD SWAP1 POP PUSH2 0x2088 DUP2 PUSH2 0x1CD6 JUMP JUMPDEST SWAP1 POP SWAP2 SWAP1 POP JUMP JUMPDEST DUP2 DUP2 SUB PUSH2 0x209D JUMPI POP POP PUSH2 0x2175 JUMP JUMPDEST PUSH2 0x20A6 DUP3 PUSH2 0x2079 JUMP JUMPDEST PUSH8 0xFFFFFFFFFFFFFFFF DUP2 GT ISZERO PUSH2 0x20BF JUMPI PUSH2 0x20BE PUSH2 0x1931 JUMP JUMPDEST JUMPDEST PUSH2 0x20C9 DUP3 SLOAD PUSH2 0x1CD6 JUMP JUMPDEST PUSH2 0x20D4 DUP3 DUP3 DUP6 PUSH2 0x1EAE JUMP JUMPDEST PUSH1 0x0 PUSH1 0x1F DUP4 GT PUSH1 0x1 DUP2 EQ PUSH2 0x2103 JUMPI PUSH1 0x0 DUP5 ISZERO PUSH2 0x20F1 JUMPI DUP3 DUP8 ADD SLOAD SWAP1 POP JUMPDEST PUSH2 0x20FB DUP6 DUP3 PUSH2 0x1F1F JUMP JUMPDEST DUP7 SSTORE POP PUSH2 0x216E JUMP JUMPDEST PUSH1 0x1F NOT DUP5 AND PUSH2 0x2111 DUP8 PUSH2 0x1D8F JUMP JUMPDEST SWAP7 POP PUSH2 0x211C DUP7 PUSH2 0x1D8F JUMP JUMPDEST PUSH1 0x0 JUMPDEST DUP3 DUP2 LT ISZERO PUSH2 0x2144 JUMPI DUP5 DUP10 ADD SLOAD DUP3 SSTORE PUSH1 0x1 DUP3 ADD SWAP2 POP PUSH1 0x1 DUP6 ADD SWAP5 POP PUSH1 0x20 DUP2 ADD SWAP1 POP PUSH2 0x211F JUMP JUMPDEST DUP7 DUP4 LT ISZERO PUSH2 0x2161 JUMPI DUP5 DUP10 ADD SLOAD PUSH2 0x215D PUSH1 0x1F DUP10 AND DUP3 PUSH2 0x1F01 JUMP JUMPDEST DUP4 SSTORE POP JUMPDEST PUSH1 0x1 PUSH1 0x2 DUP9 MUL ADD DUP9 SSTORE POP POP POP JUMPDEST POP POP POP POP POP POP JUMPDEST JUMP JUMPDEST PUSH32 0x4E487B7100000000000000000000000000000000000000000000000000000000 PUSH1 0x0 MSTORE PUSH1 0x31 PUSH1 0x4 MSTORE PUSH1 0x24 PUSH1 0x0 REVERT JUMPDEST PUSH32 0x50522D0000000000000000000000000000000000000000000000000000000000 DUP2 MSTORE POP JUMP JUMPDEST PUSH1 0x0 PUSH2 0x21D7 DUP3 PUSH2 0x21A6 JUMP JUMPDEST PUSH1 0x3 DUP3 ADD SWAP2 POP PUSH2 0x21E7 DUP3 DUP5 PUSH2 0x1D38 JUMP JUMPDEST SWAP2 POP DUP2 SWAP1 POP SWAP3 SWAP2 POP POP JUMP JUMPDEST PUSH32 0x4E487B7100000000000000000000000000000000000000000000000000000000 PUSH1 0x0 MSTORE PUSH1 0x12 PUSH1 0x4 MSTORE PUSH1 0x24 PUSH1 0x0 REVERT INVALID LOG2 PUSH5 0x6970667358 0x22 SLT KECCAK256 SWAP8 PUSH6 0x79ABE87FA588 SWAP3 LOG0 PUSH25 0x97B2654E50574C7A4274C777804B1B7DAFA4F9DE4064736F6C PUSH4 0x43000814 STOP CALLER "
		},
		"gasEstimates": {
			"creation": {
				"codeDepositCost": "1758200",
				"executionCost": "infinite",
				"totalCost": "infinite"
			},
			"external": {
				"addNewIntegration(string,string)": "infinite",
				"addNewIssue(string,string)": "infinite",
				"getIntegrationStatusFromID(uint128)": "2846",
				"getIssueStatusFromID(uint128)": "2868",
				"getIssueTitleFromID(uint128)": "infinite",
				"getProjectFromID(uint128)": "infinite",
				"integrationIndex()": "2495",
				"issueIndex()": "2610",
				"listOfIntegrations(uint256)": "infinite",
				"listOfIssues(uint256)": "infinite",
				"owner()": "2611",
				"removeIntegration(uint8)": "infinite",
				"removeProblemReport(uint8)": "infinite",
				"renounceOwnership()": "infinite",
				"transferOwnership(address)": "infinite",
				"upVoteIR(uint8)": "29373",
				"upVotePR(uint8)": "29394",
				"updateIRStatus(uint8,uint8)": "infinite",
				"updatePRStatus(uint8,uint8)": "infinite"
			}
		},
		"methodIdentifiers": {
			"addNewIntegration(string,string)": "5b1214ad",
			"addNewIssue(string,string)": "87825aef",
			"getIntegrationStatusFromID(uint128)": "aad86fe7",
			"getIssueStatusFromID(uint128)": "c09d926c",
			"getIssueTitleFromID(uint128)": "feee10b0",
			"getProjectFromID(uint128)": "9b03c9cf",
			"integrationIndex()": "2bd10f6b",
			"issueIndex()": "6a28f828",
			"listOfIntegrations(uint256)": "7d0487ff",
			"listOfIssues(uint256)": "45da5158",
			"owner()": "8da5cb5b",
			"removeIntegration(uint8)": "7f18523f",
			"removeProblemReport(uint8)": "5c046276",
			"renounceOwnership()": "715018a6",
			"transferOwnership(address)": "f2fde38b",
			"upVoteIR(uint8)": "3d72eff2",
			"upVotePR(uint8)": "8e6a0fd4",
			"updateIRStatus(uint8,uint8)": "35a2b638",
			"updatePRStatus(uint8,uint8)": "348aa3bd"
		}
	},
	"abi": [
		{
			"inputs": [],
			"stateMutability": "nonpayable",
			"type": "constructor"
		},
		{
			"inputs": [
				{
					"internalType": "address",
					"name": "owner",
					"type": "address"
				}
			],
			"name": "OwnableInvalidOwner",
			"type": "error"
		},
		{
			"inputs": [
				{
					"internalType": "address",
					"name": "account",
					"type": "address"
				}
			],
			"name": "OwnableUnauthorizedAccount",
			"type": "error"
		},
		{
			"anonymous": false,
			"inputs": [
				{
					"indexed": true,
					"internalType": "address",
					"name": "previousOwner",
					"type": "address"
				},
				{
					"indexed": true,
					"internalType": "address",
					"name": "newOwner",
					"type": "address"
				}
			],
			"name": "OwnershipTransferred",
			"type": "event"
		},
		{
			"inputs": [
				{
					"internalType": "string",
					"name": "_projectName",
					"type": "string"
				},
				{
					"internalType": "string",
					"name": "_description",
					"type": "string"
				}
			],
			"name": "addNewIntegration",
			"outputs": [],
			"stateMutability": "nonpayable",
			"type": "function"
		},
		{
			"inputs": [
				{
					"internalType": "string",
					"name": "_issueTitle",
					"type": "string"
				},
				{
					"internalType": "string",
					"name": "_issueDescription",
					"type": "string"
				}
			],
			"name": "addNewIssue",
			"outputs": [],
			"stateMutability": "nonpayable",
			"type": "function"
		},
		{
			"inputs": [
				{
					"internalType": "uint128",
					"name": "",
					"type": "uint128"
				}
			],
			"name": "getIntegrationStatusFromID",
			"outputs": [
				{
					"internalType": "uint8",
					"name": "",
					"type": "uint8"
				}
			],
			"stateMutability": "view",
			"type": "function"
		},
		{
			"inputs": [
				{
					"internalType": "uint128",
					"name": "",
					"type": "uint128"
				}
			],
			"name": "getIssueStatusFromID",
			"outputs": [
				{
					"internalType": "uint8",
					"name": "",
					"type": "uint8"
				}
			],
			"stateMutability": "view",
			"type": "function"
		},
		{
			"inputs": [
				{
					"internalType": "uint128",
					"name": "",
					"type": "uint128"
				}
			],
			"name": "getIssueTitleFromID",
			"outputs": [
				{
					"internalType": "string",
					"name": "",
					"type": "string"
				}
			],
			"stateMutability": "view",
			"type": "function"
		},
		{
			"inputs": [
				{
					"internalType": "uint128",
					"name": "",
					"type": "uint128"
				}
			],
			"name": "getProjectFromID",
			"outputs": [
				{
					"internalType": "string",
					"name": "",
					"type": "string"
				}
			],
			"stateMutability": "view",
			"type": "function"
		},
		{
			"inputs": [],
			"name": "integrationIndex",
			"outputs": [
				{
					"internalType": "uint128",
					"name": "",
					"type": "uint128"
				}
			],
			"stateMutability": "view",
			"type": "function"
		},
		{
			"inputs": [],
			"name": "issueIndex",
			"outputs": [
				{
					"internalType": "uint128",
					"name": "",
					"type": "uint128"
				}
			],
			"stateMutability": "view",
			"type": "function"
		},
		{
			"inputs": [
				{
					"internalType": "uint256",
					"name": "",
					"type": "uint256"
				}
			],
			"name": "listOfIntegrations",
			"outputs": [
				{
					"internalType": "string",
					"name": "uniqueIDString",
					"type": "string"
				},
				{
					"internalType": "string",
					"name": "title",
					"type": "string"
				},
				{
					"internalType": "string",
					"name": "description",
					"type": "string"
				},
				{
					"internalType": "uint8",
					"name": "status",
					"type": "uint8"
				},
				{
					"internalType": "uint16",
					"name": "voteCount",
					"type": "uint16"
				}
			],
			"stateMutability": "view",
			"type": "function"
		},
		{
			"inputs": [
				{
					"internalType": "uint256",
					"name": "",
					"type": "uint256"
				}
			],
			"name": "listOfIssues",
			"outputs": [
				{
					"internalType": "string",
					"name": "uniqueIDString",
					"type": "string"
				},
				{
					"internalType": "string",
					"name": "title",
					"type": "string"
				},
				{
					"internalType": "string",
					"name": "description",
					"type": "string"
				},
				{
					"internalType": "uint8",
					"name": "status",
					"type": "uint8"
				},
				{
					"internalType": "uint16",
					"name": "voteCount",
					"type": "uint16"
				}
			],
			"stateMutability": "view",
			"type": "function"
		},
		{
			"inputs": [],
			"name": "owner",
			"outputs": [
				{
					"internalType": "address",
					"name": "",
					"type": "address"
				}
			],
			"stateMutability": "view",
			"type": "function"
		},
		{
			"inputs": [
				{
					"internalType": "uint8",
					"name": "_integrationIndex",
					"type": "uint8"
				}
			],
			"name": "removeIntegration",
			"outputs": [],
			"stateMutability": "nonpayable",
			"type": "function"
		},
		{
			"inputs": [
				{
					"internalType": "uint8",
					"name": "_problemReportIndex",
					"type": "uint8"
				}
			],
			"name": "removeProblemReport",
			"outputs": [],
			"stateMutability": "nonpayable",
			"type": "function"
		},
		{
			"inputs": [],
			"name": "renounceOwnership",
			"outputs": [],
			"stateMutability": "nonpayable",
			"type": "function"
		},
		{
			"inputs": [
				{
					"internalType": "address",
					"name": "newOwner",
					"type": "address"
				}
			],
			"name": "transferOwnership",
			"outputs": [],
			"stateMutability": "nonpayable",
			"type": "function"
		},
		{
			"inputs": [
				{
					"internalType": "uint8",
					"name": "_integrationIndex",
					"type": "uint8"
				}
			],
			"name": "upVoteIR",
			"outputs": [],
			"stateMutability": "nonpayable",
			"type": "function"
		},
		{
			"inputs": [
				{
					"internalType": "uint8",
					"name": "_problemReportIndex",
					"type": "uint8"
				}
			],
			"name": "upVotePR",
			"outputs": [],
			"stateMutability": "nonpayable",
			"type": "function"
		},
		{
			"inputs": [
				{
					"internalType": "uint8",
					"name": "_integrationIndex",
					"type": "uint8"
				},
				{
					"internalType": "uint8",
					"name": "_newStatus",
					"type": "uint8"
				}
			],
			"name": "updateIRStatus",
			"outputs": [],
			"stateMutability": "nonpayable",
			"type": "function"
		},
		{
			"inputs": [
				{
					"internalType": "uint8",
					"name": "_problemReportIndex",
					"type": "uint8"
				},
				{
					"internalType": "uint8",
					"name": "_newStatus",
					"type": "uint8"
				}
			],
			"name": "updatePRStatus",
			"outputs": [],
			"stateMutability": "nonpayable",
			"type": "function"
		}
	]
}